:020000040801F1
:100000000080400000000000000000000000000030
:100010002051000000020108000200000000000062
:10002000F3A0DCFFB823106E4F9C6E1AAF3EF7E9C9
:10003000226B4A9F4FEF232F90666355A1B59BD843
:10004000BF8058015555555555555555555555551C
:100050005555555555555555555555555555555550
:100060005555555555555555555555555555555540
:100070005555555555555555555555555555555530
:100080005555555555555555555555555555555520
:100090005555555555555555555555555555555510
:1000A0005555555555555555555555555555555500
:1000B00055555555555555555555555555555555F0
:1000C00055555555555555555555555555555555E0
:1000D00055555555555555555555555555555555D0
:1000E00055555555555555555555555555555555C0
:1000F00055555555555555555555555555555555B0
:10010000555555555555555555555555555555559F
:10011000555555555555555555555555555555558F
:10012000555555555555555555555555555555557F
:10013000555555555555555555555555555555556F
:10014000555555555555555555555555555555555F
:10015000555555555555555555555555555555554F
:10016000555555555555555555555555555555553F
:10017000555555555555555555555555555555552F
:10018000555555555555555555555555555555551F
:100190005555555555555555D080440031BCD4550D
:1001A0002ABBED2B6BB0821E951C2869EE35DAA1B7
:1001B000DC73239AAF338412F2CF50C93C6DD5E97A
:1001C0003C18731A747B114A83BECE9EB4EB1F2772
:1001D000E0280DD1BC1DE1E7436B84ACF080240026
:1001E0002ECFD6CE8A0FC7E7BC007BE847BAAC89D2
:1001F000CB64FEFE414A4905560365159444C36726
:10020000D8FE012041200108B11D01082D20010860
:100210002D2001082D2001082D20010800000000DC
:100220000000000000000000000000009120010814
:100230002D200108000000002D200108A52901083B
:1002400053B94AB9002908BF00281CBF4FF0FF313D
:100250004FF0FF3000F00CB8ADF1080C6DE904CEA2
:1002600000F008F8DDF804E0DDE9022304B070478F
:10027000704700BF2DE9F04786468C460846089E29
:10028000154674461946002B40F0C2808542B2FAEA
:1002900082F245D94AB1C2F1200300FA02FC2EFADB
:1002A00003F3954043EA0C0C94404FEA154EA8B274
:1002B000BCFBFEF8230C0EFB18CC08FB00F943EA4C
:1002C0000C43994528D9EB1808F1FF3704D299451A
:1002D00002D9A8F102072B44A3EB0903A4B2B3FB94
:1002E000FEFC0EFB1C330CFB00F044EA0344A0426E
:1002F00014D92C190CF1FF3304D2A04202D9ACF16D
:1003000002032C44241A43EA07401EB1D4400023C0
:1003100034607360BDE8F0874746DDE76346F1E788
:1003200092BB431B01214FEA154EAFB2B3FBFEFC5B
:10033000200C0EFB1C330CFB07F840EA03439845E6
:1003400062D9EB180CF1FF3004D2984502D9ACF118
:1003500002002B44A3EB0803A4B2B3FBFEFC0EFB8C
:100360001C330CFB07F744EA0344A7424ED92C196F
:100370000CF1FF3304D2A74202D9ACF102032C44A2
:10038000E41B43EA0040C0E7C2F1200320FA03F176
:10039000954090402EFA03F303434FEA154EAFB257
:1003A000B1FBFEFC0EFB1C10190C0CFB07F841EA1C
:1003B0000041884504FA02F422D969180CF1FF3093
:1003C00004D2884502D9ACF102002944A1EB08010E
:1003D0009BB2B1FBFEFC0EFB1C110CFB07F743EAC2
:1003E00001439F420ED9EB180CF1FF3104D29F421A
:1003F00002D9ACF102012B44DB1B41EA004192E738
:100400006046E3E76146F7E76046A3E76346B7E780
:10041000834206D916B9002108467BE7C6E900E009
:10042000F9E7B3FA83F78FB9834201D3724508D84D
:10043000BEEB020460EB030301209C461EB90021C1
:1004400068E73846FAE7C6E9004CF8E7C7F1200C40
:10045000BB4022FA0CF41C432EFA0CF120FA0CF3E8
:10046000B84001434FEA14490EFA07F5B3FBF9F817
:100470001FFA84FE09FB18300B0C08FB0EFA43EA46
:1004800000439A4502FA07F240D9E31808F1FF3019
:1004900004D29A4502D9A8F102002344A3EB0A032F
:1004A00089B2B3FBF9F809FB183308FB0EFE41EAE9
:1004B00003418E452CD9611808F1FF3304D28E45D3
:1004C00002D9A8F10203214443EA0040A0FB0298AC
:1004D000A1EB0E014145CE46434602D306D14D4520
:1004E00004D2B9EB020E68EB04030138002EA6D04B
:1004F000B5EB0E0261EB030101FA0CFC22FA07F3E3
:100500004CEA0303F940C6E9003198E74046C5E7E5
:100510004346D9E708B5024903F013F8012008BDA6
:10052000CE4E0108012973B50546144605DC0F4976
:1005300003F007F8002002B070BD00221146606889
:1005400003F0BDFC002211460646A06803F0B7FC8C
:100550008DF8050001A88DF8046002F0C2FF04497F
:10056000284602F0EEFF03F0A0FCE3E7DE4E0108B0
:10057000F54E010870B505468AB00024214603A84F
:1005800001F09CFB28B33B493B4E2246284602F033
:10059000D8FF1CBB214603A801F0A0FB002833D0E4
:1005A0003649354E2246284602F0CBFF002C30D18A
:1005B000214603A801F0A2FB002840D030492E4E6E
:1005C0002246284602F0BDFF002C3DD120460AB04D
:1005D00070BD03A8013402F00FFFCFE7013C2146B4
:1005E00003A801F06BFB0028D3D16946009003A853
:1005F00000F08CFD03A802F0FFFE009B224631466E
:10060000284602F09EFFC4E703A8013402F0F4FE7E
:10061000C0E7013C214603A801F060FB0028C5D1DA
:100620006946009003A800F071FD03A802F0E4FE03
:10063000009B22463146284602F083FFB6E703A816
:10064000013402F0D9FEB3E7013C214603A801F0D2
:1006500055FB0028B8D16946009003A800F056FD6C
:1006600003A802F0C9FE009B22463146284602F04C
:1006700068FFA9E7004F0108144F0108274F010840
:100680003C4F0108012910B5044604DC074902F07B
:1006900058FF002010BD064902F053FF05492046CF
:1006A00002F064FF04492046F1E700BFDE4E010876
:1006B000514F010815050108684F010801292DE96E
:1006C000FF410446154606DC204902F03AFF0020AF
:1006D00004B0BDE8F08100221146686803F0EFFB2A
:1006E000002211468046A868194D03F0E8FB4146F8
:1006F0000746284601F0E2FA064610B115492046A1
:10070000E3E7039001A9284600F000FD039BEB619D
:100710006B68BB4201D21049F1E701233146204604
:1007200085F82C34C5F82064C5F82464C5F828740D
:1007300002F01CFF0949204602F018FF0849434611
:100740003A46204602F0FDFE0649D8E7DE4E010893
:1007500070E101206C4F01087F4F01086907010813
:100760008E4F0108395001082DE9F04F8BB0064635
:10077000884617460021182204A803F035FC524B86
:10078000524C0593DFF848A1524BDFF84CB103946B
:100790000793D4F82424BFB9C2F30801D4F828344D
:1007A00001B16BB94D49304602F0CBFED4F8284474
:1007B00034B9464802F020FE2146304602F0D6FE0B
:1007C00000200BB0BDE8F08FC2F30905C5F58069C4
:1007D000B94528BFB94605F120004A4641462044A4
:1007E00003F0F7FBD4F82434D4F828244B44A2EBCC
:1007F0000902B3F5806F4D44A7EB0907C4F8243410
:10080000C4F82824C844049326D13549304602F060
:1008100098FE4FF00009694603A8CDF8009000F05B
:1008200075FC009A5146304602F08BFE009B03F0A7
:100830002D032D2B05D02B49304602F082FE84F883
:100840002C94E369029A9A4206D22749304602F074
:1008500078FE002384F82C34B5F5806F03D0D4F8EB
:100860002834002B95D194F82C34002B91D0594684
:10087000304602F066FE1D4AD4F820142B4603A829
:1008800002F06AFD30B10023194984F82C34304657
:1008900002F057FE154AD4F820142B46A2F120008E
:1008A00002F086FD30B10023124984F82C34304622
:1008B00002F047FEB5F5806F02BFD4F8203403F58F
:1008C0008063C4F8203464E7672F010870E10120D9
:1008D000BF4F0108AD2F0108F84F0108285001084B
:1008E000AE4F0108D04F0108DC4F010890E1012014
:1008F0000F5001081B500108F0B51B4B93E8030093
:1009000085B06F4687E80300D3E9020102AE86E8AE
:10091000030003F0C2FA10F57A65384641F100048D
:1009200000F076FC304600F07FFC02F041FB08B19D
:1009300003F0BBFA0D4E306801F014FA03F0ADFA83
:10094000A842A14104DB03F0B0FA002005B0F0BDDD
:10095000306800F089FC0028F0D003F09EFA044DC6
:10096000451941F10004E9E7144A010800E00120BB
:10097000A08601002DE9F04F89B01D46531E824626
:10098000009101934FF00009019B5878252803F14D
:10099000010419D11E4600274FF0FF3202363B46B4
:1009A000BB46144630780196392856D81F2814D8EB
:1009B000002800F0E28100992520D0470099307886
:1009C000D04709F10209DFE7002800F0D68100993D
:1009D000D04709F101090194D6E7A0F120011929B6
:1009E000E9D80FF2080C5CF821F000BF550A0108A5
:1009F000B7090108B7090108550A0108B709010834
:100A0000DD0A0108B7090108B7090108B70901089B
:100A1000B70901081D0B0108550A0108B7090108AB
:100A20002F0B0108E90A0108B7090108F10A0108BA
:100A30000F0B01080F0B01080F0B01080F0B01082A
:100A40000F0B01080F0B01080F0B01080F0B01081A
:100A50000F0B010807460136A4E7582800F0E48090
:100A6000A0F163015FFA81FCBCF1170FA3D817292D
:100A7000A1D80FF2080C5CF821F000BFBD0C0108F2
:100A8000550B0108B7090108B7090108B7090108A2
:100A9000350B0108550B0108B7090108B709010812
:100AA000350B0108B7090108B7090108B7090108A2
:100AB000030C0108B7090108B7090108910C0108E6
:100AC000B7090108550B0108B7090108B709010862
:100AD000030C0108B7090108350B0108009925200E
:100AE000D04709F101094FE70BF0FE0B0022B2E7F6
:100AF000002C0CDA002A0CDABBF1000F00F0348174
:100B000024EAE4740A2101FB0404303CA3E7002A30
:100B1000F6DB0A2101FB0202303A9CE7002A55F875
:100B2000041B80F22481002980F223814C424FF083
:100B3000020B90E7682803D1682B06D148238AE787
:100B40006C2802D16C2B00F01681002B7FF433AFA0
:100B5000034680E77A2B09D175282B6805F1040636
:100B60001DD1202F46D1874D013C1DE06C2BF3D0C9
:100B70004C2BF1D1073525F007057528D5E9003153
:100B800005F1080608D10029EBD07F4F033C4FF058
:100B900003086FF0020340E0B1EBE37FF5D1002BD7
:100BA000DFDA7A4D5B42013C0DF11E0E00210A2076
:100BB000B3FBF0F700FB173C0CF1300C0EF801CD45
:100BC0009C46BCF1090F3B460F4601F1FF31EFD8BF
:100BD00007F12003C7F10108002A0DEB0307A7F175
:100BE000030765DA1BF0010F74D1A2EB0803A4EB35
:100BF000080413E02B2F0ABF654D664D04F1FF3446
:100C0000D2E770280FD12E4656F8041B09BB624F5D
:100C1000053C4FF005086FF004035E4D1BF0020F1A
:100C200067D1A3465DE078206C2B03D12E4656F8A1
:100C3000041B0AE04C2BF9D1073525F007052E4699
:100C40006B6856F8081B002B9FD1232F1ED18306FB
:100C50001AD5524D023C00F06003393B0DF11E00E5
:100C6000002701F00F0CBCF1090F88BF9C440CF168
:100C7000300C0F2900F801CD4FEA111E07F1FF3C9F
:100C8000A6D967467146ECE7454DE3E7414DE2E7FB
:100C90002E46029256F8047B384603F087F9029AF2
:100CA000002A804602DB9042A8BF9046394D0022C0
:100CB000A2EB0803002B9ADDA41AAFE72E46013CF5
:100CC00056F8043B8DF814304FF001084FF0FF3315
:100CD00005AFA2E72246EBE7029300992020D04718
:100CE000029BBBF1010BF7D524EAE472013C91446D
:100CF000A41AAB4606E0CDE902230099D047029A38
:100D0000039B93465A4612F8010B0028F3D11A466A
:100D1000013A16D5002BACBFC5EB03056D42434627
:100D2000013B16D5B8F1000FA8BF45444D442746F6
:100D3000013F15D5002CA8BF2D1905EB0B09354631
:100D400022E6CDE9022300993020D047DDE90223D5
:100D5000DEE70293009917F8010BD047029BDFE70B
:100D600000992020D047E3E74FF0010B73E60A46D5
:100D700071E60C466FE64C236DE6484609B0BDE8C7
:100D8000F08F00BF615101081D5101081351010886
:100D9000155101083F51010821510108175101085F
:100DA0001A510108064B1A6842F400721A601A6858
:100DB00042F480621A60034B034A1A6000207047B5
:100DC000003C024058E001200024F400034A53682C
:100DD00023F0020353600020704700BF002004E0AE
:100DE000F7B50646A1B100250A4F2C460DF10603C2
:100DF0003A463046013402F019FB00B10135BDF826
:100E000006100029F2D1631B5842584103B0F0BDCF
:100E10000120FBE79D0E010837B5044669B1084D76
:100E20000DF106032A46204602F000FBBDF806102D
:100E300018B90029F4D103B030BD0120FBE700BF91
:100E4000A132010830B5D0E90113242B91B004463A
:100E500002D0002011B030BD08AD006820232A4622
:100E6000043102F097FA0028F3D12368CDE901306C
:100E700001AB0393084B2022CDE904354FF40073F6
:100E8000CDE9062303A9626805A802F030F9B0FA9B
:100E900080F04009DEE700BF5B32010810B50C4668
:100EA000D0E90113142B9AB010D1006810236A46C0
:100EB000043102F06FFA48B9BDF80C302380124CAF
:100EC000002104A800F0FAFE034610B100201AB079
:100ED00010BD224648F2F00104A802F0A7FA78B14A
:100EE0000BA904A802F0C0F950B1029ABDF8401055
:100EF00004A802F0C4F918B169460CA802F0BDFAC2
:100F000004A802F079FADBE7450E01082DE9F04F5D
:100F100087B000AF06460C4690461D4602F02FF9FA
:100F2000C31D23F00703ADEB030D814638611E4A54
:100F30003068C7F80CD007F10C0348F2C001EA464C
:100F400002F074FA48B930682B464246214602F056
:100F500021FA1C37BD46BDE8F08F7368A34211D952
:100F6000A3EB040BAB4528BFAB4630685B4642465B
:100F7000214602F00FFA0028EBD1B5EB0B05E8D0C3
:100F80005C44D844094B7168BB603B1DC7E9033A18
:100F9000C7F814902B464246611A07F10C007E6098
:100FA00002F0EFF8D5E700BFB10F01085B3201088E
:100FB0002DE9F0418EB0476804460D4600F02EF949
:100FC0001E4A064651681068127A01AB03C300211D
:100FD0001A7008A8182203F007F83368089373689A
:100FE000099308230D93D4E90132134407F1140245
:100FF00001AE93420C9603D000200EB0BDE8F08104
:101000000DF11008206810234246391D02F0C2F984
:101010000028F1D1D5E90012102308A80B93CDF8D0
:10102000288002F04AF80921304601F0E4FF08A8C0
:10103000182101F0E0FF0120DFE700BF2751010880
:101040002DE9F047054698B0446800F0F3F8D5E97B
:101050000132134404F144029342064603D00020B7
:1010600018B0BDE8F08708AF211D286840233A4634
:1010700002F090F904460028F1D1DFF83CA04FF0CF
:10108000400881467368A342E9D933686A68CDF89D
:1010900008D02344CDE904382B68CDF80CA002A970
:1010A00004A8CDE90678CDE9003902F03EF808B988
:1010B0000120D5E74034E5E75B32010810B596B072
:1010C0003C2307AA4FF40041044600F08FF8C0B952
:1010D000BDF83030CDF808D0CDE900430A4B03937A
:1010E0000EAB049320224FF40073CDE9052302A92F
:1010F0000A9A04A801F0FBFFB0FA80F0400916B08C
:1011000010BD0020FBE700BF5B32010830B50023B3
:1011100097B00C460B60314A48F2D001054602F008
:1011200085F918B1236843F0200323602C4A00237B
:1011300048F2F001284602F079F918B1236843F02B
:101140001003236007A9284602F08EF8002843D038
:101150000799A16009992368C90743F0010248BFB4
:1011600043F48073226048BF43F001030B9A48BFE9
:101170002360BDF830106260284602F080F818B194
:10118000236843F002032360BDF832102846FFF7BE
:1011900027FE18B1236843F004032360BDF8341020
:1011A0002846FFF739FE18B1236843F0080323608F
:1011B0001022002103A802F017FF6B680193094B6E
:1011C00002936846084B00950493FFF777FF18B128
:1011D000236843F04003236017B030BD411001087D
:1011E000450E01081D3301089D32010807B5CDE900
:1011F0000032064A6B4602F019F900280CBF6FF066
:101200000100002003B05DF804FB00BF05340108B5
:10121000014B1860704700BFA4E50120014B18681E
:10122000704700BFA4E50120014B1860704700BF64
:10123000A0E50120014B1868704700BFA0E5012020
:1012400010B504460068036843B9054902F06CF91B
:1012500020680449BDE8104002F066B910BD00BF27
:101260000C500108305101082DE9F04F0768FD6866
:1012700093B004460DB33D681DBBA946FB683869B1
:101280000DF1070198470646E8B1003D18BF01255A
:1012900013E0013502AAFB68386951199847002804
:1012A000F7D055B13B682A4602A92046984718B1A5
:1012B0000021204602F05AF90125284613B0BDE866
:1012C000F08F0025E6E79DF807300A2B05F10105B0
:1012D000D4D0082B08BF4A4920681EBF8DF80830BB
:1012E00002A98DF8096002F01FF99DF80710236824
:1012F00008295A6D09D1002AC0D0013A5A652368DD
:101300005A6D134400221A75B8E7501C58651344EF
:101310000D29197503D023685B6D3F2BAED9402290
:10132000002102A802F060FE00231A462068416DE9
:101330008B4240D2102E19D1DDF808A0D4F80480D9
:101340004FF00C0BD4E901320BFB0233984529D343
:101350002C49206802F0E8F80299206802F0E4F8CD
:101360002949206802F0E0F8284944E000EB030C2A
:101370009CF814E0BEF1200F02D001398B420BD152
:101380008CF8149032B112A901EB8601013641F8B4
:10139000402C00220133C9E7002AFBD103F11402DB
:1013A0000244F7E7D8F80000514602F006FE88B183
:1013B00008F10C08C6E7002EBED1206840220021AB
:1013C000143002F011FE23682046C3F85490FFF752
:1013D00037FF53E7D8F8043002AA31462046984731
:1013E0000028EAD00A49206802F09EF80299206895
:1013F00002F09AF80749206802F096F8DDE700BF8E
:101400003C510108515101080C5001086351010879
:1014100059510108405101082DE9F041104F45682C
:10142000DFF8408004460C26D4E9013206FB023383
:101430009D4202D30020BDE8F0812068394602F0C9
:1014400073F82968206802F06FF82068414602F0BE
:101450006BF8A968206802F067F80C35E4E700BF74
:101460000C5001086051010808B51A4A03461A4891
:10147000C3E90002194A9A60A2F16462A2F5E3325C
:10148000A2F5DF72DA60084602F076F81861081DEE
:1014900002F072F8586101F1080002F06DF89861ED
:1014A00001F10C0002F068F8D86101F1100002F0BF
:1014B00063F8186201F1140002F05EF8586201F15D
:1014C000180002F059F8986201F11C0002F054F87B
:1014D000D86208BD6E64203365787061322D627900
:1014E000C8B10D4A0D4B0E49DFF838C0C0E91223D0
:1014F0000D4BC0E914130D4BC0E916C30C4B03662A
:1015000003F17453A3F52303A3F692434366002229
:101510000023C0E90023704767E6096A85AE67BB10
:1015200072F36E3C7F520E513AF54FA58C68059BC5
:10153000ABD9831F2DE9F04FD0E9003503F03F040C
:10154000D318CDB045F10005C0E900358B180A93DA
:1015500000F148030B930A9B994202D14DB0BDE8BC
:10156000F08F021911F8015B15723F2C04F1010391
:1015700040F088800CAC00F10803254653F8042B9A
:1015800012BA45F8042B0B9A9342F7D130226568C2
:10159000A66B27464FEAB543043483EAF5133F6848
:1015A00083EAD503256A3D442B444FEAF64585EA94
:1015B000764585EA96252B44013AE363E7D1836CAF
:1015C0000093C36C0193036D0293436D0393836D8A
:1015D0000493C36D0593036E0693436E0793DDE991
:1015E000068ADDE90449DDE901C72B4BDDF80CB0C3
:1015F000009D08934FEA75368CEA07030CEA070E44
:1016000086EAB5062B4086EAB55683EA0E03F31840
:101610000993089B0CAE53F804EB56F8226008932C
:101620004FEAF42383EAB413B64483EA7463734441
:1016300004EA090628EA040E8EEA060E7344099E9F
:1016400001325344402A03EB0B0EC2463344BB46DF
:101650001AD1009A1A44019B82642B44C364029BF2
:1016600063440365039B3B444365049B7344836568
:10167000059B2344C365069B4B440366079B434479
:10168000436600231C4666E7C8466746A146AC464B
:1016900074461D46AEE700BF784A0108F7B5D1E9A8
:1016A00000760446012208462249234DFFF742FFF7
:1016B000F60046EA5776FF00036803F03F03382B35
:1016C00033D13825C5F12001A5F1200227FA05F311
:1016D00006FA01F10B4326FA02F213430DF107015A
:1016E0000122083D8DF80730FFF724FF15F1080FA0
:1016F000E8D1231D00F14401243451F8042F03F8EC
:10170000012C150E03F8045C150C03F8035C150A94
:1017100003F8025C0433A342EFD100231A46C254FB
:101720000133682BFBD103B0F0BD01222946FFF73E
:1017300001FFC1E7865101082C4A0108014B02F064
:101740004CBA00BF1C4C010870B5144688B0064660
:101750000D46204621460C4A02F0A2FA22462146B6
:101760006846FFF7EBFF6A4631463046FFF7E6FF73
:10177000224669466846FFF7E1FF6A462946284641
:10178000FFF7DCFF08B070BD1C4C010830B5044603
:1017900089B002F0F9F90C4A2146684602F081F955
:1017A00001210546684602F05DF96A462146104669
:1017B00002F077F92DB1003818BF0120404209B07E
:1017C00030BD4FF0FF30FAE7D84B010810B588B0B4
:1017D00004460146054A684602F063F96946C0F1CD
:1017E0000102204602F074F908B010BDD84B010880
:1017F00070B51F2A88B004460B460FD86D460020EE
:10180000294606460130202805F8016BFAD1C2F1BD
:101810001F0008441A4493420CD1204602F0B4F948
:101820002046FFF7D3FF0649204608B0BDE87040C8
:1018300002F015BA13F8015B00F8015FEBE700BF97
:10184000D84B010830B589B0044602F02AF9214688
:101850000546054A684602F00EF92A4669462046C2
:1018600002F036F909B030BD1C4C010870B50446D1
:1018700090B00D461146164602F086F9234A2146DD
:1018800008A802F00EF901283DD11146204602F0C9
:10189000E6F906F12001284602F076F91B4A2946AE
:1018A00008A802F0FEF801282DD11146284602F0C2
:1018B000D6F92A4629466846FFF740FF22462146C8
:1018C00008A8FFF73BFF08A908462246FFF736FFA6
:1018D00008A908462246FFF7B5FF08A90846224690
:1018E000FFF7B0FF08A908462246FFF7ABFF08A99B
:1018F0000846064B064A02F05BF908A9684602F062
:10190000F8F810B070BD4FF0FF30FAE71C4C01083A
:10191000B84B0108F0B5384E99B004460D4608A8FA
:1019200011461746FFF70AFF334608AA21466846C4
:1019300002F03EF908AA214610A8FFF783FF10AA7B
:10194000694608A8FFF7FAFE08AA3346114668461A
:1019500002F02EF9334608AA6946684602F028F9D3
:101960002A46294610A8FFF7E9FE10AA3346114679
:10197000104602F01DF910AA214608A8FFF7DEFE66
:1019800008AA33461146104602F012F910AA114671
:101990001046FFF7D3FE10AA33461146104602F058
:1019A00007F96A4669462046FFF7C8FE08AA21469D
:1019B0002046FFF747FF08AA21462046FFF742FFCF
:1019C0003A4629463846FFF7B9FE33463A46394685
:1019D000384602F0EDF8224608A92846FFF732FF04
:1019E0006A4629462846FFF7A9FE10AA2946284636
:1019F000FFF728FF19B0F0BD1C4C01082DE9F04F8E
:101A0000A3B00C462C9E31490546924602A83246A8
:101A1000994602F046F8D6F800B031460BF00102C4
:101A200002A80DF1480802F053F80021404602F0E8
:101A300019F84A4641460AA8FFF704FF0122514619
:101A4000284602F045F801224946204602F040F8B7
:101A50001F4A01211AA802F018F96FEA0B0202F0DE
:101A600001020AA9204602F033F8FF277B0922AAC7
:101A700002EB830307F01F0253F8806CD64086EA1E
:101A80000B06F24302F001024946404602F020F8FC
:101A900006F001020AA9404602F01AF81AAA2146E5
:101AA0002846FFF737FFCDF8008053461AAA214693
:101AB000284602F025F9013FD8D11AAA2146284626
:101AC000FFF742FE23B0BDE8F08F00BFD84B0108FE
:101AD0001C4C01082DE9F041C2B004460F460146F6
:101AE00002A815469846FFF751FE28B16FF003078C
:101AF000384642B0BDE8F0810AAE04F1200130461C
:101B0000FFF744FE0028F1D14246294612A8FFF70C
:101B10006FFE4749304602F0A2F81AAC444A3146FB
:101B2000304602F0BDF8424B324612A9204602F080
:101B300054F822AD3E49204602F097F8012202A94E
:101B4000284601F0C5FF3A49284602F088F8384B8C
:101B500032462946284602F040F83549284602F028
:101B600084F83A4632A92AA8FFF780FE07460028E3
:101B70005BD112A8009532AB2AAA3146FFF73EFF8F
:101B8000204601F0C5FF90B9012212A9204601F0BC
:101B90009FFF2849204602F068F82046FFF716FE0E
:101BA00002A9204601F0A5FF0028A1D09EE7224B04
:101BB000224A009432A92AA8FFF720FF01222AA96D
:101BC000204601F085FF012232A9284601F080FF5E
:101BD00001213AA8174A02F058F812A92AA801F0E0
:101BE00088FF60B10B4600963AAA2946204602F0CB
:101BF00087F83AAA29462046FFF7A6FDC9E73146ED
:101C000032A801F076FF28B93AAA29462046FFF704
:101C100081FEEEE739462046064A02F036F8054ACC
:101C20003946284602F031F8B3E76FF001075FE765
:101C3000D84B01081C4C0108784B0108984B01084F
:101C4000202B104608B51A4609D8C3F120038B4251
:101C500005D3044B194402F0BCF9002008BD6FF015
:101C60001500FBE7E0FF0120202B084608B51146D0
:101C70001A4609D8C3F12003834205D3044B184404
:101C800002F0A7F9002008BD6FF01500FBE700BFC8
:101C9000E0FF0120054B8360054BC360054B0361EA
:101CA000054B836100234361704700BFC33D0108BA
:101CB000453E0108E53D0108033E010808B541B96C
:101CC000FFF7E8FF044B03604FF40033436008461E
:101CD00008BD6FF01500FBE7B84C010808B541B925
:101CE000FFF7D8FF044B03604FF40033436008460E
:101CF00008BD6FF01500FBE79C4C010808B551B911
:101D0000FFF7C8FF054B4361054B03604FF40033F9
:101D10004360084608BD6FF01500FBE7073E010869
:101D20007C4C010808B50246FFF7B4FF034B136073
:101D300000204FF40073D060536008BD604C010870
:101D40000346064A9A60064ADA6000202022C3E968
:101D5000040018605A609861704700BF411C010878
:101D6000691C0108F7B505460E4C204602F050FDEF
:101D7000A8B12E680C4BA768B46073603B682BB1A8
:101D80000DF10701204698470028F7D0074B346132
:101D90002846F360FFF754FA002003B0F0BD6FF05F
:101DA0001200FAE7D84901083F3E0108313E010818
:101DB00008B5034B1B689847BDE8084000F006B81B
:101DC00004E0012030BFFFF7FDBF00BF704700BF38
:101DD000134B9A6A12F0007F9A6A14BF1E201D20CE
:101DE00012F0807F9A6A18BF1F2012F4002F9A6A9F
:101DF00018BF212012F4802F9A6A18BF222012F4F3
:101E0000003F9A6A18BF232012F4803F9A6A6FEA53
:101E100002426FEA12429A6218BF2420704700BF44
:101E200000ED00E010B5184B0246986A9C6A10F469
:101E3000805F14BF1720162014F4006F9C6A18BF2F
:101E40001820A40508D5986A000404D51AB19A6A26
:101E500022F400429A6219200B4B9A6A12F4806FA6
:101E60009A6A18BF1A20D2050CD49B6A13F4005F3B
:101E700018BF1C20044A936A43F47F4393620023F3
:101E80000B7010BD1B20F5E700ED00E010B51C4BFA
:101E90000246986A9C6A10F0100F14BF112010209F
:101EA00014F0080F9C6A18BF1220A40709D5586BBC
:101EB000986A000604D51AB19A6A22F080029A62E2
:101EC00013200F4B9A6A12F0010F9A6A18BF142060
:101ED00012F0200F9A6A18BF1520D40658BF9B6ACB
:101EE000074B9A6A920642BF5A6A22F400525A621B
:101EF0009A6A42F0FF029A6200230B7010BD00BF85
:101F000000ED00E070B5444B5B688AB00646C3F351
:101F10000803002585F31188BFF36F8F02F07F401F
:101F2000B0F17F4F11D102F00C0008280DD010073E
:101F30004CBF0E4601250022033B8DF80720032BE2
:101F400005D8DFE803F01E5C60592E46F3E7002455
:101F50009DF807309BB92022314602A802F039F8DB
:101F6000099B002D53D0C3F3080222B96FEA532313
:101F70006FEA4323099302A9204601F09AFF0AB0B1
:101F800070BD254BDA6A9107E1D4DA6A002ADEDBFC
:101F9000DA6A5200DBD55A69B16942F480725A613B
:101FA000BFF34F8FBFF36F8F5A6931F8021C22F4D1
:101FB00080725A61BFF34F8FBFF36F8F4DF602727D
:101FC000914209D09A6AD2B242B10DF107010120C3
:101FD000FFF75CFF0446BBE73468B9E79A6A12F47E
:101FE0007F4F05D00DF107010120FFF71BFFF1E73F
:101FF0009B6AB3F5803FAAD3FFF7EAFEEAE70DF14B
:1020000007010020E4E70DF107010020EDE723F4CC
:10201000FF7323F00103ADE700ED00E0024A5369CE
:1020200043F010035361704700ED00E0EFF30880C8
:10203000EFF3098101B57246FFF764FF01BD00BFF0
:10204000102080F3118808484FF40061401880F395
:102050000988EFF314800221084380F31488BFF34A
:102060006F8F00F04BF80000D8E60120BFF34F8FD0
:102070000549064BCA6802F4E0621343CB60BFF324
:102080004F8F00BFFDE700BF00ED00E00400FA0540
:102090001EF0040F0CBFEFF30880EFF30980816995
:1020A00011F8021C0229FFD001B501F004FF01BDA7
:1020B00040B2002807DB044A4109012300F01F0059
:1020C000834042F82130704700E100E040B2002830
:1020D000A8BF00F1604001F10101B8BF064B4FEA13
:1020E0000111ACBF00F5614000F00F00C9B2B4BFF0
:1020F000195480F80013704714ED00E00F4A08B53A
:102100000F4B22F07F029A60BFF34F8FBFF36F8FA8
:10211000D3F8882022F47002C3F88820EFF31483E8
:1021200023F0040383F31488BFF36F8F00F0F6FDF0
:1021300000F036FE00F032F800F0FCFD000201086D
:1021400000ED00E004461025084611461A46084BEB
:1021500083F3098863B64FF0000383F31188BFF35C
:102160006F8FA04785F31188BFF36F8FFEE700BF25
:10217000D8FE0120014910220A60704710ED00E0EE
:1021800072B6404080F31188BFF36F8FBFF34F8F5B
:1021900030BF62B6BFF36F8F704700BF04480023A3
:1021A0001021C2180133562B82F80013F9D1704761
:1021B00000E100E010B586B009B90DF10F00002470
:1021C000CDE90401009404A90348FEF7D3FB049B66
:1021D0001C7006B010BD00BFFB3F0108044B184443
:1021E00000230133994200F8012BFADC704700BF4D
:1021F00064E0012010B4064B064902460C681856EC
:102200000123934023430B6010BCFFF751BF00BF75
:1022100064E00120003C01401F2806DC0349012244
:102220000B68824023EA02030B607047003C0140C8
:1022300003292AD8DFE801F0020E141F134B0122F4
:102240009968824021EA02019960D96821EA020274
:10225000DA6070470D4B0122996882401143F3E721
:102260000A4B0122D96882401143D960996821EA5A
:1022700002029A607047012303FA00F0034B9A6848
:1022800002439A60DA681043D8607047003C01400E
:1022900030B50A4B53F830408C4204D103EBC005F3
:1022A0006D68954205D034B943F8301003EBC00394
:1022B0005A60002030BD6FF00F00FBE7A8E5012059
:1022C000034B002243F8302003EBC0035A607047F1
:1022D000A8E5012010B51D4B18680B68442B144667
:1022E0001DD82F2B05D85A1E042A0DD96FF0850052
:1022F00014E0A3F1300101228A4015490A420BD1B2
:10230000402BF3D1400807E0023B032B04D8DFE861
:1023100003F00219091100202060002010BDA82B35
:10232000FAD0E3E700F0A2F84FF4C073C0085843B6
:102330008008F1E700F09AF84FF4C073C0085843E2
:10234000C008E9E74FF4FA40E6E700BF58E0012093
:102350001101100070B5414C414D00F09FF800F0A4
:10236000E7FBA3683F4AC3F30313D35C20FA03F6E9
:1023700013781D41AE4202D2284600F007FC2368C4
:1023800043F480232360236843F480332360334B7A
:102390001A689203FCD55A6F42F001025A675A6FCD
:1023A0009407FCD59A6802F00C02082A17D11A6823
:1023B000900707D41A6842F001021A60274A13688E
:1023C0009907FCD5254B9A6822F003029A609A6817
:1023D00012F00C0FFBD19A6822F0F0029A601F4CA9
:1023E000236823F080732360636823F4403343F44D
:1023F00080336360636823F0706343F0006363605D
:1024000000F038F8236843F08073236023689B0151
:10241000FCD5A36823F0F003A360A36823F00303B3
:1024200043F00203A3600D4CA36803F00C03082BD8
:10243000FAD1AE4202D3284600F0A8FB0A4B084A64
:102440001A60A36823F4E05343F48053A360A368A5
:1024500023F46043A360002070BD00BF0038024039
:1024600000D8B8056E52010858E0012000487047B6
:1024700000127A00064A074953681940064B0B437D
:102480005360536823F4403343F480335360704700
:10249000003802400080BFFF08604000064B1A6C05
:1024A00042F080521A641B6C82B003F08053019397
:1024B000019B02B0704700BF0038024000487047DF
:1024C000E84C010870B5012305460E46144601F09C
:1024D000D0FE002836D0E4B12B691B681A69002AA7
:1024E00019DB22463146284601F0D8FE2B691B68CD
:1024F0001A685205044614D42B6928461E6801F058
:102500008EFE18B9336943F000433361002C08BFD5
:102510000446204670BD0D4A5A6002F188325A6066
:10252000DFE71A6822F480621A601A6842F4805267
:102530001A601A6822F480521A601A6842F48062A3
:102540001A60D9E76FF01504E3E700BF2301674580
:10255000F8B51C4617460123224605460E4601F0F3
:1025600088FE10B3A4B12B691B681A69002A11DB1D
:10257000234631463A46284601F0F9FE2B690446C7
:1025800028461E6801F04BFE50B1002C08BF0446DF
:102590002046F8BD064A5A6002F188325A60E7E7E1
:1025A000336943F000433361EFE76FF01504EFE761
:1025B00023016745024B0B6003231360704700BF84
:1025C000F04C010838B5036904465860084D2846A8
:1025D00002F01EF940B16168AB680C311B682846F7
:1025E000984700EAE07038BD6FF01200FBE700BFCB
:1025F000FC480108F7B51746B7F5001F46680269A1
:102600000C461D4624D101F00302043292000F2330
:10261000934043EA9103DAB23349023251F822205F
:10262000190C02EA134391FAA1F2B2FA82F2D340F2
:10263000B2689A4209D12046FFF7EEFD2046FFF727
:102640003FFE00212046FFF7F3FD002003B0F0BD60
:10265000B7F5800F41D025492046FFF719FE002825
:102660003ED1234AB66892E803006B4683E8030034
:1026700020488268194612689047C0B904F00303E5
:1026800004339B000F229A4042EA9402D3B29B008B
:1026900003F1804303F59C33110C986820EA124043
:1026A00091FAA1F2B2FA82F2964006439E60B5F129
:1026B000806F0ED0B5F1C06F0DD005F17E43594249
:1026C000594149002046FFF7B3FD2046FFF792FD30
:1026D000BBE70121F6E70321F4E76FF08500B5E7DA
:1026E0006FF00F00B2E700BF00380140E545010878
:1026F000244A0108FC4801082DE9F0471E4F044612
:1027000000EBC1060025B44201D1002014E020688E
:10271000C30600F01F0911D4656845F02005C0F319
:10272000471AC0F343200A2823D857F82080B8F16D
:10273000000F0DD16FF01200BDE8F087B9F1100F56
:1027400004D0B9F1110FEAD16568E8E73025E6E772
:10275000404602F05DF80028ECD04B462A460AF0CD
:102760000F01404601F055FF002804F10804CADAC1
:10277000E2E76FF01500DFE7CC4D01082DE9F341EA
:102780000669456804466448306002F041F820B9A3
:102790006FF0120002B0BDE8F0813068E96883682C
:1027A0001B6898470028F5DB286A01AA002101F080
:1027B00048FF0028EEDB019B002219791868FFF71B
:1027C0009BFF0028E6DB656823692A685E68D3689A
:1027D00023F40053D360686802F01AF80028D7D0B9
:1027E000D5E901018368DB6803B198472A6802F1E3
:1027F0000C0353E8003F43F00C0302F10C0141E8E5
:1028000000300028F3D123696168D3F8048033795C
:10281000012B41D09A1E57425741BF027279022ABA
:102820009CBFDFF8F8C03CF812C0B27988BF4FF403
:10283000005C042A33D0003B18BF01231B03F2794C
:10284000012A0A6808BF4FF440704645D16829D173
:1028500021F4B05139430B43D360136923F440533F
:1028600043EA0C03136163681A68536923F44073E5
:10287000034353613168204601F06AFF2B7D23B189
:102880002A68536943F0080353612A68D36843F404
:102890000053D36000207DE74FF4C067BEE74FF4DC
:1028A0008053CCE701F4C0618F421FBFD16821F48F
:1028B000C0613943D160626811680A6902F440520C
:1028C00094451FBF0A6922F4405242EA0C020A6191
:1028D00062681168CA6802F4805293421FBFCA68D6
:1028E00022F480521343CB6063681A68536903F47F
:1028F000407398421FBF536923F4407303435361ED
:102900003168D8F800309942B8D0204601F020FF55
:102910003368C8F80030B1E7FC480108C84E010828
:1029200010B54FF0E0230F499C691A6908689B694C
:102930000D4902F4803234B993B903464AB90A68A2
:102940001044C01A10BD002B08BF03460AB9A342A9
:10295000F5D90A6802440A604FF0E0221269EEE7F6
:102960000446F3E7ACE60120A8E601200A4B10225A
:1029700083F82320094B4FF416521A60084B0020AD
:1029800018604FF0E02342F27F525A6198611A6951
:1029900042F007021A61704700ED00E0ACE601204A
:1029A000A8E6012010B5FFF7BBFF104B1049D3E993
:1029B00000420868001942F10002C3E900020D4A12
:1029C00000230B60D2E900414FF41653001BB0FB0B
:1029D000F3F043431B1941F10001C2E9003100F05B
:1029E0003FFABDE81040FFF7F1B900BF98E00120C1
:1029F000A8E6012090E001202DE9F041DFF8E08019
:102A000099B1421C0BD14FF0E022136923F001036E
:102A100013614FF07F43C8F80030BDE8F081D8F86B
:102A20000060012807DC00270BE0431CD8F8006099
:102A3000F7D140F2D26040F2D3639842A8BF184663
:102A4000471E4FF01003EFF3118583F31288BFF395
:102A50006F8FFFF765FF234C4FF0E0239969D4E9AE
:102A60000023801843F10003C4E900031E4B002239
:102A70001A601E4B1A68831A2ED44FF4165C0CFB96
:102A8000073303F515533F33B3FBFCF7131A0CFB65
:102A90000733B3F5806F164A38BF4FF48063934213
:102AA00028BF13464FF0E022C8F80030013B906980
:102AB0005361002393618142A1EB0003D4E900122A
:102AC00038BF9B195B1842F10002C4E9003285F35C
:102AD0001188BFF36F8FA0E74FF48063E2E700BF78
:102AE000ACE6012098E00120A8E6012090E001205A
:102AF00000C3FF0038B54FF01003EFF3118583F3E7
:102B00001288BFF36F8F084B1C68084B1B68E41AD0
:102B1000FFF706FF85F31188BFF36F8F4FF416534D
:102B20002044B0FBF3F038BD98E0012090E0012094
:102B300008B513498B6803F00C03042B1CD0082B39
:102B40001CD14A684B68496813F4800314BF0D48D0
:102B50000D48C1F3881118BF002302F03F02A1FB0A
:102B60000001FDF76DFB064B5B68C3F301430133C6
:102B70005B00B0FBF3F008BD0248FCE70248FAE74F
:102B80000038024000127A000024F400002876D0B9
:102B90003C4B1A6802F44042B2F5404F20D13A4A09
:102BA000904215D8394A904207D91A6802F4404237
:102BB000B2F5004F5CD102201FE0354A90421A68FE
:102BC00002F4404247D9B2F5004F4CD1012014E045
:102BD0001A6802F44042B2F5004F3FD103200CE0E6
:102BE0001A6802F44042B2F5004F22D1274A9042BF
:102BF0003ED8274A90422ED90020224B1B6801283C
:102C000038BF012003F44043B3F5804F1FD0214A61
:102C1000136823F0070303431360136803F00703EB
:102C200098421CBF136803F00703C01A18BF0120A5
:102C300070471B6803F44043B3F5804F0CD1134B2E
:102C400098421AD8124B98424FF00000DFD9012861
:102C500038BF0120DBE71B680020D8E71B68032092
:102C600003F44043D0E71B68012003F44043CBE763
:102C70001B68022003F44043C6E70220C7E7012097
:102C8000704700BF00700040804A5D050090D0038F
:102C900080C3C901003C0240014B98686030704716
:102CA000B0E60120104B70B553F82040013053F8C6
:102CB0002060A64200D870BDD4E9003595B153B16B
:102CC0002846984738B10028B8BF4042EB68FF2833
:102CD000A8BFFF201870EA68537843F001035370CF
:102CE0000834E6E79847FBE7B04E010808B5094B02
:102CF000012203201A70FFF7D5FF01F0B6FD042072
:102D0000FFF7D0FFFDF7F8FD034A137B23F0010323
:102D1000137308BDD4E60120A0E0012008B50348E4
:102D2000034A0021121A01F09AFD08BD90E001202B
:102D3000D8E6012008B50020FFF7B4FF154B83F358
:102D40000888154C636943F4007363610025F02320
:102D500084F82230E57725766576A57684F82050CC
:102D6000636A43F4E0236362FFF758F9FFF702FA5E
:102D70004FF0FF33A362E36201F049FD0120FFF74A
:102D800091FF0220FFF78EFF04482B462A46294672
:102D9000FFF7D8F9D8EE012000ED00E0ED2C010896
:102DA00008B50648064A0749121A01F05AFDBDE85F
:102DB0000840054A0549064801F053BD00E00120DE
:102DC00090E00120805201080000000080520108BC
:102DD00000E00120034B1B680BB9FFF78BBE0020FE
:102DE000704700BFD0E6012010B50E4B1C689C4216
:102DF00004D1FFF7EFFF6FF0004010BDFFF7EAFFCF
:102E0000002CF8D0D4E904321B1A62EBE072B3F163
:102E1000004F72F10001EEDA002AACBF1846002024
:102E2000EBE700BF5CE0012030B570B10B4B5B6895
:102E300098420AD0036843B1D3E90421D0E904459C
:102E4000121941EB0501C3E90421D0E900321360F6
:102E50005A600023C0E9003330BD00BF5CE00120B0
:102E60002DE9F84F4FF01003EFF3118C83F3128824
:102E7000BFF36F8FDFF8ACA0DFF8AC902B4FC9F831
:102E80000000DAF800000024504508BF00200025AB
:102E9000D7E90021D9F80030E04680B3D0E9046CCE
:102EA0004FEAE37EB3427EEB0C0B05DAF61A6CEBCD
:102EB0000E04C0E9046422E0B21841EBE671C0E9F7
:102EC0000445C7E90021FFF7AFFF88F31188BFF37E
:102ED0006F8F836898474FF01003EFF3118883F3E7
:102EE0001288BFF36F8FD9F80030DAF800009B1B0F
:102EF0005045C446C9F80030CAD1D7E900219A1814
:102F000041EBE3730024C7E90023C9F80040FFF751
:102F10006BFF2146FFF770FD88F31188BFF36F8FB9
:102F2000BDE8F88F5CE00120D0E6012010E101202F
:102F300010B54FF01003EFF3118483F31288BFF341
:102F40006F8FFFF747FF064A0346D2E900011818C2
:102F500041EBE37184F31188BFF36F8F10BD00BFA5
:102F600010E1012070472DE9F041D0F82084884518
:102F700006460C4617461D4609D900F00BFA40B923
:102F8000A8EB0408A84594BFA5EB08056D1B15B96F
:102F90000020BDE8F081D6F8203404F12001C91AE0
:102FA0002A463144384601F014F8F1E700F013BA2C
:102FB00010B5002488B0214601A8FEF77FFE10B1AD
:102FC000002008B010BD01A8013400F015FAF2E7A6
:102FD00008B504464FF01002EFF3118382F3128814
:102FE000BFF36F8F01F00CFC2046FFF73FF8FFF7AF
:102FF000C7F8FCE7704700231A468B4200D17047A0
:10300000C2540133F9E72DE9F04F85B000AF8D6868
:10301000786091461C4600F066FC0346202D03F1C3
:10302000070323F0070338BF2025ADEB030DEB1D8D
:10303000E84623F00703B860ADEB030D4046C7F840
:103040000CD0FEF74DFA4FF0000B8CB97868414672
:10305000FEF724FB2646B9684046FFF7CCFFF86828
:103060002946FFF7C8FF30461437BD46BDE8F08F4C
:10307000A542AA4628BFA246D9F80460FA68D9F842
:10308000000053465946B04706460028E3D1F96888
:1030900052464046FEF74EFAA4EB0A04D344D4E766
:1030A000002370B504461846934200D170BDE55C1C
:1030B000CE5C754028430133F6E770B58AB04368AB
:1030C0000093036804460D461646D0E9021202A892
:1030D00000F07FFC0096D4E9042302A9284600F002
:1030E0007AFC202102A8FFF786FF0AB070BD30B538
:1030F00013464268202A89B0054613D80A4601467D
:103100006846FFF780FF044628B9D5E900126846F3
:10311000FFF7C6FF044620216846FFF76CFF2046F4
:1031200009B030BD6FF00D04F9E770B51346426881
:10313000402A8CB005461FD1C268402A1CD100220B
:103140002026CDE9012604A80A4601A90396FFF727
:103150005AFF044648B92968A868334604AAFEF70E
:10316000B9FC041E18BF6FF00D04202104A8FFF75E
:1031700042FF20460CB070BD6FF00D04F9E72C2023
:1031800070472DE9F04FA5B0064600AF1D46D0F8B8
:1031900000B0BA600C4600F06CFB7668F86006F18F
:1031A00020037B600346073323F00703ADEB030DD9
:1031B000EA4625B928469437BD46BDE8F08F24F08D
:1031C0003F0904EB0508A8EB0908B8F1400F4FEAE6
:1031D000941328BF4FF040084022002107F110004F
:1031E0003B6000F001FFDBE9000C434607F11002F1
:1031F0004946E0470028DED17A68A30931465046A7
:1032000000F039FB5346402207F1100107F150004E
:1032100000F04BFBF9685046FFF7EDFEA4EB090305
:10322000984510D907F150021344B96813F8012BDF
:1032300001F8012B013DB96004F1010403D0A4EBB6
:1032400009029045F1D807F110004021FFF7D3FEA5
:1032500007F15000FFF7CFFEABE710B444680068F9
:10326000214410BC00F096B808B50A463C234FF440
:103270000041FDF7BBFFB0FA80F0400908BD13B56F
:10328000019101A9144600F0A6F828B90198031B82
:103290005842584102B010BD0020FBE700F09BB837
:1032A00070B58EB04668044601A80D4600F003F9DB
:1032B00008BBD4E90132134406F12002934202D044
:1032C00000200EB070BD1C2320680DEB0302311DE1
:1032D00000F060F80028F3D1BDF834302B801022C4
:1032E00002A909A8FFF7DCFE0028E9D107A901A877
:1032F00000F0C3F8E5E70120E3E730B591B00D46F3
:1033000001A90446FFF7B0FF30B1BDF81810059AC7
:1033100029602046FFF7B3FF11B030BDF0B585B08E
:103320000C4601A9074615461E46FFF7E6FF40B1C9
:1033300033462A462146384605B0BDE8F04000F045
:1033400029B8019B03932A463346214602A80297D7
:10335000FDF7DCFD05B0F0BDF0B585B00C4601A968
:10336000074615461E46FFF7C8FF40B933462A46B2
:103370002146384605B0BDE8F04000F00BB8019B8F
:1033800003932A463346214602A80297FDF7BEFD65
:1033900005B0F0BD30B44568CC18AC4204D88468A0
:1033A0000068A44630BC60476FF0150030BC704721
:1033B00070B4C6680C463EB145681C44AC4207D8A0
:1033C000B446006870BC60476FF0850070BC704701
:1033D0006FF01500FAE710B4026932B10C68436867
:1033E0009C4206D8006810BC10476FF0850010BCE6
:1033F00070476FF01500FAE783690BB10068184752
:103400001846704738B50A46446885681368211D18
:103410002C445D18AC4207D152680068FFF7BAFF30
:10342000B0FA80F0400938BD0020FCE7F0B51D4639
:1034300085B00023CDE902330E461446019047F6CD
:10344000FC77DDE902036A46C11801980291042362
:10345000FFF7A0FF78B9BDF80220131F9BB2BB4253
:1034600007D8BDF800300392B342EAD1294601A83B
:10347000A04705B0F0BD0020FBE7437802781B04AD
:1034800003EB0263428898184B780A781B0403EB1D
:1034900002634A88134483420BD84B790A791B0490
:1034A00003EB0263CA88134498428CBF00200120BA
:1034B00070470020704730B589B0054601A8FEF777
:1034C00031FC044650B918232A464FF4005101A894
:1034D000FDF78CFE044601A8FFF78EFF204609B0D9
:1034E00030BD30B58BB0054603A8FEF729FC044675
:1034F000B8B904224FF4042369460DEB020000938F
:1035000000F067FD0422294602A800F062FD214672
:10351000082301AA03A8FFF74BFF044603A8FFF7FF
:103520006BFF20460BB030BD38B5436805461BB174
:103530004C1E14F8011F01B938BDD5E90130984778
:10354000F7E70EB410B597B019AB044653F8042B47
:103550000193502102A8FEF72DFE206802A9FFF773
:10356000E3FF17B0BDE8104003B07047036819606F
:1035700009B9FDF765BE7047006870472DE9F04F47
:10358000C1B08B464A9B08934B9B09930292DDE99D
:10359000083213430B9000F050810146402220A8CE
:1035A00000F017FD089B0393099B079300230E93DC
:1035B000039B402B079B73F1000314D24022002190
:1035C00030A800F011FD029B039930AA591813F896
:1035D000010B02F8010B9942F9D1CDF838B00DF189
:1035E000C00BCDF808B0402220A90DEB020000F07E
:1035F000F0FC1A9A0492179A06921F9A0A921B9A42
:103600000592DDF840C0149BDDF870A0DDF860E0A5
:10361000119F1598DDF87490199C129E1699DDF88B
:103620007880139D0A2201929C448CEA0A0A0EEBD0
:103630003A4E07448EEA030387EA090904EB39444A
:103640000CEB335C8CEA3A4A60400EEB3A6207EBD3
:10365000305787EA394982EA33530F9304EB3963D1
:1036600083EA30500E440D93049B0C9286EA0808BE
:1036700003EB3844069B069A1D440A9B85EA030E19
:10368000059B03EB3E4361405A4006EB315605EB88
:10369000325586EA384885EA3E4E0CEB706C03EBF7
:1036A0003E6304EB38648CEA3E6E84EA315104EBED
:1036B0003E4484EA70600CEB305C8CEA3E4E05932D
:1036C00083EA32524FEA3E630A9304EB3E6307EB10
:1036D000716783EA30500493059B87EA3A6A03EBEB
:1036E0003A4383EA716107EB315787EA3A4403EBC7
:1036F000346306EB72664FEA346A0C9C059383EAE6
:10370000315186EA396304EB334E8EEA726206EB7E
:10371000325686EA33430EEB336E8EEA32524FEA6C
:1037200033694FEA726306930F9B0F9A05EB73653B
:103730000D9B85EA386403EB34430C9383EA726390
:1037400005EB33550C9A85EA34444FEA346802EBB2
:103750003464019A84EA3353013A4FEA70604FEAC5
:1037600071614FEA736301927FF45EAF0A9A1F9210
:10377000049A1A92059A1B92069A1792029A169127
:1037800010A9129613951994CDF840C01590119771
:10379000CDF870A0CDF87490CDF860E0CDF87880C9
:1037A000149320AD02F140060C46236855F8040B33
:1037B00003441046FFF7E0FE04324340964244F8CB
:1037C000043BF2D12C9801302C9010B92D9B013381
:1037D0002D935B460BF1400451F8042B1A70150A27
:1037E0005D70150C120E9D70DA7004339C42F3D19B
:1037F000039B412B079B73F100032DD2089B099A71
:10380000013B42F1FF329B0943EA826394096FF066
:103810003F015A4201FB0422A3FB01310A440899EB
:103820005B18099942EB0102A3F14001114307D152
:103830000B9B0B9A18632D9B536341B0BDE8F08F2F
:10384000019A019C0E991BF802200A55224601326A
:103850009A420192F4D3EBE7039B403B0393079B0F
:1038600063F100030793029B40330BF1400B02937B
:103870009EE64020704737B51546044698B101933F
:10388000FDF7F2FD01A8FFF777FE20632846FFF75A
:1038900073FE6063281DFFF76FFEA06305F108004B
:1038A000FFF76AFEE06303B030BDF7B507460D468B
:1038B00016461C467BB172B179B900F095FBCDE993
:1038C00000653A4639462046FFF758FE002323702C
:1038D0006370A370E37003B0F0BD00230092019306
:1038E0000A460146EFE768207047402A2DE9F0417B
:1038F00005460E46144600F1680700F167080AD82D
:103900004246081981421BD011F8013B83F036036F
:1039100002F8013FF6E7FDF7E3FD22463146FDF7E9
:1039200009FE01463846FDF7B9FE434605F1870119
:1039300013F8012F82F036028B421A70F8D120243E
:1039400067342C4405F1A7063623B44210D128462B
:10395000FDF7C6FD40223946FDF7ECFD434613F85E
:10396000012F82F06A02B3421A70F8D1BDE8F081EB
:1039700004F8013FE9E738B50C460546FDF78EFE31
:103980002046FDF7ADFD402204F16801FDF7D2FDB0
:1039900020222946FDF7CEFD21462846FDF77EFE72
:1039A00000231A46E2540133A82BFBD138BD30B5B1
:1039B000ABB01D4604466846FFF797FF68462E9A4F
:1039C0002946FDF7B7FD01462046FFF7D4FF2BB08F
:1039D00030BDFFF7ECBF2DE9F047B4B09A463C9DEF
:1039E00000230746884691468DF8073002AE202214
:1039F00041460AA8FFF779FF9DF8074024B120222D
:103A000031460AA8FDF796FD01340AA852464946F8
:103A1000E4B28DF80740FDF78DFD0DF1070101229D
:103A2000FDF788FD01463046FFF7A5FF6DB1013C6B
:103A3000324607EB44140023013312F8011B04F84B
:103A4000011B202B0AD0AB42F6D100231A46F254B8
:103A50000133202BFBD134B0BDE8F087202DF4D901
:103A6000203DC4E7016000F11C03002240F8042F50
:103A70009842FBD17047F0B5002405462646204603
:103A800052F8247051F82430DB1946EB06071B1856
:103A900045F8243004F1010447F10000082CEFD16F
:103AA000F0BD002370B50646184652F8235051F871
:103AB0002340641B65EB0505241A46F8234003F1F7
:103AC000010365F10005082BC5F10000EDD170BDC3
:103AD00070B504395642041F013A1C3054F8043FB3
:103AE00051F8045F134035402B4384422360F5D1E5
:103AF00070BD002330B50446184654F8232051F811
:103B0000235001336A40082B40EA0200F5D130BD52
:103B1000021F00F11C03002052F8041F9A4240EAE1
:103B20000100F9D1704770B5044605681668002099
:103B30000346E1FB6653256056686568E1FB665302
:103B400065609668A568E1FB6653A560D668E56880
:103B5000E1FB6653E56016692569E1FB6653256163
:103B600056696569E1FB665365619669A569E1FB84
:103B70006653A561D569E269E1FB6523E261226ACA
:103B80009B182362404170BD10B50438A1F120029A
:103B90004B7F0C7F1B0443EA0463CC7F23438C7F61
:103BA000043943EA04238A4240F8043FF0D110BDAF
:103BB00070B588B01E460446FFF75DFF32460546E5
:103BC00021466846FFF76DFFC0F101022A436946AE
:103BD0002046FFF77DFF08B070BD2DE9F04F9846F5
:103BE000D3F840A08BB0002307469146184601AA9F
:103BF0000133092B42F8040BFAD1A1F1040B01F1B6
:103C00001C06D9F800305BF8041F019D4A4601A844
:103C100003FB0155FFF787FF0AFB05F50446424603
:103C2000294601A8FFF77FFF01AA04440823516831
:103C300042F8041B013BFAD1B3450994E1D1424655
:103C400001A93846FFF72DFFC0F101022243C2F15E
:103C500001023846FFF73CFF0BB0BDE8F08F0B4682
:103C600001F120020146FFF7B8BF30B589B0044624
:103C70000D4668460121FFF7F5FE2B466A462146B0
:103C80002046FFF7AAFF09B030BD38B504461546F7
:103C9000FFF7E8FE29462046BDE83840FFF7DFBFC2
:103CA0002DE9F04389B01446064601226846FFF725
:103CB0000FFF224601213046FFF7E7FF2568274620
:103CC000023D04F11C094FF02008EB0705D52346FF
:103CD0006A4631463046FFF780FF23466A4669460A
:103CE0006846FFF77AFFB8F101084FEA5505ECD1B5
:103CF0004F4502D057F8045FE5E709B0BDE8F0830F
:103D0000F0B599B004460D461646114668461F4662
:103D1000FDF714FD3246694608A8FDF70FFD3A4647
:103D200069466846FDF70AFD08A91E9A0846FDF790
:103D300005FD224669466846FDF784FD08A92A4626
:103D40000846FDF77FFD6A4631463046FDF7F6FC32
:103D50006A46694610A8FDF7F1FC6A4610A9684654
:103D6000FDF7ECFC10A922460846FDF7E7FC08AA7F
:103D700011462046FDF7E2FC10AA21462046FDF739
:103D800061FD10AA21462046FDF75CFD6A462146EA
:103D90002046FDF757FD10A922460846FDF752FDC3
:103DA00010A908AA0846FDF7C9FC2A4669466846D4
:103DB000FDF7C4FC6A4610A92846FDF743FD19B07B
:103DC000F0BD10B40479012C08D10468D4E90004D2
:103DD000214484682468A44610BC60476FF0150035
:103DE00010BC70470379012B01BF00680B6803F119
:103DF0000062436803BF9B1800200B606FF0150042
:103E000070470020704701290CD1042B0AD14AB118
:103E10000379012B09D10368DB6833B11B68136098
:103E2000002070476FF0150070476FF085007047F5
:103E300083681B6803B118476FF0570070478368A9
:103E40005B6818472DE9F0410C46017901291646B7
:103E50001F461ED10568D5E9011C2144B1FBFCFEBB
:103E60000CFB1E1E2868BEF1000F05D08468646834
:103E7000A446BDE8F0416047836862469B68984766
:103E800038B9D5E900012144836832465C683B4675
:103E9000EEE76FF01500BDE8F08108B500F0E3FC37
:103EA0000A220023FCF7CCF908BD08B50020FFF773
:103EB0008FF800F0C4BC0146006800F0C0BC2DE9DA
:103EC000F04184460F460446214614F8013B202B5E
:103ED000FAD0A3F109000428F6D92D2B25D14B786F
:103EE0008C1C4FF0010E3ABB302B32D00A224FF01F
:103EF000FF310025B1FBF2F102FB01F86FEA08087F
:103F00002846A3F13006092E2AD833469A4237DDD7
:103F10006E1C07D0884230D801D143452DDC00FB10
:103F20000230012514F8013BEBE72B2B04BF4B7843
:103F30008C1C4FF0000ED6E7102AD8D1302BD6D1EA
:103F4000217801F0DF015829D1D1637810220234A1
:103F5000CDE7227802F0DF02582AF6D00822C6E721
:103F600043F02006613E192E0AD8A3F141061A2E0D
:103F700034BF372657269B1BC8E74FF0FF35D1E7E4
:103F80006B1C07D1FEF788FE22230360284647B941
:103F9000BDE8F081BEF1000F00D04042002FF7D005
:103FA0000DB104F1FF3CC7F800C0F1E70346002063
:103FB0001A5C02B970470130FAE7431E013913F861
:103FC000012F11F8010F824201D1002AF7D1101AF6
:103FD000704710B5431E0A44914200D110BD11F83C
:103FE000014B03F8014FF7E7C9B20244034693427D
:103FF00000D1704703F8011BF9E74B68012B07DD7F
:104000000B6818700B6801330B604B68013B4B6009
:104010000020704708B5062201210020FEF7DEF8D7
:10402000002211460620FEF751F80121084607221A
:10403000FEF7D4F8002211460720FEF747F80822C1
:1040400001210220FEF7CAF8002211460820FEF7DF
:104050003DF8092201210320FEF7C0F80022114695
:104060000920FEF733F80A2201210420FEF7B6F8F2
:10407000002211460A20FEF729F8052108461722DA
:10408000FEF7ACF8002211461720FEF71FF8282291
:1040900006210A20FEF7A2F8002211462820FEF78A
:1040A00015F8002008BD0B68A3F13002782A9FBFE5
:1040B00003F1804303F50E3349681A689DBF0A4334
:1040C00000201A606FF0850070470B68A3F1300282
:1040D000782A9FBF03F1804303F50E3349681A68BD
:1040E0009DBF8A4300201A606FF0850070470B68FF
:1040F000A3F13002782A0AD803F1804303F50E3386
:104100001A684B68934314BF012002207047012BAB
:1041100005D0033B022B8CBF0120022070470220F8
:10412000704710B50B68012B02D0033B022B21D83E
:104130004A68FF2A1CD0D3B203F1804303F50E3343
:10414000C2F342341868C2F3042204FA02F220EAED
:1041500002021A604968CBB203F1804303F50E33C3
:10416000C1F302421868C1F304218A4002431A6075
:10417000002010BD6FF08500FBE7F7B51C46164622
:10418000002382682360A36013690D4601AA694673
:104190009847019B5A1E01921BB96FF0150003B09E
:1041A000F0BD0098A26847682168676085B9B31AB6
:1041B000D0F800C0634528BF63461A4403FB0711CB
:1041C0002160A26002689A4206D808300090E0E7B9
:1041D0006B1AB3FBF7F3EBE70020E0E7134600228E
:1041E000FFF7CBBF70B51C461546002322460E468E
:1041F00000F03FF840B12CB1224606F1006128469C
:10420000FFF7E7FE002070BD6FF01500FBE7002010
:10421000704708B5FFF7FBFF00EAE07008BD70B516
:10422000044600F020FB0A220023FCF709F823696A
:104230001B68DA6810F5FA5641F1000512F4F97FAF
:1042400010D0DA6802F4F972DA606FF0040070BD21
:1042500000F009FB0A220023FBF7F2FF864275EB10
:104260000101F2DB23691B68D86810F48030EFD1BC
:10427000EDE77FB505460E46144601AAFFF7AEFFEF
:1042800050B9013C01AAA1192846FFF7A7FFB0FACF
:1042900080F0400904B070BD0020FBE7F0B5054692
:1042A00085B00F46144601AAFFF798FF50B9039E48
:1042B000013C01AAE1192846FFF790FF10B9039FBE
:1042C000BE4201D905B0F0BD2B691C682369002BE3
:1042D0004ADB2846FFF7A3FF0028F3DB23685A05D3
:1042E0000FD5236823F480632360236843F480534D
:1042F0002360236823F480532360236843F480639E
:10430000236023689B050FD5236823F40073236083
:10431000236843F400632360236823F4006323606D
:10432000236843F400732360236923F440732361FB
:1043300023692361236923F0F8032361236943EA96
:10434000C60343F002032361236943F480332361EE
:1043500028462369FFF763FF2369002823F0FA0347
:104360002361AFDB0136ABE76FF00400AAE72DE96C
:10437000F843064601F10067154602EB03080020EA
:10438000454521D0336915F8019B1C682369002B32
:104390001CDB3046FFF743FF002815DB236923F4BD
:1043A0004073236123692361236943F0010323617F
:1043B000236907F8019B3046FFF731FF2369002886
:1043C00023F001032361DBDABDE8F8836FF004001A
:1043D000FAE743685B681B690B600020704743681D
:1043E0005B68586942400A4042405A610020704769
:1043F00043685B6800209961704743685B68090403
:1044000099610020704743685A6853694B40536173
:104410000020704710B503699868F8B1884219D137
:10442000DC6808689860A14200D1D860002008606C
:104430002AB19A680A60DA68996002B9D9600020E6
:1044400010E0814206D108682060D8688142EDD131
:10445000DC60EBE7044600680028F2D1002AE8D1CE
:104460006FF0150010BDF0B5446801206768884002
:104470001E46C2F3801327EA00078B403B4363606C
:1044800090FAA0F7B7FA87F7D4F808C04FF0030EF8
:104490007F000EFA07F72CEA070C90FAA0F7B7FA9C
:1044A00087F7C2F3C1137F00BB4043EA0C03A3604C
:1044B00090FAA0F3B3FA83F3E7685B000EFA03F314
:1044C00027EA030790FAA0F3B3FA83F302F030056A
:1044D0005B00C2F341229A403A43202DE26016D19C
:1044E00007292BDC90FAA0F3226A2BB3B3FA83F3EB
:1044F0009B000F2101FA03F322EA030290FAA0F3D2
:10450000B3FA83F39B0006FA03F31343236290FA92
:10451000A0F3B3FA83F3226890FAA0F05B000321C2
:10452000B0FA80F02D0901FA03F3400022EA0303F8
:1045300085401D432560F0BD2B46D9E7030A616A1B
:1045400093FAA3F282B1B2FA82F292000F2793FAA1
:10455000A3F3B3FA83F307FA02F29B0021EA020203
:104560009E4016436662D2E72A46EEE738B5044617
:1045700090030D46134617D591070ED55A072ED531
:104580005022D8060BD542F4007219031AD561687F
:1045900001234968AB408B610DE01022F1E79906D9
:1045A000F3D542F48062F0E7DA0313D5D80613D4CA
:1045B000C3F340139A02606800232946FFF753FFB4
:1045C000002038BD5B03F6D50121A9402046FFF746
:1045D00014FFF0E73022EEE74FF40072EBE76FF0E4
:1045E0008500EEE770B50B46896821B101255E684C
:1045F0000C68854001B970BD8A682A4002D04B68BA
:10460000304698471CB1236821461C46F2E72346F2
:10461000FAE7F8B51F46044640680E461546FFF710
:1046200022FF112F07D101212B0501FA06F104D534
:1046300063685B6899610020F8BD2046FFF7DDFEE6
:10464000F9E730B5036813600579046804EBC50425
:10465000A34202D36FF0010030BD5C798C4201D0DF
:104660000833F0E70020F7E74368C1F34B101B68FD
:1046700001F01F01C05801238B40034214BF0123E6
:10468000002313700020704710B54368C1F34B102E
:104690001A6801F01F01845801238B402343835083
:1046A000002010BD10B54368C1F34B14186801F029
:1046B0001F01235801228A4023EA020323500020CD
:1046C00010BD38B504460D46FFF7DEFF29462046EB
:1046D000FFF7E8FF002038BD82B003680193019B1B
:1046E00043680193019B02B0704708B541680B68AD
:1046F0001A681868C0071868C2F3C00248BF42F0C1
:1047000002028007186848BF42F004024007186898
:1047100048BF42F02002C00542BF6FF4807042F0F3
:1047200008021860D00702D50868FFF7D5FF930785
:1047300002D50868FFF7D0FF500702D50868FFF7D9
:10474000CBFF930602D50868FFF7C6FF104608BDE9
:1047500037B50369446818688368DB680D46E1680B
:10476000F3B101AA984700281ADB22680198D368A0
:10477000192123F40043D360A0FB0101AA00AB0F71
:10478000FBF75EFD6422B0FBF2F102FB11031B019B
:1047900024683233B3FBF2F303EB01139BB2A36043
:1047A00003B030BD10B54068026813681B06FCD525
:1047B0004FF01002EFF3118382F31288BFF36F8F73
:1047C00002681468240604D483F31188BFF36F8F42
:1047D000EAE7516083F31188BFF36F8F10BD08B50E
:1047E0004368186803681A0701D5FFF775FF036867
:1047F0009B0643BF43680B7000204FF0FF3008BD9D
:104800004FF0E022136923F00103136170477047F2
:1048100040B1C368587810F001001EBF1878B0FA94
:1048200080F0400970474FF01002EFF3118382F3DC
:104830001288BFF36F8FFEE708B5FFF7F4FF10B5DE
:104840004FF01003EFF3118483F31288BFF36F8FDF
:10485000FFF7F2FF84F31188BFF36F8F10BDFFF7EE
:10486000C3BBFFF7B6BBFEF763BB704708BAFF7F59
:1048700001000000A50D01080000000055230108FB
:10488000FC480108CD0D01080000000000000000F8
:1048900010490108C52501089C490108C5250108E2
:1048A000C44901081540010824490108C52501082B
:1048B000B0490108C525010888490108C525010836
:1048C00074490108C525010860490108C52501088A
:1048D0004C490108C5250108384901087D27010810
:1048E000D84901087D270108EC4901086D29010814
:1048F0000000000013420108004A0108A651010807
:104900000000000008E0012076E001200000000027
:104910003D520108F84D0108FC4D01088AE00120D4
:1049200000000000885101080000000000000000A5
:1049300074E00120A8E50120CD510108084D0108CF
:10494000A84D01087AE0012028E60120DB5101088A
:104950001C4D0108A84D01087CE0012038E601202B
:10496000E9510108304D0108A84D01087EE0012001
:1049700048E60120F7510108444D0108A84D0108FF
:1049800080E0012058E6012005520108584D010839
:10499000A84D010882E0012068E6012013520108B9
:1049A0006C4D0108A84D010884E0012078E6012043
:1049B00021520108804D0108A84D010886E0012020
:1049C00088E601202F520108944D0108A84D0108E6
:1049D00088E0012098E601204E5201080C4E0108A3
:1049E000A44E01088CE0012038E001205E5201084D
:1049F000584E0108A44E01088EE0012048E0012035
:104A0000B351010800000000D44C010878E00120F7
:104A100024E001207F500108200000003E500108E2
:104A200040000000440000000040000000000000C2
:104A300018E101203C4A010805000000A0500108CF
:104A400025050108A7500108C35001087505010894
:104A5000B9500108C850010885060108CF50010867
:104A6000D9500108BD060108E0500108FB500108BB
:104A70001914010800510108982F8A429144377196
:104A8000CFFBC0B5A5DBB5E95BC25639F111F159D1
:104A9000A4823F92D55E1CAB98AA07D8015B831213
:104AA000BE853124C37D0C55745DBE72FEB1DE80BF
:104AB000A706DC9B74F19BC1C1699BE48647BEEFEE
:104AC000C69DC10FCCA10C246F2CE92DAA84744A79
:104AD000DCA9B05CDA88F97652513E986DC631A8EF
:104AE000C82703B0C77F59BFF30BE0C64791A7D5CE
:104AF0005163CA0667292914850AB72738211B2E56
:104B0000FC6D2C4D130D385354730A65BB0A6A763D
:104B10002EC9C281852C7292A1E8BFA24B661AA849
:104B2000708B4BC2A3516CC719E892D1240699D659
:104B300085350EF470A06A1016C1A419086C371ED2
:104B40004C774827B5BCB034B30C1C394AAAD84EB0
:104B50004FCA9C5BF36F2E68EE828F746F63A578EB
:104B60001478C8840802C78CFAFFBE90EB6C50A47E
:104B7000F7A3F9BEF27871C60A5695CE5753F2DD07
:104B80005CE419BAE4B84A8B25F321DD8886E8D2C3
:104B9000855D882518FF71853C14A918D430E77904
:104BA00001B6ED5FFC95BA75102562772B73FB7922
:104BB000C65537A5765F9018DFBDC42962DF9CD843
:104BC00090308478CD05F0ACD62E21F7AB20A2E54D
:104BD000344887041D0630DC512563FCC2CAB9F392
:104BE000849E17A7ADFAE6BCFFFFFFFFFFFFFFFFA4
:104BF00000000000FFFFFFFFA2EE79BE954C24836A
:104C0000A66FBD499C79994659EC6B2B39B2452862
:104C10002056D9F3942DE1664FBC00EEFFFFFFFF55
:104C2000FFFFFFFFFFFFFFFF00000000000000008C
:104C30000000000001000000FFFFFFFF0300000074
:104C400000000000FFFFFFFFFBFFFFFFFEFFFFFF75
:104C5000FFFFFFFFFDFFFFFF040000000100000059
:104C60006C4C01080100000000020000004A01082D
:104C7000007E00000000000000000000884C0108D9
:104C80000100000000000200004A010800000400CA
:104C900000000200984C010800000200A84C010826
:104CA0000100000000000200004A010800000600A8
:104CB0000000020000000000C44C010801000000D8
:104CC00000000200004A010800000200000002008B
:104CD00000000000E541010851250108C524010834
:104CE000BD240108B525010801000000FF000000F7
:104CF000040000000040000001000000000001006E
:104D00000300000000000200FFFF0000001C024042
:104D1000070000003000000080000000FFFF0000DE
:104D200000180240060000003000000040000000B3
:104D3000FFFF0000001402400500000030000000EA
:104D400020000000FFFF00000010024004000000EF
:104D50003000000010000000FFFF0000000C0240C7
:104D6000030000003000000008000000FFFF00000A
:104D700000080240020000003000000004000000B3
:104D8000FFFF0000000402400100000030000000AE
:104D900002000000FFFF00000000024000000000D1
:104DA00030000000010000006D450108D3430108F8
:104DB000DF430108F1430108FB43010807440108F0
:104DC000F52501081544010800000000C449010848
:104DD000B04901089C490108884901087449010843
:104DE000604901084C4901083849010800000000E9
:104DF0000000000000000000003802406946010881
:104E000089460108A5460108C34601080044004040
:104E10001049010811040000304E01080100000093
:104E2000000000000000000000000000384E0108F3
:104E30004000000000000200404E01080100000098
:104E4000484E010802000000470000000002000078
:104E50006700000000000000001001401049010838
:104E6000840400007C4E01080100000000000000E6
:104E70000000000000000000844E01084400000013
:104E8000100000008C4E010801000000944E010843
:104E900002000000C702000000020000E70200005C
:104EA00000000000DF470108A5470108EB460108A4
:104EB0007448010874480108EC480108F4480108E6
:104EC000FC480108FC48010800100000003062792D
:104ED000706173732063616C6C65640D0A00496EC8
:104EE00073756666696369656E7420617267756D56
:104EF000656E7473005265626F6F74696E670A0045
:104F0000496D61676520736C6F747320282564296F
:104F10003A0D0A00736C742025643A20737461742E
:104F2000652025780D0A0055706461746520736CE6
:104F30006F747320282564293A0D0A004261636B5F
:104F4000757020736C6F747320282564293A0D0ADC
:104F500000476F696E6720746F20627970617373A8
:104F6000206D6F64653A20004F4B0A004261642057
:104F7000736C6F742073706563696669656400495A
:104F80006D61676520746F206C6172676500577290
:104F90006974696E67202564206279746573207472
:104FA0006F20736C6F74202564202E2E2E004368B2
:104FB00065636B696E6720696D6167650D0A0049FD
:104FC0006D6167652073746174652025780D0A0032
:104FD00062616420696D6167650D0A006261642029
:104FE000696D6167652073657175656E6365206EB7
:104FF000756D6265720D0A0057726974696E67207B
:10500000746F20666C617368202E2E2E0D0A00527C
:10501000656164206661696C6564005772697465D6
:10502000206661696C6564006F66663A20256C6471
:105030002C2072733A202564204F4B0D0A00761500
:105040007CA91BD064C5F45FDAAAF8AB31FAA84991
:10505000CB7F1284BE7998D3A955EF9A27EE6CAE18
:10506000F042703E9650ACC70DE45FF3F54B99F7F4
:105070009C49E31C793B594B433841A4B681002E2F
:10508000CC3406C9ACD5F166028DB191BC1C5F0869
:105090005376DAC0E9D2AFAB3766651D6789660023
:1050A0007265626F6F74005265626F6F742074680E
:1050B00065206465766963650047657420696D6184
:1050C000676520696E666F00627970617373005363
:1050D00061792068656C6C6F0075706C6F6164003D
:1050E00055706C6F616420696D616765205B736CDE
:1050F0006F745D205B73697A655D0068656C700034
:105100004C6973747320616C6C20636F6D6D616E9C
:105110006473002D002B0030780030580045525247
:1051200000286E696C290053424B204349504800C7
:1051300073626B5F7368656C6C3E2000082008002A
:1051400072657475726E6564206572726F720D0A95
:1051500000556E6B6E6F776E20636F6D6D616E6460
:105160003A200054797065202768656C7027207498
:105170006F206C69737420616C6C20636F6D6D615E
:105180006E64730D0A008000696E746572727570CA
:10519000742D636F6E74726F6C6C65724034303056
:1051A000313363303000726363403430303233382F
:1051B000303000666C6173682D636F6E74726F6C53
:1051C0006C65724034303032336330300067706960
:1051D0006F403430303231633030006770696F4077
:1051E0003430303231383030006770696F403430DD
:1051F000303231343030006770696F4034303032D3
:1052000031303030006770696F4034303032306395
:105210003030006770696F403430303230383030B1
:10522000006770696F40343030323034303000679E
:1052300070696F4034303032303030300072657316
:1052400065742D636F6E74726F6C6C65720073653C
:105250007269616C40343030303434303000736502
:105260007269616C403430303131303030000000D0
:105270000000000000000102030406070809000006
:10528000304A0108C51D0108A7400108CB400108AC
:1052900000000000D5220108EF40010800000000D6
:1052A00023410108003C0240000000000000000013
:1052B00000000000000000000000000040E00120AD
:1052C00000C20100000103000000000050E00120C6
:1052D00000C20100000103000024F4005CE0012092
:1052E0005CE00120FFFFFFFFFFFFFFFFFFFFFFFF6D
:1052F000FFFFFFFF000000000000000000000000B2
:10530000000000000000000000000000000000009D
:1053100015E015E0F32BEA1943DC7D6461EE8A3475
:00000001FF
