:020000040802F0
:10000000FF7F640093CF1E77E39AF8B5031B44D1BA
:10001000203B0EEA5F3275021506CADB4C342446DB
:100020008B0F27D5140AE6B28A1464F04D0805AB8D
:1000300000C4F0A90AA027BD9C5867C5D0D6A6A1C8
:10004000BAB17D2F3CCE5C245337D42E07FECE0BA5
:1000500095BA5BCF75AE0CE152C0D7E09CF3BE40C1
:10006000A1F8E14400802C00020200000002020816
:1000700000000000883F00000002010000000000B6
:10008000CDAA7A8AC22168CB84769D8753445D636A
:10009000010014000000000002020000000202083B
:1000A0000000000000000000000000000000000050
:1000B0000000000000000000000000000000000040
:1000C0000000000000000000000000000000000030
:1000D0000000000000000000000000000000000020
:1000E0000000000000000000000000000000000010
:1000F0000000000000000000000000000000000000
:1001000000000000000000000000000000000000EF
:1001100000000000000000000000000000000000DF
:1001200000000000000000000000000000000000CF
:1001300000000000000000000000000000000000BF
:1001400000000000000000000000000000000000AF
:10015000000000000000000000000000000000009F
:10016000000000000000000000000000000000008F
:10017000000000000000000000000000000000007F
:10018000000000000000000000000000000000006F
:10019000000000000000000000000000000000005F
:1001A000000000000000000000000000000000004F
:1001B000000000000000000000000000000000003F
:1001C000000000000000000000000000000000002F
:1001D000000000000000000000000000000000001F
:1001E000000000000000000000000000000000000F
:1001F00000000000000000000000000000000000FF
:10020000C010002071130208F52C020845130208E3
:1002100045130208451302084513020800000000B8
:10022000000000000000000000000000C50F0208F0
:100230004513020800000000710F02088D1E02081D
:100240007510020875100208751002087510020872
:100250007510020875100208751002087510020862
:100260007510020875100208751002087510020852
:100270007510020875100208751002087510020842
:100280007510020875100208751002087510020832
:100290007510020875100208751002087510020822
:1002A0007510020875100208751002087510020812
:1002B0007510020875100208751002087510020802
:1002C00075100208751002087510020875100208F2
:1002D00075100208751002087510020875100208E2
:1002E00075100208751002087510020875100208D2
:1002F00075100208751002087510020875100208C2
:1003000075100208751002087510020875100208B1
:1003100075100208751002087510020875100208A1
:100320007510020875100208751002087510020891
:100330007510020875100208751002087510020881
:100340007510020875100208751002087510020871
:100350007510020875100208751002087510020861
:100360007510020875100208751002087510020851
:100370007510020875100208751002087510020841
:100380007510020875100208751002087510020831
:10039000751002087510020853B94AB9002908BF40
:1003A00000281CBF4FF0FF314FF0FF3000F00CB8B9
:1003B000ADF1080C6DE904CE00F008F8DDF804E0BA
:1003C000DDE9022304B07047704700BF2DE9F04714
:1003D00086468C460846089E154674461946002BEC
:1003E00040F0C2808542B2FA82F245D94AB1C2F1E8
:1003F000200300FA02FC2EFA03F3954043EA0C0CAA
:1004000094404FEA154EA8B2BCFBFEF8230C0EFB3D
:1004100018CC08FB00F943EA0C43994528D9EB189E
:1004200008F1FF3704D2994502D9A8F102072B44FD
:10043000A3EB0903A4B2B3FBFEFC0EFB1C330CFBC5
:1004400000F044EA0344A04214D92C190CF1FF3304
:1004500004D2A04202D9ACF102032C44241A43EA8C
:1004600007401EB1D440002334607360BDE8F087BC
:100470004746DDE76346F1E792BB431B01214FEAA4
:10048000154EAFB2B3FBFEFC200C0EFB1C330CFB75
:1004900007F840EA0343984562D9EB180CF1FF30A6
:1004A00004D2984502D9ACF102002B44A3EB080317
:1004B000A4B2B3FBFEFC0EFB1C330CFB07F744EAB3
:1004C0000344A7424ED92C190CF1FF3304D2A742A2
:1004D00002D9ACF102032C44E41B43EA0040C0E71C
:1004E000C2F1200320FA03F1954090402EFA03F365
:1004F00003434FEA154EAFB2B1FBFEFC0EFB1C10DE
:10050000190C0CFB07F841EA0041884504FA02F493
:1005100022D969180CF1FF3004D2884502D9ACF118
:1005200002002944A1EB08019BB2B1FBFEFC0EFBCB
:100530001C110CFB07F743EA01439F420ED9EB184D
:100540000CF1FF3104D29F4202D9ACF102012B44DD
:10055000DB1B41EA004192E76046E3E76146F7E7CB
:100560006046A3E76346B7E7834206D916B9002180
:1005700008467BE7C6E900E0F9E7B3FA83F78FB9ED
:10058000834201D3724508D8BEEB020460EB03033B
:1005900001209C461EB9002168E73846FAE7C6E903
:1005A000004CF8E7C7F1200CBB4022FA0CF41C43C6
:1005B0002EFA0CF120FA0CF3B84001434FEA14492B
:1005C0000EFA07F5B3FBF9F81FFA84FE09FB1830A1
:1005D0000B0C08FB0EFA43EA00439A4502FA07F2B5
:1005E00040D9E31808F1FF3004D29A4502D9A8F1A6
:1005F00002002344A3EB0A0389B2B3FBF9F809FB19
:10060000183308FB0EFE41EA03418E452CD96118D0
:1006100008F1FF3304D28E4502D9A8F10203214428
:1006200043EA0040A0FB0298A1EB0E014145CE46F3
:10063000434602D306D14D4504D2B9EB020E68EB16
:1006400004030138002EA6D0B5EB0E0261EB0301C6
:1006500001FA0CFC22FA07F34CEA0303F940C6E95D
:10066000003198E74046C5E74346D9E71FB508493A
:10067000084802F0BEFA084883686A461C680021F0
:100680001023A0470146054802F0B3FA04B010BD9C
:100690003E3F02084C3F02089C3902085D3F0208B9
:1006A000014B1B68184700BF00000020014B186079
:1006B000704700BF0000002007B50B46002102462E
:1006C0000091034800F006F803B05DF804FB00BF9A
:1006D000A10602082DE9F04F814695B08B461746DA
:1006E0001C460025387808B9284658E37B1C252885
:1006F000039306D05946C8470028C0F250830135FD
:10070000FBE1182200210EA802F016FB7B78252BB6
:100710007DD00023781C98469E469C461E46014686
:1007200010F8012B2B2A00F0A18000F29880202ADB
:1007300000F09F80232A00F09F802BB19DF840306D
:1007400043F040038DF84030B8F1000F05D09DF81C
:10075000403043F020038DF84030BEF1000F05D04B
:100760009DF8403043F010038DF84030BCF1000F8D
:1007700005D09DF8403043F008038DF840302EB18D
:100780009DF8403043F004038DF840309DF8403030
:1007900003F04400442803D16FF386138DF84030F2
:1007A0009DF840302A2A43F080038DF840307FD1F5
:1007B0009DF8412042F001024B1C8DF841201A782F
:1007C0002E2A9DF841200CBF0121002161F3410236
:1007D0008DF8412078D15A782A2A6ED00133002230
:1007E0004FF00A0C194611F8010BA0F13006092E42
:1007F00040F295809DF840101292C1F3400040EA0B
:10080000D2700A4660F341028DF840205CE0BA1CC9
:1008100003928DF843309DF84130DA0740F12E8184
:1008200054F8048BB8F1000F07DA9DF8402042F02D
:1008300004028DF84020C8F100085E0740F12781CE
:1008400054F804ABBAF1000F80F226819DF84130D4
:100850006FF341038DF841304FF0FF3A1CE12D2A30
:100860000DD0302A7FF469AF012358E74FF0010C17
:1008700055E74FF0010E52E74FF001084FE7012610
:100880004DE70EFB0262303A0346184610F8016B42
:10089000A6F1300CBCF1090FF3D999428FD09DF825
:1008A00040101192D20F62F341018DF8401086E79B
:1008B0000B4600224FF00A0EE7E79DF8412042F078
:1008C00004028DF8412002331A786C2A47D02BD8C5
:1008D000682A31D06A2A4BD04C2A51D01A4612F8D5
:1008E000013B0392782B9DF841208DF8433000F2B4
:1008F000BE806D2B51D8692B00F2B980572B67D879
:10090000412B03D0453B022B00F2B1809DF84230D1
:10091000042262F302038DF84230012373E00CFBE2
:100920000202303A0B465DE7742A25D07A2AD5D1E7
:100930009DF8412006210CE05A78682A9DF8412054
:1009400006D1012161F3C6028DF841200233C5E7CB
:10095000022161F3C6028DF841200133BEE75A78C7
:100960006C2A9DF8412001D10421EBE70321F0E737
:100970009DF841200521ECE79DF841200721E8E79B
:10098000BDF8402022F4F04222F0020242F48042FC
:1009900042F00202ADF84020DFE76E3BD9B20123FE
:1009A0008B4040F282410B4237D113F0240F51D1DA
:1009B000D8075CD59DF84230032161F302038DF81E
:1009C000423002F07803A3F140014B424B411AE060
:1009D000A3F15801C9B2012000FA01F111F4624FEC
:1009E00094D140F6010631421DD111F4043F3ED0AE
:1009F0009DF8423060F3020302F07802402A8DF83D
:100A0000423034D000239DF84020C2F340010B4314
:100A100063F341028DF84020FDE69DF8423002214B
:100A200061F30203E8E79DF84210022002F0780229
:100A300060F30201402A8DF8421002BF9DF8401079
:100A400041F001018DF84010632BDBD1131E18BF5C
:100A50000123D8E79DF84230032161F3020312F02D
:100A6000780F8DF8423014BF01230023CBE79DF8A7
:100A7000403043F001038DF84030C3E79DF940203A
:100A8000002AB4BFDDF844804FF0FF38D5E6980760
:100A90007FF5E2AEDDF848A09DF841100023CDE9D6
:100AA00011339DF8423003F00703012BC1F3C3015A
:100AB00033D1CB1E042B04D8DFE803F021464621B6
:100AC0002100236801294FEAE372CDE90E321CD1DF
:100AD0009DF93830DA17CDE90E3204349DF84030F4
:100AE00013F0030650D0039B3A465946484602F09D
:100AF000DDF80028C0F253810544039FF2E554F865
:100B0000043BDA17CDE90E32E8E70229E5D11AB243
:100B100043F3C033CDE90E23DFE7022B24D1CB1EF4
:100B2000042B04D8DFE803F018101018180001296E
:100B300054F8043B4FF0000214D00229CDE90E32E4
:100B4000CCD19BB20E93C9E7073424F00704F4E834
:100B50000223CDE90E23C1E754F8043B0E93002392
:100B60000F93BBE7DBB2CDE7042B08D1073424F0A9
:100B70000704D4E900230834CDE90E23AEE7032BA4
:100B8000ACD154F8043BDDE79DF843007828B4D895
:100B900062281CD825283FF4ADAD5828ADD10DF101
:100BA00036030093DDE90E0108AB10AA02F038F815
:100BB000BAF1000F074680F29A80002F9DD00DF108
:100BC0003603D81B002E00F0C1800130BEE0633830
:100BD000152892D801A252F820F000BFB10C0208EB
:100BE000C30C0208FB0A0208FB0A0208FB0A0208FF
:100BF000FB0A0208C30C0208FB0A0208FB0A0208EF
:100C0000FB0A0208FB0A0208510D0208E90C02085F
:100C10000F0D0208FB0A0208FB0A0208350C020845
:100C2000FB0A0208E90C0208FB0A0208FB0A020898
:100C3000E90C0208BAF1000F0E9F35DB5146384629
:100C400002F066F807EB000A002F3FF456AF0026CB
:100C50009DF8423013F01002059200F093800230AC
:100C60005B06119A48BF129B0492104448BFC018FB
:100C7000B8F1000F40F3A0809DF84020A8EB0008D9
:100C8000C2F380035007069300F19680510640F1AD
:100C900089803EB159463046C84700287FDB069B15
:100CA00001351E4630227EE0384602F02AF8C9E7B8
:100CB0000E9B8DF82030002608AF0DF1210A01208F
:100CC000C6E719075CBFC3F300135E01DDE90E231D
:100CD00048BF2B26002BBFF662AF524263EB4303A3
:100CE000CDE90E232D265AE7002658E700269DF869
:100CF00040200DF13603DB1B6FF386129A458DF809
:100D000040207FF65AAFAAEB0303119355E70E98E4
:100D100090B30DF13603009310AA08AB002101F047
:100D20007FFFBDF8423003F0EF0343F4F04343F09C
:100D30001003BAF1000F0746ADF84230D6DA0028AA
:100D40003FF4DBAE0DF13603181A00269A467FE712
:100D50000E9B07293FF6D1AEDFE801F00C04060C2C
:100D600008080C0C1D70C8E61D80C6E6EA17C3E92A
:100D70000052C2E61D60C0E62E4F064607F1050A86
:100D8000052065E71A0748BF013069E70793104659
:100D900006925946C8470028DDE9062304DA15B053
:100DA000BDE8F08F202243461946002903F1FF33A6
:100DB000ECDC45446D1A98462EB159463046C8477A
:100DC0000028ECDB01359DF84230DA0601D41B0720
:100DD00005D559463020C8470028E0DB0135059B82
:100DE00033B19DF843005946C8470028D7DB013589
:100DF000049E2E4405E059463020C8470028CEDB2B
:100E00000135731B002BF6DC53463A4659464846DB
:100E100001F04CFF0028C2DB0544A844A8EB050301
:100E2000002B7FF76AAE59462020C8470028B6DB62
:100E30000135F3E7753F02080C4B1A6842F4007263
:100E40001A601A6842F480621A604FF01002EFF3E1
:100E5000118382F31288BFF36F8F83F31188BFF37E
:100E60006F8F034B034A1A6000207047003C02401A
:100E7000580000200024F400014910220A60704745
:100E800010ED00E072B6404080F31188BFF36F8F21
:100E9000BFF34F8F30BF62B6BFF36F8F704700BF95
:100EA00040B2002807DB044A4109012300F01F007B
:100EB000834042F82130704700E100E040B2002852
:100EC000A8BF00F1604001F10101B8BF064B4FEA35
:100ED0000111ACBF00F5614000F00F00C9B2B4BF12
:100EE000195480F80013704714ED00E030BFFFF78D
:100EF000FDBF00BF0F4A08B50F4B22F07F029A607A
:100F0000BFF34F8FBFF36F8FD3F8882022F47002A6
:100F1000C3F88820EFF3148323F0040383F31488C9
:100F2000BFF36F8F01F052F901F0EEFC00F014FAFC
:100F300001F090F90002020800ED00E0094A0A49B8
:100F4000936809689967094958674B6843F080536B
:100F50004B60002383F31188BFF36F8F9368986F02
:100F6000704700BFB40200201C3F020800ED00E003
:100F700012498A684FF030001044EFF3098C80E882
:100F8000F01F102080F31288BFF36F8F0C4F4FF0CB
:100F900000668A698A603E60506F0023536780F361
:100FA000118804B5104600F01BFABDE8044002F1B8
:100FB000300090E8F01F8CF309887047B4020020DD
:100FC00004ED00E01EF0040F0CBFEFF30880EFF318
:100FD0000980816911F8021C0229FFD001B501F0D6
:100FE00081FE01BD42F8203C009B42F81C3C0A49AE
:100FF000019B42F8183C029B42F8143C21F001018D
:101000004FF0807342F8043C42F8081C0023203A59
:1010100002654367704700BF0D2C0208094A03466A
:10102000906870B113F1160F406E05D0A0F1400228
:101030009A4205D8834203D2814228BF00207047DC
:1010400000207047B402002008B5094B98600D4697
:10105000144600F0C5F9204685F30988002163B6DF
:1010600081F31188BFF36F8F0022002301F0CEFDC2
:10107000B402002001B5EFF30580A0F110004FEAA3
:10108000C0000449014409C99847BDE8014002492C
:1010900008470000B43902089D100208044B996803
:1010A0009869884203D003494FF080520A60704724
:1010B000B402002004ED00E070B5264B15469A6A94
:1010C00012F0100F9A6A14BF1124102412F0080FA6
:1010D0009A6A18BF1224920706460AD5586B9A6A74
:1010E000140634D519B19A6A22F080029A62132448
:1010F00001E06FF01500174B9A6A12F0010F9A6A1F
:1011000018BF142412F0200F9A6A18BF1524D206B3
:1011100002D49B6A9B070AD50E4B5B68190506D55E
:101120003146FFF77BFF10B180F309880224094B99
:101130009A6A920642BF5A6A22F400525A629A6A26
:1011400042F0FF029A6200232B70204670BD6FF0C0
:101150001500CCE700ED00E0134B9A6A12F0007F17
:101160009A6A14BF1E201D2012F0807F9A6A18BF51
:101170001F2012F4002F9A6A18BF212012F4802F2A
:101180009A6A18BF222012F4003F9A6A18BF2320DF
:1011900012F4803F9A6A6FEA02426FEA12429A6240
:1011A00018BF2420704700BF00ED00E010B5194BB8
:1011B0000246986A9C6A10F4805F14BF17201620BC
:1011C00014F4006F9C6A18BF1820A40509D5986B09
:1011D000986A000404D51AB19A6A22F400429A620D
:1011E00019200C4B9A6A12F4806F9A6A18BF1A2061
:1011F000D2050CD49B6A13F4005F18BF1C20054A6B
:10120000936A43F47F43936200230B7010BD1B204D
:10121000F5E700BF00ED00E070B5454B5B688AB0B4
:101220000546C3F30803002686F31188BFF36F8FCA
:1012300002F07F40B0F17F4F11D102F00C0008287E
:101240000DD010074CBF0D4601260022033B8DF840
:101250000720032B05D8DFE803F01E5D615A3546F1
:10126000F3E700249DF807309BB92022294602A805
:1012700001F057FD099B002E54D0C3F3080222B998
:101280006FEA53236FEA4323099302A9204601F032
:1012900027FD0AB070BD264BDA6A9107E1D4DA6AFD
:1012A000002ADEDBDA6A5200DBD55A69A96942F40A
:1012B00080725A61BFF34F8FBFF36F8F5A6931F855
:1012C000021C22F480725A61BFF34F8FBFF36F8FFD
:1012D0004DF6027291420AD09A6AD2B24AB10DF129
:1012E000070201212846FFF7E7FE0446BAE72C680B
:1012F000B8E79A6A12F47F4F05D00DF1070101207B
:10130000FFF754FFF1E79B6AB3F5803FA9D3FFF7DE
:1013100023FFEAE70DF107020021E3E70DF10701E2
:101320000020EDE723F4FF7323F00103ACE700BFD7
:1013300000ED00E0024A536943F010035361704727
:1013400000ED00E0EFF30880EFF3098101B572468C
:10135000FFF762FF01BD00BF044800231021C2183F
:101360000133562B82F80013F9D1704700E100E0F9
:10137000102080F3118808484FF40461401880F36E
:101380000988EFF314800221084380F31488BFF327
:101390006F8FFFF7AFFD000000030020084B9B6834
:1013A00083420BD1EFF3058343B1064B5A6842F0F9
:1013B00080525A605A6A22F400425A6201F044BADA
:1013C000B402002000ED00E0024B034A0348012173
:1013D00000F070B800000220000000201C3D020850
:1013E000426E054B403A1A60044A4021C3E901129B
:1013F0001846012100F068B89801002000000B1584
:10140000F0B5204E00258D4239DA446874B353B1EB
:1014100004F1FF3C14EA0C0F2FD11F2C2DD90768C3
:101420001CEA070F29D1202C0768D0F808C05FFA02
:1014300082FE1ED9B4F1004F1DD8013CB4FA84F4E9
:10144000C4F11F046400BEF1070F4CEA040C14D869
:1014500027F01F04144344F01004C6F89820C6F87F
:101460009C404CF00104C6F8A040013201350C301C
:10147000C9E70824E7E73E24E5E76FF015021046C8
:10148000F0BD00BF00ED00E0044B0522C3F894203E
:10149000BFF34F8FBFF36F8F704700BF00ED00E0C9
:1014A000BFF35F8F024B0022C3F89420704700BF48
:1014B00000ED00E010B5034C01232278FFF7A0FFF8
:1014C000207010BDE802002008B5094A00231278F8
:1014D000FFF796FF10F1160F02D0064A072800DD2D
:1014E00008BDC2F89800C2F8A0300130F6E700BF8E
:1014F000E802002000ED00E014490868082810B553
:1015000021D8FFF7CDFF124C49680022904201F12B
:101510000C0105D10F4B1870FFF7B6FF002010BD6E
:10152000C4F8982051F80C3C23F01F03134343F0F8
:101530001003C4F89C3051F8043C43F00103C4F894
:10154000A0300132E2E74FF0FF30E8E7283D020823
:1015500000ED00E0E8020020014B1860704700BF7A
:10156000040000202DE9F0410E4E0F4F05460024E7
:101570004FF001082B7818191F280DDC726908FA42
:1015800000F333EA020207D1736157F830301BB120
:1015900007EBC002516898476B780134A342E9DA3F
:1015A000BDE8F081003C0140A4010020044B184438
:1015B00000230133994200F8012BFADC704700BF89
:1015C0006400002010B4064B064902460C68185609
:1015D0000123934023430B6010BCFFF761BC00BFA5
:1015E00064000020003C01401F2806DC0349012262
:1015F0000B68824023EA02030B607047003C014005
:1016000003292AD8DFE801F0020E141F134B012230
:101610009968824021EA02019960D96821EA0202B0
:10162000DA6070470D4B0122996882401143F3E75D
:101630000A4B0122D96882401143D960996821EA96
:1016400002029A607047012303FA00F0034B9A6884
:1016500002439A60DA681043D8607047003C01404A
:1016600010B5074B044653F8300028B943F834103E
:1016700003EBC4035A6010BD6FF00F00FBE700BF1F
:10168000A4010020034B002243F8302003EBC003E9
:101690005A607047A401002010B5224B18680B68EF
:1016A000442B144628D82F2B05D8013B052B0DD9E8
:1016B0006FF085001FE0A3F1300101228A401A4932
:1016C0000A4216D1402BF3D1400812E0052BEFD887
:1016D00001A252F823F000BFFF1602080F170208FC
:1016E000B1160208F11602081F170208F3160208C5
:1016F00000202060002010BDA82BFAD0D8E700F011
:101700009DF84FF4C073C00858438008F1E700F01B
:1017100095F84FF4C073C0085843C008E9E74FF488
:10172000FA40E6E7580000201101100070B53F4C68
:1017300000F09CF800F05AFCA3683D4AC3F3031381
:10174000D35C20FA03F53B48854201D200F07CFCD3
:10175000236843F480232360236843F480332360A9
:10176000324B1A689603FCD55A6F42F001025A6751
:101770005A6F9407FCD59A6802F00C02082A17D118
:101780009A6822F0F0029A601A68900707D41A68E3
:1017900042F001021A60254A13689907FCD5234BD1
:1017A0009A6822F003029A609A6812F00C0FFBD13B
:1017B0001E4C236823F080732360636823F4403356
:1017C00043F480336360636823F0706343F0006325
:1017D000636000F037F8236843F080732360236868
:1017E0009B01FCD5A36823F0F003A360A36823F05A
:1017F000030343F00203A3600C4CA36803F00C0343
:10180000082BFAD10B4EB54202D3304600F01CFC37
:10181000094B1E60A36823F4E05343F48053A36094
:10182000A36823F46043A360002070BD0038024029
:101830009940020800D8B8055800002000487047B9
:1018400000127A00064A074953681940064B0B43B9
:101850005360536823F4403343F48033536070473C
:10186000003802400080BFFF08604000064B1A6C41
:1018700042F080521A641B6C82B003F080530193D3
:10188000019B02B0704700BF0038024008B507480E
:1018900001F07BFE38B10648FFF75EFE0448FEF714
:1018A00005FF002008BD6FF01200FBE76C3902084D
:1018B000B51802080A2838B5074D044604D1AB68AC
:1018C0000D215B6828469847AB6803485B68E1B226
:1018D0009847204638BD00BF6C3902080048704761
:1018E0005C3D0208F8B5012305460E46144601F09A
:1018F00042FB002843D024B3286901F0FDFA2B698C
:101900001B681A69002A1EDB22463146284601F070
:1019100047FB2B691B681A685205044619D42B69CA
:1019200028461F6801F0FDFA064618B328690430FE
:1019300000F07AFD2869002C08BF3446043000F01E
:1019400073FD2046F8BD0F4A5A6002F188325A6092
:10195000DAE71A6822F480621A601A6842F4805248
:101960001A601A6822F480521A601A6842F480627F
:101970001A60D4E73B6943F000433B61DAE76FF05C
:101980001504DEE723016745F8B51C461746012319
:10199000224605460E4601F0EEFA70B304B32869FC
:1019A00001F0AAFA2B691B681A69002A1ADB234680
:1019B0003A463146284601F056FB2B690446284634
:1019C0001F6801F0AEFA064690B12869043000F0B5
:1019D0002BFD2869002C08BF3446043000F024FD9C
:1019E0002046F8BD064A5A6002F188325A60DEE7A6
:1019F0003B6943F000433B61EBE76FF01504EFE711
:101A000023016745024B0B6003231360704700BF3F
:101A1000643D020838B5036904465860084D2846FD
:101A200001F0B3FD40B16168AB680C311B6828461A
:101A3000984700EAE07038BD6FF01200FBE700BF86
:101A400064380208F7B51746B7F5001F4668026903
:101A50000C461D4624D101F00302043292000F23EC
:101A6000934043EA9103DAB23349023251F822201B
:101A7000190C02EA134391FAA1F2B2FA82F2D340AE
:101A8000B2689A4209D12046FFF7AEFD2046FFF723
:101A9000F9FD00212046FFF7B3FD002003B0F0BDA3
:101AA000B7F5800F41D025492046FFF7D9FD002822
:101AB0003ED1234AB66892E803006B4683E80300F0
:101AC00020488268194612689047C0B904F00303A1
:101AD00004339B000F229A4042EA9402D3B29B0047
:101AE00003F1804303F59C33110C986820EA1240FF
:101AF00091FAA1F2B2FA82F2964006439E60B5F1E5
:101B0000806F0ED0B5F1C06F0DD005F17E43594204
:101B1000594149002046FFF773FD2046FFF752FD6B
:101B2000BBE70121F6E70321F4E76FF08500B5E795
:101B30006FF00F00B2E700BF00380140DD3202084D
:101B4000143D0208643802082DE9F0471E4F044690
:101B500000EBC1060025B44201D1002014E020684A
:101B6000C30600F01F0911D4656845F02005C0F3D5
:101B7000471AC0F343200A2823D857F82080B8F129
:101B8000000F0DD16FF01200BDE8F087B9F1100F12
:101B900004D0B9F1110FEAD16568E8E73025E6E72E
:101BA000404601F0F2FC0028ECD04B462A460AF0F1
:101BB0000F01404601F0A9FB002804F10804CADA2D
:101BC000E2E76FF01500DFE7403E0208F7B507696E
:101BD000446806463948786001F0D7FC20B96FF0B8
:101BE0001205284603B0F0BD7868616883681B68F9
:101BF000984705460028F4D1014601AAA06901F0E2
:101C00009CFB002801DA0546EBE7019B2A4619797F
:101C10001868FFF799FF0028F5DB2268D36823F4E2
:101C20000053D360B86801F0B0FC0028D7D0D7E9E2
:101C300002018368DB6803B19847216801F10C0356
:101C400053E8003F43F00C0301F10C0040E8003280
:101C5000002AF3D12369022B2AD0012B12BF0020C6
:101C60004FF480504FF4C0622168CB68104323F4D6
:101C7000B0530343CB600B6923F440530B61237BC8
:101C80002BB173681A68536943F440735361396820
:101C9000304601F009FC237D23B12268536943F0EB
:101CA000080353612268D36843F40053D36098E774
:101CB0004FF480504FF48062D6E700BF64380208CA
:101CC0002DE9F0410B7945680669012B0C467DD062
:101CD0009A1E57425741BF02627994F80680022A41
:101CE00096BF4C494FF4005C31F812C0B8F1040FB4
:101CF0007BD094F807E0002B6BD1BEF1010F22F0EE
:101D000002027FD0002A70D0B8F1020F6DD91946B7
:101D1000D5F80080BEF1000F0DD03F4A904507D0A6
:101D2000A2F54C42904503D002F5504290455CD15B
:101D3000BEF1010F59D1D8F80C2022F40052C8F896
:101D40000C204268D2F800E0DEF80C2002F4C062F9
:101D500097421FBFDEF80C2022F4C0623A43CEF84F
:101D60000C20426817683A6902F4405294451FBF3C
:101D70003A6922F4405242EA0C023A61426817681A
:101D8000FA6802F480529A421FBFFA6822F4805225
:101D90001343FB6043681A68536903F44073994224
:101DA0001FBF536923F440730B43536121683368A9
:101DB000994203D001F078FB236833602A68D36826
:101DC00043F40053D3600020BDE8F0814FF4C067B6
:101DD00082E7033BBEF1010FDBB209D1012B04D92D
:101DE0004FF4407112F0FD0F06D16FF08500EBE764
:101DF000012BFAD90021F5E7B8F1020FF5D94FF41C
:101E0000805385E7002AF0D0B8F1020FEDD94FF4E6
:101E100040717DE7383F02080010014010B54FF0D7
:101E2000E0239A6919699869094B11F4803F0949BF
:101E300001D1824206D21A680C6822441A604FF01F
:101E4000E02212691B680A681344181A10BD00BF0B
:101E5000A4020020B0020020094B102283F82320A6
:101E6000084B42F27F521A60074B002018604FF077
:101E7000E0235A6198611A6942F007021A617047BB
:101E800000ED00E0B0020020A402002008B5FFF73A
:101E9000C5FF0C4B0C4A18681168084410600022FA
:101EA0001A600A4A13684FF41651C01AB0FBF1F0D9
:101EB00001FB0033136000F00DFEBDE80840FFF7A2
:101EC000EDB800BFA4020020AC020020A802002050
:101ED0002DE9F041314E002954D0421C0AD14FF077
:101EE000E022136923F0010313614FF07F43336055
:101EF000BDE8F081356801284ADD40F2D2684045EE
:101F000001DC00F1FF384FF01003EFF3118483F38D
:101F10001288BFF36F8FFFF781FF214F4FF0E0234F
:101F20000021D3F818C03B68C2181E4B19601E4B25
:101F30001B68D11A2FD44FF4165000FB081101F57D
:101F400015519B1A3F31B1FBF0F100FB0133B3F5A2
:101F5000806F20D915498B4228BF0B464FF0E021F6
:101F600033608869013B4B6100238B618445ACEB96
:101F7000000338BF5B191A443A6084F31188BFF339
:101F80006F8FB5E7431C3568B5D140F2D260B8E732
:101F90004FF00008B7E74FF48063DFE7B00200209E
:101FA000AC020020A4020020A802002000C3FF0011
:101FB00010B54FF01003EFF3118483F31288BFF3D1
:101FC0006F8FFFF72BFF074B074A1B6812689B1A9E
:101FD000034484F31188BFF36F8F4FF41650B3FBA3
:101FE000F0F010BDAC020020A802002008B5134993
:101FF0008B6803F00C03042B1CD0082B1CD14A68FF
:102000004B68496813F4800314BF0D480D48C1F3B1
:10201000881118BF002302F03F02A1FB0001FEF768
:10202000BBF9064B5B68C3F3014301335B00B0FBB4
:10203000F3F008BD0248FCE70248FAE70038024026
:1020400000127A000024F400002876D03C4B1A6875
:1020500002F44042B2F5404F20D13A4A904215D89E
:10206000394A904207D91A6802F44042B2F5004F4B
:102070005CD102201FE0354A90421A6802F44042C7
:1020800047D9B2F5004F4CD1012014E01A6802F490
:102090004042B2F5004F3FD103200CE01A6802F431
:1020A0004042B2F5004F22D1274A90423ED8274AFB
:1020B00090422ED90020224B1B68012838BF0120F6
:1020C00003F44043B3F5804F1FD0214A136823F037
:1020D000070303431360136803F0070398421CBF10
:1020E000136803F00703C01A18BF012070471B686C
:1020F00003F44043B3F5804F0CD1134B98421AD8E8
:10210000124B98424FF00000DFD9012838BF012060
:10211000DBE71B680020D8E71B68032003F440437B
:10212000D0E71B68012003F44043CBE71B68022083
:1021300003F44043C6E70220C7E70120704700BF11
:1021400000700040804A5D050090D00380C3C90143
:10215000003C02400F4B70B553F82040013053F85B
:102160002060A64200D870BDD4E9003528469847C3
:102170006DB138B10028B8BF4042EB68FF28A8BF56
:10218000FF201870EA68537843F001035370083455
:10219000E7E700BF203F020808B50A4B01220320F1
:1021A0001A70FFF7D7FF00F01BFD0420FFF7D2FFE6
:1021B00000F0EEF8FEF75AFA034A137B23F001030E
:1021C000137308BDE90200201001002008B5034880
:1021D000034A0021121A01F00AFA08BD90000020FB
:1021E000EC02002070B5002386B00122CDE9042363
:1021F000134E144D01930F22CDE9023212491823D8
:1022000003FB005506EBC01604464FF4C07000FBFC
:1022100004110E4B00954FF4A072304600F086F882
:10222000737B0B4AEE6023F0040373734FF4046373
:1022300004FB033313442C756B6006B070BD00BF04
:1022400090000020B4020020400B0020F735020867
:102250000003002080B50020A6B0FFF77BFF2C4BC9
:1022600083F308882B4D2C4E6B692C4F43F400737D
:102270006B610024F02385F82230EC772C766C76A5
:10228000AC7685F820406B6A43F4E0236B62FFF77D
:1022900051F8FEF7F1FD4FF0FF33AB62EB62FFF751
:1022A0002BF9FFF791F840F20113ADF8243006AB9B
:1022B000B360CDE91F44229401F066F90120FFF7D5
:1022C00049FF0220164DFFF745FF00F0ABFA154B12
:1022D000B5610593012314490094CDE903434FF4FC
:1022E00080623B46CDE90144284600F01FF86A7B36
:1022F000064622F0040228466A7301F0F0F92046EF
:10230000FFF770FF3A4631462846FEF79DFE00BFB4
:10231000400B002000ED00E0B402002099210208EB
:1023200010010020A9400208C00C00202DE9FF4147
:102330000E9E0673042646730D9E867300F15805A3
:102340000F46D61DC0E916550C9A002526F0070643
:102350004037C0E90655C0E919768560C573C56682
:1023600006F1400802920B9A019288440A9A009260
:1023700042460446FEF736FE044B65659B6803B192
:102380001B6F2367404604B0BDE8F081B402002013
:10239000F0B5224C224D87B02646AE4204F12C0403
:1023A0000BD300F00FFA1D4C1E4F0A26AC4220D36F
:1023B00007B0BDE8F04000F019BA54F8043C0593AA
:1023C00054F80C3C049354F8103C039354F8143C18
:1023D000029354F8183C019354F81C3C009354E9C0
:1023E000092354E90B01FFF7A1FF54F82C3C5E656B
:1023F000D2E7626A531C09D022EAE27282FB06230A
:1024000052EA0301206803D100F0BEF92C34CDE775
:102410003946183000F0E0FAF8E700BF643C0208E3
:10242000643C02084B36020838B504464FF01003EE
:10243000EFF3118583F31288BFF36F8F01F05FF91B
:1024400048B10022826701F04AF929460548BDE8F3
:10245000384000F087B9D4E902329A4218BF0133FC
:10246000A360F2E7EA02002013B54FF01004EFF387
:10247000118184F31288BFF36F8F846844B1013CEB
:10248000846081F31188BFF36F8F002002B010BD0C
:1024900052EA030406D181F31188BFF36F8F6FF006
:1024A0000F00F3E7CDE900230246024800F03CF9B3
:1024B000ECE700BFEA02002038B5074D2C6854B1A4
:1024C000FFF776FD054B04441C6128680021BDE838
:1024D000384001F05CB938BDE0020020B4020020B1
:1024E00038B50D4D2B4653F81C4F9C4200D004B913
:1024F000EC68AB6838B95A7BD20604D1A26912B92C
:10250000DA897F2A05D89C4202D02046FFF7D4FF03
:102510002346AB6138BD00BFB402002070B590F90E
:102520000D20437B002A014604DA03F07F03437346
:1025300001F079F84B7B154A63F07F0310464B732B
:1025400050F81C3F146A834208BF002323B9C1E935
:102550000004216011620CE091F90E5093F90E60B5
:10256000B5420ED0AE420CDD5868C1E900300160C2
:1025700059609068431A5842BDE870405841FFF7CF
:10258000AFBF9C42E3D01B68E0E700BFB40200206D
:1025900070B490F90D30427B002B29DBD30627D194
:1025A00083692BBB134962F07F0242730A4652F8DB
:1025B0001C4F944218BF23460C6A23B9C0E900247B
:1025C000206008620CE090F90E5093F90E60B5425D
:1025D0000AD0AE4208DD5A68C0E900321060586087
:1025E00070BC0020FFF77CBFA342E7D01B68E4E784
:1025F00070BC7047B402002008B590F90D20437BF1
:10260000002A014604DA03F07F03437301F00BF85C
:10261000044B9868431A58425841BDE80840FFF7F8
:102620005FBF00BFB402002070B515461C460646C9
:1026300001F02DF8B4F1FF3F08BFB5F1FF3F08D01E
:102640002A46234606F118000249BDE8704000F012
:10265000C3B970BD4B36020810B54FF01003EFF34D
:10266000118483F31288BFF36F8F0A23002800FBC5
:1026700003F302DD022BB8BF0223074A00201061DA
:1026800006480360064B90681960FFF715FF84F356
:102690001188BFF36F8F10BDB4020020E00200204C
:1026A000DC02002038B54FF01003EFF3118583F3FF
:1026B0001288BFF36F8F174B174A9C6811688C42C2
:1026C00007D12046FFF7F8FE85F31188BFF36F8F1F
:1026D00038BD00211160114A1268C2B1E2897F2A17
:1026E00015D8627BD20612D10D4A94F90E101268E9
:1026F00091420CDB0B4A944209D01A69824203DCF6
:102700002046FFF70BFFDCE7121A1A61DCE7002214
:10271000FBE700BFB4020020D8020020E002002046
:10272000DC0200209000002070B50C480C4D86683B
:102730002E600C461146DDE904234FF01006EFF33E
:10274000118586F31288BFF36F8F8068FFF76CFFE7
:102750002046BDE87040FEF7F1BB00BFB402002088
:10276000D802002049B9EFF3058030B9054B9A69CA
:102770009B689A4201D0FEF7E1BB81F31188BFF359
:102780006F8F7047B402002010B54FF01002EFF3C6
:10279000118482F31288BFF36F8F427B510704D4F8
:1027A00084F31188BFF36F8F10BD22F004024273CF
:1027B000FFF7EEFE21460248BDE81040FFF7D2BF0A
:1027C000EA0200204FF01003EFF3118183F3128827
:1027D000BFF36F8F044B9A68D37B013BD37381F3B4
:1027E0001188BFF36F8F7047B402002010B54FF00F
:1027F0001003EFF3118483F31288BFF36F8F084B3C
:102800009A68D37B0133D3730020FFF769FE84F30A
:102810001188BFF36F8FBDE8104000F098BF00BF74
:10282000B4020020044B002103F11C02C3E907227B
:102830000846FFF711BF00BFB4020020014B9868A3
:10284000704700BFB40200202DE9F04104464FF06C
:102850001003EFF3118683F31288BFF36F8F037BAE
:10286000D9070BD586F31188BFF36F8F404080F3F3
:1028700011884FF0040002DFBDE8F081437B1A07A6
:1028800004D586F31188BFF36F8FF5E723F020029C
:1028900042F00801D20920D14173A36813B1204648
:1028A00000F0C9FE04F1180000F05BFF04F15807C6
:1028B0004FF00008A56DBD4200D0B5B90120FFF76B
:1028C0000FFE104B9B68A342DBD1EFF30583002B77
:1028D000D7D13046FEF732FBD3E703F05F0343F076
:1028E0000803437300F09FFED7E7284600F0A3FEDD
:1028F00005F1180000F035FFC5F878802846FFF78D
:1029000047FED7E7B402002008B50648064A074943
:10291000121A00F06EFEBDE80840054A0549064857
:1029200000F067BE0000002090000020F440020884
:1029300000000000F440020800000020034B1B6868
:102940000BB9FFF735BB0020704700BFE402002041
:1029500010B5114B1C689C420AD1FFF7EFFF6FF0D6
:1029600000400E4B1B6913B19842A8BF184610BD1A
:10297000FFF7E4FF002CF2D0D4E904321B1A62EB1B
:10298000E072B3F1004F72F10001E8DA002AACBF47
:1029900018460020E5E700BF5C000020B4020020DC
:1029A00030B570B10B4B5B6898420AD0036843B1F5
:1029B000D3E90421D0E90445121941EB0501C3E92B
:1029C0000421D0E9003213605A600023C0E90033CB
:1029D00030BD00BF5C000020B3F1FF3F08BFB2F183
:1029E000FF3FF8B504461D46164661D081604FF0A2
:1029F0001003EFF3118783F31288BFF36F8F013257
:102A000075F1FF3324DA3049D1E900206FF001037A
:102A10009B1A4FF0FF3262EB00009E1B60EB05003B
:102A2000012E70F1000301DA01260020C4E90460E0
:102A3000264ED6F800C07568B44508BF4FF0000CAC
:102A4000BCF1000F0DD1C4E900652C6074601CE07E
:102A5000FFF774FF013645F10005361845EBE070CD
:102A6000E4E7DCE90420D4E90431934271EB000E81
:102A70001FDAD21ADCF8043060EB0100CCE9042044
:102A8000C4E900C31C60CCF804403368B3420BD0E7
:102A90009C4209D1FFF75CFF18B10D4B1B698342C3
:102AA00002D00021FFF714FA87F31188BFF36F8F6C
:102AB000F8BD9B1A61EB0001AC45C4E90431C2D0FA
:102AC000DCF800C0BCE700BF900100205C000020E3
:102AD000B40200202DE9F84F0446FFF7E3FD4FF064
:102AE0001003EFF3118C83F31288BFF36F8FDFF8BD
:102AF000B0A0DFF8B090DAF800002B4FC9F8004022
:102B0000504508BF002000240025D7E90021D9F84E
:102B10000030E04680B3D0E9046C4FEAE37EB34274
:102B20007EEB0C0B05DAF61A6CEB0E04C0E90464BC
:102B300022E0B21841EBE671C0E90445C7E9002183
:102B4000FFF72EFF88F31188BFF36F8F83689847D4
:102B50004FF01003EFF3118883F31288BFF36F8FE8
:102B6000D9F80030DAF800009B1B5045C446C9F87C
:102B70000030CAD1D7E900219A1841EBE373002451
:102B8000C7E90023C9F80040FFF7E2FE2146FFF73E
:102B90009FF988F31188BFF36F8FBDE8F88F00BFEE
:102BA0005C000020E40200209001002010B54FF0EE
:102BB0001003EFF3118483F31288BFF36F8FFFF7D5
:102BC000BDFE064A0346D2E90001181841EBE37145
:102BD00084F31188BFF36F8F10BD00BF90010020F8
:102BE000014800F006B800BFB1400208704700205D
:102BF00070470FB407B504A951F8040B0191FDF714
:102C00005BFD03B05DF804EB04B07047044608B503
:102C1000084611461A46A047FFF710FEFEF7BEFB16
:102C20002DE9F84F9A46D3786F2B80460F4615460C
:102C3000A3F1410B29D024D8582B0CBF10260A260B
:102C4000DDF828903246002340463946FDF7A4FBC4
:102C5000092AD4B21ED83034B045E4B277F1000767
:102C600009F8014D01D3D14511D82B789B0605D524
:102C7000082E15D1AB7843F00803AB704846BDE889
:102C8000F88F03F0F703702BD7E70826D8E78046C4
:102C90000F46D7E7BBF1190F94BF37345734DBE742
:102CA000102EEBD1AB7843F01003E6E72DE9F041AD
:102CB0000746884615461E461446B44205D30EB153
:102CC000601B08E02378002BFAD014F8010B414672
:102CD000B8470028F1DABDE8F0817047002070475E
:102CE00000F06ABC0146006800F066BC00210120CB
:102CF000FFF7F6BF08B5FEF7F9F8BDE80840FEF7A4
:102D0000CDB9034600201A5C02B970470130FAE7DA
:102D1000034600201A5C0AB1884200D17047013096
:102D2000F8E710B5431E0A44914200D110BD11F8D6
:102D3000014B03F8014FF7E7C9B20244034693423F
:102D400000D1704703F8011BF9E74FF0FF307047DF
:102D500008B5062201210020FEF728FC00221146BA
:102D60000620FEF7ABF8012108460722FEF71EFCFD
:102D7000002211460720FEF7A1F8082201210220B7
:102D8000FEF714FC002211460820FEF797F80922EE
:102D900001210320FEF70AFC002211460920FEF75C
:102DA0008DF80A2201210420FEF700FC00221146C2
:102DB0000A20FEF783F8052108461722FEF7F6FBE6
:102DC000002211461720FEF779F8282206210A2052
:102DD000FEF7ECFB002211462820FEF76FF80020DA
:102DE00008BD0B68A3F13002782A9FBF03F180432E
:102DF00003F50E3349681A689DBF0A4300201A6024
:102E00006FF0850070470B68A3F13002782A9FBFEE
:102E100003F1804303F50E3349681A689DBF8A4366
:102E200000201A606FF0850070470B68022B03D8F2
:102E30002BB96FF085007047053B012BF9D84A6824
:102E4000FF2A0DD0D3B203F1804303F50E33C2F352
:102E500002411868C2F3042201FA02F202431A6026
:102E600000207047F7B51C46164600238268236091
:102E7000A36013690D4601AA69469847019B5A1E33
:102E800001921BB96FF0150003B0F0BD0098A26865
:102E900047682168676085B9B31AD0F800C06345F8
:102EA00028BF63461A4403FB07112160A260026831
:102EB0009A4206D808300090E0E76B1AB3FBF7F3AC
:102EC000EBE70020E0E713460022FFF7CBBF70B529
:102ED0001C461546002322460E4600F04CF840B131
:102EE0002CB1224606F100612846FFF71AFF0020A8
:102EF00070BD6FF01500FBE74FF0FF324FF0FF336E
:102F00000430FFF7B1BA0020704708B500690430FB
:102F10000122114600F07BFBFFF7F5FF00EAE070AD
:102F200008BD70B5044600F04EFC0A220023FDF7F0
:102F300033FA23691B68DA6810F5FA5641F1000587
:102F400012F4F97F10D0DA6802F4F972DA606FF0E7
:102F5000040070BD00F037FC0A220023FDF71CFAC4
:102F6000864275EB0101F2DB23691B68D86810F417
:102F70008030EFD1EDE77FB505460E46144601AA35
:102F8000FFF7A1FF50B9013C01AAA1192846FFF79C
:102F90009AFFB0FA80F0400904B070BD0020FBE752
:102FA000F0B5054685B00F46144601AAFFF78BFF22
:102FB00050B9039E013C01AAE1192846FFF783FF9F
:102FC00010B9039FBE4201D905B0F0BD2B691C6842
:102FD0002369002B44DB2846FFF7A3FF0028F3DB1F
:102FE00023685A050FD5236823F480632360236880
:102FF00043F480532360236823F4805323602368C1
:1030000043F48063236023689B050FD5236823F472
:1030100000732360236843F400632360236823F470
:1030200000632360236843F400732360236923F063
:10303000F8032361236943EAC60343F002032361D3
:10304000236943F48033236128462369FFF769FF2E
:103050002369002823F0FA032361B5DB0136B1E7C9
:103060006FF00400B0E72DE9F843064601F1006770
:10307000154602EB03080020A84521D0336915F856
:10308000019B1C682369002B1CDB3046FFF749FFBE
:10309000002815DB236923F440732361236923612E
:1030A000236943F001032361236907F8019B30463C
:1030B000FFF737FF2369002823F001032361DBDAE0
:1030C000BDE8F8836FF00400FAE743685B681B69AA
:1030D0000B600020704743685B68586942400A40B3
:1030E00042405A610020704743685B680020996144
:1030F000704743685B680904996100207047436822
:103100005A6853694B4053610020704710B50369FA
:103110009868F8B1884219D1DC6808689860A142C3
:1031200000D1D860002008602AB19A680A60DA6885
:10313000996002B9D960002010E0814206D1086888
:103140002060D8688142EDD1DC60EBE7044600687E
:103150000028F2D1002AE8D16FF0150010BDF0B5BB
:1031600044680120676888401E46C2F3801327EA3E
:1031700000078B403B43636090FAA0F7B7FA87F7EC
:10318000D4F808C04FF0030E7F000EFA07F72CEAC0
:10319000070C90FAA0F7B7FA87F7C2F3C1137F00C4
:1031A000BB4043EA0C03A36090FAA0F3B3FA83F3A5
:1031B000E7685B000EFA03F327EA030790FAA0F32F
:1031C000B3FA83F302F030055B00C2F341229A4068
:1031D0003A43202DE26016D107292BDC90FAA0F3A8
:1031E000226A2BB3B3FA83F39B000F2101FA03F396
:1031F00022EA030290FAA0F3B3FA83F39B0006FAE3
:1032000003F31343236290FAA0F3B3FA83F3226823
:1032100090FAA0F05B000321B0FA80F02D0901FACA
:1032200003F3400022EA030385401D432560F0BDFF
:103230002B46D9E7030A616A93FAA3F282B1B2FA84
:1032400082F292000F2793FAA3F3B3FA83F307FAFB
:1032500002F29B0021EA02029E4016436662D2E718
:103260002A46EEE738B5044690030D46134617D5B7
:1032700091070ED55A072ED55022D8060BD542F409
:10328000007219031AD5616801234968AB408B614C
:103290000DE01022F1E79906F3D542F48062F0E7E1
:1032A000DA0313D5D80613D4C3F340139A02606827
:1032B00000232946FFF753FF002038BD5B03F6D5F6
:1032C0000121A9402046FFF714FFF0E73022EEE786
:1032D0004FF40072EBE76FF08500EEE770B50B4638
:1032E000896821B101255E680C68854001B970BD0F
:1032F0008A682A4002D04B68304698471CB1236840
:1033000021461C46F2E72346FAE7F8B51F46044675
:1033100040680E461546FFF722FF112F07D1012105
:103320002B0501FA06F104D563685B6899610020FA
:10333000F8BD2046FFF7DDFEF9E730B503681360FE
:103340000579046804EBC504A34202D36FF00100C1
:1033500030BD5C798C4201D00833F0E70020F7E7FC
:103360004368C1F34B101B6801F01F01C0580123D3
:103370008B40034214BF01230023137000207047C9
:1033800010B54368C1F34B101A6801F01F0184584F
:1033900001238B4023438350002010BD10B54368A8
:1033A000C1F34B14186801F01F01235801228A4011
:1033B00023EA02032350002010BD38B504460D4611
:1033C000FFF7DEFF29462046FFF7E8FF002038BD63
:1033D0000020704782B003680193019B436801930A
:1033E000019B02B0704708B54368186803681A0764
:1033F00001D5FFF7EFFF03689B0643BF43680B70DF
:1034000000204FF0FF3008BD10B540680268136817
:103410001B06FCD54FF01002EFF3118382F31288E4
:10342000BFF36F8F02681468240604D483F31188F5
:10343000BFF36F8FEAE7516083F31188BFF36F8F9B
:1034400010BD08B541680B681A681868C00718688D
:10345000C2F3C00248BF42F002028007186848BFAA
:1034600042F004024007186848BF42F02002C0053D
:1034700042BF6FF4807042F008021860D00702D596
:103480000868FFF7A7FF930702D50868FFF7A2FFB8
:10349000500702D50868FFF79DFF930602D508681C
:1034A000FFF798FF104608BD37B5036944685868B0
:1034B0008368DB680D466168F3B101AA984700286C
:1034C0001ADB22680198D368192123F40043D360E2
:1034D000A0FB0101AA00AB0FFCF75EFF6422B0FB6A
:1034E000F2F102FB11031B0124683233B3FBF2F348
:1034F00003EB01139BB2A36003B030BD03691B68EB
:103500000B6043681B68DB6803F4C063B3F5806F2E
:103510002FD0A3F5C06CDCF1000343EB0C030B715F
:1035200043681B681B6903F44053B3F5805F22D0E6
:10353000B3F5405F21D0002B0CBF012303234B7157
:1035400043681B68DA68DB68D20403F4C06316D5ED
:10355000002B14BF032304238B7143681B685B6932
:1035600003F44073A3F5407253425341CB710020E2
:1035700070470223D3E70023E1E70223DFE7002BB4
:1035800014BF02230323E7E7704740B1C3685878AC
:1035900010F001001EBF1878B0FA80F040097047A3
:1035A0004FF01002EFF3118382F31288BFF36F8F95
:1035B000FEE708B5FFF7F4FFF8B505460E464FF0F5
:1035C0001003EFF3118783F31288BFF36F8FFFF7B8
:1035D00035F9314604462846FFF7EBFF87F311889B
:1035E000BFF36F8F2046BDE8F840FDF7D7BEFFF769
:1035F000A3BBFFF796BB08B54FF01002EFF31183A2
:1036000082F31288BFF36F8FFDF73CFCF4E73AB109
:103610008A4205D3C0E90212C0E9000000207047C9
:103620006FF015007047D0E9003213605A60002334
:10363000C0E90033704708B5FFF7F5FF437B23F07F
:10364000020343730023836008BD10B501464FF0A9
:103650001003EFF3118483F31288BFF36F8F10F818
:103660000B3C13F0280F0DD151F8103C18380BB15A
:10367000FFF7E1FF11F80B3C23F0140301F80B3CBA
:10368000FEF786FF84F31188BFF36F8F10BD38B546
:1036900004460D46FEF7B0FF637B43F002036373FD
:1036A000E5B1A5602B689D4209D16B68C4E9005360
:1036B0001C606C6012E06A689342F6D01B68002BB5
:1036C000F3D094F90E2093F90E108A42F3D0914270
:1036D000F1DD5A68C4E9003214605C6038BD10B591
:1036E0004FF01003EFF3118483F31288BFF36F8F51
:1036F000FEF74EFF84F31188BFF36F8F10BD38B50E
:103700004FF01003EFF3118583F31288BFF36F8F2F
:103710000468A0420DD034B12046FFF78CFF04F1BD
:10372000180000F01EF885F31188BFF36F8F204654
:1037300038BD0024F7E7034620B9EFF305820AB944
:10374000FDF7FCBB83F31188BFF36F8F70474FF019
:103750001003EFF3118083F31288BFF36F8FFFF72D
:10376000EABF10B54FF01002EFF3118482F3128814
:10377000BFF36F8F03683BB1FFF712F9002084F3AA
:103780001188BFF36F8F10BD6FF01500F7E770B5AC
:1037900004460D464FF01003EFF3118683F31288B1
:1037A000BFF36F8FFFF7D4F8012807DDA04205DBD8
:1037B000A0422946A8BF2046FEF78AFB86F311885F
:1037C000BFF36F8F70BDFFF7F1B9000000CCFF7F32
:1037D00001000000390E020800000000DD2C020884
:1037E000000000002D17020864380208512D02085D
:1037F0007C380208151A020894380208151A0208C3
:10380000AC380208151A0208C4380208151A020852
:10381000DC380208151A0208F4380208151A0208E2
:103820000C390208151A020824390208151A020870
:103830003C390208D133020854390208CD1B020872
:103840006C390208CD1B0208843902088D18020861
:1038500000000000591E0208000000000B2F0208A3
:103860009C390208BA3F020800000000080000204E
:103870007600002000000000D03C02089C3F0208B7
:10388000000000000000000074000020A4010020DF
:10389000CA3C0208ED3F02087C3D02081C3E0208BB
:1038A0007A00002024020020C23C0208FB3F0208EC
:1038B000903D02081C3E02087C00002034020020DB
:1038C000BA3C020809400208A43D02081C3E020856
:1038D0007E00002044020020B23C0208174002088B
:1038E000B83D02081C3E020880000020540200205F
:1038F000AA3C020825400208CC3D02081C3E0208F2
:103900008200002064020020A23C0208334002082A
:10391000E03D02081C3E02088400002074020020E2
:103920009A3C020841400208F43D02081C3E02088D
:103930008600002084020020923C02084F400208CA
:10394000083E02081C3E0208880000209402002065
:103950008A3C02085D4002086C3E0208703E020884
:103960008A000020000000007E3C02086E40020831
:10397000803E0208083F02088C000020380000202A
:10398000743C02087E400208C43E0208083F020858
:103990008E000020480000206A3C0208C73F020851
:1039A00000000000483D02087800002024000020AC
:1039B000643C020800000000ED2C0208000000003A
:1039C000ED2C020800000000ED2C020800000000B1
:1039D000ED2C020800000000ED2C020800000000A1
:1039E000ED2C02089A3F020865150208983F02086C
:1039F00065150208963F020865150208943F020803
:103A000065150208923F02086515020800000000D3
:103A1000ED2C020800000000ED2C02080000000060
:103A2000ED2C020800000000ED2C02080000000050
:103A3000ED2C020800000000ED2C02080000000040
:103A4000ED2C020800000000ED2C02080000000030
:103A5000ED2C020800000000ED2C02080000000020
:103A6000ED2C020800000000ED2C0208903F020837
:103A70006515020800000000ED2C0208000000009F
:103A8000ED2C020800000000ED2C020800000000F0
:103A9000ED2C020800000000ED2C020800000000E0
:103AA000ED2C020800000000ED2C020800000000D0
:103AB000ED2C020800000000ED2C020800000000C0
:103AC000ED2C020800000000ED2C020800000000B0
:103AD000ED2C020800000000ED2C020800000000A0
:103AE000ED2C020800000000ED2C02080000000090
:103AF000ED2C02088E3F0208651502080000000048
:103B0000ED2C020800000000ED2C0208000000006F
:103B1000ED2C020800000000ED2C0208000000005F
:103B2000ED2C020800000000ED2C0208000000004F
:103B3000ED2C020800000000ED2C0208000000003F
:103B4000ED2C020800000000ED2C0208000000002F
:103B5000ED2C020800000000ED2C0208000000001F
:103B6000ED2C020800000000ED2C0208000000000F
:103B7000ED2C020800000000ED2C020800000000FF
:103B8000ED2C020800000000ED2C020800000000EF
:103B9000ED2C020800000000ED2C020800000000DF
:103BA000ED2C020800000000ED2C020800000000CF
:103BB000ED2C020800000000ED2C020800000000BF
:103BC000ED2C020800000000ED2C020800000000AF
:103BD000ED2C020800000000ED2C0208000000009F
:103BE000ED2C020800000000ED2C0208000000008F
:103BF000ED2C020800000000ED2C0208000000007F
:103C0000ED2C020800000000ED2C0208000000006E
:103C1000ED2C020800000000ED2C0208000000005E
:103C2000ED2C020800000000ED2C0208000000004E
:103C3000ED2C020800000000ED2C0208000000003E
:103C4000ED2C020800000000ED2C0208000000002E
:103C5000ED2C020800000000ED2C0208000000001E
:103C6000ED2C020800800080FF7F01000B00008027
:103C70000080FF7F01000B0000800080FF7F0100BB
:103C8000008000800C000D00FF7F0100008000809C
:103C9000FF7F010000800080FF7F01000080008026
:103CA000FF7F010000800080FF7F01000080008016
:103CB000FF7F010000800080FF7F01000080008006
:103CC000FF7F010000800080FF7F00800080FF7F79
:103CD00000800080030004000500060007000800C3
:103CE00009000A000B000C000D00FF7F643F020872
:103CF00000000000E13F0208000000007B3F0208D6
:103D000000000000AE400208000000008E400208E3
:103D100000000000440000000040000000000020FF
:103D20000000000000000B0602000000303D020809
:103D3000000000087F3F020824000202000000206B
:103D4000873F020820000B11CF2E020889190208B4
:103D5000E5180208DD180208051A02080100000033
:103D6000FF0000000400000000400000010000000F
:103D7000000001000300000000000200FFFF00003F
:103D8000001C02400700000030000000800000001E
:103D9000FFFF000000180240060000003000000095
:103DA00040000000FFFF000000140240050000007A
:103DB0003000000020000000FFFF00000010024063
:103DC000040000003000000010000000FFFF0000B1
:103DD000000C02400300000030000000080000005A
:103DE000FFFF000000080240020000003000000059
:103DF00004000000FFFF000000040240010000007A
:103E00003000000002000000FFFF00000000024040
:103E100000000000300000000100000065320208D0
:103E2000CB300208D7300208E9300208F33002082C
:103E3000FF300208451A02080D3102080000000098
:103E40003C390208243902080C390208F438020807
:103E5000DC380208C4380208AC380208943802087A
:103E600000000000000000000000000000380240D8
:103E700061330208813302089D330208BB33020814
:103E8000004400409C3E02080100000000000000C9
:103E90000000000000000000A43E020840000000F6
:103EA00000000200AC3E020801000000B43E02081F
:103EB0000200000047000000000200006700000050
:103EC0000000000000100140E03E02080100000078
:103ED000000000000000000000000000E83E0208B2
:103EE0004400000010000000F03E02080100000045
:103EF000F83E020802000000C702000000020000B5
:103F0000E702000000000000E7330208093402085D
:103F100043340208C11C0208FD340208F5FFFFFF0C
:103F2000D4370208D4370208543802085C38020833
:103F300064380208643802080010000000306E7512
:103F4000636C656F5F6634313172650048656C6C17
:103F50006F20576F726C64212025730A004652202F
:103F600025640A0063627072696E74665F706163D3
:103F70006B61676500286E696C29006D707500467D
:103F80004C4153485F30005352414D5F30000A06A8
:103F9000050504010301020101010001696E746558
:103FA00072727570742D636F6E74726F6C6C657263
:103FB000403430303133633030007263634034302A
:103FC00030323338303000666C6173682D636F6E49
:103FD00074726F6C6C6572403430303233633030E1
:103FE00000666C6173685F73746D3332006770696B
:103FF0006F403430303231633030006770696F4069
:104000003430303231383030006770696F403430CE
:10401000303231343030006770696F4034303032C4
:1040200031303030006770696F4034303032306387
:104030003030006770696F403430303230383030A3
:10404000006770696F403430303230343030006790
:1040500070696F4034303032303030300072657308
:1040600065742D636F6E74726F6C6C65720073652E
:104070007269616C403430303034343030007365F4
:104080007269616C403430303131303030007561EC
:1040900072745F73746D3332000000000000000022
:1040A0000001020304060708096D61696E006F7361
:1040B000002A2A2A20426F6F74696E67205A657041
:1040C000687972204F53206275696C64207A65703C
:1040D0006879722D76332E312E302D3130393937C3
:1040E0002D67363237326261326435636664202A66
:1040F0002A2A0A00EF2B02084B2D0208E32D0208A2
:10410000072E0208000000009916020800000000B7
:10411000000000002B2E0208003C024000000000BE
:1041200000000000000000000000000000C20100CC
:1041300000000000543902081104000000C2010010
:104140000000000054390208840400000024F40038
:104150005C0000205C000020FFFFFFFFFFFFFFFF6F
:10416000FFFFFFFFFFFFFFFF000000000000000057
:10417000000000000000000000000000000000003F
:084180000000000015E015E04D
:00000001FF
