:100000000080100000000100010000000200FF7FDE
:1000100001001000000000000000010000000000CE
:10002000020014000000000200390000800003807C
:10003000000000000380280080000000B7313C135E
:10004000E9AB92BE64DAA380B5EA4FE67FBFB88E13
:100050000D173530A9C4EFCF7096DFFFFF7FA800E2
:10006000800000002E8DEFB812F72D712FDFC5A58F
:100070002C085DC8D57D8F5BA9A493F3E79E3798C4
:10008000EFF8BD4137943279EA3BDCD49AC9B09895
:100090000633EE83FD2481FE09FAD3DEDAC013D0E5
:1000A000AD2B151D555D755F26EBDE7CF784B62BF9
:1000B0002B3ADA349617765CEF366A4A1216253FE9
:1000C000864D28522414ED9C8BAF70D150D28BA753
:1000D0005486CBAAA2338F664EA9E8C4F461A990D6
:1000E000CE97E51D8FFF9F03B27C71181DA8538B1F
:1000F000EF416AC3621E2B6E4D88D3F5086101483B
:10010000BC9285C20000000000000000000000005A
:1001100000000000000000000000000000000000DF
:1001200000000000000000000000000000000000CF
:1001300000000000000000000000000000000000BF
:1001400000000000000000000000000000000000AF
:1004000000110020B91202081D2902088D120208ED
:100410008D1202088D1202088D12020800000000E1
:10042000000000000000000000000000A10F020812
:100430008D120208000000004D0F0208A11B0208E7
:100440005110020851100208511002085110020800
:1004500051100208511002085110020851100208F0
:1004600051100208511002085110020851100208E0
:1004700051100208511002085110020851100208D0
:1004800051100208511002085110020851100208C0
:1004900051100208511002085110020851100208B0
:1004A00051100208511002085110020851100208A0
:1004B0005110020851100208511002085110020890
:1004C0005110020851100208511002085110020880
:1004D0005110020851100208511002085110020870
:1004E0005110020851100208511002085110020860
:1004F0005110020851100208511002085110020850
:10050000511002085110020851100208511002083F
:10051000511002085110020851100208511002082F
:10052000511002085110020851100208511002081F
:10053000511002085110020851100208511002080F
:1005400051100208511002085110020851100208FF
:1005500051100208511002085110020851100208EF
:1005600051100208511002085110020851100208DF
:1005700051100208511002085110020851100208CF
:1005800051100208511002085110020851100208BF
:10059000511002085110020853B94AB9002908BF86
:1005A00000281CBF4FF0FF314FF0FF3000F00CB8B7
:1005B000ADF1080C6DE904CE00F008F8DDF804E0B8
:1005C000DDE9022304B07047704700BF2DE9F04712
:1005D00086468C460846089E154674461946002BEA
:1005E00040F0C2808542B2FA82F245D94AB1C2F1E6
:1005F000200300FA02FC2EFA03F3954043EA0C0CA8
:1006000094404FEA154EA8B2BCFBFEF8230C0EFB3B
:1006100018CC08FB00F943EA0C43994528D9EB189C
:1006200008F1FF3704D2994502D9A8F102072B44FB
:10063000A3EB0903A4B2B3FBFEFC0EFB1C330CFBC3
:1006400000F044EA0344A04214D92C190CF1FF3302
:1006500004D2A04202D9ACF102032C44241A43EA8A
:1006600007401EB1D440002334607360BDE8F087BA
:100670004746DDE76346F1E792BB431B01214FEAA2
:10068000154EAFB2B3FBFEFC200C0EFB1C330CFB73
:1006900007F840EA0343984562D9EB180CF1FF30A4
:1006A00004D2984502D9ACF102002B44A3EB080315
:1006B000A4B2B3FBFEFC0EFB1C330CFB07F744EAB1
:1006C0000344A7424ED92C190CF1FF3304D2A742A0
:1006D00002D9ACF102032C44E41B43EA0040C0E71A
:1006E000C2F1200320FA03F1954090402EFA03F363
:1006F00003434FEA154EAFB2B1FBFEFC0EFB1C10DC
:10070000190C0CFB07F841EA0041884504FA02F491
:1007100022D969180CF1FF3004D2884502D9ACF116
:1007200002002944A1EB08019BB2B1FBFEFC0EFBC9
:100730001C110CFB07F743EA01439F420ED9EB184B
:100740000CF1FF3104D29F4202D9ACF102012B44DB
:10075000DB1B41EA004192E76046E3E76146F7E7C9
:100760006046A3E76346B7E7834206D916B900217E
:1007700008467BE7C6E900E0F9E7B3FA83F78FB9EB
:10078000834201D3724508D8BEEB020460EB030339
:1007900001209C461EB9002168E73846FAE7C6E901
:1007A000004CF8E7C7F1200CBB4022FA0CF41C43C4
:1007B0002EFA0CF120FA0CF3B84001434FEA144929
:1007C0000EFA07F5B3FBF9F81FFA84FE09FB18309F
:1007D0000B0C08FB0EFA43EA00439A4502FA07F2B3
:1007E00040D9E31808F1FF3004D29A4502D9A8F1A4
:1007F00002002344A3EB0A0389B2B3FBF9F809FB17
:10080000183308FB0EFE41EA03418E452CD96118CE
:1008100008F1FF3304D28E4502D9A8F10203214426
:1008200043EA0040A0FB0298A1EB0E014145CE46F1
:10083000434602D306D14D4504D2B9EB020E68EB14
:1008400004030138002EA6D0B5EB0E0261EB0301C4
:1008500001FA0CFC22FA07F34CEA0303F940C6E95B
:10086000003198E74046C5E74346D9E701490248C9
:1008700002F0D3B82A37020838370208014B1B6848
:10088000184700BF00000020014B1860704700BFF0
:100890000000002007B50B460021024600910348E6
:1008A00000F006F803B05DF804FB00BF7D06020807
:1008B0002DE9F04F814695B08B4617461C46002522
:1008C000387808B9284658E37B1C2528039306D0BE
:1008D0005946C8470028C0F250830135FBE1182271
:1008E00000210EA802F03CF97B78252B7DD0002357
:1008F000781C98469E469C461E46014610F8012BE1
:100900002B2A00F0A18000F29880202A00F09F801E
:10091000232A00F09F802BB19DF8403043F0400324
:100920008DF84030B8F1000F05D09DF8403043F00D
:1009300020038DF84030BEF1000F05D09DF8403007
:1009400043F010038DF84030BCF1000F05D09DF846
:10095000403043F008038DF840302EB19DF8403010
:1009600043F004038DF840309DF8403003F044001C
:10097000442803D16FF386138DF840309DF8403042
:100980002A2A43F080038DF840307FD19DF8412022
:1009900042F001024B1C8DF841201A782E2A9DF856
:1009A00041200CBF0121002161F341028DF841205B
:1009B00078D15A782A2A6ED0013300224FF00A0CDF
:1009C000194611F8010BA0F13006092E40F295806E
:1009D0009DF840101292C1F3400040EAD2700A46DE
:1009E00060F341028DF840205CE0BA1C03928DF860
:1009F00043309DF84130DA0740F12E8154F8048BE2
:100A0000B8F1000F07DA9DF8402042F004028DF89B
:100A10004020C8F100085E0740F1278154F804AB7C
:100A2000BAF1000F80F226819DF841306FF3410347
:100A30008DF841304FF0FF3A1CE12D2A0DD0302ABD
:100A40007FF469AF012358E74FF0010C55E74FF0F1
:100A5000010E52E74FF001084FE701264DE70EFB6C
:100A60000262303A0346184610F8016BA6F1300CCA
:100A7000BCF1090FF3D999428FD09DF84010119223
:100A8000D20F62F341018DF8401086E70B46002239
:100A90004FF00A0EE7E79DF8412042F004028DF87E
:100AA000412002331A786C2A47D02BD8682A31D0DB
:100AB0006A2A4BD04C2A51D01A4612F8013B0392B5
:100AC000782B9DF841208DF8433000F2BE806D2BCD
:100AD00051D8692B00F2B980572B67D8412B03D02E
:100AE000453B022B00F2B1809DF84230042262F3B4
:100AF00002038DF84230012373E00CFB0202303A0E
:100B00000B465DE7742A25D07A2AD5D19DF841207D
:100B100006210CE05A78682A9DF8412006D101216F
:100B200061F3C6028DF841200233C5E7022161F36B
:100B3000C6028DF841200133BEE75A786C2A9DF831
:100B4000412001D10421EBE70321F0E79DF841208A
:100B50000521ECE79DF841200721E8E7BDF840209A
:100B600022F4F04222F0020242F4804242F00202F9
:100B7000ADF84020DFE76E3BD9B201238B4040F255
:100B800082410B4237D113F0240F51D1D8075CD5E5
:100B90009DF84230032161F302038DF8423002F0E8
:100BA0007803A3F140014B424B411AE0A3F15801F5
:100BB000C9B2012000FA01F111F4624F94D140F65C
:100BC000010631421DD111F4043F3ED09DF8423060
:100BD00060F3020302F07802402A8DF8423034D0EC
:100BE00000239DF84020C2F340010B4363F3410210
:100BF0008DF84020FDE69DF84230022161F30203AA
:100C0000E8E79DF84210022002F0780260F302014A
:100C1000402A8DF8421002BF9DF8401041F00101BA
:100C20008DF84010632BDBD1131E18BF0123D8E7CA
:100C30009DF84230032161F3020312F0780F8DF822
:100C4000423014BF01230023CBE79DF8403043F02E
:100C500001038DF84030C3E79DF94020002AB4BF5E
:100C6000DDF844804FF0FF38D5E698077FF5E2AE17
:100C7000DDF848A09DF841100023CDE911339DF81F
:100C8000423003F00703012BC1F3C30133D1CB1E64
:100C9000042B04D8DFE803F0214646212100236815
:100CA00001294FEAE372CDE90E321CD19DF93830AB
:100CB000DA17CDE90E3204349DF8403013F0030604
:100CC00050D0039B3A465946484601F003FF00289E
:100CD000C0F253810544039FF2E554F8043BDA1750
:100CE000CDE90E32E8E70229E5D11AB243F3C03369
:100CF000CDE90E23DFE7022B24D1CB1E042B04D831
:100D0000DFE803F0181010181800012954F8043B0C
:100D10004FF0000214D00229CDE90E32CCD19BB2A3
:100D20000E93C9E7073424F00704F4E80223CDE961
:100D30000E23C1E754F8043B0E9300230F93BBE747
:100D4000DBB2CDE7042B08D1073424F00704D4E943
:100D500000230834CDE90E23AEE7032BACD154F8C1
:100D6000043BDDE79DF843007828B4D862281CD8FE
:100D700025283FF4ADAD5828ADD10DF136030093D1
:100D8000DDE90E0108AB10AA01F05EFEBAF1000F1A
:100D9000074680F29A80002F9DD00DF13603D81BB4
:100DA000002E00F0C1800130BEE06338152892D8D3
:100DB00001A252F820F000BF8D0C02089F0C02081F
:100DC000D70A0208D70A0208D70A0208D70A020877
:100DD0009F0C0208D70A0208D70A0208D70A02089D
:100DE000D70A02082D0D0208C50C0208EB0C0208F8
:100DF000D70A0208D70A0208110C0208D70A02080B
:100E0000C50C0208D70A0208D70A0208C50C020856
:100E1000BAF1000F0E9F35DB5146384601F08CFECB
:100E200007EB000A002F3FF456AF00269DF8423032
:100E300013F01002059200F0938002305B06119AC5
:100E400048BF129B0492104448BFC018B8F1000F6D
:100E500040F3A0809DF84020A8EB0008C2F3800377
:100E60005007069300F19680510640F189803EB10B
:100E700059463046C84700287FDB069B01351E4691
:100E800030227EE0384601F050FEC9E70E9B8DF817
:100E90002030002608AF0DF1210A0120C6E719070E
:100EA0005CBFC3F300135E01DDE90E2348BF2B26B0
:100EB000002BBFF662AF524263EB4303CDE90E2332
:100EC0002D265AE7002658E700269DF840200DF110
:100ED0003603DB1B6FF386129A458DF840207FF6B0
:100EE0005AAFAAEB0303119355E70E9890B30DF197
:100EF0003603009310AA08AB002101F0A5FDBDF850
:100F0000423003F0EF0343F4F04343F01003BAF12F
:100F1000000F0746ADF84230D6DA00283FF4DBAECA
:100F20000DF13603181A00269A467FE70E9B072913
:100F30003FF6D1AEDFE801F00C04060C08080C0CFB
:100F40001D70C8E61D80C6E6EA17C3E90052C2E676
:100F50001D60C0E62E4F064607F1050A052065E72D
:100F60001A0748BF013069E70793104606925946B1
:100F7000C8470028DDE9062304DA15B0BDE8F08F84
:100F8000202243461946002903F1FF33ECDC454497
:100F90006D1A98462EB159463046C8470028ECDBFA
:100FA00001359DF84230DA0601D41B0705D55946B4
:100FB0003020C8470028E0DB0135059B33B19DF8A0
:100FC00043005946C8470028D7DB0135049E2E440C
:100FD00005E059463020C8470028CEDB0135731B99
:100FE000002BF6DC53463A465946484601F072FD5E
:100FF0000028C2DB0544A844A8EB0503002B7FF7BB
:101000006AAE59462020C8470028B6DB0135F3E711
:10101000493702080C4B1A6842F400721A601A68C9
:1010200042F480621A604FF01002EFF3118382F3F2
:101030001288BFF36F8F83F31188BFF36F8F034B59
:10104000034A1A6000207047003C02403400002030
:101050000024F400014910220A60704710ED00E0FE
:1010600072B6404080F31188BFF36F8FBFF34F8F8C
:1010700030BF62B6BFF36F8F704700BF40B2002829
:1010800007DB044A4109012300F01F00834042F8B6
:101090002130704700E100E040B20028A8BF00F115
:1010A000604001F10101B8BF064B4FEA0111ACBF2E
:1010B00000F5614000F00F00C9B2B4BF195480F8C8
:1010C0000013704714ED00E030BFFFF7FDBF00BF15
:1010D0000F4A08B50F4B22F07F029A60BFF34F8F83
:1010E000BFF36F8FD3F8882022F47002C3F88820F2
:1010F000EFF3148323F0040383F31488BFF36F8F9B
:1011000001F034F801F03AFB00F0CAF901F072F88E
:101110000002020800ED00E0094A0A4993680968E4
:101120009967094958674B6843F080534B60002327
:1011300083F31188BFF36F8F9368986F704700BF78
:10114000CC0200200837020800ED00E012498A684E
:101150004FF030001044EFF3098C80E8F01F1020AE
:1011600080F31288BFF36F8F0C4F4FF000668A69CF
:101170008A603E60506F0023536780F3118804B586
:10118000104600F0D1F9BDE8044002F1300090E8CB
:10119000F01F8CF309887047CC02002004ED00E0BA
:1011A0001EF0040F0CBFEFF30880EFF30980816994
:1011B00011F8021C0229FFD001B501F0A7FC01BD06
:1011C00042F8203C009B42F81C3C0A49019B42F833
:1011D000183C029B42F8143C21F001014FF080734F
:1011E00042F8043C42F8081C0023203A0265436799
:1011F000704700BF35280208094A0346906870B15D
:1012000013F1160F406E05D0A0F140029A4205D8A6
:10121000834203D2814228BF0020704700207047DC
:10122000CC02002008B5094B98600D46144600F02A
:101230007BF9204685F30988002163B681F3118884
:10124000BFF36F8F0022002301F0F4FBCC020020DB
:1012500001B5EFF30580A0F110004FEAC00004498A
:10126000014409C99847BDE8014002490847000008
:101270002832020879100208044B9968986988425C
:1012800003D003494FF080520A607047CC0200201F
:1012900004ED00E070B51D4B15469A6A9A6A9A6A89
:1012A0009207064622D5586B9A6A14061ED519B1C4
:1012B0009A6A22F080029A629A6A9A6A9A6A134C2F
:1012C00012F0100F15D19B6A990712D40020A36A5F
:1012D0000E4A9B0642BF636A23F400536362936A1B
:1012E00043F0FF03936200232B7070BD6FF0150075
:1012F000E2E763681A05E9D53146FFF77DFF00286C
:10130000E4D080F309880220E1E700BF00ED00E0AF
:101310000D4B9A6A9A6A9A6A920508D59A6B9A6AEC
:10132000120404D518B19A6A22F400429A629A6AA9
:101330009A6AD205044A58BF9B6A936A002043F414
:101340007F4393620870704700ED00E070B54A4B30
:101350005B688AB00546C3F30803002686F311884C
:10136000BFF36F8F02F07F40B0F17F4F11D102F0D9
:101370000C0008280DD010074CBF0D460126002296
:10138000033B8DF80720032B4DD8DFE803F00465FD
:10139000696D3546F3E7384BDA6A910743D4DA6A68
:1013A000002A40DBDA6A52003DD55A69A96942F445
:1013B00080725A61BFF34F8FBFF36F8F5A6931F854
:1013C000021C22F480725A61BFF34F8FBFF36F8FFC
:1013D0004DF60272914209D09A6AD2B242B10DF131
:1013E000070201212846FFF755FF0AE02C681BE0A1
:1013F0009A6A12F47F4F06D00DF107010120FFF722
:1014000087FF044610E09A6AB2F5803F0BD39A6AD0
:101410009A6A9A6A9A6A9A6A9A6A9A6A6FEA024217
:101420006FEA12429A6200249DF8073093B9202295
:10143000294602A801F089FB099BBEB1C3F308024B
:1014400022B96FEA53236FEA4323099302A9204686
:1014500001F05AFB0AB070BD0DF107020021C1E78F
:101460000DF107010020CAE7034BD0E723F4FF7317
:1014700023F00103E9E700BF00ED00E0024A5369F1
:1014800043F010035361704700ED00E0EFF3088074
:10149000EFF3098101B57246FFF758FF01BD00BFA8
:1014A000044800231021C2180133562B82F8001380
:1014B000F9D1704700E100E0102080F3118808485E
:1014C0004FF40461401880F30988EFF3148002217F
:1014D000084380F31488BFF36F8FFFF7F9FD000016
:1014E00040030020084B9B6883420BD1EFF3058338
:1014F00043B1064B5A6842F080525A605A6A22F44D
:1015000000425A6201F0DAB8CC02002000ED00E09F
:10151000024B034A0348012100F070B8000002208A
:101520000000002050350208426E054B403A1A6018
:10153000044A4021C3E901121846012100F068B8AD
:101540007801002000000B15F0B5204E00258D42DB
:1015500039DA446874B353B104F1FF3C14EA0C0F58
:101560002FD11F2C2DD907681CEA070F29D1202C59
:101570000768D0F808C05FFA82FE1ED9B4F1004FA8
:101580001DD8013CB4FA84F4C4F11F046400BEF118
:10159000070F4CEA040C14D827F01F04144344F03E
:1015A0001004C6F89820C6F89C404CF00104C6F818
:1015B000A040013201350C30C9E70824E7E73E249A
:1015C000E5E76FF015021046F0BD00BF00ED00E04A
:1015D000044B0522C3F89420BFF34F8FBFF36F8FE6
:1015E000704700BF00ED00E0BFF35F8F024B0022A9
:1015F000C3F89420704700BF00ED00E010B5034C25
:1016000001232278FFF7A0FF207010BD0003002007
:1016100008B5094A00231278FFF796FF10F1160F5C
:1016200002D0064A072800DD08BDC2F89800C2F8BB
:10163000A0300130F6E700BF0003002000ED00E01D
:1016400014490868082810B521D8FFF7CDFF124CBF
:1016500049680022904201F10C0105D10F4B18702E
:10166000FFF7B6FF002010BDC4F8982051F80C3CDD
:1016700023F01F03134343F01003C4F89C3051F8C8
:10168000043C43F00103C4F8A0300132E2E74FF01C
:10169000FF30E8E75C35020800ED00E000030020C1
:1016A000014B1860704700BF040000202DE9F8438B
:1016B0000D4F04460E4615464FF0010802F104098D
:1016C000B44201DBBDE8F8837A6908FA04F333EA2F
:1016D000020207D17B6155F834301BB159F8341040
:1016E000204698470134EBE7003C0140044A0123BF
:1016F000116883400B431360024B1856FFF7BEBCC2
:10170000003C01407C3702081F2806DC0349012207
:101710000B68824023EA02030B607047003C0140E3
:1017200003292AD8DFE801F0020E141F134B01220F
:101730009968824021EA02019960D96821EA02028F
:10174000DA6070470D4B0122996882401143F3E73C
:101750000A4B0122D96882401143D960996821EA75
:1017600002029A607047012303FA00F0034B9A6863
:1017700002439A60DA681043D8607047003C014029
:1017800010B5074B044653F8300028B943F834101D
:1017900003EBC4035A6010BD6FF00F00FBE700BFFE
:1017A00084010020034B002243F8302003EBC003E8
:1017B0005A6070478401002010B5164B18680B68FA
:1017C000442B144613D82F2B06D8012B14D0022BF0
:1017D00019D06FF0850010BDA3F1300101228A40BD
:1017E0000D490A4205D1402BF3D1400801E0A82B56
:1017F000EFD120600020EEE700F092F84FF4C073C4
:1018000058434009F5E700F08BF84FF4C073584394
:101810008009EEE7340000201101100070B53C4C47
:1018200000F096F800F0B2FBA3683A4AC3F3031342
:10183000D35C20FA03F53848854201D200F0D4FB8E
:10184000236843F480232360236843F480332360B8
:101850002F4B1A689403FCD59A6802F00C02082AF0
:1018600017D19A6822F0F0029A601A68900707D49C
:101870001A6842F001021A60254A13689907FCD5DC
:10188000234B9A6822F003029A609A6812F00C0FB8
:10189000FBD11F4C236823F080732360636823F41B
:1018A000403343F480336360636823F0706343F034
:1018B0000063636000F038F8236843F080732360AE
:1018C00023689B01FCD5A36823F0F003A360A36801
:1018D00023F0030343F00203A3600D4CA36803F05D
:1018E0000C03082BFAD10C4EB54202D3304600F05F
:1018F0007BFB0A4B1E60A36823F4E05343F4805340
:10190000A360A36823F46043A360002070BD00BF00
:10191000003802403038020800D8B80534000020F2
:101920000048704700127A00064A07495368194078
:10193000064B0B435360536823F4403343F4803326
:1019400053607047003802400080BFFF08604000CD
:10195000064B1A6C42F080521A641B6C82B003F082
:1019600080530193019B02B0704700BF00380240D2
:1019700008B5074801F0B7FB38B10648FFF790FEFD
:101980000448FEF781FF002008BD6FF01200FBE75E
:10199000F8310208991702080A2838B5074D04469D
:1019A00004D1AB680D215B6828469847AB680348B3
:1019B0005B68E1B29847204638BD00BFF8310208A5
:1019C00038B5036904465860084D284601F08BFB82
:1019D00040B16168AB680C311B682846984700EA43
:1019E000E07038BD6FF01200FBE700BF083102085D
:1019F000F7B51746B7F5001F466802690C461D4645
:101A000024D101F00302043292000F23934043EAF1
:101A10009103DAB23349023251F82220190C02EA5A
:101A2000134391FAA1F2B2FA82F2D340B2689A4219
:101A300009D12046FFF768FE2046FFF7B3FE0021DC
:101A40002046FFF76DFE002003B0F0BDB7F5800F14
:101A500041D025492046FFF793FE00283ED1234A76
:101A6000B66892E803006B4683E80300204882686A
:101A7000194612689047C0B904F0030304339B0071
:101A80000F229A4042EA9402D3B29B0003F18043B2
:101A900003F59C33110C986820EA124091FAA1F2E8
:101AA000B2FA82F2964006439E60B5F1806F0ED086
:101AB000B5F1C06F0DD005F17E435942594149003F
:101AC0002046FFF72DFE2046FFF710FEBBE7012161
:101AD000F6E70321F4E76FF08500B5E76FF00F003C
:101AE000B2E700BF00380140BB2C020848350208AD
:101AF00008310208F7B5076944680646344878603B
:101B000001F0F1FA00285FD07868616883681B688B
:101B10009847054600284FD1014601AAA06901F067
:101B2000CBFA002801DA054646E0019B2A461979DE
:101B3000186800F0E5F90028F5DB2268D36823F483
:101B40000053D360216801F10C0353E8003F43F0D8
:101B50000C0301F10C0040E80032002AF3D12369A4
:101B6000022B2CD0012B12BF00204FF480504FF4D9
:101B7000C0622168CB68104323F4B0530343CB60A9
:101B80000B6923F440530B61237B2BB173681A68F4
:101B9000536943F4407353613968304601F01CFACD
:101BA000237D23B12268536943F0080353612268FF
:101BB000D36843F40053D360284603B0F0BD4FF41C
:101BC00080504FF48062D4E76FF01205F4E700BF55
:101BD000083102082DE9F0410B7945680669012BAF
:101BE0000C467DD09A1E57425741BF02627994F845
:101BF0000680022A96BF4C494FF4005C31F812C0AF
:101C0000B8F1040F7BD094F807E0002B6BD1BEF144
:101C1000010F22F002027FD0002A70D0B8F1020F2B
:101C20006DD91946D5F80080BEF1000F0DD03F4A9E
:101C3000904507D0A2F54C42904503D002F55042A2
:101C400090455CD1BEF1010F59D1D8F80C2022F497
:101C50000052C8F80C204268D2F800E0DEF80C20F0
:101C600002F4C06297421FBFDEF80C2022F4C0626B
:101C70003A43CEF80C20426817683A6902F44052A1
:101C800094451FBF3A6922F4405242EA0C023A617D
:101C900042681768FA6802F480529A421FBFFA68D5
:101CA00022F480521343FB6043681A68536903F4BB
:101CB000407399421FBF536923F440730B43536130
:101CC00021683368994203D001F086F923683360B4
:101CD0002A68D36843F40053D3600020BDE8F08144
:101CE0004FF4C06782E7033BBEF1010FDBB209D1BD
:101CF000012B04D94FF4407112F0FD0F06D16FF0A3
:101D00008500EBE7012BFAD90021F5E7B8F1020FC6
:101D1000F5D94FF4805385E7002AF0D0B8F1020FCF
:101D2000EDD94FF440717DE72437020800100140DF
:101D300010B54FF0E0239A6919699869094B11F4BD
:101D4000803F094901D1824206D21A680C682244B8
:101D50001A604FF0E02212691B680A681344181ACF
:101D600010BD00BFBC020020C8020020094B102299
:101D700083F82320084B42F27F521A60074B002061
:101D800018604FF0E0235A6198611A6942F0070227
:101D90001A61704700ED00E0C8020020BC0200207C
:101DA00008B5FFF7C5FF0C4B0C4A186811680844CA
:101DB000106000221A600A4A13684FF41651C01AC4
:101DC000B0FBF1F001FB0033136000F0BDFDBDE896
:101DD0000840FFF751BA00BFBC020020C402002037
:101DE000C00200202DE9F041314E002954D0421CA0
:101DF0000AD14FF0E022136923F0010313614FF081
:101E00007F433360BDE8F081356801284ADD40F248
:101E1000D268404501DC00F1FF384FF01003EFF3CA
:101E2000118483F31288BFF36F8FFFF781FF214F77
:101E30004FF0E0230021D3F818C03B68C2181E4BB6
:101E400019601E4B1B68D11A2FD44FF4165000FB9B
:101E5000081101F515519B1A3F31B1FBF0F100FB60
:101E60000133B3F5806F20D915498B4228BF0B464B
:101E70004FF0E02133608869013B4B6100238B61A7
:101E80008445ACEB000338BF5B191A443A6084F315
:101E90001188BFF36F8FB5E7431C3568B5D140F2A9
:101EA000D260B8E74FF00008B7E74FF48063DFE790
:101EB000C8020020C4020020BC020020C002002092
:101EC00000C3FF0010B54FF01003EFF3118483F34C
:101ED0001288BFF36F8FFFF72BFF074B074A1B6872
:101EE00012689B1A034484F31188BFF36F8F4FF479
:101EF0001650B3FBF0F010BDC4020020C002002059
:101F00002DE9F047204F044600EBC1060025B442FE
:101F100001D1002014E02268D10602F01F0911D47B
:101F2000656845F02005C2F3471AC2F343220A2A26
:101F300027D857F82280B8F1000F11D16FF01200A6
:101F4000BDE8F087B9F1100F08D0B9F1110FEAD14F
:101F500065682B05E7D545F01005E4E73025E2E795
:101F6000404601F0C0F80028E8D04B462A460AF067
:101F70000F01404600F0B8FF002804F10804C6DA5B
:101F8000DEE76FF01500DBE7DC36020808B5134921
:101F90008B6803F00C03042B1CD0082B1CD14A685F
:101FA0004B68496813F4800314BF0D480D48C1F312
:101FB000881118BF002302F03F02A1FB0001FEF7C9
:101FC000EBFA064B5B68C3F3014301335B00B0FBE4
:101FD000F3F008BD0248FCE70248FAE70038024087
:101FE00000127A000024F400002876D03C4B1A68D6
:101FF00002F44042B2F5404F20D13A4A904215D8FF
:10200000394A904207D91A6802F44042B2F5004FAB
:102010005CD102201FE0354A90421A6802F4404227
:1020200047D9B2F5004F4CD1012014E01A6802F4F0
:102030004042B2F5004F3FD103200CE01A6802F491
:102040004042B2F5004F22D1274A90423ED8274A5B
:1020500090422ED90020224B1B68012838BF012056
:1020600003F44043B3F5804F1FD0214A136823F097
:10207000070303431360136803F0070398421CBF70
:10208000136803F00703C01A18BF012070471B68CC
:1020900003F44043B3F5804F0CD1134B98421AD848
:1020A000124B98424FF00000DFD9012838BF0120C1
:1020B000DBE71B680020D8E71B68032003F44043DC
:1020C000D0E71B68012003F44043CBE71B680220E4
:1020D00003F44043C6E70220C7E70120704700BF72
:1020E00000700040804A5D050090D00380C3C901A4
:1020F000003C02400F4B70B553F82040013053F8BC
:102100002060A64200D870BDD4E900352846984723
:102110006DB138B10028B8BF4042EB68FF28A8BFB6
:10212000FF201870EA68537843F0010353700834B5
:10213000E7E700BF0C37020808B50A4B012203206D
:102140001A70FFF7D7FF00F059FC0420FFF7D2FF09
:1021500000F0EEF8FEF78AFB034A137B23F001033D
:10216000137308BD01030020F000002008B50348E8
:10217000034A0021121A00F0E7FF08BD700000209A
:102180000403002070B5002386B00122CDE90423AA
:10219000134E144D01930F22CDE902321249182338
:1021A00003FB005506EBC01604464FF4C07000FB5D
:1021B00004110E4B00954FF4A072304600F086F8E3
:1021C000737B0B4AEE6023F0040373734FF40463D4
:1021D00004FB033313442C756B6006B070BD00BF65
:1021E00070000020CC020020800B0020512F02083C
:1021F0004003002080B50020A6B0FFF77BFF2C4BEA
:1022000083F308882B4D2C4E6B692C4F43F40073DD
:102210006B610024F02385F82230EC772C766C7605
:10222000AC7685F820406B6A43F4E0236B62FFF7DD
:1022300025F9FEF70FFF4FF0FF33AB62EB62FFF7BC
:10224000FFF9FFF765F940F20113ADF8243006AB52
:10225000B360CDE91F44229400F044FF0120FFF752
:1022600049FF0220164DFFF745FF00F015FA154B08
:10227000B5610593012314490094CDE903434FF45C
:1022800080623B46CDE90144284600F01FF86A7B96
:10229000064622F0040228466A7300F099FF2046A1
:1022A000FFF770FF3A4631462846FEF7BBFF00BFF6
:1022B000800B002000ED00E0CC020020391F020856
:1022C000F000002040380208000D00202DE9FF41F9
:1022D0000E9E0673042646730D9E867300F1580504
:1022E0000F46D61DC0E916550C9A002526F00706A4
:1022F0004037C0E90655C0E919768560C573C566E3
:1023000006F1400802920B9A019288440A9A0092C0
:1023100042460446FEF754FF044B65659B6803B1D3
:102320001B6F2367404604B0BDE8F081CC0200205B
:10233000F0B5224C224D87B02646AE4204F130045F
:102340000BD300F079F91D4C1E4F0A26AC4220D366
:1023500007B0BDE8F04000F083B954F8043C0593A1
:1023600054F8103C049354F8143C039354F8183C6C
:10237000029354F81C3C019354F8203C009354E918
:102380000A2354E90C01FFF7A1FF54F8303C5E65C5
:10239000D2E7626A531C09D022EAE27282FB06236A
:1023A00052EA0301206803D100F028F93034CDE768
:1023B0003946183000F04AFAF8E700BFD83402086E
:1023C000D83402088D2F020838B5074D2C6854B157
:1023D000FFF778FD054B04441C6128680021BDE827
:1023E000384000F031BF38BDF8020020CC02002098
:1023F00038B50D4D2B4653F81C4F9C4200D004B904
:10240000EC68AB6838B95A7BD20604D1A26912B91C
:10241000DA897F2A05D89C4202D02046FFF7D4FFF4
:102420002346AB6138BD00BFCC02002070B590F9E7
:102430000D20437B002A014604DA03F07F03437337
:1024400000F092FE4B7B154A63F07F0310464B73FE
:1024500050F81C3F146A834208BF002323B9C1E926
:102460000004216011620CE091F90E5093F90E60A6
:10247000B5420ED0AE420CDD5868C1E900300160B3
:1024800059609068431A5842BDE870405841FFF7C0
:10249000AFBF9C42E3D01B68E0E700BFCC02002046
:1024A00070B490F90D30427B002B29DBD30627D185
:1024B00083692BBB134962F07F0242730A4652F8CC
:1024C0001C4F944218BF23460C6A23B9C0E900246C
:1024D000206008620CE090F90E5093F90E60B5424E
:1024E0000AD0AE4208DD5A68C0E900321060586078
:1024F00070BC0020FFF77CBFA342E7D01B68E4E775
:1025000070BC7047CC02002010B54FF01003EFF301
:10251000118483F31288BFF36F8F0A23002800FB16
:1025200003F302DD022BB8BF0223074A002010612B
:1025300006480360064B90681960FFF745FF84F377
:102540001188BFF36F8F10BDCC020020F80200206D
:10255000F402002038B54FF01003EFF3118583F338
:102560001288BFF36F8F174B174A9C6811688C4213
:1025700007D12046FFF728FF85F31188BFF36F8F3F
:1025800038BD00211160114A1268C2B1E2897F2A68
:1025900015D8627BD20612D10D4A94F90E1012683A
:1025A00091420CDB0B4A944209D01A69824203DC47
:1025B0002046FFF73BFFDCE7121A1A61DCE7002236
:1025C000FBE700BFCC020020F0020020F802002050
:1025D000F40200207000002049B9EFF3058030B903
:1025E000054B9A699B689A4201D0FEF795BD81F32D
:1025F0001188BFF36F8F7047CC02002010B54FF0E9
:102600001002EFF3118482F31288BFF36F8F427BC5
:10261000510704D484F31188BFF36F8F10BD22F0EB
:1026200004024273FFF73CFF21460248BDE8104018
:10263000FFF7D2BF020300204FF01003EFF3118128
:1026400083F31288BFF36F8F044B9A68D37B013BEF
:10265000D37381F31188BFF36F8F7047CC020020D2
:1026600010B54FF01003EFF3118483F31288BFF31A
:102670006F8F084B9A68D37B0133D3730020FFF729
:10268000B7FE84F31188BFF36F8FBDE8104000F0F0
:10269000BBBD00BFCC020020044B002103F11C0293
:1026A000C3E907220846FFF72FBF00BFCC02002076
:1026B000014B9868704700BFCC0200202DE9F04123
:1026C00004464FF01003EFF3118683F31288BFF333
:1026D0006F8F037BD9070BD586F31188BFF36F8FFC
:1026E000404080F311884FF0040002DFBDE8F08124
:1026F000437B1A0704D586F31188BFF36F8FF5E784
:1027000023F0200242F00801D20920D14173A368CE
:1027100013B1204600F030FD04F1180000F07EFDFA
:1027200004F158074FF00008A56DBD4200D0B5B9BF
:102730000120FFF75DFE104B9B68A342DBD1EFF356
:102740000583002BD7D13046FEF7E6FCD3E703F034
:102750005F0343F00803437300F006FDD7E7284604
:1027600000F00AFD05F1180000F058FDC5F878806A
:102770002846FFF795FED7E7CC02002008B50648AB
:10278000064A0749121A00F0E1FCBDE80840054A74
:102790000549064800F0DABC000000207000002067
:1027A0008C380208000000008C380208000000206D
:1027B000034B1B680BB9FFF785BB0020704700BFB8
:1027C000FC02002010B5114B1C689C420AD1FFF797
:1027D000EFFF6FF000400E4B1B6913B19842A8BF8A
:1027E000184610BDFFF7E4FF002CF2D0D4E9043204
:1027F0001B1A62EBE072B3F1004F72F10001E8DAEC
:10280000002AACBF18460020E5E700BF38000020D2
:10281000CC02002030B570B10B4B5B6898420AD0F7
:10282000036843B1D3E90421D0E90445121941EB0F
:102830000501C3E90421D0E9003213605A60002386
:10284000C0E9003330BD00BF38000020B3F1FF3FC6
:1028500008BFB2F1FF3FF8B504461D46164661D0E9
:1028600081604FF01003EFF3118783F31288BFF3F9
:102870006F8F013275F1FF3324DA3049D1E900203E
:102880006FF001039B1A4FF0FF3262EB00009E1BBA
:1028900060EB0500012E70F1000301DA0126002033
:1028A000C4E90460264ED6F800C07568B44508BF78
:1028B0004FF0000CBCF1000F0DD1C4E900652C6095
:1028C00074601CE0FFF774FF013645F1000536180F
:1028D00045EBE070E4E7DCE90420D4E904319342FD
:1028E00071EB000E1FDAD21ADCF8043060EB010045
:1028F000CCE90420C4E900C31C60CCF80440336870
:10290000B3420BD09C4209D1FFF75CFF18B10D4BCD
:102910001B69834202D00021FFF764FA87F3118814
:10292000BFF36F8FF8BD9B1A61EB0001AC45C4E9A2
:102930000431C2D0DCF800C0BCE700BF7001002049
:1029400038000020CC0200202DE9F8430446FFF7B0
:1029500001FE4FF01003EFF3118683F31288BFF3EB
:102960006F8F234FDFF88C80D8F80000224A3C603C
:102970004045D2E9003E4FEAE4710BD050B1D0E9B6
:10298000045CAC4271EB0C0916DA2D1B6CEB010CEC
:10299000C0E9045CE3184EEB01010024C2E90031F8
:1029A0003C60FFF70FFF2146FFF71CFA86F3118802
:1029B000BFF36F8FBDE8F883EB184EEBE571C2E90A
:1029C000003100220023C0E90423FFF723FF86F330
:1029D0001188BFF36F8F836898474FF01003EFF3B0
:1029E000118683F31288BFF36F8F3C68641BBBE7CB
:1029F000FC0200203800002070010020024A034938
:102A0000034800F00AB800BF8B38020845380208B6
:102A1000653802087047002070470FB407B504A955
:102A200051F8040B0191FDF735FF03B05DF804EB9D
:102A300004B07047044608B5084611461A46A04738
:102A4000FFF736FEFEF74EFD2DE9F84F9A46D37894
:102A50006F2B80460F461546A3F1410B29D024D891
:102A6000582B0CBF10260A26DDF82890324600238A
:102A700040463946FDF790FD092AD4B21ED83034BD
:102A8000B045E4B277F1000709F8014D01D3D14513
:102A900011D82B789B0605D5082E15D1AB7843F0BD
:102AA0000803AB704846BDE8F88F03F0F703702BBE
:102AB000D7E70826D8E780460F46D7E7BBF1190FBE
:102AC00094BF37345734DBE7102EEBD1AB7843F0AB
:102AD0001003E6E72DE9F0410746884615461E46F5
:102AE0001446B44205D30EB1601B08E02378002BD6
:102AF000FAD014F8010B4146B8470028F1DABDE8D6
:102B0000F08170470020704700F003BB0146006869
:102B100000F0FFBA00210120FFF7F6BF08B5FEF76D
:102B2000D3FABDE80840FEF7A7BB034600201A5CB5
:102B300002B970470130FAE7034600201A5C0AB177
:102B4000884200D170470130F8E710B5431E0A44AF
:102B5000914200D110BD11F8014B03F8014FF7E786
:102B6000C9B202440346934200D1704703F8011BE7
:102B7000F9E74FF0FF307047002208B511460620F4
:102B8000FEF78AFA002211460720FEF785FA002296
:102B900011460820FEF780FA002211460920FEF7B0
:102BA0007BFA002211460A20FEF776FA002211462F
:102BB0001720FEF771FA002211462820FEF76CFA62
:102BC000002211460120FEF767FA002211462A2052
:102BD000FEF762FA002211460220FEF75DFA00229B
:102BE00011460320FEF758FA002008BD026917219C
:102BF0001620FEF75BBD026916211520FEF756BDB3
:102C0000026913211220FEF751BD02691121102023
:102C1000FEF74CBD026910210A20FEF747BD02698C
:102C20000A210520FEF742BD026905210420FEF7B6
:102C30003DBD026904210320FEF738BD026903216E
:102C40000220FEF733BD026902210120FEF72EBDEE
:102C5000026901210020FEF729BD0B68A3F13002B3
:102C6000782A9FBF03F1804303F50E3349681A6841
:102C70009DBF0A4300201A606FF0850070470B6803
:102C8000A3F13002782A9FBF03F1804303F50E338E
:102C900049681A689DBF8A4300201A606FF085005A
:102CA00070476FF08500704743685B681B690B6075
:102CB0000020704743685B68586942400A404240C0
:102CC0005A610020704743685B6800209961704733
:102CD00043685B68090499610020704743685A683B
:102CE00053694B4053610020704710B503699868E1
:102CF000F8B1884219D1DC6808689860A14200D117
:102D0000D860002008602AB19A680A60DA68996081
:102D100002B9D960002010E0814206D10868206025
:102D2000D8688142EDD1DC60EBE7044600680028FA
:102D3000F2D1002AE8D16FF0150010BDF0B544685B
:102D40000120676888401E46C2F3801327EA000707
:102D50008B403B43636090FAA0F7B7FA87F7D4F84B
:102D600008C04FF0030E7F000EFA07F72CEA070C9D
:102D700090FAA0F7B7FA87F7C2F3C1137F00BB4000
:102D800043EA0C03A36090FAA0F3B3FA83F3E76875
:102D90005B000EFA03F327EA030790FAA0F3B3FAF5
:102DA00083F302F030055B00C2F341229A403A43BC
:102DB000202DE26016D107292BDC90FAA0F3226ABD
:102DC0002BB3B3FA83F39B000F2101FA03F322EA3A
:102DD000030290FAA0F3B3FA83F39B0006FA03F31D
:102DE0001343236290FAA0F3B3FA83F3226890FAB4
:102DF000A0F05B000321B0FA80F02D0901FA03F383
:102E0000400022EA030385401D432560F0BD2B46A8
:102E1000D9E7030A616A93FAA3F282B1B2FA82F2A5
:102E200092000F2793FAA3F3B3FA83F307FA02F29F
:102E30009B0021EA02029E4016436662D2E72A46C0
:102E4000EEE738B5044690030D46134617D59107B3
:102E50000ED55A072ED55022D8060BD542F4007253
:102E600019031AD5616801234968AB408B610DE0F5
:102E70001022F1E79906F3D542F48062F0E7DA0315
:102E800013D5D80613D4C3F340139A026068002305
:102E90002946FFF753FF002038BD5B03F6D501211B
:102EA000A9402046FFF714FFF0E73022EEE74FF489
:102EB0000072EBE76FF08500EEE770B50B468968AE
:102EC00021B101255E680C68854001B970BD8A6832
:102ED0002A4002D04B68304698471CB123682146EF
:102EE0001C46F2E72346FAE7F8B51F460446406859
:102EF0000E461546FFF722FF112F07D101212B05A2
:102F000001FA06F104D563685B6899610020F8BD99
:102F10002046FFF7DDFEF9E782B003680193019BCD
:102F200043680193019B02B0704708B54368186875
:102F300003681A0701D5FFF7EFFF03689B0643BF3D
:102F400043680B7000204FF0FF3008BD10B540689B
:102F5000026813681B06FCD54FF01002EFF31183D3
:102F600082F31288BFF36F8F02681468240604D4BA
:102F700083F31188BFF36F8FEAE7516083F3118801
:102F8000BFF36F8F10BD08B541680B681A681868E9
:102F9000C0071868C2F3C00248BF42F002028007AF
:102FA000186848BF42F00402C00542BF6FF4807049
:102FB00042F008021860D307086801D5FFF7ACFF9C
:102FC000910701D5FFF7A8FF530701D5FFF7A4FF2D
:102FD000FFF7A2FF104608BD37B50369446858687B
:102FE0008368DB680D466168F3B101AA9847002841
:102FF0001ADB22680198D368192123F40043D360B7
:10300000A0FB0101AA00AB0FFDF7C6FA6422B0FBDA
:10301000F2F102FB11031B0124683233B3FBF2F31C
:1030200003EB01139BB2A36003B030BD03691B68BF
:103030000B6043681B68DB6803F4C063B3F5806F03
:103040002FD0A3F5C06CDCF1000343EB0C030B7134
:1030500043681B681B6903F44053B3F5805F22D0BB
:10306000B3F5405F21D0002B0CBF012303234B712C
:1030700043681B68DA68DB68D20403F4C06316D5C2
:10308000002B14BF032304238B7143681B685B6907
:1030900003F44073A3F5407253425341CB710020B7
:1030A00070470223D3E70023E1E70223DFE7002B89
:1030B00014BF02230323E7E770B503686FF060468F
:1030C000136005790468354404EBC504A34202D9B2
:1030D0006FF0010070BD5C798C4201D00833EFE7DE
:1030E0000020F7E7704738B1C3681888C0F30800BC
:1030F000A0F580735842584170474FF01002EFF32B
:10310000118382F31288BFF36F8FFEE708B5FFF7D4
:10311000F4FFF8B505460E464FF01003EFF31187A4
:1031200083F31288BFF36F8FFFF7C2FA314604466C
:103130002846FFF7EBFF87F31188BFF36F8F204618
:10314000BDE8F840FEF7CEB9FFF70ABDFFF7FDBCBA
:1031500008B54FF01002EFF3118382F31288BFF32A
:103160006F8FFDF77DFFF4E7D0E9003213605A60FE
:103170000023C0E90033704708B5FFF7F5FF437B34
:1031800023F0020343730023836008BD10B501469A
:103190004FF01003EFF3118483F31288BFF36F8FA6
:1031A00010F80B3C13F0280F0DD151F8103C1838D3
:1031B0000BB1FFF7E1FF11F80B3C23F0140301F80A
:1031C0000B3CFFF76DF984F31188BFF36F8F10BDCF
:1031D00010B54FF01003EFF3118483F31288BFF39F
:1031E0006F8FFFF75DF984F31188BFF36F8F10BD08
:1031F000034620B9EFF305820AB9FDF78DBF83F3CB
:103200001188BFF36F8F70474FF01003EFF31180F9
:1032100083F31288BFF36F8FFFF7EABF10B54FF04B
:103220001002EFF3118482F31288BFF36F8F0368EB
:103230003BB1FFF7EFFA002084F31188BFF36F8FE3
:1032400010BD6FF01500F7E770B504460D464FF05E
:103250001003EFF3118683F31288BFF36F8FFFF72C
:10326000B1FA012807DDA04205DBA0422946A8BF2C
:103270002046FEF7B7FD86F31188BFF36F8F70BD50
:103280004CD3FF7F01000000150E02080000000073
:1032900005290208000000001D1602080831020876
:1032A0007929020820310208C117020838310208C2
:1032B000C117020850310208C1170208683102081C
:1032C000C117020880310208C117020898310208AC
:1032D000C1170208B0310208C1170208C83102083C
:1032E000C1170208E0310208F5180208F831020897
:1032F000F5180208103202087117020800000000D9
:103300006D1B020800000000933702080000000057
:103310000800002044000020000000002E350208B4
:103320005E3702080000000000000000400000209E
:103330008401002028350208A03702087C350208E5
:103340001C360208480000203C02002020350208FC
:10335000AE370208903502081C3602084C000020E7
:103360004C02002018350208BC370208A4350208B8
:103370001C360208500000205C02002010350208B4
:10338000CA370208B83502081C360208540000206B
:103390006C02002008350208D8370208CC35020834
:1033A0001C360208580000207C020020003502086C
:1033B000E6370208E03502081C3602085C000020EF
:1033C0008C020020F8340208F4370208F4350208B1
:1033D0001C360208600000209C020020F034020825
:1033E00002380208083602081C3602086400002071
:1033F000AC020020E8340208103802084036020807
:10340000C83602086800002024000020E0340208CA
:103410002038020884360208C83602086C000020F2
:103420002C000020D83402080000000015290208F2
:10343000203102080B2A020820310208F72902086D
:1034400020310208ED2902080000000015290208B9
:10345000000000001529020820310208512A020844
:1034600020310208472A0208203102083D2A0208BA
:1034700020310208332A020820310208292A0208D2
:1034800000000000152902080000000015290208AC
:10349000000000001529020800000000152902089C
:1034A000000000001529020800000000152902088C
:1034B000000000001529020800000000152902087C
:1034C000000000001529020800000000152902086C
:1034D000000000001529020800000000152902085C
:1034E000203102081F2A02080000000015290208E6
:1034F000000000001529020800000000152902083C
:10350000000000001529020800000000152902082B
:10351000000000001529020800000000152902081B
:10352000000000001529020800000000152902080B
:1035300000000000152902080000000015290208FB
:1035400000000000152902080000000015290208EB
:1035500000000000152902080000000015290208DB
:10356000000000001529020820310208152A02086F
:10357000000000001529020820310208012A020873
:1035800000000000152902080000000015290208AB
:10359000000000001529020800000000152902089B
:1035A000000000001529020800000000152902088B
:1035B000000000001529020800000000152902087B
:1035C000000000001529020800000000152902086B
:1035D000000000001529020800000000152902085B
:1035E000000000001529020800000000152902084B
:1035F000000000001529020800000000152902083B
:10360000000000001529020800000000152902082A
:10361000000000001529020800000000152902081A
:10362000000000001529020800000000152902080A
:1036300000000000152902080000000015290208FA
:1036400000000000152902080000000015290208EA
:1036500000000000152902080000000015290208DA
:1036600000000000152902080000000015290208CA
:1036700000000000152902080000000015290208BA
:1036800000000000152902080000000015290208AA
:10369000000000001529020800000000152902089A
:1036A000000000001529020800000000152902088A
:1036B000000000001529020800000000152902087A
:1036C000000000001529020800000000152902086A
:1036D0000000000015290208010000800080FF7F23
:1036E000010000800080FF7F010000800080FF7FDC
:1036F000010000800080FF7F010000800080FF7FCC
:10370000010000800080FF7F010000800080FF7FBB
:10371000010000800080FF7F010000800080FF7FAB
:10372000010000800080FF7F00800080FF7F00801C
:1037300000800300040005000600070008000900DF
:103740000A000B000C00FF7F440000000040000056
:10375000000000200000000000000B060200000036
:1037600064350208000000084F37020824000207F1
:10377000000000205737020820000B11FFFF000057
:10378000001C024007000000300000008000000024
:10379000FFFF00000018024006000000300000009B
:1037A00040000000FFFF0000001402400500000080
:1037B0003000000020000000FFFF00000010024069
:1037C000040000003000000010000000FFFF0000B7
:1037D000000C024003000000300000000800000060
:1037E000FFFF00000008024002000000300000005F
:1037F00004000000FFFF0000000402400100000080
:103800003000000002000000FFFF00000000024046
:10381000000000003000000001000000432C0208FE
:10382000A92A0208B52A0208C72A0208D12A0208D2
:10383000DD2A0208F1170208EB2A02080000000046
:10384000004400405C360208010000000000000057
:103850000000000000000000643602084000000084
:10386000000002006C3602080100000074360208F5
:103870000200000047000000000200006700000096
:103880000000000000100140A03602080100000006
:10389000000000000000000000000000A836020840
:1038A0004400000010000000B036020801000000D3
:1038B000B836020802000000C70200000002000043
:1038C000E7020000000000002B2D02084D2D020829
:1038D000872D0208D51902082D2E0208E0310208B2
:1038E000C8310208B031020898310208803102085C
:1038F0006831020850310208383102080000000027
:103900000000000000000000F5FFFFFF8830020803
:103910008830020800310208083102080831020824
:10392000083102080010000000306E75636C656F8E
:103930005F6634313172650048656C6C6F20576F7B
:10394000726C64212025730A00286E696C29004678
:103950004C4153485F30005352414D5F3000696E17
:10396000746572727570742D636F6E74726F6C6CA7
:103970006572403430303133633030000607080957
:103980000A171717171728282828282801FF2AFFA1
:10399000FF0203726363403430303233383030001A
:1039A0006770696F40343030323163303000677097
:1039B000696F403430303231383030006770696FB1
:1039C000403430303231343030006770696F403409
:1039D00030303231303030006770696F4034303011
:1039E0003230633030006770696F403430303230CD
:1039F000383030006770696F4034303032303430E6
:103A000030006770696F4034303032303030300011
:103A100073657269616C403430303034343030005A
:103A200073657269616C4034303031313030300050
:103A3000000000000000000001020304060708095E
:103A40006D61696E007A65706879722D76332E32F9
:103A50002E302D3434302D67646265326330643526
:103A600039656263002A2A2A20426F6F74696E6783
:103A7000205A6570687972204F53206275696C64B2
:103A8000202573202573202A2A2A0A0017280208D5
:103A9000732902085B2A02087F2A0208000000003E
:103AA000B91502080000000000000000A32A020867
:103AB00000C201000000000000C201000000000080
:103AC0000024F4003800002038000020000000002E
:103AD00000000000000000000000000000000000E6
:103AE00000000000000000000000000000000000D6
:103AF00000000000000000000000000015E015E0DC
:00000001FF
