:020000040801F1
:10000000FF7F64005F66B060C3992F80C111D23D4D
:10001000B833B3179AF26CECA64CFE452BCDBD63FA
:10002000F648E603D79D74FAEB9C7495A400BB6C6C
:100030004279F0BE7F34A889339F3967058F314EEE
:100040005AC4BEDAFACDE49D090BB97DDCD9064964
:100050006DEA74F9D78F77DC4B0DAA845663D4D23E
:100060006195606900802C00010000000002010819
:1000700000000000388F00000002010000000000B6
:1000800085EFCBFBF8C18D45B26044B052499C2E40
:10009000010014000000000001000000000201083F
:1000A0000000000000000000000000000000000050
:1000B0000000000000000000000000000000000040
:1000C0000000000000000000000000000000000030
:1000D0000000000000000000000000000000000020
:1000E0000000000000000000000000000000000010
:1000F0000000000000000000000000000000000000
:1001000000000000000000000000000000000000EF
:1001100000000000000000000000000000000000DF
:1001200000000000000000000000000000000000CF
:1001300000000000000000000000000000000000BF
:1001400000000000000000000000000000000000AF
:10015000000000000000000000000000000000009F
:10016000000000000000000000000000000000008F
:10017000000000000000000000000000000000007F
:10018000000000000000000000000000000000006F
:10019000000000000000000000000000000000005F
:1001A000000000000000000000000000000000004F
:1001B000000000000000000000000000000000003F
:1001C000000000000000000000000000000000002F
:1001D000000000000000000000000000000000001F
:1001E000000000000000000000000000000000000F
:1001F00000000000000000000000000000000000FF
:1002000040440020992801089D6401086D280108D8
:100210006D2801086D2801086D2801080000000004
:10022000000000000000000000000000552301084D
:100230006D2801080000000001230108353D010878
:1002400005240108052401080524010805240108E6
:1002500005240108052401080524010805240108D6
:1002600005240108052401080524010805240108C6
:1002700005240108052401080524010805240108B6
:1002800005240108052401080524010805240108A6
:100290000524010805240108052401080524010896
:1002A0000524010805240108052401080524010886
:1002B0000524010805240108052401080524010876
:1002C0000524010805240108052401080524010866
:1002D0000524010805240108052401080524010856
:1002E0000524010805240108052401080524010846
:1002F0000524010805240108052401080524010836
:100300000524010805240108052401080524010825
:100310000524010805240108052401080524010815
:100320000524010805240108052401080524010805
:1003300005240108052401080524010805240108F5
:1003400005240108052401080524010805240108E5
:1003500005240108052401080524010805240108D5
:1003600005240108052401080524010805240108C5
:1003700005240108052401080524010805240108B5
:1003800005240108052401080524010805240108A5
:10039000052401080524010853B94AB9002908BFFA
:1003A00000281CBF4FF0FF314FF0FF3000F00CB8B9
:1003B000ADF1080C6DE904CE00F008F8DDF804E0BA
:1003C000DDE9022304B07047704700BF2DE9F04714
:1003D00086468C460846089E154674461946002BEC
:1003E00040F0C2808542B2FA82F245D94AB1C2F1E8
:1003F000200300FA02FC2EFA03F3954043EA0C0CAA
:1004000094404FEA154EA8B2BCFBFEF8230C0EFB3D
:1004100018CC08FB00F943EA0C43994528D9EB189E
:1004200008F1FF3704D2994502D9A8F102072B44FD
:10043000A3EB0903A4B2B3FBFEFC0EFB1C330CFBC5
:1004400000F044EA0344A04214D92C190CF1FF3304
:1004500004D2A04202D9ACF102032C44241A43EA8C
:1004600007401EB1D440002334607360BDE8F087BC
:100470004746DDE76346F1E792BB431B01214FEAA4
:10048000154EAFB2B3FBFEFC200C0EFB1C330CFB75
:1004900007F840EA0343984562D9EB180CF1FF30A6
:1004A00004D2984502D9ACF102002B44A3EB080317
:1004B000A4B2B3FBFEFC0EFB1C330CFB07F744EAB3
:1004C0000344A7424ED92C190CF1FF3304D2A742A2
:1004D00002D9ACF102032C44E41B43EA0040C0E71C
:1004E000C2F1200320FA03F1954090402EFA03F365
:1004F00003434FEA154EAFB2B1FBFEFC0EFB1C10DE
:10050000190C0CFB07F841EA0041884504FA02F493
:1005100022D969180CF1FF3004D2884502D9ACF118
:1005200002002944A1EB08019BB2B1FBFEFC0EFBCB
:100530001C110CFB07F743EA01439F420ED9EB184D
:100540000CF1FF3104D29F4202D9ACF102012B44DD
:10055000DB1B41EA004192E76046E3E76146F7E7CB
:100560006046A3E76346B7E7834206D916B9002180
:1005700008467BE7C6E900E0F9E7B3FA83F78FB9ED
:10058000834201D3724508D8BEEB020460EB03033B
:1005900001209C461EB9002168E73846FAE7C6E903
:1005A000004CF8E7C7F1200CBB4022FA0CF41C43C6
:1005B0002EFA0CF120FA0CF3B84001434FEA14492B
:1005C0000EFA07F5B3FBF9F81FFA84FE09FB1830A1
:1005D0000B0C08FB0EFA43EA00439A4502FA07F2B5
:1005E00040D9E31808F1FF3004D29A4502D9A8F1A6
:1005F00002002344A3EB0A0389B2B3FBF9F809FB19
:10060000183308FB0EFE41EA03418E452CD96118D0
:1006100008F1FF3304D28E4502D9A8F10203214428
:1006200043EA0040A0FB0298A1EB0E014145CE46F3
:10063000434602D306D14D4504D2B9EB020E68EB16
:1006400004030138002EA6D0B5EB0E0261EB0301C6
:1006500001FA0CFC22FA07F34CEA0303F940C6E95D
:10066000003198E74046C5E74346D9E707B55368E8
:1006700000931368044A012105F041F86FF015005A
:1006800003B05DF804FB00BFFA7F0108F0B5114E1E
:10069000114F87B0054600243068214601F016FC52
:1006A000A8B905A9304605F0E9FB80B9BDF81630B8
:1006B00002939DF8153001939DF8143000933A464B
:1006C00023460821284605F01AF80134E4E7002003
:1006D00007B0F0BD0000002014800108F7B51646F1
:1006E00000221146044670681F4F05F0DEFE00220E
:1006F00005461146B06805F0D8FE294638601B480B
:1007000001F0E4FB40B11A4A2B460821204604F0D0
:10071000F6FF002003B0F0BD164B01261E70164BED
:100720005B68C3E90100154B1860154806F05AFCD8
:1007300000953B68134A0821204604F0E0FF124B65
:100740001A782AB1114A3146204604F0D8FFE0E772
:1007500020460F4A1E70082104F0D1FF0D492046A3
:1007600004F0DAFFD5E700BF64030020480300204F
:1007700037800108152700200000002060030020BA
:10078000680300204E80010814270020C38B010855
:100790006B800108990701082DE9F743DFF8848091
:1007A000214ED8F800403368E41A94420546894641
:1007B00028BF14461D4F1E484FF0FF334FF0FF3245
:1007C00003F048FE3B787BB131681A4823464A461D
:1007D00005F067FB40B100903368174A01212846B5
:1007E00004F08DFF00233B7033681C44D8F80030C0
:1007F00034609C420FD3114A0821284604F07FFF41
:100800003B7813B10B4801F0FDFA0D4B002128464F
:10081000197004F081FF064803B0BDE8F04303F00F
:1008200093BE00BF64030020600300201527002052
:1008300068030020000000207780010899800108EB
:1008400014270020012910D8094B0C2202FB013388
:100850000360084B4360084B8360084BC360084B40
:100860000361084B4361002070476FF0010070473F
:10087000747B01084B5201085D5201086F52010858
:10088000735201087B52010813B50C4C0C48E388E5
:1008900001936379009323792268492104F003FED0
:1008A000227A0848492104F0FEFD627A064849216F
:1008B00002B0BDE8104004F0F6BD00BFE0FF01202B
:1008C000F38001081781010831810108014B1B6881
:1008D000184700BF1C000020014B1860704700BF84
:1008E0001C00002007B50B4600210246009103487A
:1008F00000F006F803B05DF804FB00BFCD08010866
:100900002DE9F04F814695B08B4617461C460025D1
:10091000387808B9284658E37B1C2528039306D06D
:100920005946C8470028C0F250830135FBE1182220
:1009300000210EA805F092FE7B78252B7DD00023A8
:10094000781C98469E469C461E46014610F8012B90
:100950002B2A00F0A18000F29880202A00F09F80CE
:10096000232A00F09F802BB19DF8403043F04003D4
:100970008DF84030B8F1000F05D09DF8403043F0BD
:1009800020038DF84030BEF1000F05D09DF84030B7
:1009900043F010038DF84030BCF1000F05D09DF8F6
:1009A000403043F008038DF840302EB19DF84030C0
:1009B00043F004038DF840309DF8403003F04400CC
:1009C000442803D16FF386138DF840309DF84030F2
:1009D0002A2A43F080038DF840307FD19DF84120D2
:1009E00042F001024B1C8DF841201A782E2A9DF806
:1009F00041200CBF0121002161F341028DF841200B
:100A000078D15A782A2A6ED0013300224FF00A0C8E
:100A1000194611F8010BA0F13006092E40F295801D
:100A20009DF840101292C1F3400040EAD2700A468D
:100A300060F341028DF840205CE0BA1C03928DF80F
:100A400043309DF84130DA0740F12E8154F8048B91
:100A5000B8F1000F07DA9DF8402042F004028DF84B
:100A60004020C8F100085E0740F1278154F804AB2C
:100A7000BAF1000F80F226819DF841306FF34103F7
:100A80008DF841304FF0FF3A1CE12D2A0DD0302A6D
:100A90007FF469AF012358E74FF0010C55E74FF0A1
:100AA000010E52E74FF001084FE701264DE70EFB1C
:100AB0000262303A0346184610F8016BA6F1300C7A
:100AC000BCF1090FF3D999428FD09DF840101192D3
:100AD000D20F62F341018DF8401086E70B460022E9
:100AE0004FF00A0EE7E79DF8412042F004028DF82E
:100AF000412002331A786C2A47D02BD8682A31D08B
:100B00006A2A4BD04C2A51D01A4612F8013B039264
:100B1000782B9DF841208DF8433000F2BE806D2B7C
:100B200051D8692B00F2B980572B67D8412B03D0DD
:100B3000453B022B00F2B1809DF84230042262F363
:100B400002038DF84230012373E00CFB0202303ABD
:100B50000B465DE7742A25D07A2AD5D19DF841202D
:100B600006210CE05A78682A9DF8412006D101211F
:100B700061F3C6028DF841200233C5E7022161F31B
:100B8000C6028DF841200133BEE75A786C2A9DF8E1
:100B9000412001D10421EBE70321F0E79DF841203A
:100BA0000521ECE79DF841200721E8E7BDF840204A
:100BB00022F4F04222F0020242F4804242F00202A9
:100BC000ADF84020DFE76E3BD9B201238B4040F205
:100BD00082410B4237D113F0240F51D1D8075CD595
:100BE0009DF84230032161F302038DF8423002F098
:100BF0007803A3F140014B424B411AE0A3F15801A5
:100C0000C9B2012000FA01F111F4624F94D140F60B
:100C1000010631421DD111F4043F3ED09DF842300F
:100C200060F3020302F07802402A8DF8423034D09B
:100C300000239DF84020C2F340010B4363F34102BF
:100C40008DF84020FDE69DF84230022161F3020359
:100C5000E8E79DF84210022002F0780260F30201FA
:100C6000402A8DF8421002BF9DF8401041F001016A
:100C70008DF84010632BDBD1131E18BF0123D8E77A
:100C80009DF84230032161F3020312F0780F8DF8D2
:100C9000423014BF01230023CBE79DF8403043F0DE
:100CA00001038DF84030C3E79DF94020002AB4BF0E
:100CB000DDF844804FF0FF38D5E698077FF5E2AEC7
:100CC000DDF848A09DF841100023CDE911339DF8CF
:100CD000423003F00703012BC1F3C30133D1CB1E14
:100CE000042B04D8DFE803F02146462121002368C5
:100CF00001294FEAE372CDE90E321CD19DF938305B
:100D0000DA17CDE90E3204349DF8403013F00306B3
:100D100050D0039B3A465946484604F002FB00284F
:100D2000C0F253810544039FF2E554F8043BDA17FF
:100D3000CDE90E32E8E70229E5D11AB243F3C03318
:100D4000CDE90E23DFE7022B24D1CB1E042B04D8E0
:100D5000DFE803F0181010181800012954F8043BBC
:100D60004FF0000214D00229CDE90E32CCD19BB253
:100D70000E93C9E7073424F00704F4E80223CDE911
:100D80000E23C1E754F8043B0E9300230F93BBE7F7
:100D9000DBB2CDE7042B08D1073424F00704D4E9F3
:100DA00000230834CDE90E23AEE7032BACD154F871
:100DB000043BDDE79DF843007828B4D862281CD8AE
:100DC00025283FF4ADAD5828ADD10DF13603009381
:100DD000DDE90E0108AB10AA04F05DFABAF1000FCC
:100DE000074680F29A80002F9DD00DF13603D81B64
:100DF000002E00F0C1800130BEE06338152892D883
:100E000001A252F820F000BFDD0E0108EF0E01082C
:100E1000270D0108270D0108270D0108270D0108DE
:100E2000EF0E0108270D0108270D0108270D010805
:100E3000270D01087D0F0108150F01083B0F010860
:100E4000270D0108270D0108610E0108270D010873
:100E5000150F0108270D0108270D0108150F0108BE
:100E6000BAF1000F0E9F35DB5146384605F09BFB6B
:100E700007EB000A002F3FF456AF00269DF84230E2
:100E800013F01002059200F0938002305B06119A75
:100E900048BF129B0492104448BFC018B8F1000F1D
:100EA00040F3A0809DF84020A8EB0008C2F3800327
:100EB0005007069300F19680510640F189803EB1BB
:100EC00059463046C84700287FDB069B01351E4641
:100ED00030227EE0384605F05FFBC9E70E9B8DF8B7
:100EE0002030002608AF0DF1210A0120C6E71907BE
:100EF0005CBFC3F300135E01DDE90E2348BF2B2660
:100F0000002BBFF662AF524263EB4303CDE90E23E1
:100F10002D265AE7002658E700269DF840200DF1BF
:100F20003603DB1B6FF386129A458DF840207FF65F
:100F30005AAFAAEB0303119355E70E9890B30DF146
:100F40003603009310AA08AB002104F0A4F9BDF801
:100F5000423003F0EF0343F4F04343F01003BAF1DF
:100F6000000F0746ADF84230D6DA00283FF4DBAE7A
:100F70000DF13603181A00269A467FE70E9B0729C3
:100F80003FF6D1AEDFE801F00C04060C08080C0CAB
:100F90001D70C8E61D80C6E6EA17C3E90052C2E626
:100FA0001D60C0E62E4F064607F1050A052065E7DD
:100FB0001A0748BF013069E7079310460692594661
:100FC000C8470028DDE9062304DA15B0BDE8F08F34
:100FD000202243461946002903F1FF33ECDC454447
:100FE0006D1A98462EB159463046C8470028ECDBAA
:100FF00001359DF84230DA0601D41B0705D5594664
:101000003020C8470028E0DB0135059B33B19DF84F
:1010100043005946C8470028D7DB0135049E2E44BB
:1010200005E059463020C8470028CEDB0135731B48
:10103000002BF6DC53463A465946484604F071F90F
:101040000028C2DB0544A844A8EB0503002B7FF76A
:101050006AAE59462020C8470028B6DB0135F3E7C1
:10106000578101080C4B1A6842F400721A601A6822
:1010700042F480621A604FF01002EFF3118382F3A2
:101080001288BFF36F8F83F31188BFF36F8F034B09
:10109000034A1A6000207047003C0240DC00002038
:1010A0000024F40007B50A4805F063FF60B1094A5F
:1010B00007491268084804230093012300F0E6FA68
:1010C000002003B05DF804FB6FF01200F9E700BFE9
:1010D000F47601088C7B0108B47A010810B5144637
:1010E00042681068016011684C6011688B60136879
:1010F00091681C680023C1E90233C1E905334B60E4
:101100000B61D168C1E90233C1E905334B600B6162
:101110001168CB60A36823B19B6C13B104492046CE
:101120009847A3689B6A0BB120469847002010BDE2
:10113000351101082DE9F34104460D4683685B6CC7
:1011400003B19847A3685B6B03BB4FF00008E868E6
:1011500001A9C26904F0FCF80746002835D0A3684D
:1011600001999B6933B3024620469847064620B34F
:10117000E868314604F00BF9B7424FF00108E6D0B9
:101180002B680020D3E90121904703E020469847CF
:101190000028DAD1A3685B6A2BBBA86801A9C269E1
:1011A00004F029F9064628BB204604F089F92B688B
:1011B000DE602AE06FF05706DAE70146E86804F0DF
:1011C000E6F8B8F1000FE5D0DAE71448572104F04B
:1011D0006AF9A3689B69002BF3D001220DF103018A
:1011E00020469847EDE7204698470028D5D102B021
:1011F000BDE8F081A36801995B6963B102462046AE
:1012000098470146A86804F016F92B680120D3E935
:1012100001219047EBE76FF05701F3E75D8101088B
:1012200010B5836802221A718268936B0446DBB999
:1012300082F842308268D387826893878368D3F8C4
:101240006431DB040BD50321084B094A04F000FD8F
:10125000A0686FF4805100F5B27004F09EF920464A
:10126000BDE8104000F09CBC10BD00BF918101089A
:10127000D58101082DE9F04FA1B004465422002188
:101280000BA805F0EBF900230593A3682046423331
:10129000039304F060FC204604F0F7FB18B965499D
:1012A000606904F0C0F9A06814220021083005F03C
:1012B000D5F900270DF12C0A4FF0FF383D46BB460B
:1012C0003E46B946059B012B61D0142D5CD1022B03
:1012D0005DD1594B594A01210FE05146039A02232F
:1012E00005A804F08EFA05995AF8042F03920346D4
:1012F00031B101290AD148B1514A204604F0A8FC75
:101300006FF00705284621B0BDE8F08FBBF1000F54
:1013100006D15AF8041C06AA484604F041FB0646CA
:1013200008F1FF38EEB1F36893B1B446BCE80F00A2
:10133000A76808370FC7DCF800303B60B36833B9E3
:10134000737CFE2B04BF96F8108008F1FF382F46FF
:10135000B146059BB8F1000F01D1022BB2D1013586
:10136000B0E715B14FF0010BF3E7A368DB6913B1E8
:10137000DB68002BF6D1334B0093334A0B9B0121E2
:10138000204604F065FCEDE7B8F1000FA5D1B9F1F6
:10139000000F0AD099F81130FE2B06D120AB03EBD9
:1013A000850353F8543C03B10135A0684369ED1B34
:1013B0002BB9264A0121204604F04AFCA0E7037E0F
:1013C0009BB1417E4FF6FF72FF2918BF0A469D422E
:1013D00002D313449D4208D983681D4A0121204647
:1013E00004F036FC6FF015058CE74FF4006100F552
:1013F000B27004F0C3F8A06800F5FC7004F040F986
:10140000A3680BAA294602EB87025B69204698472E
:101410000546A0684FF0FF324FF0FF3300F5FC7037
:1014200004F00EF9A0686FF4006100F5B27004F0EA
:10143000B4F867E79B8F01080682010892820108D1
:10144000D8810108F2810108EC8101082A82010893
:101450004882010870B50446806886B0012100F515
:10146000B27004F08BF8A3681B79022B17D100230C
:101470000193A36860689E6B03681D6901ABC6B1E8
:10148000102202A9A847019A4AB102A92046B047F2
:10149000A3689B6B002BECD12046FFF7C1FEA06830
:1014A0006FF0010100F5B27006B0BDE8704004F0C5
:1014B00074B801220DF10301A847019B002BEED067
:1014C0009DF903209DF80310A368002AD1DB5A7907
:1014D000032A7DD8DFE802F002757E7C0D293FD01B
:1014E0000A2921D0B3F864216FF3CA02A3F864215A
:1014F0000929A06847D007D80029BAD0082945D0C3
:101500000346D3F86031B4E71B2939D07F2948D08E
:1015100020395E290346F4D804F09EF89DF80310A4
:10152000204600F007FBA4E7D3F86421C2F3C7020A
:101530002AB1D3F86421C2F3C7020A2AE1D1B3F871
:10154000642161F3CA02A3F86421A3689B8F9BB94D
:101550004D49606904F067F82046FFF761FE88E7AF
:10156000D3F86421C2F3C702002AE8D0D3F864217B
:10157000C2F3C7020D2AE1E72046FFF77BFEEBE747
:101580000123437175E7D0F8603172E7D0F860311C
:101590009B077FF56EAF04F05FF8204604F0B4FBC4
:1015A00067E7D0F860319E077FF563AF04F054F829
:1015B000A368D3F860311D07EFD4204604F089FBFF
:1015C00057E75B2902D102225A7152E7D3F8602112
:1015D0000022F9E700225A71A268D2F86031980718
:1015E0007FF547AF34290CD830297FF642AFA1F1FF
:1015F000320303215171022B30D8DFE803F0333D71
:101600002B00A1F14303DAB2092A3FF632AF092BCE
:101610003FF62FAF01A252F823F000BF4516010894
:101620004D160108731401085516010873140108BA
:101630005D1601087314010873140108731401087E
:1016400065160108204604F095FA12E7204604F0DA
:1016500089FA0EE7204604F07EFA0AE7204604F0F5
:1016600074FA06E7A068D0F8601101F0010181F07A
:10167000010103F0F6FFFCE6A368D3F860319B0795
:101680007FF5F7AE99E700BF9B8F01082DE9F04782
:10169000044680680F46D0F80C1288B015461E46E6
:1016A000002967D190464FF4047204F0D7FFA36875
:1016B00022681A60A06800F5FC7005F093FC4FF4F6
:1016C000D47A4FF4B479A068484405F006FFA068C6
:1016D000002200EB09030121504409F1100905F033
:1016E000DFFEB9F5D47F0AF1140AECD1A06802211B
:1016F00000F5B27003F042FFA36850225A85A36838
:1017000018221A85A368186810B104F045FF80B24A
:10171000A3681A4A83F82C00A36825F0140565F322
:101720000708C3F860816068036839461D6823466E
:10173000A8470546D0B9A36801221A71D4E90A0165
:1017400000220023CDE906230E230393109B04956A
:10175000CDE9016300940A4B4FF4006202F002FEEF
:10176000A368C3F80C02616A05F021FC284608B0A2
:10177000BDE8F0876FF07705F8E700BF4556010830
:10178000D517010810B5044680680379012B1BD1D9
:1017900000F5FC704FF0FF324FF0FF3303F050FFC5
:1017A000206838B104F0F8FE80B218B108496069C9
:1017B00003F039FF2046FFF733FDA06800F5FC7009
:1017C00003F05EFF002010BD6FF08500FBE700BF57
:1017D0009A8F0108F8B504464068036800219B68A9
:1017E000984700283FD12046FFF7CCFF00283AD188
:1017F0001D4E1E4FA06800F5D4704FF0FF324FF021
:10180000FF33032103F054FB0546A0684FF0FF327D
:101810004FF0FF3300F5FC7075B103F011FF204667
:101820002B46134A012104F013FAA068BDE8F840E2
:1018300000F5FC7003F024BF03F002FF32460221E2
:10184000204603F0DAFE20463A46294603F0D5FE4C
:10185000606803685B6903B19847A06800F5FC7095
:1018600003F00EFFC6E7F8BDB9550108551401088D
:101870006382010870B508210A4A0B4E044603F042
:101880003EFF0021002210464D1C00F099F803464F
:1018900000B970BD08211B683246204603F02FFFB7
:1018A0002946EFE77A82010890820108F8B51E46C2
:1018B00017460B462F4A0821044603F020FF6EB35B
:1018C0003B782D4A0821204603F019FF01256A07BD
:1018D00004D12A4A0821204603F011FFAE4223D941
:1018E0007B5D254A0821204603F009FF0135102DB4
:1018F000EDD1234A0821204603F001FFD6B91F4A43
:101900000821204603F0FBFE0125AE422B4613D8EA
:101910001A4A0821204603F0F2FE18E0194A08216D
:10192000204603F0ECFE0125164A0821204603F06C
:10193000E6FEDBE700252B46FB5CA3F120025F2AD5
:1019400028BF2E23104A0821204603F0D8FE013577
:10195000102D07D06B07D8D1084A0821204603F084
:10196000CEFED2E72046094ABDE8F840082103F040
:10197000C6BE00BF968201089D820108A5820108AB
:10198000A7820108A3820108CE820108A98201086A
:1019900013B513460446002200920A460146074842
:1019A000FEF7AEFF23691B792BB1204602B0BDE8DC
:1019B000104003F0BCBE02B010BD00BF4757010885
:1019C00038B50B46154648B91449154A521AB3EBB7
:1019D000920F05D251F82350284638BD84680CB9BF
:1019E0000025F9E70F4A94420AD30F4A944207D2DE
:1019F00018462268294690472B68002BECD1EFE768
:101A00000A4A944202D30A4A944205D32468142213
:101A10005343E518E358F0E70133F8E7E47A0108A7
:101A2000F07A0108047B0108087B0108F07A0108BC
:101A3000047B01088368D3F860319B0603D5024913
:101A4000406904F001B87047107B0108014903F0B8
:101A5000FBBF00BF9B8F01080A1E0DDC0ED0422386
:101A60008168D1F86011890608D5002A04494069C7
:101A7000B8BF524203F0E8BF4123F1E7704700BF0F
:101A8000CA8201080A1E0DDC0ED044238168D1F8F9
:101A90006011890608D5002A04494069B8BF52423E
:101AA00003F0D2BF4323F1E7704700BFCA820108A9
:101AB000826802494069423203F0C6BFD5810108FD
:101AC0002DE9F04104460D4617460AB1FFF7B2FF73
:101AD000A368DA8FD3F86011423213444A071FD546
:101AE000184604F059FDDFF84480064696B9A3680D
:101AF0009A8FDA87204603F0B4FF20B107B115B101
:101B00006069FFF7A3FF6942204609B2BDE8F041D2
:101B100003F0F7BF6069414603F096FF013EE5E739
:101B2000034A0821204604F093F8E0E7D182010837
:101B3000D581010813B583688DF80710D3F86021AB
:101B40000446D00722D5D98F9A8F8A421ED0481CCE
:101B5000D8870B449DF8072083F84220A368D3F868
:101B60006011890710D5D3F8603160690B4913F013
:101B7000040F18BF2A2203F067FF204603F085FFF9
:101B800010B16069FFF762FF02B010BD01220DF1D4
:101B90000701204604F06AF8F6E700BFCE8201088C
:101BA00010B58368094A1B680446022104F050F806
:101BB000A368D3F860319B0707D52046FFF778FF6D
:101BC0002046BDE8104003F079BF10BDD581010863
:101BD00007B520230093034B04F00FFC03B05DF81E
:101BE00004FB00BFD38201082DE9F04F93B000AF92
:101BF0000C4690461D46386104F0C6F8C31D23F01C
:101C00000703ADEB030DC7F814D0064604F0BEF889
:101C1000073020F00700ADEB000DC7F80CD004F042
:101C20008EF80346073323F00703ADEB030DB860CE
:101C30002C233869C7F804D007F11C024FF4004187
:101C400004F0EFF8814658BBB7F830A0A24511D98F
:101C5000AAEB040AAA45386928BFAA460068534679
:101C60004246214604F04BF900284CD15444A5EBE0
:101C70000A05D04404F061F8073020F00700EA4676
:101C8000ADEB000D6846102207F13801FFF7A0FF09
:101C900069461E4A78680B2304F053F8D54625B9E7
:101CA00048464C37BD46BDE8F08FB7F830A03869DC
:101CB0007A690068A4EB0A0BBBFBF6FB0BFB06AAD8
:101CC0003346514604F01BF9E8B9D7E901125B46E7
:101CD000F86804F05DF87969F868324604F05DF858
:101CE000A4EB0A039E42E0D97A69134413F8012B4E
:101CF00008F8012B013D04F10104D1D0A4EB0A0244
:101D00009642F3D8CBE78146CAE700BFF4820108C8
:101D10002DE9F04F9FB000AFC7E90021814604F0E4
:101D20000EF8C31D23F00703ADEB030D054604F0C9
:101D30000FF8C31D23F00703EB468046ADEB030D00
:101D400007F10C022C234FF40041484604F069F8D7
:101D50006E46824650BB3C8C3B68643C0BB1FB69D1
:101D60001C4403F0EAFF073020F00700EA46ADEB21
:101D7000000D6846102207F12801FFF729FF102304
:101D800069461E4A584603F0DCFF2A46D5465946A6
:101D9000304603F0DFFF2946584603F0C6FF6425AE
:101DA00094B97868314603F0D9FF824641463046FF
:101DB00003F0BBFF12485246442103F074FB504627
:101DC0007C37BD46BDE8F08F402CA34628BF4FF0BE
:101DD000400BD9F800005B4607F13802294604F0B1
:101DE0008EF882460028E1D15A4607F13801304684
:101DF00003F0B2FFA4EB0B045D44D1E700830108BC
:101E000011830108F0B5ADB02D4B2E4A0393069215
:101E100000232D4A0792CDE9043302AACDE900231D
:101E200043680290D3E9015604464DB12C2308AA19
:101E30004FF40041684603F0F4FF90B12DB0F0BDBF
:101E4000642313AA47F6FF71684603F0EAFF0028EF
:101E5000F4D102461CA96846FFF75AFF0028E5D0D6
:101E6000ECE70B9B2068DB060CD4626820681268E4
:101E70003346294604F05EF80028DFD1206804F0DC
:101E800074F8DBE70A9904F079F80028EDD0002E09
:101E9000F4D0402E374628BF40273B4613AA294698
:101EA0006846FFF7A1FE0028C8D120683B4613AA68
:101EB000294604F03FF80028C0D1F61B3D44E6E770
:101EC000BF5D01081D5E0108175E0108014B1B681C
:101ED000184700BF1800002008B51A4A03461A48E0
:101EE000C3E90002194A9A60A2F16462A2F5E332E2
:101EF000A2F5DF72DA60084604F050F81861081D98
:101F000004F04CF8586101F1080004F047F89861BA
:101F100001F10C0004F042F8D86101F1100004F066
:101F20003DF8186201F1140004F038F8586201F12C
:101F3000180004F033F8986201F11C0004F02EF848
:101F4000D86208BD6E64203365787061322D627985
:101F5000C8B10D4A0D4B0E49DFF838C0C0E9122355
:101F60000D4BC0E914130D4BC0E916C30C4B0366AF
:101F700003F17453A3F52303A3F6924343660022AF
:101F80000023C0E90023704767E6096A85AE67BB96
:101F900072F36E3C7F520E513AF54FA58C68059B4B
:101FA000ABD9831F2DE9F04FD0E9003503F03F0492
:101FB000D318CDB045F10005C0E900358B180A9360
:101FC00000F148030B930A9B994202D14DB0BDE842
:101FD000F08F021911F8015B15723F2C04F1010317
:101FE00040F088800CAC00F10803254653F8042B20
:101FF00012BA45F8042B0B9A9342F7D13022656848
:10200000A66B27464FEAB543043483EAF5133F68CD
:1020100083EAD503256A3D442B444FEAF64585EA19
:10202000764585EA96252B44013AE363E7D1836C34
:102030000093C36C0193036D0293436D0393836D0F
:102040000493C36D0593036E0693436E0793DDE916
:10205000068ADDE90449DDE901C72B4BDDF80CB048
:10206000009D08934FEA75368CEA07030CEA070EC9
:1020700086EAB5062B4086EAB55683EA0E03F318C6
:102080000993089B0CAE53F804EB56F822600893B2
:102090004FEAF42383EAB413B64483EA74637344C7
:1020A00004EA090628EA040E8EEA060E7344099E25
:1020B00001325344402A03EB0B0EC2463344BB4665
:1020C0001AD1009A1A44019B82642B44C364029B78
:1020D00063440365039B3B444365049B73448365EE
:1020E000059B2344C365069B4B440366079B4344FF
:1020F000436600231C4666E7C8466746A146AC46D1
:1021000074461D46AEE700BFE07B0108F7B5D1E994
:1021100000760446012208462249234DFFF742FF7C
:10212000F60046EA5776FF00036803F03F03382BBA
:1021300033D13825C5F12001A5F1200227FA05F396
:1021400006FA01F10B4326FA02F213430DF10701DF
:102150000122083D8DF80730FFF724FF15F1080F25
:10216000E8D1231D00F14401243451F8042F03F871
:10217000012C150E03F8045C150C03F8035C150A1A
:1021800003F8025C0433A342EFD100231A46C25481
:102190000133682BFBD103B0F0BD01222946FFF7C4
:1021A00001FFC1E7288301081D7B010801491022B6
:1021B0000A60704710ED00E072B6404080F311886D
:1021C000BFF36F8FBFF34F8F30BF62B6BFF36F8F18
:1021D000704700BF37B505460C46C9B18B68009300
:1021E000D1E900230E48452103F05DF963690093AE
:1021F000D4E903230B48452103F055F9E2690A4865
:10220000452103F050F9A2690848452103F04BF934
:102210002146284603B0BDE8304001F039BF00BF79
:102220002E8301086283010896830108AA830108AE
:1022300040B2002807DB044A4109012300F01F00D7
:10224000834042F82130704700E100E040B20028AE
:10225000A8BF00F1604001F10101B8BF064B4FEA91
:102260000111ACBF00F5614000F00F00C9B2B4BF6E
:10227000195480F80013704714ED00E030BFFFF7E9
:10228000FDBF00BF0F4A08B50F4B22F07F029A60D6
:10229000BFF34F8FBFF36F8FD3F8882022F4700203
:1022A000C3F88820EFF3148323F0040383F3148826
:1022B000BFF36F8F01F074FF02F08EFC00F0E0FAC4
:1022C00001F0B2FF0002010800ED00E0094A0A49EE
:1022D00093680968D967094998674B6843F0805348
:1022E0004B60002383F31188BFF36F8F9368D86F1F
:1022F000704700BFD8260020C47F010800ED00E031
:1023000012498A684FF030001044EFF3098C80E8DE
:10231000F01F102080F31288BFF36F8F0C4F4FF027
:1023200000668A698A603E60906F0023936780F33D
:10233000118804B5104600F0E7FABDE8044002F148
:10234000300090E8F01F8CF309887047D8260020F1
:1023500004ED00E01EF0040F0CBFEFF30880EFF374
:102360000980816911F8021C0229FFD001B504F02F
:102370008DF801BD42F8203C009B42F81C3C0A4904
:10238000019B42F8183C029B42F8143C21F00101E9
:102390004FF0807342F8043C42F8081C0023203AB6
:1023A00002658367704700BF83520108094A0346EC
:1023B000906870B113F1160F806E05D0A0F1400245
:1023C0009A4205D8834203D2814228BF0020704739
:1023D00000207047D826002008B5094B98600D46AC
:1023E000144600F091FA204685F30988002163B66F
:1023F00081F31188BFF36F8F0022002302F041FFA9
:10240000D826002001B5EFF30580A0F110004FEAB7
:10241000C0000449014409C99847BDE80140024988
:10242000084700003C7701082D240108044B9968F7
:102430009869884203D003494FF080520A60704780
:10244000D826002004ED00E02DE9F843364D804603
:10245000894636484521174603F025F8AB6ADE0663
:1024600026D53348452103F01EF81124AB6A1D0719
:1024700004D53048452103F016F812242A4DAB6AE2
:10248000980717D545212C4803F00DF86E6BAB6A01
:10249000190645D529483246452103F004F8B9F11B
:1024A000000F03D0AB6A23F08003AB62132403E078
:1024B0001024DBE76FF015061B4DAB6ADA0704D575
:1024C0001F48452102F0EFFF1424AB6A9B0604D598
:1024D0001C48452102F0E7FF1524134B9A6AD506E4
:1024E00002D49A6A90070AD55B68190507D5414658
:1024F0003046FFF75BFF10B180F3098802240A4BD6
:102500009A6A920642BF5A6A22F400525A629A6A42
:1025100042F0FF029A6200233B702046BDE8F88338
:102520006FF01506C2E700BF00ED00E0DD83010893
:10253000F883010830840108488401086584010893
:1025400080840108A484010810B5204C204845214E
:1025500002F0A9FFA36A990136D51E48452102F071
:10256000A2FF1E20A36ADA0104D51B48452102F010
:102570009AFF1F20154CA36A1B0304D51748452159
:1025800002F091FF2120A36A590304D51448452184
:1025900002F089FF22200D4CA36A9A0304D511484A
:1025A000452102F080FF2320A36ADB0304D50E48F7
:1025B000452102F078FF2420044A936A6FEA03431E
:1025C0006FEA1343936210BD1D20CBE700ED00E0DE
:1025D000D8840108F58401080D8501082C850108BF
:1025E0004F850108798501089885010870B5284C48
:1025F00006460D462748452102F055FFA36AD90437
:102600003BD52548452102F04EFF1720A36A1A0545
:1026100004D52248452102F046FF18201C4CA36A2D
:102620009B0511D51E48452102F03DFFA26BA36A10
:10263000180408D51B48452102F035FF1EB1A36AD6
:1026400023F40043A3621920114CA36A590504D551
:102650001548452102F027FF1A20A36ADA050ED596
:102660001248452102F01FFF1B20094A936A43F4D8
:102670007F43936200232B7070BD1620C6E7A36AC8
:102680009B04F2D50A48452102F00DFF1C20ECE71F
:1026900000ED00E0C8850108E385010830840108E9
:1026A000F98501081786010831860108518601085D
:1026B000A48401082DE9F0415D4B5F688AB00546AE
:1026C000C7F30804002686F31188BFF36F8F02F06A
:1026D0007F43B3F17F4F07D102F00C03082B14D1D5
:1026E0005448452102F0DFFE002635464FF0000831
:1026F000E31E8DF80780092B00F28780DFE803F0E6
:102700000A7A7E7685858585858210074CBF0D46C1
:102710000126EBE74848464C452102F0C4FE8DF8FF
:102720000780E36A9A0705D54448452102F0BBFEBD
:10273000002433E0E36A002B02DA41484521F5E743
:10274000E36A5B00F4D53F48452102F0ACFE6369C3
:10275000AA6943F480736361BFF34F8FBFF36F8F38
:10276000636932F8022C23F480736361BFF34F8FE7
:10277000BFF36F8F4DF602739A4209D0A36ADBB2A2
:1027800033B30DF1070201212846FFF75DFE2FE06C
:102790002A682D48452102F086FE2C689DF80730F6
:1027A0009BB92022294602A803F04DFF099B002E69
:1027B00038D0C3F3080222B96FEA53236FEA4323E8
:1027C000099302A92046FFF705FD0AB0BDE8F08194
:1027D000A36A13F47F4F05D00DF107010120FFF725
:1027E00005FF05E0A36AB3F5803FA1D3FFF7ACFE78
:1027F0000446D3E70DF107020021C5E70DF10701FB
:102800000020ECE71148452190E71149114A124890
:1028100017F4F87F08BF0A46A4F11003452102F01F
:1028200042FE85E723F4FF7323F00103C8E700BFEE
:1028300000ED00E09C860108CC860108E8860108CE
:102840000E8701082187010845870108668701086E
:102850006E860108838601088F870108024A536942
:1028600043F010035361704700ED00E0EFF3088080
:10287000EFF3098101B57246FFF71CFF01BD00BFF0
:10288000044800231021C2180133562B82F800138C
:10289000F9D1704700E100E0102080F3118808486A
:1028A0004FF40461401880F30988EFF3148002218B
:1028B000084380F31488BFF36F8FFFF7E3FC000039
:1028C00080320020084B9B6883420BD1EFF30583D5
:1028D00043B1064B5A6842F080525A605A6A22F459
:1028E00000425A6202F006B9D826002000ED00E04E
:1028F000024B034A0348012100F07CB8000002208B
:1029000000000020E07C0108826E054B403A1A600E
:10291000044A4021C3E901121846012100F074B8AD
:10292000A005002000000B15F8B5244E00258D42AF
:102930000FDA4468002C3ED09BB104F1FF3C14EA4E
:102940000C0F08D01E482A46452102F0ACFD6FF05E
:1029500015021046F8BD1F2CF4D907681CEA070FB2
:10296000F0D1202C0768D0F808C05FFA82FE10D999
:10297000B4F1004F0FD8013CB4FA84F4C4F11F0441
:102980006400BEF1070F4CEA040C06D90D4845213E
:10299000DBE70824F5E73E24F3E727F01F041443A0
:1029A00044F01004C6F89820C6F89C404CF001048E
:1029B000C6F8A040013201350C30B8E700ED00E068
:1029C000AB870108D3870108044B0522C3F8942084
:1029D000BFF34F8FBFF36F8F704700BF00ED00E074
:1029E000BFF35F8F024B0022C3F89420704700BFF3
:1029F00000ED00E010B5034C01232278FFF794FFAF
:102A0000207010BD3429002008B5094A002312782F
:102A1000FFF78AFF10F1160F03D0064B002207289C
:102A200000DD08BDC3F89800C3F8A0200130F6E728
:102A30003429002000ED00E014490868082810B58A
:102A400021D8FFF7CDFF124C49680022904201F1D6
:102A50000C0105D10F4B1870FFF7B6FF002010BD19
:102A6000C4F8982051F80C3C23F01F03134343F0A3
:102A70001003C4F89C3051F8043C43F00103C4F83F
:102A8000A0300132E2E74FF0FF30E8E7EC7C0108CC
:102A900000ED00E034290020014B1860704700BFB2
:102AA000700000202DE9F0410E4E0F4F0546002426
:102AB0004FF001082B7818191F280DDC726908FAED
:102AC00000F333EA020207D1736157F830301BB1CB
:102AD00007EBC002516898476B780134A342E9DAEA
:102AE000BDE8F081003C0140AC050020044B1844D7
:102AF00000230133994200F8012BFADC704700BF34
:102B0000F000002010B4064B064902460C68185627
:102B10000123934023430B6010BCFFF789BB00BF28
:102B2000F0000020003C01401F2806DC0349012280
:102B30000B68824023EA02030B607047003C0140AF
:102B400003292AD8DFE801F0020E141F134B0122DB
:102B50009968824021EA02019960D96821EA02025B
:102B6000DA6070470D4B0122996882401143F3E708
:102B70000A4B0122D96882401143D960996821EA41
:102B800002029A607047012303FA00F0034B9A682F
:102B900002439A60DA681043D8607047003C0140F5
:102BA00010B5074B044653F8300028B943F83410E9
:102BB00003EBC4035A6010BD6FF00F00FBE700BFCA
:102BC000AC050020034B002243F8302003EBC00388
:102BD0005A607047AC05002010B5224B18680B688E
:102BE000442B144628D82F2B05D8013B052B0DD993
:102BF0006FF085001FE0A3F1300101228A401A49DD
:102C00000A4216D1402BF3D1400812E0052BEFD831
:102C100001A252F823F000BF3F2C01084F2C0108FD
:102C2000F12B0108312C01085F2C0108332C01081D
:102C300000202060002010BDA82BFAD0D8E700F0BB
:102C40009DF84FF4C073C00858438008F1E700F0C6
:102C500095F84FF4C073C0085843C008E9E74FF433
:102C6000FA40E6E7DC0000201101100070B53F4C8F
:102C700000F09CF801F00EF9A3683D4AC3F303137A
:102C8000D35C20FA03F53B48854201D201F030F9CC
:102C9000236843F480232360236843F48033236054
:102CA000324B1A689603FCD55A6F42F001025A67FC
:102CB0005A6F9407FCD59A6802F00C02082A17D1C3
:102CC0009A6822F0F0029A601A68900707D41A688E
:102CD00042F001021A60254A13689907FCD5234B7C
:102CE0009A6822F003029A609A6812F00C0FFBD1E6
:102CF0001E4C236823F080732360636823F4403301
:102D000043F480336360636823F0706343F00063CF
:102D1000636000F037F8236843F080732360236812
:102D20009B01FCD5A36823F0F003A360A36823F004
:102D3000030343F00203A3600C4CA36803F00C03ED
:102D4000082BFAD10B4EB54202D3304601F0D0F831
:102D5000094B1E60A36823F4E05343F48053A3603F
:102D6000A36823F46043A360002070BD00380240D4
:102D7000108F010800D8B805DC000020004870471B
:102D800000127A00064A074953681940064B0B4364
:102D90005360536823F4403343F4803353607047E7
:102DA000003802400080BFFF08604000064B1A6CEC
:102DB00042F080521A641B6C82B003F0805301937E
:102DC000019B02B0704700BF0038024008B50748B9
:102DD00004F0CFF838B10648FFF75EFE0448FDF76F
:102DE0007BFD002008BD6FF01200FBE7F4760108C0
:102DF000F52D01080A2838B5074D044604D1AB6803
:102E00000D215B6828469847AB6803485B68E1B2D0
:102E10009847204638BD00BFF47601080048704747
:102E2000207D010870B51C461646002322460D463B
:102E300003F0F4FC40B9094823462A46452102F034
:102E400032FB6FF0150070BD2CB1224605F1006118
:102E5000304603F0F8FB0020F5E700BF4688010884
:102E600070B5044604F0E9F90A220023FDF794FA4C
:102E700023691B68DA6810F5FA5641F1000512F46F
:102E8000F97F06D0DA6802F4F972DA606FF00400B4
:102E900070BD23691B68D86810F48030F8D004F046
:102EA000CCF90A220023FDF777FA864275EB01017F
:102EB000EFDA03484FF4FA52452102F0F4FAE5E75D
:102EC00075880108F8B5012305460E46144603F03F
:102ED000A5FC48B9234626483246452102F0E3FACC
:102EE0006FF015042046F8BD002CFBD0286903F0D4
:102EF00080FC2B691B681A69002A1DDB22463146BB
:102F0000284603F0A0FC2B691B681A68520504468A
:102F100018D42B6928461F68FFF7A2FF064610B396
:102F20002869043001F04CFB2869002C08BF3446A6
:102F3000043001F045FBD5E70E4A5A6002F18832B1
:102F40005A60DBE71A6822F480621A601A6842F459
:102F500080521A601A6822F480521A601A6842F489
:102F600080621A60D5E73B6943F000433B61DBE7D1
:102F70008B88010823016745F8B51C4617460123D5
:102F8000224605460E4603F049FC48B923461C4834
:102F90003246452102F087FA6FF015042046F8BD4D
:102FA000002CFBD0286903F024FC2B691B681A69EC
:102FB000002A19DB23463A463146284603F0A6FC90
:102FC0002B69044628461F68FFF74AFF064688B16A
:102FD0002869043001F0F4FA2869002C08BF34464F
:102FE000043001F0EDFAD9E7064A5A6002F188325E
:102FF0005A60DFE73B6943F000433B61ECE700BF09
:10300000BB88010823016745024B0B600323136053
:10301000704700BF287D010810B50C46002102F062
:10302000DFFC00B1006820600023E3606360014BB7
:10303000A36010BD047B010807B5536800931368B3
:10304000044A012102F05BFB6FF0150003B05DF84C
:1030500004FB00BFFA7F01082DE9F7431F46136800
:10306000DDF8288006460D465868144601A910224E
:1030700003F01BFA019BC8F800001B787BB12368A2
:10308000586800F0C9FF386098B9194A30460121E4
:1030900002F035FB6FF0120003B0BDE8F083DFF8FB
:1030A0005490484603F065FF08B9134AEEE7C7F8A5
:1030B0000090019B1B780BB90020EDE72B68022BD9
:1030C00007D830460D4A012102F019FB6FF01500B8
:1030D000E2E723681022986801A903F0E6F9C8F82E
:1030E00000002B68013B2B60236804332360E3E777
:1030F00011890108247701083389010853890108DF
:1031000030B58BB006ABCDE90221009302AA05AB26
:1031100003A90546FFF7A0FF044628BB039B022B2B
:10312000DDE9050114D9029B10229868214603F0BD
:10313000BCF90246DDE9050183689B6898470446AF
:10314000B8B103460E4A0121284602F0D8FA0BE036
:1031500007AA03F04AFB034648B10A4A0121284660
:1031600002F0CDFA6FF0150420460BB030BD089A7E
:10317000E0E7054A0821284602F0C1FAF4E700BF5B
:103180008E89010865890108A68901082DE9F047A3
:10319000AAB005ABCDE90221009302AA04AB03A9B2
:1031A0000546FFF759FF044658B9DDF80CA0BAF1FF
:1031B000020F0AD8294A0121284602F0A0FA6FF02E
:1031C000150420462AB0BDE8F0870DF160090DF125
:1031D000180802244E464746029B102253F824004A
:1031E000002103F062F9013449F8040B54456FEAF9
:1031F000000048F8040BEFD1DDE90489023CA4008B
:10320000234632464946404603F0B8FB10B1144A03
:1032100001210EE0134A0821284602F070FA2346E5
:103220003A464946404603F0A3FB002807DA0E4A17
:103230000821284602F063FA6FF00404C1E7224631
:103240003946304603F0D8F9044628B9074A082120
:10325000284602F054FAB4E7054AD9E7B6890108CE
:10326000D3890108EA890108F58901080F8A010854
:103270001A8A01082DE9F0438BB005ABCDE9022194
:10328000009302AA04AB03A90646FFF7E5FE044635
:1032900050BB039B022B10D9029B01461022986859
:1032A00003F003F907464FF00009B94507DB164A5A
:1032B0000821304602F023FA16E00127F3E7A7EBD6
:1032C0000905102DDDF814800498A8BF10252B46A1
:1032D00006AA414603F04CFB50B10C4A012130468E
:1032E00002F00DFA6FF0040420460BB0BDE8F08345
:1032F00041462B4606AA3046FEF7D8FA08EB0501F0
:103300000591A944D1E700BF9B8F01082F8A0108CE
:1033100070B58CB008ABCDE90421009304AA07ABCB
:1033200005A90546FFF798FE044678B9DDE90706CA
:1033300009AA314603F059FA044650B103460B4A34
:103340000121284602F0DBF96FF0150420460CB08D
:1033500070BD0B9B02930A9B0193099B0093044A47
:1033600033460821284602F0CAF9EFE73C8A0108F3
:103370006B8A01082DE9F04F514D524EDFF848910C
:103380002B68D9F80070DFF844A185B0044602919B
:1033900031680B44FF1A974228BF17464FF00008C8
:1033A000B84512D32A68D9F800108A4252D3484B44
:1033B00000212046197002F0AFF9464A0821204644
:1033C00005B0BDE8F04F02F09AB93068DAF8003085
:1033D000A3EB000B029BBB4503EB08013E4B28BF50
:1033E000BB465A46184403F02EF93368DAF8002039
:1033F0005B4493423360D844D2D1384ADFF8E0B01E
:1034000011682A68DBF800001144334A039103F085
:10341000B5FA039940B1DBF800300093314A0B460E
:103420002046012102F06BF9DFF8BCB02F4ADBF82F
:1034300000300821204602F062F92B68DAF80020FB
:1034400013442B60DBF800300133CBF8003000234D
:103450003360A5E73368D01881421AD81F49DFF8D6
:1034600080800F68D8F80000174439461A4A03F0E4
:1034700085FA88B1164B00212046197002F04CF9EC
:10348000D8F800300093174A3B460121204602F04D
:1034900036F905B0BDE8F08F134F144A3B68082198
:1034A000204602F02CF92B68326813443A682B60EE
:1034B00001323A60D9F800209342EAD377E700BF9F
:1034C000341600202C16002038160020401600204C
:1034D00035290020E08A0108362900203C1600200A
:1034E00044160020AB8A010830160020CE8A01085D
:1034F0002DE9F04387B005ABCDE90221009302AA84
:1035000004AB03A90446FFF7A7FD0546C0B9029B1B
:1035100002460146986802F0C8FF049F0646BB6851
:103520003846DB6898470368B6FBF3F203FB126288
:1035300052B12E4A0121204602F0E1F86FF0040555
:10354000284607B0BDE8F0834FF48078DFF8A090FC
:103550004345C9F8008007D9264A0121204602F0D8
:10356000CEF86FF01B05EBE7B8FBF3F25A43D2F548
:10357000807211D0C2F58072C9F8002003211E4A62
:10358000204602F0BCF8D9F8003000931B4A4346AD
:103590000321204602F0B3F8194B059A1F60194B1E
:1035A00019491A60194B1E6000230B6018490B6003
:1035B000184920460B6000923346174A082102F052
:1035C0009EF8164B1A782AB1154A0121204602F0BE
:1035D00096F8B5E701221A702046124A082102F037
:1035E0008EF81149204602F097F8A9E7EA8A010807
:1035F000401600200A8B01083D8B0108628B0108F0
:10360000441600203C1600203416002038160020F6
:103610002C16002030160020948B0108352900203C
:10362000BD8B01086B800108753301082DE9F04F4F
:1036300087B005ABCDE90221009302AA04AB03A930
:103640000546FFF709FD0446C0B9029E0146102257
:10365000B06802F02AFF102207462146F06802F007
:1036600024FFB7F5805F06460CD9354A4FF48053E6
:103670000121284602F043F86FF01504204607B0F8
:10368000BDE8F08F01282F4B38BF0126BC4216D170
:10369000DFF8B0A0DFF8B0B0013EDDE90489D8F86A
:1036A00008303A469B68494640469847044650B120
:1036B000264A03460121284602F021F8DEE703F8F6
:1036C000014B0134E2E7224A0821284602F017F8AC
:1036D0003B4652464946404603F050F9044610B175
:1036E0001C4A0346E6E75A460821284602F007F836
:1036F000194A3B464946404603F03AF9041E03DAAC
:10370000164A23460821D6E713493A46504602F0A6
:1037100073FF60B1124A0121284601F0F0FF002C2E
:10372000ACD1104A0821284601F0E9FFA6E70E4A6D
:103730000821284601F0E3FF013EAED2EFE700BFCB
:10374000F78B010848160020EA8901088E890108D4
:10375000158C0108208C01082C060020378C0108EC
:103760001A8A0108698C01085B8C010838B5036965
:1037700004465860084D284603F0FBFB40B16168E1
:10378000AB680C311B682846984700EAE07038BDEA
:103790006FF01200FBE700BFEC750108F7B51746A4
:1037A000B7F5001F466802690C461D4624D101F09A
:1037B0000302043292000F23934043EA9103DAB2EA
:1037C0003349023251F82220190C02EA134391FACC
:1037D000A1F2B2FA82F2D340B2689A4209D12046ED
:1037E000FFF7A2F92046FFF7EDF900212046FFF789
:1037F000A7F9002003B0F0BDB7F5800F41D02549EF
:103800002046FFF7CDF900283ED1234AB66892E85A
:1038100003006B4683E8030020488268194612685B
:103820009047C0B904F0030304339B000F229A4071
:1038300042EA9402D3B29B0003F1804303F59C3328
:10384000110C986820EA124091FAA1F2B2FA82F2C1
:10385000964006439E60B5F1806F0ED0B5F1C06F03
:103860000DD005F17E435942594149002046FFF7EA
:1038700067F92046FFF746F9BBE70121F6E7032188
:10388000F4E76FF08500B5E76FF00F00B2E700BF17
:10389000003801409B6B0108087B0108EC750108AA
:1038A0002DE9F0471E4F044600EBC1060025B44247
:1038B00001D1002014E02068C30600F01F0911D4D4
:1038C000656845F02005C0F3471AC0F343200A2875
:1038D00023D857F82080B8F1000F0DD16FF01200F7
:1038E000BDE8F087B9F1100F04D0B9F1110FEAD19A
:1038F0006568E8E73025E6E7404603F03AFB002834
:10390000ECD04B462A460AF00F01404603F05CF922
:10391000002804F10804CADAE2E76FF01500DFE7D7
:10392000A87E01084268116801F1140353E8003FC2
:1039300043F0010301F1140C4CE800300028F3D1EE
:1039400013680E498B4207D0A1F54C418B4203D03E
:1039500001F550418B4203D1196941F040011961D1
:10396000126802F10C0353E8003F43F4807302F144
:103970000C0040E800310029F3D1704700100140ED
:103980004268116801F1140353E8003F23F001037A
:1039900001F1140C4CE800300028F3D113680E49F3
:1039A0008B4207D0A1F54C418B4203D001F5504129
:1039B0008B4203D1196921F040011961126802F1AB
:1039C0000C0353E8003F23F4807302F10C0040E83D
:1039D00000310029F3D170470010014037B5036969
:1039E000446858688368DB680D4661682BB91348E2
:1039F000452101F058FD03B030BD01AA98470028C9
:103A0000F5DB22680198D368192123F40043D360C1
:103A1000A0FB0101AA00AB0FFCF7BEFC6422B0FBC7
:103A2000F2F102FB11031B0124683233B3FBF2F302
:103A300003EB01139BB2A360DDE700BF128E010808
:103A4000F7B50669446805464248706003F091FA8C
:103A500030B94148452101F026FD6FF012000BE01E
:103A60007068616883681B689847074630B13B48B7
:103A7000452101F018FD384603B0F0BD014601AA0A
:103A8000A06903F0B9F80028F6DB019B3A461979E2
:103A90001868FFF705FF0028EEDB2268D36823F4DF
:103AA0000053D360B06803F064FA10B92C48452184
:103AB000D1E7D6E902018368DB6803B19847226841
:103AC00002F10C0353E8003F43F00C0302F10C0138
:103AD00041E80037002FF3D12269022A30D0012AB1
:103AE00033D042BB00222168CB683A4323F4B05361
:103AF0001343CB600B6923F440530B61237B2BB141
:103B00006B681A68536943F44073536131682846FF
:103B1000FFF764FF237D23B12268536943F0080354
:103B200053612268D36843F40053D3602846E369A5
:103B300098470020A0E70B48572101F0B4FCD1E7DB
:103B40004FF480524FF48067CDE74FF480524FF42A
:103B5000C067C8E7EC750108458E0108698E010849
:103B60008E8E0108AE8E01082DE9F0410B79456873
:103B70000669012B0C467DD09A1E57425741BF0261
:103B8000627994F80680022A96BF4C494FF4005C93
:103B900031F812C0B8F1040F7BD094F807E0002B85
:103BA0006BD1BEF1010F22F002027FD0002A70D04B
:103BB000B8F1020F6DD91946D5F80080BEF1000F9B
:103BC0000DD03F4A904507D0A2F54C42904503D016
:103BD00002F5504290455CD1BEF1010F59D1D8F8A1
:103BE0000C2022F40052C8F80C204268D2F800E001
:103BF000DEF80C2002F4C06297421FBFDEF80C20F2
:103C000022F4C0623A43CEF80C20426817683A6941
:103C100002F4405294451FBF3A6922F4405242EAEE
:103C20000C023A6142681768FA6802F480529A42BC
:103C30001FBFFA6822F480521343FB6043681A687E
:103C4000536903F4407399421FBF536923F44073CF
:103C50000B43536121683368994203D0FFF7BEFEDE
:103C6000236833602A68D36843F40053D36000208C
:103C7000BDE8F0814FF4C06782E7033BBEF1010F5E
:103C8000DBB209D1012B04D94FF4407112F0FD0FC2
:103C900006D16FF08500EBE7012BFAD90021F5E79B
:103CA000B8F1020FF5D94FF4805385E7002AF0D020
:103CB000B8F1020FEDD94FF440717DE7F47F0108B0
:103CC0000010014010B54FF0E0239A691969986916
:103CD000094B11F4803F094901D1824206D21A688A
:103CE0000C6822441A604FF0E02212691B680A68CF
:103CF0001344181A10BD00BFC8260020D426002087
:103D0000094B102283F82320084B42F27F521A609D
:103D1000074B002018604FF0E0235A6198611A6940
:103D200042F007021A61704700ED00E0D42600203F
:103D3000C826002008B5FFF7C5FF0C4B0C4A1868D1
:103D400011680844106000221A600A4A13684FF490
:103D50001651C01AB0FBF1F001FB0033136001F003
:103D600021F8BDE80840FEF761BB00BFC82600206F
:103D7000D0260020CC2600202DE9F041314E00292C
:103D800054D0421C0AD14FF0E022136923F0010302
:103D900013614FF07F433360BDE8F081356801283F
:103DA0004ADD40F2D268404501DC00F1FF384FF0B7
:103DB0001003EFF3118483F31288BFF36F8FFFF7C3
:103DC00081FF214F4FF0E0230021D3F818C03B685A
:103DD000C2181E4B19601E4B1B68D11A2FD44FF40A
:103DE000165000FB081101F515519B1A3F31B1FB2C
:103DF000F0F100FB0133B3F5806F20D915498B42F8
:103E000028BF0B464FF0E02133608869013B4B61CE
:103E100000238B618445ACEB000338BF5B191A4467
:103E20003A6084F31188BFF36F8FB5E7431C3568A0
:103E3000B5D140F2D260B8E74FF00008B7E74FF4D1
:103E40008063DFE7D4260020D0260020C82600208B
:103E5000CC26002000C3FF0010B54FF01003EFF395
:103E6000118483F31288BFF36F8FFFF72BFF074B8B
:103E7000074A1B6812689B1A034484F31188BFF336
:103E80006F8F4FF41650B3FBF0F010BDD02600201A
:103E9000CC26002008B513498B6803F00C03042BD3
:103EA0001CD0082B1CD14A684B68496813F4800366
:103EB00014BF0D480D48C1F3881118BF002302F04C
:103EC0003F02A1FB0001FCF767FA064B5B68C3F3F6
:103ED000014301335B00B0FBF3F008BD0248FCE78F
:103EE0000248FAE70038024000127A000024F40089
:103EF000002876D03C4B1A6802F44042B2F5404F9D
:103F000020D13A4A904215D8394A904207D91A68C6
:103F100002F44042B2F5004F5CD102201FE0354A66
:103F200090421A6802F4404247D9B2F5004F4CD192
:103F3000012014E01A6802F44042B2F5004F3FD16C
:103F400003200CE01A6802F44042B2F5004F22D17F
:103F5000274A90423ED8274A90422ED90020224B31
:103F60001B68012838BF012003F44043B3F5804F9C
:103F70001FD0214A136823F007030343136013681B
:103F800003F0070398421CBF136803F00703C01A2D
:103F900018BF012070471B6803F44043B3F5804FFE
:103FA0000CD1134B98421AD8124B98424FF0000094
:103FB000DFD9012838BF0120DBE71B680020D8E7E4
:103FC0001B68032003F44043D0E71B68012003F47F
:103FD0004043CBE71B68022003F44043C6E70220BE
:103FE000C7E70120704700BF00700040804A5D05B0
:103FF0000090D00380C3C901003C0240034A044B37
:1040000002609B1A0348DB1058437047EC750108A7
:104010003C770108ABAAAAAA70B5054610B90024DE
:10402000204670BD0378002BF9D00E4C0E4EB442E2
:1040300008D10C4CB442F2D0204602F09AFF50B99D
:104040001834F7E7204602F094FF10B12368AB4222
:10405000E6D01834EBE72168284602F0ADFA0028D4
:10406000EED1DDE7EC7501083C770108014B98685B
:1040700064307047D826002010B545210446034817
:1040800001F011FA204602F07FFF00BF208F0108E7
:10409000F7B505460E464FF01003EFF3118783F393
:1040A0001288BFF36F8F00F01FFD042D96BF184BD1
:1040B000184B53F8253000220446009216482A4631
:1040C000452101F0F0F93EB1F369C3F308031BB1D8
:1040D0001248452101F0E7F934B1204602F06AFFA9
:1040E000034608B1027802B90D4B0E48224645211D
:1040F00001F0D9F931462846FFF7BEFF87F3118852
:10410000BFF36F8F204603B0BDE8F040FEF7DABB87
:10411000C87F0108348F01084A8F0108778F010892
:10412000428F01089D8F01080F4B70B553F8204056
:10413000013053F82060A64200D870BDD4E90035A4
:10414000284698476DB138B10028B8BF4042EB68A7
:10415000FF28A8BFFF201870EA68537843F00103D6
:1041600053700834E7E700BFDC7F010808B50A4B4D
:10417000012203201A70FFF7D7FF03F0BBF90420D8
:10418000FFF7D2FF00F01AF9FCF77EFB034A137B1E
:1041900023F00103137308BD362A002020020020FB
:1041A00008B50348034A0021121A02F0F6FE08BDC2
:1041B00020010020382A002070B5002386B001229B
:1041C000CDE90423134E144D01930F22CDE90232A1
:1041D0001249182303FB005506EBC01604464FF4A2
:1041E000C07000FB04110E4B00954FF4A0723046D6
:1041F00000F086F8737B0B4AEE6023F004037373C0
:104200004FF4046304FB033313442C756B6006B056
:1042100070BD00BFA0010020D8260020C03A0020B9
:10422000BD6F01088032002080B50020A6B0FFF7E6
:104230007BFF2C4B83F308882B4D2C4E6B692C4F46
:1042400043F400736B610024F02385F82230EC778F
:104250002C766C76AC7685F820406B6A43F4E023CC
:104260006B62FEF7FBFAFDF7A1FF4FF0FF33AB6285
:10427000EB62FEF7E1FBFEF73BFB40F20113ADF80A
:10428000243006ABB360CDE92044239402F070FEE5
:104290000120FFF749FF0220164DFFF745FF00F010
:1042A000D9FB154BB5610593012314490094CDE961
:1042B00003434FF400623B46CDE90144284600F039
:1042C0001FF86A7B064622F0040228466A7302F051
:1042D00005FF2046FFF770FF3A4631462846FEF7B5
:1042E0007BF800BFC03A002000ED00E0D826002097
:1042F0006D4101082002002004900108403C00208C
:104300002DE9FF410E9E0673042646730D9E8673AB
:1043100000F158050F46D61DC0E916550C9A002528
:1043200026F007064037C0E90655C0E91A768560D1
:10433000C573056706F1400802920B9A0192884402
:104340000A9A009242460446FEF714F8044B65654B
:104350009B6803B15B6F6367404604B0BDE8F081C2
:10436000D8260020F0B587B000250595109D04954E
:104370000F9D03950E9D0295DDE912760D9D019529
:104380000C9D00950446FFF7BBFFB6F1FF3F08BF49
:10439000B7F1FF3F05D056EA070305D1204600F0EC
:1043A0000BFB204607B0F0BD03493A46334604F103
:1043B000180000F079FCF4E749700108F0B5224CD0
:1043C000224D87B02646AE4204F12C040BD300F0F8
:1043D00011FB1D4C1E4F0A26AC4220D307B0BDE88E
:1043E000F04000F01BBB54F8043C059354F80C3C1F
:1043F000049354F8103C039354F8143C029354F87B
:10440000183C019354F81C3C009354E9092354E9E7
:104410000B01FFF775FF54F82C3C5E65D2E7626A2A
:10442000531C09D022EAE27282FB062352EA0301FE
:10443000206803D100F0C0FA2C34CDE7394618309B
:1044400000F032FCF8E700BFEC790108EC790108D4
:10445000497001082DE9F341044617461E464FF006
:104460001003EFF3118883F31288BFF36F8FC368D3
:10447000334A7BB180689168884219D057EA0603B5
:1044800018D188F31188BFF36F8F6FF00F0002B05F
:10449000BDE8F081916891F90E1021610133E3606C
:1044A0009368A36088F31188BFF36F8F0020EEE755
:1044B0002169F2E791F90E1090F90E309942A8BFE8
:1044C00019466FF07E029142B8BF11468B422EDD35
:1044D00002F080FD0546CDE900761A4822464146A5
:1044E00000F0F4F90028E1D04FF01003EFF311864B
:1044F00083F31288BFF36F8FA068D0B1236821695E
:104500009C420AD04BB193F90E309942A8BF19468C
:104510006FF07E039942B8BF194602F05BFD40B1CF
:104520000848314600F036FA6FF00A00AFE7002580
:10453000D1E7002DF4D186F31188BFF36F8FF3E735
:10454000D8260020372A002038B5836804466BB38C
:10455000194A926893422CD1C368012B03D9013BBD
:10456000C360002038BD4FF01003EFF3118583F3D3
:104570001288BFF36F8F0169806802F02BFD20461F
:1045800002F0BCFDA06058B190F90E20226100221B
:10459000C26702F0A3FD0948294600F0FBF9E0E7F5
:1045A000E06085F31188BFF36F8FDAE76FF01500D5
:1045B000D8E74FF0FF30D5E7D8260020372A002073
:1045C00038B504464FF01003EFF3118583F31288DA
:1045D000BFF36F8F02F092FD48B10022C26702F074
:1045E0007DFD29460848BDE8384000F0D3B9D4E93C
:1045F00002329A4218BF0133A360022104F1100075
:1046000002F05DFFEDE700BF372A002013B54FF041
:104610001004EFF3118184F31288BFF36F8F846865
:1046200044B1013C846081F31188BFF36F8F002097
:1046300002B010BD52EA030406D181F31188BFF322
:104640006F8F6FF00F00F3E7CDE9002302460248B9
:1046500000F03CF9ECE700BF372A002038B5074DE1
:104660002C6854B1FFF7F8FB054B04441C61286823
:104670000021BDE8384002F0C4BD38BD0427002049
:10468000D826002038B50D4D2B4653F81C4F9C42C0
:1046900000D004B9EC68AB6838B95A7BD20604D1B3
:1046A000A26912B9DA897F2A05D89C4202D0204635
:1046B000FFF7D4FF2346AB6138BD00BFD8260020EA
:1046C00070B590F90D20437B002A014604DA03F00F
:1046D0007F03437302F09DFC4B7B154A63F07F031D
:1046E00010464B7350F81C3F146A834208BF0023E6
:1046F00023B9C1E90004216011620CE091F90E5068
:1047000093F90E60B5420ED0AE420CDD5868C1E997
:104710000030016059609068431A5842BDE870400B
:104720005841FFF7AFBF9C42E3D01B68E0E700BFF2
:10473000D826002070B490F90D30427B002B29DB85
:10474000D30627D183692BBB134962F07F024273E2
:104750000A4652F81C4F944218BF23460C6A23B9EC
:10476000C0E90024206008620CE090F90E5093F933
:104770000E60B5420AD0AE4208DD5A68C0E9003288
:104780001060586070BC0020FFF77CBFA342E7D0E8
:104790001B68E4E770BC7047D826002008B590F984
:1047A0000D20437B002A014604DA03F07F034373A4
:1047B00002F02FFC044B9868431A58425841BDE858
:1047C0000840FFF75FBF00BFD826002070B5154630
:1047D0001C46064602F05AFCB4F1FF3F08BFB5F193
:1047E000FF3F08D02A46234606F118000249BDE8DB
:1047F000704000F059BA70BD4970010810B54FF013
:104800001003EFF3118483F31288BFF36F8F0A2331
:10481000002800FB03F302DD022BB8BF0223074A86
:104820000020106106480360064B90681960FFF78E
:1048300015FF84F31188BFF36F8F10BDD8260020B9
:10484000042700200027002038B54FF01003EFF3B5
:10485000118583F31288BFF36F8F174B174A9C683B
:1048600011688C4207D12046FFF7F8FE85F31188C6
:10487000BFF36F8F38BD00211160114A1268C2B1B9
:10488000E2897F2A15D8627BD20612D10D4A94F9AB
:104890000E10126891420CDB0B4A944209D01A693F
:1048A000824203DC2046FFF70BFFDCE7121A1A6195
:1048B000DCE70022FBE700BFD8260020FC26002012
:1048C0000427002000270020A001002070B50C481C
:1048D0000C4D86682E600C461146DDE904234FF02E
:1048E0001006EFF3118586F31288BFF36F8F80688F
:1048F000FFF76CFF2046BDE87040FDF7E7BC00BF46
:10490000D8260020FC260020F8B504464FF01003FE
:10491000EFF3118683F31288BFF36F8F437BDA06C0
:1049200049B219D18569BDB903F07F03437302F021
:1049300070FB437B164A817363F07F034373134616
:1049400053F81C0F984218BF0546106A5DB9C4E9B8
:1049500000300460146211E0A173002086F3118816
:10496000BFF36F8FF8BD95F90E70B9420BD08F422F
:1049700009DD6B68C4E900531C606C600120FFF71F
:1049800081FE0120EAE7A842E1D02D68DEE700BF02
:10499000D826002049B9EFF3058030B9054B9A6954
:1049A0009B689A4201D0FDF791BC81F31188BFF357
:1049B0006F8F7047D826002010B54FF01002EFF32C
:1049C000118482F31288BFF36F8F427B510704D4A6
:1049D00084F31188BFF36F8F10BD22F0040242737D
:1049E000FFF7A8FE21460248BDE81040FFF7D2BFFE
:1049F000372A00204FF01003EFF3118183F3128860
:104A0000BFF36F8F044B9A68D37B013BD37381F361
:104A10001188BFF36F8F7047D826002010B54FF074
:104A20001003EFF3118483F31288BFF36F8F084BE9
:104A30009A68D37B0133D3730020FFF723FE84F3FE
:104A40001188BFF36F8FBDE8104002F097BB00BF25
:104A5000D8260020044B002103F11C02C3E90722E1
:104A60000846FFF7CBBE00BFD8260020F8B54FF0B0
:104A70001003EFF3118583F31288BFF36F8F194989
:104A80008868437B03F07F03437302F0C2FA8B68AC
:104A90005A7B084662F07F025A7350F81C2F0C6A4A
:104AA000824208BF002222B9C3E9000423600B62DE
:104AB0000CE093F90E6092F90E70BE420ED0B74230
:104AC0000CDD5168C3E900210B6053600120FFF742
:104AD000D9FD2846BDE8F840FDF7F8BBA242E3D077
:104AE0001268E0E7D8260020014B9868704700BFA5
:104AF000D82600202DE9F04104464FF01003EFF3D3
:104B0000118683F31288BFF36F8F037BD9070BD510
:104B100086F31188BFF36F8F404080F311884FF008
:104B2000040002DFBDE8F081437B1A0704D586F359
:104B30001188BFF36F8FF5E723F0200242F00801E0
:104B4000D20920D14173A36813B1204602F069FA5B
:104B500004F1180002F03FFB04F158074FF0000881
:104B6000A56DBD4200D0B5B90120FFF78BFD104BFC
:104B70009B68A342DBD1EFF30583002BD7D13046EE
:104B8000FDF7A4FBD3E703F05F0343F0080343738F
:104B900002F03FFAD7E7284602F043FA05F1180081
:104BA00002F019FBC5F87C802846FFF7C3FDD7E764
:104BB000D8260020D3B5DDE90667089CCDE900675B
:104BC000FFF784FE1CB1034B9B685B69236002B056
:104BD000D0BD00BFD826002008B50648064A0749C0
:104BE000121A02F0DCF9BDE80840054A05490648FA
:104BF00002F0D5B9000000201C0100201890010827
:104C0000000000001890010800000020034B1B6802
:104C10000BB9FFF721B90020704700BF082700201B
:104C200010B5114B1C689C420AD1FFF7EFFF6FF0E3
:104C300000400E4B1B6913B19842A8BF184610BD27
:104C4000FFF7E4FF002CF2D0D4E904321B1A62EB28
:104C5000E072B3F1004F72F10001E8DA002AACBF54
:104C600018460020E5E700BFE0000020D82600201D
:104C700030B570B10B4B5B6898420AD0036843B102
:104C8000D3E90421D0E90445121941EB0501C3E938
:104C90000421D0E9003213605A600023C0E90033D8
:104CA00030BD00BFE0000020B3F1FF3F08BFB2F10C
:104CB000FF3FF8B504461D46164661D081604FF0AF
:104CC0001003EFF3118783F31288BFF36F8F013264
:104CD00075F1FF3324DA3049D1E900206FF0010388
:104CE0009B1A4FF0FF3262EB00009E1B60EB050049
:104CF000012E70F1000301DA01260020C4E90460EE
:104D0000264ED6F800C07568B44508BF4FF0000CB9
:104D1000BCF1000F0DD1C4E900652C6074601CE08B
:104D2000FFF774FF013645F10005361845EBE070DA
:104D3000E4E7DCE90420D4E90431934271EB000E8E
:104D40001FDAD21ADCF8043060EB0100CCE9042051
:104D5000C4E900C31C60CCF804403368B3420BD0F4
:104D60009C4209D1FFF75CFF18B10D4B1B698342D0
:104D700002D00021FFF700F887F31188BFF36F8F8F
:104D8000F8BD9B1A61EB0001AC45C4E90431C2D007
:104D9000DCF800C0BCE700BFA0020020E00000205B
:104DA000D82600202DE9F84F0446FFF74DFD4FF0BF
:104DB0001003EFF3118C83F31288BFF36F8FDFF8CA
:104DC000B0A0DFF8B090DAF800002B4FC9F800402F
:104DD000504508BF002000240025D7E90021D9F85C
:104DE0000030E04680B3D0E9046C4FEAE37EB34282
:104DF0007EEB0C0B05DAF61A6CEB0E04C0E90464CA
:104E000022E0B21841EBE671C0E90445C7E9002190
:104E1000FFF72EFF88F31188BFF36F8F83689847E1
:104E20004FF01003EFF3118883F31288BFF36F8FF5
:104E3000D9F80030DAF800009B1B5045C446C9F889
:104E40000030CAD1D7E900219A1841EBE37300245E
:104E5000C7E90023C9F80040FFF7E2FE2146FEF74C
:104E60008BFF88F31188BFF36F8FBDE8F88F00BF09
:104E7000E000002008270020A002002010B54FF01D
:104E80001003EFF3118483F31288BFF36F8FFFF7E2
:104E9000BDFE064A0346D2E90001181841EBE37152
:104EA00084F31188BFF36F8F10BD00BFA0020020F4
:104EB0002DE9F3471D46294B9F68012387F8603091
:104EC00087F8613052EA050316460CBF0123002320
:104ED00007F16002804602F0E3F981464FF01003CB
:104EE000EFF3118A83F31288BFF36F8F97F8604056
:104EF00064B901465246404602F0A3FA8AF311888B
:104F0000BFF36F8F204602B0BDE8F087002387F81B
:104F1000603056EA050306D18AF31188BFF36F8F1C
:104F20006FF00A04EEE7CDE900650D4A0D485146E1
:104F3000FFF7CCFC04464FF01003EFF3118583F329
:104F40001288BFF36F8F2A464946404602F079FA2D
:104F500085F31188BFF36F8FD4E700BFD8260020F8
:104F6000E8000020372A002038B503464FF0100231
:104F7000EFF3118582F31288BFF36F8FC1600121B7
:104F800081600068834206D185F31188BFF36F8F7B
:104F90000024204638BDD0E9003213605A60002357
:104FA000C0E9003302F0F3F9294604460148FFF74F
:104FB000F1FCEEE7372A00201FB5094B029302AB44
:104FC00000240093074908488DF80C404FF0FF3348
:104FD0004FF4806200F000F9204604B010BD00BF1D
:104FE0000C90010880440020A80200202DE9F04F19
:104FF0004A4E85B004464FF0FF384FF0FF394FF06E
:105000001003EFF3118783F31288BFF36F8FD4F887
:1050100080508DB9022104F1980002F06CFA00284A
:1050200043D10023CDE90089029304F18802394677
:105030003B48FFF7BFFDE2E7D4F884202B68C4F8B3
:105040008030954208BFC4F88430D4F8983043F0DB
:105050000203C4F89830EB6823F0040343F0010323
:10506000EB606B6887F31188BFF36F8F2846984712
:105070004FF01003EFF3118B83F31288BFF36F8FA0
:10508000EB68990723F0010219D4EA60D4F898304C
:1050900023F00203C4F898308BF31188BFF36F8FAD
:1050A000DB05ACD4FFF7E2FCA9E704F19005002290
:1050B0000121284602F06CF80028F8D1B1E73068E9
:1050C00023F00303EB600028E0D00027D0F800A015
:1050D0003B460028DAD04268954201460CD101686F
:1050E0009FB972683160824200D1716040F8083B1C
:1050F000FFF766FA39460023BAF1000F0BD0DAF851
:10510000002050460F469246E3E7396072688242BB
:1051100008BF7760EAE75246F3E700BF0C2700209C
:10512000372A0020F8B5C3689A0704460F46C3F330
:1051300040062CD45B071AD40B680BB983680B604C
:10514000E368DD0744BFA3683B603D684CBF0226AF
:105150000126002D3AD01F4B9B68AB420AD0D5F8F0
:105160009830D807C3F3800214D46FF012060023DE
:105170003B6025E001F015FFD5F898300028F0D10C
:10518000D907C3F3C002F0D552B15B0708D46FF062
:105190000F06ECE7002AFAD1C3F3C003002BF6D1C7
:1051A00000232360D5F8843063B9C5E9204428463C
:1051B00002F0ACF9E36843F00403E3603B68A360EA
:1051C0003046F8BD1C60C5F88440F0E76FF0150666
:1051D000CDE700BFD8260020F0B589B004460020F6
:1051E000C4E920000E9D04F18800C4E9220004F106
:1051F0009000C4E924001DB32879002840F2011072
:1052000008BF0120C4F8980000204FF0FF364FF08F
:10521000FF37CDE90330CDE90100CDE90667094B41
:1052200000942046FFF79EF825B1296811B1204669
:1052300001F0BDFE204609B0BDE8F04001F0BCBE63
:105240000120DFE7ED4F0108704710B4D0E90004FA
:10525000214484682468A44610BC604710B4D0E997
:105260000004214484686468A44610BC60470020A0
:105270007047406800F10060704780687047002008
:105280007047044608B5084611461A46A047FFF77E
:105290002BFCFDF717FB2DE9F84F9A46D3786F2BBF
:1052A00080460F461546A3F1410B29D024D8582B30
:1052B0000CBF10260A26DDF828903246002340460F
:1052C0003946FBF769F8092AD4B21ED83034B04504
:1052D000E4B277F1000709F8014D01D3D14511D8A7
:1052E0002B789B0605D5082E15D1AB7843F0080323
:1052F000AB704846BDE8F88F03F0F703702BD7E793
:105300000826D8E780460F46D7E7BBF1190F94BFB0
:1053100037345734DBE7102EEBD1AB7843F0100372
:10532000E6E72DE9F0410746884615461E46144635
:10533000B44205D30EB1601B08E02378002BFAD0ED
:1053400014F8010B4146B8470028F1DABDE8F081B6
:10535000F0B5C6684568C369AF1B04464069BB42E7
:1053600098BFFF1AA5EB0000944698BFF6181A1ACA
:10537000D81B2368AD1B62452B4428BF62460B60D7
:105380006368904228BF104603446360F0BDD0E9D3
:105390000123D21A8A420CD31944C368C269C0E9F6
:1053A0000111C91A8A4201D9002070471344C36011
:1053B000FAE76FF0150070472DE9F34180460E467D
:1053C000154600272A4601A94046FFF7C1FF31468E
:1053D00004460246019801F036F92D1B2744264465
:1053E00001D0002CEED139464046FFF7D0FF3846B9
:1053F00002B0BDE8F081F0B5044686690569C06970
:10540000A368AF1BB842944698BF3618A3EB0502B9
:105410002368A5EB060598BF3F1A2B446245A0EB15
:10542000070028BF62460B602369904228BF1046E0
:1054300003442361F0BDD0E90423D21A8A420CD37D
:105440001944D0E90632C0E90411C91A8A4201D9C7
:105450000020704713448361FAE76FF0150070472E
:105460002DE9F34180460D4616460027324601A934
:105470004046FFF7C0FF04462DB102460199284679
:1054800001F0E1F82544361B274401D0002CEDD172
:1054900039464046FFF7CFFF384602B0BDE8F081FD
:1054A0007047002070470FB407B504A951F8040BEA
:1054B0000191FBF717FA03B05DF804EB04B07047F5
:1054C00083681B6A03B11847704710B543681B68AF
:1054D0001C682046FFF7F4FFA368DB6A0BB1204687
:1054E0009847002010BD08B543681A68117419B1B7
:1054F0001B681868FFF7E4FF002008BD10B51C46C4
:105500004368D868FFF7ACFF2060002010BD2DE98C
:10551000F04145681E462B681B7C0C46174653B16C
:1055200001EB0208A04521D137602B680120D3E9A7
:105530000121904717E0A868FFF73EFF30602B6815
:10554000BFF35B8F0C33012153E8002F43E80010B9
:105550000028F9D1BFF35B8F2AB92B6818688368DC
:10556000DB6903B198470020BDE8F0812B6814F88F
:10557000011B186883685B689847D3E710B503463A
:10558000BFF35B8F53E8000F40EA010243E80024B9
:10559000002CF7D1BFF35B8F10BD10B50346BFF3EE
:1055A0005B8F53E8000F00EA010243E80024002C5F
:1055B000F7D1BFF35B8F10BD10B58368D3F86431AA
:1055C000DB07044616D4406803685B6898470146C9
:1055D00008B9A3681871A3685B6B0BB120469847A4
:1055E000A3680022C3F80C22FFF77EFABDE8104042
:1055F000FDF768B96FF00F01EDE773B50901856834
:1056000001F5B471044616460D4401AA69462846C0
:1056100001F06BFF009B23B1284601F063FF204699
:10562000B04702B070BD0EB403B503AA52F8041B14
:105630000192FCF7ADF902B05DF804EB03B07047DE
:10564000FEF708BF8B6820B903F5B4700021FFF79F
:105650008BBC03F5CC70F9E7042100F5B270FFF7BD
:105660008DBF08B500F5B07029B10121FFF786FFA5
:1056700000F0010008BD6FF00101FFF78EFFF7E7B2
:10568000FEF762BFF8B5044680681F460379022B17
:105690000D46164607D0BDE8F8404FF4805100F59E
:1056A000B270FFF76BBF4FF0FF324FF0FF3300F5E2
:1056B000FC70FFF7C5FFA368D3F86421110504D47B
:1056C0009B6B13B9204600F05EFA3B4632462946F2
:1056D000204600F0B8FAA368D3F86421120504D478
:1056E0009B6B13B92046FCF75BFA606900F01FF86A
:1056F000A068BDE8F84000F5FC70FFF7C1BF0CB42E
:1057000007B504AB53F8042B0193FFF7BBFF03B0BD
:105710005DF804EB02B070478368996331B9836820
:1057200083F842108368D98783689987704710B5DA
:1057300002698368126801680446C0689847236953
:1057400000221A6010BD38B5CB681B7C022B0546C1
:105750000C4604D10A2802D10D20FFF7F4FF23697B
:1057600022681B68D55422691368013313602369CA
:105770001A6863689A4202D12046FFF7D8FF0020DA
:1057800038BD202805D0093804288CBF002001200E
:1057900070470120704708B510B100F0FDFE80B2DF
:1057A00008BD10B5047B438922442144B2FBF3F0C9
:1057B00003FB1022B1FBF3F003FB1010101A10BD15
:1057C00010B5047B438921441019B1FBF3F1B0FB00
:1057D000F3F0401A10BD30B5057B43892944B1FB75
:1057E000F3F403FB141101312A4401340180B2FBAC
:1057F000F3F103FB1122848001324C1CC4804280EF
:1058000030BD2DE9F74F00260746884614469946D5
:105810000660B2462078002800F0BE80FFF7B1FF96
:1058200020B104F801ABF5E70026F3E73B685A1C0A
:105830003A6048F823403B684B4500F0AD8006468F
:105840002278002AE6D0A6B9164623461C46272E03
:1058500004D05C2E20D0222E40F091802046FFF70D
:105860009AFF611C0246204600F0D6FE2278002AEC
:10587000D0D0B242A34604F101041BD15846FFF731
:105880008AFF21460246584600F0C6FE9BF800609B
:105890005C46002ED9D1BDE72046FFF77CFF651C92
:1058A00002462946204600F0B7FE66782C46002EB8
:1058B000CDD1AFE75C2A9BF80120D8D1B242104687
:1058C00008D15846FFF767FF21460246584600F0C8
:1058D000A3FEB5E7302A25D1022300251BF80300DB
:1058E000A0F13001C9B2072919D8ED000133EDB29A
:1058F000052B45EA0105F1D1591E5944584601933B
:105900000091FFF748FF019B0099023BC21A5846DD
:1059100000F082FE9BF801208BF80050A7E7DBB275
:10592000022BE9D1782825D1022100251BF801306E
:10593000A3F13000C0B2092808D82D01EDB205430B
:10594000022901D00423D7E70321EFE7A3F1610087
:10595000052805D82D01EDB2573B1D43EDB2EFE709
:10596000A3F14100052803D82D01EDB2373BF4E740
:10597000022902D10BF1010479E70323BCE7304689
:10598000FFF7FFFE00287FF44FAF6678631C002E00
:105990007FF45CAF1C463DE7304603B0BDE8F08FB6
:1059A0002DE9F041884686B01746044628B10146E5
:1059B000142201A800F047FE01AC002631463A4609
:1059C0002046FBF7FDFF0136054628B12968404611
:1059D00000F0F2FD0028F1D1284606B0BDE8F081C4
:1059E0002DE9F341074601A80C46FEF707FB019D90
:1059F000182303FB005500260198A84201D300207C
:105A00000DE001F0B6FAC8B1019B1868B0B100F022
:105A1000C3FD98B1019B2CB9BE4213D1019802B0CD
:105A2000BDE8F0812046D3F8008000F0B5FD414686
:105A30000246204600F0CCFD0028EDD0019B183333
:105A40000193D9E70136F9E70EB403B503AA52F87A
:105A5000041B0192FBF79CFF02B05DF804EB03B05E
:105A6000704738B58368044618689D8F10B100F000
:105A700093FD80B2A268528D4319B3FBF2F102FB91
:105A80001130B0FA80F0400938BD38B58368D3F8DA
:105A90006021DD8F04461868C2F34002554310B1FF
:105AA00000F07AFD80B2A268528D4319B3FBF2F187
:105AB00002FB1130B0FA80F0400938BDF8B58468B7
:105AC0000546A28FE18F04F12000FFF784FE2846EF
:105AD000A78CE68CFFF7C5FF10B16869FBF7B6FF2E
