:020000040801F1
:10000000FF7F640086E47B301FB8657DEDC867C85C
:1000100026FAC7D98561621246E6D463B512A610E6
:100020002CD19E8A0EE16624A1DFCE7C609B041257
:1000300059A673F12DF859E22B7C7ADA8DFE4D82A8
:10004000BB40FDA609ADD5BD9B6C8E3E017763A478
:10005000C700C9355852F658D9C618C76292780EEB
:10006000B725885E00802C00010100000002010815
:1000700000000000385B00000002010000000000EA
:10008000D74ED497C072E5C89540C35BA6ABAF35D9
:10009000010014000000000001010000000201083E
:1000A0000000000000000000000000000000000050
:1000B0000000000000000000000000000000000040
:1000C0000000000000000000000000000000000030
:1000D0000000000000000000000000000000000020
:1000E0000000000000000000000000000000000010
:1000F0000000000000000000000000000000000000
:1001000000000000000000000000000000000000EF
:1001100000000000000000000000000000000000DF
:1001200000000000000000000000000000000000CF
:1001300000000000000000000000000000000000BF
:1001400000000000000000000000000000000000AF
:10015000000000000000000000000000000000009F
:10016000000000000000000000000000000000008F
:10017000000000000000000000000000000000007F
:10018000000000000000000000000000000000006F
:10019000000000000000000000000000000000005F
:1001A000000000000000000000000000000000004F
:1001B000000000000000000000000000000000003F
:1001C000000000000000000000000000000000002F
:1001D000000000000000000000000000000000001F
:1001E000000000000000000000000000000000000F
:1001F00000000000000000000000000000000000FF
:1002000080160020A1190108B33C010875190108E6
:100210007519010875190108751901080000000019
:100220000000000000000000000000005D14010854
:100230007519010800000000091401081D270108B4
:100240000D1501080D1501080D1501080D15010802
:100250000D1501080D1501080D1501080D150108F2
:100260000D1501080D1501080D1501080D150108E2
:100270000D1501080D1501080D1501080D150108D2
:100280000D1501080D1501080D1501080D150108C2
:100290000D1501080D1501080D1501080D150108B2
:1002A0000D1501080D1501080D1501080D150108A2
:1002B0000D1501080D1501080D1501080D15010892
:1002C0000D1501080D1501080D1501080D15010882
:1002D0000D1501080D1501080D1501080D15010872
:1002E0000D1501080D1501080D1501080D15010862
:1002F0000D1501080D1501080D1501080D15010852
:100300000D1501080D1501080D1501080D15010841
:100310000D1501080D1501080D1501080D15010831
:100320000D1501080D1501080D1501080D15010821
:100330000D1501080D1501080D1501080D15010811
:100340000D1501080D1501080D1501080D15010801
:100350000D1501080D1501080D1501080D150108F1
:100360000D1501080D1501080D1501080D150108E1
:100370000D1501080D1501080D1501080D150108D1
:100380000D1501080D1501080D1501080D150108C1
:100390000D1501080D15010853B94AB9002908BF08
:1003A00000281CBF4FF0FF314FF0FF3000F00CB8B9
:1003B000ADF1080C6DE904CE00F008F8DDF804E0BA
:1003C000DDE9022304B07047704700BF2DE9F04714
:1003D00086468C460846089E154674461946002BEC
:1003E00040F0C2808542B2FA82F245D94AB1C2F1E8
:1003F000200300FA02FC2EFA03F3954043EA0C0CAA
:1004000094404FEA154EA8B2BCFBFEF8230C0EFB3D
:1004100018CC08FB00F943EA0C43994528D9EB189E
:1004200008F1FF3704D2994502D9A8F102072B44FD
:10043000A3EB0903A4B2B3FBFEFC0EFB1C330CFBC5
:1004400000F044EA0344A04214D92C190CF1FF3304
:1004500004D2A04202D9ACF102032C44241A43EA8C
:1004600007401EB1D440002334607360BDE8F087BC
:100470004746DDE76346F1E792BB431B01214FEAA4
:10048000154EAFB2B3FBFEFC200C0EFB1C330CFB75
:1004900007F840EA0343984562D9EB180CF1FF30A6
:1004A00004D2984502D9ACF102002B44A3EB080317
:1004B000A4B2B3FBFEFC0EFB1C330CFB07F744EAB3
:1004C0000344A7424ED92C190CF1FF3304D2A742A2
:1004D00002D9ACF102032C44E41B43EA0040C0E71C
:1004E000C2F1200320FA03F1954090402EFA03F365
:1004F00003434FEA154EAFB2B1FBFEFC0EFB1C10DE
:10050000190C0CFB07F841EA0041884504FA02F493
:1005100022D969180CF1FF3004D2884502D9ACF118
:1005200002002944A1EB08019BB2B1FBFEFC0EFBCB
:100530001C110CFB07F743EA01439F420ED9EB184D
:100540000CF1FF3104D29F4202D9ACF102012B44DD
:10055000DB1B41EA004192E76046E3E76146F7E7CB
:100560006046A3E76346B7E7834206D916B9002180
:1005700008467BE7C6E900E0F9E7B3FA83F78FB9ED
:10058000834201D3724508D8BEEB020460EB03033B
:1005900001209C461EB9002168E73846FAE7C6E903
:1005A000004CF8E7C7F1200CBB4022FA0CF41C43C6
:1005B0002EFA0CF120FA0CF3B84001434FEA14492B
:1005C0000EFA07F5B3FBF9F81FFA84FE09FB1830A1
:1005D0000B0C08FB0EFA43EA00439A4502FA07F2B5
:1005E00040D9E31808F1FF3004D29A4502D9A8F1A6
:1005F00002002344A3EB0A0389B2B3FBF9F809FB19
:10060000183308FB0EFE41EA03418E452CD96118D0
:1006100008F1FF3304D28E4502D9A8F10203214428
:1006200043EA0040A0FB0298A1EB0E014145CE46F3
:10063000434602D306D14D4504D2B9EB020E68EB16
:1006400004030138002EA6D0B5EB0E0261EB0301C6
:1006500001FA0CFC22FA07F34CEA0303F940C6E95D
:10066000003198E74046C5E74346D9E7012910D84D
:10067000094B0C2202FB01330360084B4360084B1B
:100680008360084BC360084B0361084B4361002043
:1006900070476FF0010070475C4F0108C3380108D4
:1006A000D5380108E7380108EB380108F3380108AC
:1006B00008B5024903F044F9002008BDEA510108D9
:1006C00030B50A4D2968891A97B00446296009B9DE
:1006D00000F09AF92B68064A512101A801F066FA48
:1006E00001A9204603F02CF917B030BDF402002018
:1006F000F451010870B5012998B00446154602DC92
:10070000134903F01DF9002211466868114E03F0E9
:10071000D7FA002230601146A86803F0D1FA0E4AD9
:1007200010603268009203460C4A512103A801F080
:100730003DFA03A9204603F003F92046084900F0DA
:1007400063F92046074903F0FBF8002018B070BD9C
:1007500006520108F0020020F4020020295201088C
:10076000C10601080352010870B5A2B0002407AB0E
:10077000124E0694054605930598214600F094FD17
:10078000C8B904A905A803F05EFAA0B9BDF81230F3
:1007900002939DF8113001939DF81030009332467A
:1007A000234651210DA801F001FA0DA9284603F0B6
:1007B000C7F80134E0E7002022B070BD49520108BB
:1007C00037B5154C1548E388019363790093237975
:1007D0002268134D492103F0EFF9227A114849218B
:1007E00003F0EAF9627A104C1048492103F0E4F969
:1007F000224628460E4903F003F90E492A462046B0
:1008000003F09BF8284600F031F9204603B0BDE81C
:10081000304000F0E5B800BFE0FF01206B52010856
:10082000200000208F52010800000020A95201087A
:1008300039080108073A01082DE9F04F4368D3F859
:100840000C8091B004460E461746B8F1000F07D150
:10085000DFF878910F44BE4207D111B0BDE8F08FA8
:10086000434611B0BDE8F04F184716F8015B0A2D5A
:100870004DD163685B68002BEDD0204603F040F853
:100880006368D3E900120D2D02F1010058608D5408
:100890004BD140220021684603F0B0FA00231A46EB
:1008A00019466568686883425CD38A466368D3E901
:1008B00001239A4202D1204603F022F8BAF1000F38
:1008C00013D0DDF800B0424D4D456BD34149204671
:1008D00003F021F80099204603F01DF8204603F0AC
:1008E0000FF83D49204603F016F8636800219A6826
:1008F000186803F083FA6368C3F804806368DB68F0
:10090000002BA8D13549204603F005F8A3E70D2DAB
:10091000AFD0082D0CD02946204602F0ECFF6368CA
:10092000D3E90012501C58608D540A2D14D1B0E741
:1009300063685B68002B8ED02946204602F0DBFFFF
:1009400062685368013B20212046536002F0D3FFC8
:100950002946204602F0CFFF6368D3E901239A427B
:1009600097D278E7D5F800C00CEB03051CF803C05C
:10097000BCF1200F02D0013883420FD185F80080EE
:1009800052B110A800EB81000F2901F1010A40F8D3
:10099000402C8BD051460022013382E7002A08BF49
:1009A0002A46F9E72168286803F011FA08B11035E2
:1009B0008AE76868594603F00AFA0028F7D1AB685D
:1009C0006A465146204698478FE700BF4401002001
:1009D000040100202D5301083F5301085E53010814
:1009E00010B5436804469A681868002103F006FAB7
:1009F0006368044900225A602046BDE8104002F0B6
:100A00008ABF00BF5D5301084268D1604368DB685C
:100A100013B9024902F07FBF704700BF5D53010860
:100A2000F8B50F4D0F4E104F0446B54201D30020CC
:100A3000F8BD2168286803F0CAF970B969682046D2
:100A400002F069FF3946204602F065FF2046E9685A
:100A500002F061FF204602F053FF1035E5E700BFCA
:100A600004010020440100203C53010813B5044652
:100A70001549083003F09DFE63680022C3E9022295
:100A8000C3E905225A601A612068836823B19B6C10
:100A900013B10E4922469847206883685B6B0BB1FF
:100AA000984730B1206801220DF1070102F051FF93
:100AB000F7E7206883689B6A1BB102B0BDE810406D
:100AC000184702B010BD00BF613901088D39010817
:100AD000014B1B68184700BF64000020014B1860E1
:100AE000704700BF6400002007B50B460021024696
:100AF0000091034800F006F803B05DF804FB00BF66
:100B0000D10A01082DE9F04F814695B08B46174672
:100B10001C460025387808B9284658E37B1C252850
:100B2000039306D05946C8470028C0F250830135C8
:100B3000FBE1182200210EA803F060F97B78252B39
:100B40007DD00023781C98469E469C461E46014652
:100B500010F8012B2B2A00F0A18000F29880202AA7
:100B600000F09F80232A00F09F802BB19DF8403039
:100B700043F040038DF84030B8F1000F05D09DF8E8
:100B8000403043F020038DF84030BEF1000F05D017
:100B90009DF8403043F010038DF84030BCF1000F59
:100BA00005D09DF8403043F008038DF840302EB159
:100BB0009DF8403043F004038DF840309DF84030FC
:100BC00003F04400442803D16FF386138DF84030BE
:100BD0009DF840302A2A43F080038DF840307FD1C1
:100BE0009DF8412042F001024B1C8DF841201A78FB
:100BF0002E2A9DF841200CBF0121002161F3410202
:100C00008DF8412078D15A782A2A6ED001330022FB
:100C10004FF00A0C194611F8010BA0F13006092E0D
:100C200040F295809DF840101292C1F3400040EAD6
:100C3000D2700A4660F341028DF840205CE0BA1C95
:100C400003928DF843309DF84130DA0740F12E8150
:100C500054F8048BB8F1000F07DA9DF8402042F0F9
:100C600004028DF84020C8F100085E0740F127819A
:100C700054F804ABBAF1000F80F226819DF84130A0
:100C80006FF341038DF841304FF0FF3A1CE12D2AFC
:100C90000DD0302A7FF469AF012358E74FF0010CE3
:100CA00055E74FF0010E52E74FF001084FE70126DC
:100CB0004DE70EFB0262303A0346184610F8016B0E
:100CC000A6F1300CBCF1090FF3D999428FD09DF8F1
:100CD00040101192D20F62F341018DF8401086E767
:100CE0000B4600224FF00A0EE7E79DF8412042F044
:100CF00004028DF8412002331A786C2A47D02BD891
:100D0000682A31D06A2A4BD04C2A51D01A4612F8A0
:100D1000013B0392782B9DF841208DF8433000F27F
:100D2000BE806D2B51D8692B00F2B980572B67D844
:100D3000412B03D0453B022B00F2B1809DF842309D
:100D4000042262F302038DF84230012373E00CFBAE
:100D50000202303A0B465DE7742A25D07A2AD5D1B3
:100D60009DF8412006210CE05A78682A9DF8412020
:100D700006D1012161F3C6028DF841200233C5E797
:100D8000022161F3C6028DF841200133BEE75A7893
:100D90006C2A9DF8412001D10421EBE70321F0E703
:100DA0009DF841200521ECE79DF841200721E8E767
:100DB000BDF8402022F4F04222F0020242F48042C8
:100DC00042F00202ADF84020DFE76E3BD9B20123CA
:100DD0008B4040F282410B4237D113F0240F51D1A6
:100DE000D8075CD59DF84230032161F302038DF8EA
:100DF000423002F07803A3F140014B424B411AE02C
:100E0000A3F15801C9B2012000FA01F111F4624FB7
:100E100094D140F6010631421DD111F4043F3ED079
:100E20009DF8423060F3020302F07802402A8DF808
:100E3000423034D000239DF84020C2F340010B43E0
:100E400063F341028DF84020FDE69DF84230022117
:100E500061F30203E8E79DF84210022002F07802F5
:100E600060F30201402A8DF8421002BF9DF8401045
:100E700041F001018DF84010632BDBD1131E18BF28
:100E80000123D8E79DF84230032161F3020312F0F9
:100E9000780F8DF8423014BF01230023CBE79DF873
:100EA000403043F001038DF84030C3E79DF9402006
:100EB000002AB4BFDDF844804FF0FF38D5E698072C
:100EC0007FF5E2AEDDF848A09DF841100023CDE9A2
:100ED00011339DF8423003F00703012BC1F3C30126
:100EE00033D1CB1E042B04D8DFE803F02146462182
:100EF0002100236801294FEAE372CDE90E321CD1AB
:100F00009DF93830DA17CDE90E3204349DF84030BF
:100F100013F0030650D0039B3A465946484602F068
:100F2000C8FD0028C0F253810544039FF2E554F840
:100F3000043BDA17CDE90E32E8E70229E5D11AB20F
:100F400043F3C033CDE90E23DFE7022B24D1CB1EC0
:100F5000042B04D8DFE803F018101018180001293A
:100F600054F8043B4FF0000214D00229CDE90E32B0
:100F7000CCD19BB20E93C9E7073424F00704F4E800
:100F80000223CDE90E23C1E754F8043B0E9300235E
:100F90000F93BBE7DBB2CDE7042B08D1073424F075
:100FA0000704D4E900230834CDE90E23AEE7032B70
:100FB000ACD154F8043BDDE79DF843007828B4D861
:100FC00062281CD825283FF4ADAD5828ADD10DF1CD
:100FD00036030093DDE90E0108AB10AA02F023FDF1
:100FE000BAF1000F074680F29A80002F9DD00DF1D4
:100FF0003603D81B002E00F0C1800130BEE06338FC
:10100000152892D801A252F820F000BFE110010883
:10101000F31001082B0F01082B0F01082B0F0108FB
:101020002B0F0108F31001082B0F01082B0F0108EB
:101030002B0F01082B0F010881110108191101085C
:101040003F1101082B0F01082B0F01086510010843
:101050002B0F0108191101082B0F01082B0F010894
:1010600019110108BAF1000F0E9F35DB51463846C1
:1010700002F0A4FE07EB000A002F3FF456AF002653
:101080009DF8423013F01002059200F09380023078
:101090005B06119A48BF129B0492104448BFC018C7
:1010A000B8F1000F40F3A0809DF84020A8EB0008A5
:1010B000C2F380035007069300F19680510640F179
:1010C00089803EB159463046C84700287FDB069BE1
:1010D00001351E4630227EE0384602F068FEC9E740
:1010E0000E9B8DF82030002608AF0DF1210A01205B
:1010F000C6E719075CBFC3F300135E01DDE90E23E9
:1011000048BF2B26002BBFF662AF524263EB43036E
:10111000CDE90E232D265AE7002658E700269DF834
:1011200040200DF13603DB1B6FF386129A458DF8D4
:1011300040207FF65AAFAAEB0303119355E70E98B0
:1011400090B30DF13603009310AA08AB002102F012
:101150006AFCBDF8423003F0EF0343F4F04343F080
:101160001003BAF1000F0746ADF84230D6DA002876
:101170003FF4DBAE0DF13603181A00269A467FE7DE
:101180000E9B07293FF6D1AEDFE801F00C04060CF8
:1011900008080C0C1D70C8E61D80C6E6EA17C3E9F6
:1011A0000052C2E61D60C0E62E4F064607F1050A52
:1011B000052065E71A0748BF013069E70793104625
:1011C00006925946C8470028DDE9062304DA15B01F
:1011D000BDE8F08F202243461946002903F1FF3372
:1011E000ECDC45446D1A98462EB159463046C84746
:1011F0000028ECDB01359DF84230DA0601D41B07EC
:1012000005D559463020C8470028E0DB0135059B4D
:1012100033B19DF843005946C8470028D7DB013554
:10122000049E2E4405E059463020C8470028CEDBF6
:101230000135731B002BF6DC53463A4659464846A7
:1012400002F037FC0028C2DB0544A844A8EB0503E4
:10125000002B7FF76AAE59462020C8470028B6DB2E
:101260000135F3E7785301080C4B1A6842F4007219
:101270001A601A6842F480621A604FF01002EFF3AD
:10128000118382F31288BFF36F8F83F31188BFF34A
:101290006F8F034B034A1A6000207047003C0240E6
:1012A000CC0000200024F400014B1B68184700BF4D
:1012B00060000020014910220A60704710ED00E034
:1012C00072B6404080F31188BFF36F8FBFF34F8F2A
:1012D00030BF62B6BFF36F8F704700BF37B50546AA
:1012E0000C46C9B18B680093D1E900230E48452113
:1012F00002F062FC63690093D4E903230B484521A3
:1013000002F05AFCE2690A48452102F055FCA26944
:101310000848452102F050FC2146284603B0BDE8AC
:10132000304001F071BB00BF82530108B653010881
:10133000EA530108FE53010840B2002807DB044AC3
:101340004109012300F01F00834042F8213070471B
:1013500000E100E040B20028A8BF00F1604001F1C8
:101360000101B8BF064B4FEA0111ACBF00F5614067
:1013700000F00F00C9B2B4BF195480F800137047D1
:1013800014ED00E030BFFFF7FDBF00BF0F4A08B506
:101390000F4B22F07F029A60BFF34F8FBFF36F8F26
:1013A000D3F8882022F47002C3F88820EFF3148366
:1013B00023F0040383F31488BFF36F8F01F0ACFBB9
:1013C00002F0F8F800F0E0FA01F0EAFB0002010890
:1013D00000ED00E0094A0A499368096899670949DC
:1013E00058674B6843F080534B60002383F31188A8
:1013F000BFF36F8F9368986F704700BF140400208D
:10140000B451010800ED00E012498A684FF0300045
:101410001044EFF3098C80E8F01F102080F312884D
:10142000BFF36F8F0C4F4FF000668A698A603E6091
:10143000506F0023536780F3118804B5104600F005
:10144000E7FABDE8044002F1300090E8F01F8CF3A9
:10145000098870471404002004ED00E01EF0040F1A
:101460000CBFEFF30880EFF30980816911F8021CCB
:101470000229FFD001B502F014FC01BD42F8203C66
:10148000009B42F81C3C0A49019B42F8183C029B15
:1014900042F8143C21F001014FF0807342F8043C03
:1014A00042F8081C0023203A02654367704700BFDA
:1014B000133A0108094A0346906870B113F1160FF8
:1014C000406E05D0A0F140029A4205D8834203D273
:1014D000814228BF0020704700207047140400207C
:1014E00008B5094B98600D46144600F091FA204665
:1014F00085F30988002163B681F31188BFF36F8FEC
:101500000022002302F085FA1404002001B5EFF355
:101510000580A0F110004FEAC0000449014409C948
:101520009847BDE80140024908470000EC4B01081C
:1015300035150108044B99689869884203D003491E
:101540004FF080520A6070471404002004ED00E060
:101550002DE9F843364D80468946364845211746E1
:1015600002F02AFBAB6ADE0626D53348452102F09D
:1015700023FB1124AB6A1D0704D53048452102F036
:101580001BFB12242A4DAB6A980717D545212C481E
:1015900002F012FB6E6BAB6A190645D5294832463C
:1015A000452102F009FBB9F1000F03D0AB6A23F02B
:1015B0008003AB62132403E01024DBE76FF0150611
:1015C0001B4DAB6ADA0704D51F48452102F0F4FA37
:1015D0001424AB6A9B0604D51C48452102F0ECFAA2
:1015E0001524134B9A6AD50602D49A6A90070AD535
:1015F0005B68190507D541463046FFF75BFF10B120
:1016000080F3098802240A4B9A6A920642BF5A6AFA
:1016100022F400525A629A6A42F0FF029A62002350
:101620003B702046BDE8F8836FF01506C2E700BFA7
:1016300000ED00E0315401084C54010884540108C5
:101640009C540108B9540108D4540108F854010805
:1016500010B5204C2048452102F0AEFAA36A99014A
:1016600036D51E48452102F0A7FA1E20A36ADA01EA
:1016700004D51B48452102F09FFA1F20154CA36A90
:101680001B0304D51748452102F096FA2120A36ACE
:10169000590304D51448452102F08EFA22200D4C3E
:1016A000A36A9A0304D51148452102F085FA232044
:1016B000A36ADB0304D50E48452102F07DFA2420FD
:1016C000044A936A6FEA03436FEA1343936210BDBF
:1016D0001D20CBE700ED00E02C550108495501081D
:1016E0006155010880550108A3550108CD55010831
:1016F000EC55010870B5284C06460D462748452193
:1017000002F05AFAA36AD9043BD52548452102F0D4
:1017100053FA1720A36A1A0504D52248452102F07E
:101720004BFA18201C4CA36A9B0511D51E48452175
:1017300002F042FAA26BA36A180408D51B4845219F
:1017400002F03AFA1EB1A36A23F40043A3621920FF
:10175000114CA36A590504D51548452102F02CFA0D
:101760001A20A36ADA050ED51248452102F024FAA0
:101770001B20094A936A43F47F43936200232B7032
:1017800070BD1620C6E7A36A9B04F2D50A4845211E
:1017900002F012FA1C20ECE700ED00E01C560108F4
:1017A00037560108845401084D5601086B5601084C
:1017B00085560108A5560108F85401082DE9F041A5
:1017C0005D4B5F688AB00546C7F30804002686F3C0
:1017D0001188BFF36F8F02F07F43B3F17F4F07D1C2
:1017E00002F00C03082B14D15448452102F0E4F90F
:1017F000002635464FF00008E31E8DF80780092BC0
:1018000000F28780DFE803F00A7A7E768585858599
:10181000858210074CBF0D460126EBE74848464C31
:10182000452102F0C9F98DF80780E36A9A0705D5CA
:101830004448452102F0C0F9002433E0E36A002B5C
:1018400002DA41484521F5E7E36A5B00F4D53F48F9
:10185000452102F0B1F96369AA6943F480736361B9
:10186000BFF34F8FBFF36F8F636932F8022C23F4FD
:1018700080736361BFF34F8FBFF36F8F4DF60273B9
:101880009A4209D0A36ADBB233B30DF107020121FA
:101890002846FFF75DFE2FE02A682D48452102F01B
:1018A0008BF92C689DF807309BB92022294602A8A5
:1018B00002F099FA099B002E38D0C3F3080222B92E
:1018C0006FEA53236FEA4323099302A92046FFF7E7
:1018D00005FD0AB0BDE8F081A36A13F47F4F05D07F
:1018E0000DF107010120FFF705FF05E0A36AB3F53D
:1018F000803FA1D3FFF7ACFE0446D3E70DF107020A
:101900000021C5E70DF107010020ECE71148452152
:1019100090E71149114A124817F4F87F08BF0A46A8
:10192000A4F11003452102F047F985E723F4FF7382
:1019300023F00103C8E700BF00ED00E0F056010806
:10194000205701083C5701086257010875570108E4
:1019500099570108BA570108C2560108D75601081D
:10196000E3570108024A536943F01003536170477B
:1019700000ED00E0EFF30880EFF3098101B5724656
:10198000FFF71CFF01BD00BF044800231021C2184F
:101990000133562B82F80013F9D1704700E100E0C3
:1019A000102080F3118808484FF40461401880F338
:1019B0000988EFF314800221084380F31488BFF3F1
:1019C0006F8FFFF7E3FC0000C0040020084B9B680A
:1019D00083420BD1EFF3058343B1064B5A6842F0C3
:1019E00080525A605A6A22F400425A6201F070BD75
:1019F0001404002000ED00E0024B034A03480121DB
:101A000000F07CB80000022000000020744F0108A4
:101A1000426E054B403A1A60044A4021C3E9011264
:101A20001846012100F074B8F802002000000B15E0
:101A3000F8B5244E00258D420FDA4468002C3ED0C4
:101A40009BB104F1FF3C14EA0C0F08D01E482A4653
:101A5000452102F0B1F86FF015021046F8BD1F2CB9
:101A6000F4D907681CEA070FF0D1202C0768D0F8DA
:101A700008C05FFA82FE10D9B4F1004F0FD8013CC4
:101A8000B4FA84F4C4F11F046400BEF1070F4CEAF9
:101A9000040C06D90D484521DBE70824F5E73E2470
:101AA000F3E727F01F04144344F01004C6F898200D
:101AB000C6F89C404CF00104C6F8A0400132013544
:101AC0000C30B8E700ED00E0FF5701082758010887
:101AD000044B0522C3F89420BFF34F8FBFF36F8FE1
:101AE000704700BF00ED00E0BFF35F8F024B0022A4
:101AF000C3F89420704700BF00ED00E010B5034C20
:101B000001232278FFF794FF207010BD900400207D
:101B100008B5094A00231278FFF78AFF10F1160F63
:101B200003D0064B0022072800DD08BDC3F898004B
:101B3000C3F8A0200130F6E79004002000ED00E09B
:101B400014490868082810B521D8FFF7CDFF124CBA
:101B500049680022904201F10C0105D10F4B187029
:101B6000FFF7B6FF002010BDC4F8982051F80C3CD8
:101B700023F01F03134343F01003C4F89C3051F8C3
:101B8000043C43F00103C4F8A0300132E2E74FF017
:101B9000FF30E8E7804F010800ED00E090040020EE
:101BA000014B1860704700BF680000200CB410B5EE
:101BB00086B009B90DF10B000024CDE9040109AB91
:101BC000089A009404A905480393FEF79BFF049B21
:101BD0001C7006B0BDE8104002B07047153E010809
:101BE0002DE9F0410E4E0F4F054600244FF001083D
:101BF0002B7818191F280DDC726908FA00F333EAF4
:101C0000020207D1736157F830301BB107EBC002F5
:101C1000516898476B780134A342E9DABDE8F08156
:101C2000003C014004030020044B1844002301330E
:101C3000994200F8012BFADC704700BFD800002061
:101C400010B4064B064902460C681856012393400F
:101C500023430B6010BCFFF76FBB00BFD800002010
:101C6000003C01401F2806DC034901220B6882402A
:101C700023EA02030B607047003C014003292AD885
:101C8000DFE801F0020E141F134B01229968824015
:101C900021EA02019960D96821EA0202DA607047FC
:101CA0000D4B0122996882401143F3E70A4B012250
:101CB000D96882401143D960996821EA02029A608A
:101CC0007047012303FA00F0034B9A6802439A60BD
:101CD000DA681043D8607047003C014010B5074BEC
:101CE000044653F8300028B943F8341003EBC4031A
:101CF0005A6010BD6FF00F00FBE700BF0403002027
:101D0000034B002243F8302003EBC0035A607047B6
:101D10000403002010B5224B18680B68442B1446AE
:101D200028D82F2B05D8013B052B0DD96FF0850046
:101D30001FE0A3F1300101228A401A490A4216D15C
:101D4000402BF3D1400812E0052BEFD801A252F846
:101D500023F000BF7B1D01088B1D01082D1D01080C
:101D60006D1D01089B1D01086F1D010800202060EA
:101D7000002010BDA82BFAD0D8E700F09DF84FF452
:101D8000C073C00858438008F1E700F095F84FF49D
:101D9000C073C0085843C008E9E74FF4FA40E6E7CB
:101DA000CC0000201101100070B53F4C00F09CF8F1
:101DB00000F064FDA3683D4AC3F30313D35C20FA2B
:101DC00003F53B48854201D200F086FD236843F4C9
:101DD00080232360236843F480332360324B1A68E6
:101DE0009603FCD55A6F42F001025A675A6F940766
:101DF000FCD59A6802F00C02082A17D19A6822F0E2
:101E0000F0029A601A68900707D41A6842F001023B
:101E10001A60254A13689907FCD5234B9A6822F06B
:101E200003029A609A6812F00C0FFBD11E4C2368D3
:101E300023F080732360636823F4403343F48033DA
:101E40006360636823F0706343F00063636000F0D5
:101E500037F8236843F08073236023689B01FCD527
:101E6000A36823F0F003A360A36823F0030343F007
:101E70000203A3600C4CA36803F00C03082BFAD1F7
:101E80000B4EB54202D3304600F026FD094B1E60D2
:101E9000A36823F4E05343F48053A360A36823F4BE
:101EA0006043A360002070BD00380240E45A01087E
:101EB00000D8B805CC0000200048704700127A0016
:101EC000064A074953681940064B0B435360536851
:101ED00023F4403343F480335360704700380240AA
:101EE0000080BFFF08604000064B1A6C42F0805231
:101EF0001A641B6C82B003F080530193019B02B003
:101F0000704700BF0038024008B5074802F002FCE5
:101F100038B10648FFF744FE0448FEF7DFFD002015
:101F200008BD6FF01200FBE7A44B0108311F010848
:101F30000A2838B5074D044604D1AB680D215B680B
:101F400028469847AB6803485B68E1B2984720464B
:101F500038BD00BFA44B010800487047B44F0108CA
:101F600070B51C461646002322460D4602F033F893
:101F700040B9094823462A46452101F01DFE6FF06D
:101F8000150070BD2CB1224605F10061304601F00C
:101F90002AFF0020F5E700BF9A58010870B50446F3
:101FA00002F028FD0A220023FEF7F6F923691B68D8
:101FB000DA6810F5FA5641F1000512F4F97F06D0FF
:101FC000DA6802F4F972DA606FF0040070BD236918
:101FD0001B68D86810F48030F8D002F00BFD0A229C
:101FE0000023FEF7D9F9864275EB0101EFDA0348C9
:101FF0004FF4FA52452101F0DFFDE5E7C958010829
:10200000F8B5012305460E46144601F0E4FF48B931
:10201000234626483246452101F0CEFD6FF01504D7
:102020002046F8BD002CFBD0286901F0BFFF2B69CA
:102030001B681A69002A1DDB22463146284601F03A
:10204000DFFF2B691B681A685205044618D42B69F8
:1020500028461F68FFF7A2FF064610B32869043020
:1020600000F0B4FE2869002C08BF3446043000F0AC
:10207000ADFED5E70E4A5A6002F188325A60DBE7BE
:102080001A6822F480621A601A6842F480521A6058
:102090001A6822F480521A601A6842F480621A6048
:1020A000D5E73B6943F000433B61DBE7DF580108BC
:1020B00023016745F8B51C4617460123224605460D
:1020C0000E4601F088FF48B923461C483246452198
:1020D00001F072FD6FF015042046F8BD002CFBD016
:1020E000286901F063FF2B691B681A69002A19DB54
:1020F00023463A463146284601F0E5FF2B6904465F
:1021000028461F68FFF74AFF064688B12869043051
:1021100000F05CFE2869002C08BF3446043000F053
:1021200055FED9E7064A5A6002F188325A60DFE765
:102130003B6943F000433B61ECE700BF0F590108E6
:1021400023016745024B0B6003231360704700BFF8
:10215000BC4F010838B5036904465860084D28464D
:1021600002F0D8FA40B16168AB680C311B682846B0
:10217000984700EAE07038BD6FF01200FBE700BF3F
:102180009C4A0108F7B51746B7F5001F4668026973
:102190000C461D4624D101F00302043292000F23A5
:1021A000934043EA9103DAB23349023251F82220D4
:1021B000190C02EA134391FAA1F2B2FA82F2D34067
:1021C000B2689A4209D12046FFF74CFD2046FFF73E
:1021D00097FD00212046FFF751FD002003B0F0BD20
:1021E000B7F5800F41D025492046FFF777FD00283D
:1021F0003ED1234AB66892E803006B4683E80300A9
:1022000020488268194612689047C0B904F0030359
:1022100004339B000F229A4042EA9402D3B29B00FF
:1022200003F1804303F59C33110C986820EA1240B7
:1022300091FAA1F2B2FA82F2964006439E60B5F19D
:10224000806F0ED0B5F1C06F0DD005F17E435942BD
:10225000594149002046FFF711FD2046FFF7F0FCE9
:10226000BBE70121F6E70321F4E76FF08500B5E74E
:102270006FF00F00B2E700BF003801403D43010896
:10228000544F01089C4A01082DE9F0471E4F0446AF
:1022900000EBC1060025B44201D1002014E0206803
:1022A000C30600F01F0911D4656845F02005C0F38E
:1022B000471AC0F343200A2823D857F82080B8F1E2
:1022C000000F0DD16FF01200BDE8F087B9F1100FCB
:1022D00004D0B9F1110FEAD16568E8E73025E6E7E7
:1022E000404602F017FA0028ECD04B462A460AF086
:1022F0000F01404602F039F8002804F10804CADA58
:10230000E2E76FF01500DFE79850010842681168B6
:1023100001F1140353E8003F43F0010301F1140CF1
:102320004CE800300028F3D113680E498B4207D0E7
:10233000A1F54C418B4203D001F550418B4203D1B2
:10234000196941F040011961126802F10C0353E868
:10235000003F43F4807302F10C0040E80031002993
:10236000F3D17047001001404268116801F1140375
:1023700053E8003F23F0010301F1140C4CE8003056
:102380000028F3D113680E498B4207D0A1F54C41C8
:102390008B4203D001F550418B4203D1196921F0E2
:1023A00040011961126802F10C0353E8003F23F465
:1023B000807302F10C0040E800310029F3D170472E
:1023C0000010014037B50369446858688368DB68CA
:1023D0000D4661682BB91348452101F0EDFB03B0B0
:1023E00030BD01AA98470028F5DB22680198D36820
:1023F000192123F40043D360A0FB0101AA00AB0F15
:10240000FDF7CAFF6422B0FBF2F102FB11031B01CE
:1024100024683233B3FBF2F303EB01139BB2A360E6
:10242000DDE700BFE6590108F7B5066944680546CF
:102430004248706002F06EF930B94148452101F020
:10244000BBFB6FF012000BE07068616883681B686B
:102450009847074630B13B48452101F0ADFB38466F
:1024600003B0F0BD014601AAA06901F096FF002863
:10247000F6DB019B3A4619791868FFF705FF00283B
:10248000EEDB2268D36823F40053D360B06802F017
:1024900041F910B92C484521D1E7D6E902018368FA
:1024A000DB6803B19847226802F10C0353E8003F50
:1024B00043F00C0302F10C0141E80037002FF3D187
:1024C0002269022A30D0012A33D042BB002221687F
:1024D000CB683A4323F4B0531343CB600B6923F426
:1024E00040530B61237B2BB16B681A68536943F42B
:1024F0004073536131682846FFF764FF237D23B1A1
:102500002268536943F0080353612268D36843F497
:102510000053D3602846E36998470020A0E70B48A2
:10252000572101F049FBD1E74FF480524FF4806707
:10253000CDE74FF480524FF4C067C8E79C4A0108CA
:10254000195A01083D5A0108625A0108825A0108C5
:102550002DE9F0410B7945680669012B0C467DD0C9
:102560009A1E57425741BF02627994F80680022AA8
:1025700096BF4C494FF4005C31F812C0B8F1040F1B
:102580007BD094F807E0002B6BD1BEF1010F22F055
:1025900002027FD0002A70D0B8F1020F6DD919461F
:1025A000D5F80080BEF1000F0DD03F4A904507D00E
:1025B000A2F54C42904503D002F5504290455CD1C3
:1025C000BEF1010F59D1D8F80C2022F40052C8F8FE
:1025D0000C204268D2F800E0DEF80C2002F4C06261
:1025E00097421FBFDEF80C2022F4C0623A43CEF8B7
:1025F0000C20426817683A6902F4405294451FBFA4
:102600003A6922F4405242EA0C023A614268176881
:10261000FA6802F480529A421FBFFA6822F480528C
:102620001343FB6043681A68536903F4407399428B
:102630001FBF536923F440730B4353612168336810
:10264000994203D0FFF7BEFE236833602A68D3683F
:1026500043F40053D3600020BDE8F0814FF4C0671D
:1026600082E7033BBEF1010FDBB209D1012B04D994
:102670004FF4407112F0FD0F06D16FF08500EBE7CB
:10268000012BFAD90021F5E7B8F1020FF5D94FF483
:10269000805385E7002AF0D0B8F1020FEDD94FF44E
:1026A00040717DE7E45101080010014010B54FF082
:1026B000E0239A6919699869094B11F4803F094927
:1026C00001D1824206D21A680C6822441A604FF087
:1026D000E02212691B680A681344181A10BD00BF73
:1026E0000404002010040020094B102283F823204A
:1026F000084B42F27F521A60074B002018604FF0DF
:10270000E0235A6198611A6942F007021A61704722
:1027100000ED00E0100400200404002008B5FFF7DD
:10272000C5FF0C4B0C4A1868116808441060002261
:102730001A600A4A13684FF41651C01AB0FBF1F040
:1027400001FB0033136001F01BF8BDE80840FEF701
:10275000F1BE00BF040400200C0400200804002087
:102760002DE9F041314E002954D0421C0AD14FF0DE
:10277000E022136923F0010313614FF07F433360BC
:10278000BDE8F081356801284ADD40F2D268404555
:1027900001DC00F1FF384FF01003EFF3118483F3F5
:1027A0001288BFF36F8FFFF781FF214F4FF0E023B7
:1027B0000021D3F818C03B68C2181E4B19601E4B8D
:1027C0001B68D11A2FD44FF4165000FB081101F5E5
:1027D00015519B1A3F31B1FBF0F100FB0133B3F50A
:1027E000806F20D915498B4228BF0B464FF0E0215E
:1027F00033608869013B4B6100238B618445ACEBFE
:10280000000338BF5B191A443A6084F31188BFF3A0
:102810006F8FB5E7431C3568B5D140F2D260B8E799
:102820004FF00008B7E74FF48063DFE710040020A3
:102830000C040020040400200804002000C3FF0052
:1028400010B54FF01003EFF3118483F31288BFF338
:102850006F8FFFF72BFF074B074A1B6812689B1A05
:10286000034484F31188BFF36F8F4FF41650B3FB0A
:10287000F0F010BD0C0400200804002008B5134936
:102880008B6803F00C03042B1CD0082B1CD14A6866
:102890004B68496813F4800314BF0D480D48C1F319
:1028A000881118BF002302F03F02A1FB0001FDF7D1
:1028B00073FD064B5B68C3F3014301335B00B0FB60
:1028C000F3F008BD0248FCE70248FAE7003802408E
:1028D00000127A000024F400002876D03C4B1A68DD
:1028E00002F44042B2F5404F20D13A4A904215D806
:1028F000394A904207D91A6802F44042B2F5004FB3
:102900005CD102201FE0354A90421A6802F440422E
:1029100047D9B2F5004F4CD1012014E01A6802F4F7
:102920004042B2F5004F3FD103200CE01A6802F498
:102930004042B2F5004F22D1274A90423ED8274A62
:1029400090422ED90020224B1B68012838BF01205D
:1029500003F44043B3F5804F1FD0214A136823F09E
:10296000070303431360136803F0070398421CBF77
:10297000136803F00703C01A18BF012070471B68D3
:1029800003F44043B3F5804F0CD1134B98421AD84F
:10299000124B98424FF00000DFD9012838BF0120C8
:1029A000DBE71B680020D8E71B68032003F44043E3
:1029B000D0E71B68012003F44043CBE71B680220EB
:1029C00003F44043C6E70220C7E70120704700BF79
:1029D00000700040804A5D050090D00380C3C901AB
:1029E000003C0240014B986860307047140400209E
:1029F00010B545210446034801F0DEF8204601F0F9
:102A000094FE00BFF45A0108F7B505460E464FF094
:102A10001003EFF3118783F31288BFF36F8F00F079
:102A200051FD042D96BF184B184B53F8253000224A
:102A30000446009216482A46452101F0BDF83EB1F1
:102A4000F369C3F308031BB11248452101F0B4F840
:102A500034B1204601F07FFE034608B1027802B986
:102A60000D4B0E482246452101F0A6F83146284676
:102A7000FFF7BEFF87F31188BFF36F8F204603B0C7
:102A8000BDE8F040FEF7A2BFB8510108085B01089D
:102A90001E5B01084B5B0108165B0108715B0108B6
:102AA0000F4B70B553F82040013053F82060A64218
:102AB00000D870BDD4E90035284698476DB138B1CB
:102AC0000028B8BF4042EB68FF28A8BFFF2018705D
:102AD000EA68537843F0010353700834E7E700BF16
:102AE000CC51010808B50A4B012203201A70FFF7E8
:102AF000D7FF01F081FF0420FFF7D2FF00F01AF9A1
:102B0000FDF75EFE034A137B23F00103137308BD38
:102B100091040020C801002008B50348034A0021A1
:102B2000121A01F00BFE08BD480100209404002099
:102B300070B5002386B00122CDE90423134E144D55
:102B400001930F22CDE902321249182303FB0055ED
:102B500006EBC01604464FF4C07000FB04110E4B88
:102B600000954FF4A072304600F086F8737B0B4A54
:102B7000EE6023F0040373734FF4046304FB033328
:102B800013442C756B6006B070BD00BF4801002077
:102B900014040020000D00205F470108C00400203D
:102BA00080B50020A6B0FFF77BFF2C4B83F308888D
:102BB0002B4D2C4E6B692C4F43F400736B6100243A
:102BC000F02385F82230EC772C766C76AC7685F89D
:102BD00020406B6A43F4E0236B62FEF7C3FEFEF70E
:102BE00069FB4FF0FF33AB62EB62FEF7A9FFFEF724
:102BF00003FF40F20113ADF8243006ABB360CDE91A
:102C00001F44229401F085FD0120FFF749FF0220B7
:102C1000164DFFF745FF00F00BFC154BB561059312
:102C2000012314490094CDE903434FF400623B466D
:102C3000CDE90144284600F01FF86A7B064622F0E1
:102C4000040228466A7301F03EFE2046FFF770FF3B
:102C50003A4631462846FEF743FC00BF000D0020EF
:102C600000ED00E014040020E52A0108C80100205E
:102C7000D85B0108800E00202DE9FF410E9E0673EF
:102C8000042646730D9E867300F158050F46D61D27
:102C9000C0E916550C9A002526F007064037C0E912
:102CA0000655C0E919768560C573C56606F140080A
:102CB00002920B9A019288440A9A00924246044674
:102CC000FEF7DCFB044B65659B6803B11B6F236754
:102CD000404604B0BDE8F08114040020F0B587B090
:102CE00000250595109D04950F9D03950E9D029559
:102CF000DDE912760D9D01950C9D00950446FFF7C8
:102D0000BBFFB6F1FF3F08BFB7F1FF3F05D056EA62
:102D1000070305D1204600F03DFB204607B0F0BD7B
:102D200003493A46334604F1180000F0ABFCF4E7DF
:102D300033480108F0B5224C224D87B02646AE42FA
:102D400004F12C040BD300F043FB1D4C1E4F0A264C
:102D5000AC4220D307B0BDE8F04000F04DBB54F8C2
:102D6000043C059354F80C3C049354F8103C039332
:102D700054F8143C029354F8183C019354F81C3C4A
:102D8000009354E9092354E90B01FFF775FF54F848
:102D90002C3C5E65D2E7626A531C09D022EAE272DB
:102DA00082FB062352EA0301206803D100F0F2FA05
:102DB0002C34CDE73946183000F064FCF8E700BF4A
:102DC0009C4E01089C4E01083348010838B5044662
:102DD0004FF01003EFF3118583F31288BFF36F8F69
:102DE00001F081FD48B10022826701F06CFD2946A7
:102DF0000548BDE8384000F0BBBAD4E902329A4237
:102E000018BF0133A360F2E79204002013B54FF01E
:102E10001004EFF3118184F31288BFF36F8F84687D
:102E200044B1013C846081F31188BFF36F8F0020AF
:102E300002B010BD52EA030406D181F31188BFF33A
:102E40006F8F6FF00F00F3E7CDE9002302460248D1
:102E500000F070FAECE700BF920400202DE9F04F7B
:102E60004A4E85B004464FF0FF384FF0FF394FF01F
:102E70001003EFF3118783F31288BFF36F8FD4F839
:102E800080508DB9022104F1980001F080FC0028E7
:102E900043D10023CDE90089029304F18802394629
:102EA0003B4800F075FBE2E7D4F884202B68C4F8B7
:102EB0008030954208BFC4F88430D4F8983043F08D
:102EC0000203C4F89830EB6823F0040343F00103D5
:102ED000EB606B6887F31188BFF36F8F28469847C4
:102EE0004FF01003EFF3118B83F31288BFF36F8F52
:102EF000EB68990723F0010219D4EA60D4F89830FE
:102F000023F00203C4F898308BF31188BFF36F8F5E
:102F1000DB05ACD400F098FAA9E704F19005002293
:102F20000121284601F011FD0028F8D1B1E73068F1
:102F300023F00303EB600028E0D00027D0F800A0C6
:102F40003B460028DAD04268954201460CD1016820
:102F50009FB972683160824200D1716040F8083BCD
:102F6000FFF734FF39460023BAF1000F0BD0DAF82F
:102F7000002050460F469246E3E73960726882426D
:102F800008BF7760EAE75246F3E700BF3804002045
:102F900092040020F8B5C3689A0704460F46C3F3AD
:102FA00040062CD45B071AD40B680BB983680B60FE
:102FB000E368DD0744BFA3683B603D684CBF022661
:102FC0000126002D3AD01F4B9B68AB420AD0D5F8A2
:102FD0009830D807C3F3800214D46FF01206002390
:102FE0003B6025E001F0AEFBD5F898300028F0D129
:102FF000D907C3F3C002F0D552B15B0708D46FF014
:103000000F06ECE7002AFAD1C3F3C003002BF6D178
:1030100000232360D5F8843063B9C5E920442846ED
:1030200001F0C0FBE36843F00403E3603B68A36086
:103030003046F8BD1C60C5F88440F0E76FF0150617
:10304000CDE700BF140400200146014801F0CEBBCB
:1030500050020020F0B589B004460020C4E92000E9
:103060000E9D04F18800C4E9220004F19000C4E937
:1030700024001DB32879002840F2011008BF012068
:10308000C4F8980000204FF0FF364FF0FF37CDE92D
:103090000330CDE90100CDE90667094B00942046D5
:1030A000FFF71CFE25B1296811B1204601F050FB45
:1030B000204609B0BDE8F04001F04FBB0120DFE73A
:1030C0005D2E010838B5074D2C6854B1FFF7B8FBE9
:1030D000054B04441C6128680021BDE8384001F01C
:1030E0006DBC38BD480400201404002038B50D4DD7
:1030F0002B4653F81C4F9C4200D004B9EC68AB68D7
:1031000038B95A7BD20604D1A26912B9DA897F2A6A
:1031100005D89C4202D02046FFF7D4FF2346AB617E
:1031200038BD00BF1404002070B590F90D20437B1A
:10313000002A014604DA03F07F03437301F067FBC2
:103140004B7B154A63F07F0310464B7350F81C3FCE
:10315000146A834208BF002323B9C1E90004216037
:1031600011620CE091F90E5093F90E60B5420ED049
:10317000AE420CDD5868C1E90030016059609068CA
:10318000431A5842BDE870405841FFF7AFBF9C4218
:10319000E3D01B68E0E700BF1404002070B490F98E
:1031A0000D30427B002B29DBD30627D183692BBB53
:1031B000134962F07F0242730A4652F81C4F944250
:1031C00018BF23460C6A23B9C0E9002420600862B6
:1031D0000CE090F90E5093F90E60B5420AD0AE4261
:1031E00008DD5A68C0E900321060586070BC0020E9
:1031F000FFF77CBFA342E7D01B68E4E770BC7047D1
:103200001404002008B590F90D20437B002A0146E4
:1032100004DA03F07F03437301F0F9FA044B986872
:10322000431A58425841BDE80840FFF75FBF00BF4E
:103230001404002070B515461C46064601F01BFB21
:10324000B4F1FF3F08BFB5F1FF3F08D02A4623463F
:1032500006F118000249BDE8704000F013BA70BDD5
:103260003348010810B54FF01003EFF3118483F3D6
:103270001288BFF36F8F0A23002800FB03F302DDDF
:10328000022BB8BF0223074A0020106106480360E2
:10329000064B90681960FFF715FF84F31188BFF3A0
:1032A0006F8F10BD14040020480400204404002047
:1032B00038B54FF01003EFF3118583F31288BFF395
:1032C0006F8F174B174A9C6811688C4207D12046B4
:1032D000FFF7F8FE85F31188BFF36F8F38BD00212B
:1032E0001160114A1268C2B1E2897F2A15D8627B47
:1032F000D20612D10D4A94F90E10126891420CDBDD
:103300000B4A944209D01A69824203DC2046FFF737
:103310000BFFDCE7121A1A61DCE70022FBE700BFB3
:10332000140400204004002048040020440400202D
:103330004801002070B50C480C4D86682E600C4684
:103340001146DDE904234FF01006EFF3118586F3F3
:103350001288BFF36F8F8068FFF76CFF2046BDE8CF
:103360007040FEF737B800BF14040020400400206E
:1033700049B9EFF3058030B9054B9A699B689A42C9
:1033800001D0FEF727B881F31188BFF36F8F704724
:103390001404002010B54FF01002EFF3118482F3F3
:1033A0001288BFF36F8F427B510704D484F31188D6
:1033B000BFF36F8F10BD22F004024273FFF7EEFEE1
:1033C00021460248BDE81040FFF7D2BF920400201A
:1033D0004FF01003EFF3118183F31288BFF36F8F67
:1033E000044B9A68D37B013BD37381F31188BFF3FD
:1033F0006F8F70471404002010B54FF01003EFF3E7
:10340000118483F31288BFF36F8F084B9A68D37BC4
:103410000133D3730020FFF769FE84F31188BFF3F3
:103420006F8FBDE8104001F086BA00BF1404002081
:10343000044B002103F11C02C3E907220846FFF7F1
:1034400011BF00BF14040020F8B54FF01003EFF3D4
:10345000118583F31288BFF36F8F19498868437B06
:1034600003F07F03437301F0D2F98B685A7B08465F
:1034700062F07F025A7350F81C2F0C6A824208BF18
:10348000002222B9C3E9000423600B620CE093F927
:103490000E6092F90E70BE420ED0B7420CDD51683C
:1034A000C3E900210B6053600120FFF71FFE28468F
:1034B000BDE8F840FDF78EBFA242E3D01268E0E716
:1034C00014040020014B9868704700BF14040020CA
:1034D0002DE9F04104464FF01003EFF3118683F31A
:1034E0001288BFF36F8F037BD9070BD586F3118842
:1034F000BFF36F8F404080F311884FF0040002DF6C
:10350000BDE8F081437B1A0704D586F31188BFF329
:103510006F8FF5E723F0200242F00801D20920D195
:103520004173A36813B1204601F079F904F1180042
:1035300001F02EFA04F158074FF00008A56DBD42C6
:1035400000D0B5B90120FFF7D1FD104B9B68A34215
:10355000DBD1EFF30583002BD7D13046FDF73AFFDF
:10356000D3E703F05F0343F00803437301F04FF91F
:10357000D7E7284601F053F905F1180001F008FAE1
:10358000C5F878802846FFF709FED7E71404002025
:10359000D3B5DDE90667089CCDE90067FFF7CAFEF1
:1035A0001CB1034B9B685B69236002B0D0BD00BFB8
:1035B0001404002008B50648064A0749121A01F00B
:1035C000BFF8BDE80840054A0549064801F0B8B80B
:1035D0000000002044010020EC5B01080000000016
:1035E000EC5B010800000020034B1B680BB9FFF7E0
:1035F00027B90020704700BF4C04002010B5114BC4
:103600001C689C420AD1FFF7EFFF6FF000400E4BA1
:103610001B6913B19842A8BF184610BDFFF7E4FF1D
:10362000002CF2D0D4E904321B1A62EBE072B3F141
:10363000004F72F10001E8DA002AACBF1846002002
:10364000E5E700BFD00000201404002030B570B1C1
:103650000B4B5B6898420AD0036843B1D3E904215D
:10366000D0E90445121941EB0501C3E90421D0E971
:10367000003213605A600023C0E9003330BD00BF40
:10368000D0000020B3F1FF3F08BFB2F1FF3FF8B513
:1036900004461D46164661D081604FF01003EFF3DB
:1036A000118783F31288BFF36F8F013275F1FF33F7
:1036B00024DA3049D1E900206FF001039B1A4FF062
:1036C000FF3262EB00009E1B60EB0500012E70F1E3
:1036D000000301DA01260020C4E90460264ED6F872
:1036E00000C07568B44508BF4FF0000CBCF1000F76
:1036F0000DD1C4E900652C6074601CE0FFF774FF15
:10370000013645F10005361845EBE070E4E7DCE9E9
:103710000420D4E90431934271EB000E1FDAD21A6F
:10372000DCF8043060EB0100CCE90420C4E900C3FC
:103730001C60CCF804403368B3420BD09C4209D1E2
:10374000FFF75CFF18B10D4B1B69834202D00021CB
:10375000FFF706F887F31188BFF36F8FF8BD9B1A48
:1037600061EB0001AC45C4E90431C2D0DCF800C013
:10377000BCE700BF48020020D00000201404002055
:103780002DE9F84F0446FFF793FD4FF01003EFF3D8
:10379000118C83F31288BFF36F8FDFF8B0A0DFF8CE
:1037A000B090DAF800002B4FC9F80040504508BF30
:1037B000002000240025D7E90021D9F80030E04698
:1037C00080B3D0E9046C4FEAE37EB3427EEB0C0B8E
:1037D00005DAF61A6CEB0E04C0E9046422E0B218B4
:1037E00041EBE671C0E90445C7E90021FFF72EFF70
:1037F00088F31188BFF36F8F836898474FF01003E9
:10380000EFF3118883F31288BFF36F8FD9F800307C
:10381000DAF800009B1B5045C446C9F80030CAD1F5
:10382000D7E900219A1841EBE3730024C7E900238C
:10383000C9F80040FFF7E2FE2146FEF791FF88F34A
:103840001188BFF36F8FBDE8F88F00BFD000002054
:103850004C0400204802002010B54FF01003EFF395
:10386000118483F31288BFF36F8FFFF7BDFE064A02
:103870000346D2E90001181841EBE37184F3118883
:10388000BFF36F8F10BD00BF480200201FB5094B6A
:10389000029302AB00240093074908488DF80C40BE
:1038A0004FF0FF334FF48062FFF7D4FB204604B0A3
:1038B00010BD00BFE05B0108C016002050020020D0
:1038C000704710B4D0E90004214484682468A446F9
:1038D00010BC604710B4D0E90004214484686468D7
:1038E000A44610BC604700207047406800F10060AB
:1038F00070478068704783680BB1C068184770478D
:1039000010B50D210446FFF7F6FF20460A21BDE859
:103910001040FFF7F0BF38B505464C1E14F8011FE4
:1039200001B938BD0A29284601D00D2902D1FFF777
:10393000E7FFF3E7FFF7DFFFF0E7C0E902127047A8
:1039400010B50446FFF7E7FF2046BDE81040FFF73B
:10395000D7BF83689B6903B118476FF05700704762
:1039600037B5044650F8040C01A9C26900F0ECF820
:10397000236905461BB1024601996069984754F8CE
:10398000040C294600F000F903B030BD2DE9F341E5
:1039900004460D4683685B6C03B19847A3685B6B74
:1039A000C3B94FF00008686801A9C26900F098F82F
:1039B0000746B0B1019902462046FFF7CAFF064606
:1039C0000146686800F0ABF8AEB905F10800FFF7F2
:1039D0003BFB03E0204698470028E2D102B0BDE857
:1039E000F08101220DF103012046FFF7B2FFB8F18B
:1039F000000FF3D0E9E7B7424FF00108D3D0E4E776
:103A0000C0E906127047006883685B6818470020A9
:103A10007047044608B5084611461A46A047FFF706
:103A200051FDFDF7D3FF2DE9F84F9A46D3786F2B60
:103A300080460F461546A3F1410B29D024D8582BB8
:103A40000CBF10260A26DDF8289032460023404697
:103A50003946FCF7A1FC092AD4B21ED83034B0454F
:103A6000E4B277F1000709F8014D01D3D14511D82F
:103A70002B789B0605D5082E15D1AB7843F00803AB
:103A8000AB704846BDE8F88F03F0F703702BD7E71B
:103A90000826D8E780460F46D7E7BBF1190F94BF39
:103AA00037345734DBE7102EEBD1AB7843F01003FB
:103AB000E6E72DE9F0410746884615461E461446BE
:103AC000B44205D30EB1601B08E02378002BFAD076
:103AD00014F8010B4146B8470028F1DABDE8F0813F
:103AE000F0B5C6684568C369AF1B04464069BB4270
:103AF00098BFFF1AA5EB0000944698BFF6181A1A53
:103B0000D81B2368AD1B62452B4428BF62460B605F
:103B10006368904228BF104603446360F0BDD0E95B
:103B20000123D21A8A420CD31944C368C269C0E97E
:103B30000111C91A8A4201D9002070471344C36099
:103B4000FAE76FF015007047F0B50446866905691D
:103B5000C069A368AF1BB842944698BF3618A3EB60
:103B600005022368A5EB060598BF3F1A2B44624562
:103B7000A0EB070028BF62460B602369904228BF74
:103B8000104603442361F0BDD0E90423D21A8A42CF
:103B90000CD31944D0E90632C0E90411C91A8A428B
:103BA00001D90020704713448361FAE76FF01500D4
:103BB00070477047002070470FB407B504A951F84B
:103BC000040B0191FCF790FF03B05DF804EB04B027
:103BD000704780EA102080EA101046F6961300F035
:103BE0000F0043FA00F000F0010070472DE9F743A1
:103BF0000446884617461E461FFA83F9002504230B
:103C000020680DEB0302294600F030F8B0B9BDF88A
:103C100004201046FFF7DDFF80B19045BDF8063067
:103C200001D1994501D01D44E9E7206833463A4661
:103C3000294603B0BDE8F04300F018B86FF001006A
:103C400003B0BDE8F08330B58DB00D462C2301AA3A
:103C50004FF40041FFF7CAFF044620B9042202A92D
:103C6000284600F0C0F820460DB030BD2DE9F041E7
:103C700001EB030804461E46436900680D461746DB
:103C80009847804509D8D4F804E0206833463A467E
:103C90002946F446BDE8F04160476FF00400BDE8F6
:103CA000F08101460068FDF719BB00210120FDF7F6
:103CB00015BB08B5FDF766FBBDE80840FDF73ABC4B
:103CC0002DE9F04184460F460446214614F8013B95
:103CD000202BFAD0A3F109000428F6D92D2B25D1E9
:103CE0004B788C1C4FF0010E3ABB302B32D00A229D
:103CF0004FF0FF310025B1FBF2F102FB01F86FEA52
:103D000008082846A3F13006092E2AD833469A42DD
:103D100037DD6E1C07D0884230D801D143452DDCF9
:103D200000FB0230012514F8013BEBE72B2B04BF0D
:103D30004B788C1C4FF0000ED6E7102AD8D1302BD0
:103D4000D6D1217801F0DF015829D1D16378102232
:103D50000234CDE7227802F0DF02582AF6D008229A
:103D6000C6E743F02006613E192E0AD8A3F14106AA
:103D70001A2E34BF372657269B1BC8E74FF0FF3556
:103D8000D1E76B1C07D1FEF72DFE222303602846E6
:103D900047B9BDE8F081BEF1000F00D04042002FCE
:103DA000F7D00DB104F1FF3CC7F800C0F1E70346BE
:103DB00000201A5C02B970470130FAE70346002080
:103DC0001A5C0AB1884200D170470130F8E7431EFF
:103DD000013913F8012F11F8010F824201D1002A95
:103DE000F7D1101A704710B5431E0A44914200D112
:103DF00010BD11F8014B03F8014FF7E7C9B20244B7
:103E00000346934200D1704703F8011BF9E74FF0D6
:103E1000FF3070474B68012B07DD0B6818700B688B
:103E200001330B604B68013B4B600020704708B5C5
:103E3000062201210020FDF7F7FE00221146062090
:103E4000FDF788FA012108460722FDF7EDFE002262
:103E500011460720FDF77EFA082201210220FDF716
:103E6000E3FE002211460820FDF774FA0922012121
:103E70000320FDF7D9FE002211460920FDF76AFA5A
:103E80000A2201210420FDF7CFFE002211460A205C
:103E9000FDF760FA052108461722FDF7C5FE00224E
:103EA00011461720FDF756FA282206210A20FDF7B1
:103EB000BBFE002211462820FDF74CFA002008BD69
:103EC0000B68A3F13002782A9FBF03F1804303F50A
:103ED0000E3349681A689DBF0A4300201A606FF0CC
:103EE000850070470B68A3F13002782A9FBF03F169
:103EF000804303F50E3349681A689DBF8A4300204A
:103F00001A606FF0850070470B68022B03D82BB93D
:103F10006FF085007047053B012BF9D84A68FF2AEE
:103F20000DD0D3B203F1804303F50E33C2F3024147
:103F30001868C2F3042201FA02F202431A60002058
:103F40007047F7B51C461646002382682360A360BD
:103F500013690D4601AA69469847019B5A1E0192B2
:103F60001BB96FF0150003B0F0BD0098A268476858
:103F70002168676085B9B31AD0F800C0634528BFCF
:103F800063461A4403FB07112160A26002689A424B
:103F900006D808300090E0E76B1AB3FBF7F3EBE7C5
:103FA0000020E0E713460022FFF7CBBF4FF0FF32BF
:103FB0004FF0FF330430FEF729BF0020704708B5EB
:103FC000006904300122114600F0D5FBFFF7F5FF30
:103FD00000EAE07008BD7FB505460E46144601AA0A
:103FE000FFF7E0FF50B9013C01AAA1192846FFF7ED
:103FF000D9FFB0FA80F0400904B070BD0020FBE7A3
:10400000F0B5054685B00F46144601AAFFF7CAFF72
:1040100050B9039E013C01AAE1192846FFF7C2FFEF
:1040200010B9039FBE4201D905B0F0BD2B691C68D1
:104030002369002B44DB2846FDF7B0FF0028F3DBA3
:1040400023685A050FD5236823F48063236023680F
:1040500043F480532360236823F480532360236850
:1040600043F48063236023689B050FD5236823F402
:1040700000732360236843F400632360236823F400
:1040800000632360236843F400732360236923F0F3
:10409000F8032361236943EAC60343F00203236163
:1040A000236943F48033236128462369FDF776FFB3
:1040B0002369002823F0FA032361B5DB0136B1E759
:1040C0006FF00400B0E72DE9F843064601F1006700
:1040D000154602EB03080020A84521D0336915F8E6
:1040E000019B1C682369002B1CDB3046FDF756FF43
:1040F000002815DB236923F44073236123692361BE
:10410000236943F001032361236907F8019B3046CB
:10411000FDF744FF2369002823F001032361DBDA64
:10412000BDE8F8836FF00400FAE743685B681B6939
:104130000B600020704743685B68586942400A4042
:1041400042405A610020704743685B6800209961D3
:10415000704743685B6809049961002070474368B1
:104160005A6853694B4053610020704710B503698A
:104170009868F8B1884219D1DC6808689860A14253
:1041800000D1D860002008602AB19A680A60DA6815
:10419000996002B9D960002010E0814206D1086818
:1041A0002060D8688142EDD1DC60EBE7044600680E
:1041B0000028F2D1002AE8D16FF0150010BDF0B54B
:1041C00044680120676888401E46C2F3801327EACE
:1041D00000078B403B43636090FAA0F7B7FA87F77C
:1041E000D4F808C04FF0030E7F000EFA07F72CEA50
:1041F000070C90FAA0F7B7FA87F7C2F3C1137F0054
:10420000BB4043EA0C03A36090FAA0F3B3FA83F334
:10421000E7685B000EFA03F327EA030790FAA0F3BE
:10422000B3FA83F302F030055B00C2F341229A40F7
:104230003A43202DE26016D107292BDC90FAA0F337
:10424000226A2BB3B3FA83F39B000F2101FA03F325
:1042500022EA030290FAA0F3B3FA83F39B0006FA72
:1042600003F31343236290FAA0F3B3FA83F32268B3
:1042700090FAA0F05B000321B0FA80F02D0901FA5A
:1042800003F3400022EA030385401D432560F0BD8F
:104290002B46D9E7030A616A93FAA3F282B1B2FA14
:1042A00082F292000F2793FAA3F3B3FA83F307FA8B
:1042B00002F29B0021EA02029E4016436662D2E7A8
:1042C0002A46EEE738B5044690030D46134617D547
:1042D00091070ED55A072ED55022D8060BD542F499
:1042E000007219031AD5616801234968AB408B61DC
:1042F0000DE01022F1E79906F3D542F48062F0E771
:10430000DA0313D5D80613D4C3F340139A026068B6
:1043100000232946FFF753FF002038BD5B03F6D585
:104320000121A9402046FFF714FFF0E73022EEE715
:104330004FF40072EBE76FF08500EEE770B50B46C7
:10434000896821B101255E680C68854001B970BD9E
:104350008A682A4002D04B68304698471CB12368CF
:1043600021461C46F2E72346FAE7F8B51F46044605
:1043700040680E461546FFF722FF112F07D1012195
:104380002B0501FA06F104D563685B68996100208A
:10439000F8BD2046FFF7DDFEF9E730B5036813608E
:1043A0000579046804EBC504A34202D36FF0010051
:1043B00030BD5C798C4201D00833F0E70020F7E78C
:1043C0004368C1F34B101B6801F01F01C058012363
:1043D0008B40034214BF0123002313700020704759
:1043E00010B54368C1F34B101A6801F01F018458DF
:1043F00001238B4023438350002010BD10B5436838
:10440000C1F34B14186801F01F01235801228A40A0
:1044100023EA02032350002010BD38B504460D46A0
:10442000FFF7DEFF29462046FFF7E8FF002038BDF2
:104430000020704782B003680193019B4368019399
:10444000019B02B0704708B54368186803681A07F3
:1044500001D5FFF7EFFF03689B0643BF43680B706E
:1044600000204FF0FF3008BD10B5406802681368A7
:104470001B06FCD54FF01002EFF3118382F3128874
:10448000BFF36F8F02681468240604D483F3118885
:10449000BFF36F8FEAE7516083F31188BFF36F8F2B
:1044A00010BD08B541680B681A681868C00718681D
:1044B000C2F3C00248BF42F002028007186848BF3A
:1044C00042F004024007186848BF42F02002C005CD
:1044D00042BF6FF4807042F008021860D00702D526
:1044E0000868FFF7A7FF930702D50868FFF7A2FF48
:1044F000500702D50868FFF79DFF930602D50868AC
:10450000FFF798FF104608BDF0B546683368186895
:1045100010F0800010D04FF01003EFF3118783F3F9
:104520001288BFF36F8F0023DCB2A242204604DC66
:1045300087F31188BFF36F8FF0BD3568D5F800C0E1
:104540001CF0800F03F10103F2D0085D6860EBE717
:1045500070B545680024E0B2824203DD2B681E6816
:10456000B60600D470BD5B680B54286803681B074F
:1045700001D5FFF75FFF0134EDE743681A6802F1E8
:104580000C0353E8003F43F0400302F10C0040E805
:1045900000310029F3D1704743681A6802F10C0317
:1045A00053E8003F23F0400302F10C0040E80031E3
:1045B0000029F3D1704743681B68186810F0800029
:1045C0001CBFD868C0F38010704743681B68186828
:1045D000C0F38010704743681A6802F10C0353E877
:1045E000003F43F0200302F10C0040E800310029B5
:1045F000F3D1704743681A6802F10C0353E8003F97
:1046000023F0200302F10C0040E800310029F3D12F
:10461000704743681B681868C0F3401070474368D0
:104620001B681A68910602D5DA68920607D41868E2
:1046300010F0400004D0D868C0F38010704701200B
:104640007047012070470369C3E90412704702698B
:1046500013690BB151691847704708B5002225202E
:104660001146FCF777FEBDE808402520FCF764BE44
:1046700008B5002226201146FCF76CFEBDE8084074
:104680002620FCF759BE03691B680B6043681B6852
:10469000DB6803F4C063B3F5806F2FD0A3F5C06C63
:1046A000DCF1000343EB0C030B7143681B681B69CF
:1046B00003F44053B3F5805F22D0B3F5405F21D0BF
:1046C000002B0CBF012303234B7143681B68DA687E
:1046D000DB68D20403F4C06316D5002B14BF032398
:1046E00004238B7143681B685B6903F44073A3F573
:1046F000407253425341CB71002070470223D3E7ED
:104700000023E1E70223DFE7002B14BF022303238A
:10471000E7E7704740B1C368587810F001001EBF4A
:104720001878B0FA80F0400970474FF01002EFF3AC
:10473000118382F31288BFF36F8FFEE7FFF75EBB32
:10474000FFF751BBEFF30580003818BF0120704719
:104750006FF05700704700207047FEF71BBE08B58A
:104760004FF01002EFF3118382F31288BFF36F8FC3
:10477000FCF7A6FDF4E73AB18A4205D3C0E902127C
:10478000C0E90000002070476FF015007047026814
:1047900001238B4022EA0303036022FA01F000F0B8
:1047A0000100704720B100221146883000F0CDB8DA
:1047B000704738B504460D4610220021FFF71EFB56
:1047C000656038BD13B5019008464FF01003EFF354
:1047D000118483F31288BFF36F8F01A9FEF7DAFB10
:1047E00084F31188BFF36F8F02B010BD10B5FFF7CF
:1047F000E9FF041E09DD4FF01003EFF3118083F38E
:104800001288BFF36F8F00F08AF8204610BDD0E900
:10481000003213605A600023C0E90033704708B5C6
:10482000FFF7F5FF437B23F002034373002383600C
:1048300008BD10B501464FF01003EFF3118483F368
:104840001288BFF36F8F10F80B3C13F0280F0DD1B7
:1048500051F8103C18380BB1FFF7E1FF11F80B3C91
:1048600023F0140301F80B3CFEF798FC84F3118845
:10487000BFF36F8F10BD38B504460D46FEF7C2FC7E
:10488000637B43F002036373E5B1A5602B689D422F
:1048900009D16B68C4E900531C606C6012E06A685F
:1048A0009342F6D01B68002BF3D094F90E2093F9B5
:1048B0000E108A42F3D09142F1DD5A68C4E9003209
:1048C00014605C6038BD10B54FF01003EFF3118435
:1048D00083F31288BFF36F8FFEF760FC84F31188B7
:1048E000BFF36F8F10BD38B54FF01003EFF3118594
:1048F00083F31288BFF36F8F0468A0420DD034B1E8
:104900002046FFF78CFF04F1180000F041F885F312
:104910001188BFF36F8F204638BD0024F7E70346A8
:1049200020B9EFF305820AB9FCF754BD83F311886F
:10493000BFF36F8F70474FF01003EFF3118083F3D5
:104940001288BFF36F8FFFF7EABF38B54FF010033F
:10495000EFF3118583F31288BFF36F8F0468A042D1
:1049600012D09CB1A16762612046FFF758FF04F1A5
:10497000180000F00DF82046FEF710FC012085F32A
:104980001188BFF36F8F38BD0020F8E72046F6E7A7
:1049900010B54FF01002EFF3118482F31288BFF3C9
:1049A0006F8F03683BB1FEF751FE002084F311883E
:1049B000BFF36F8F10BD6FF01500F7E770B50446B9
:1049C0000D464FF01003EFF3118683F31288BFF307
:1049D0006F8FFEF713FE012807DDA04205DBA04222
:1049E0002946A8BF2046FDF7BBFE86F31188BFF31A
:1049F0006F8F70BDFEF730BF70470000D0B9FF7FEA
:104A0000010000006912010800000000B53B010828
:104A100000000000A91D01089C4A01082F3E010862
:104A2000B44A010855210108CC4A01085521010862
:104A3000E44A010855210108FC4A010855210108F2
:104A4000144B0108552101082C4B01085521010880
:104A5000444B0108552101085C4B01085521010810
:104A6000744B0108314401088C4B010829240108CA
:104A7000A44B010829240108BC4B0108E9260108C0
:104A8000000000008D38010800000000BF3F010851
:104A9000D44B0108091F0108000000008D580108CF
:104AA000000000006C000020EA0000200000000070
:104AB000084F01086F5801080000000000000000C6
:104AC000E800002004030020024F01086559010896
:104AD000D44F010874500108EE0000208403002028
:104AE000FA4E010873590108E84F01087450010893
:104AF000F000002094030020F24E010881590108C3
:104B0000FC4F010874500108F2000020A4030020AB
:104B1000EA4E01088F59010810500108745001082D
:104B2000F4000020B4030020E24E01089D59010862
:104B30002450010874500108F6000020C40300202E
:104B4000DA4E0108AB5901083850010874500108C9
:104B5000F8000020D4030020D24E0108B959010802
:104B60004C50010874500108FA000020E4030020B2
:104B7000CA4E0108C7590108605001087450010865
:104B8000FC000020F4030020C24E0108D5590108A2
:104B9000C4500108C8500108FE00002000000000B9
:104BA000B64E0108B95A0108D850010868510108E9
:104BB000000100209C000020AC4E0108C95A0108E9
:104BC000205101086851010802010020B4000020B2
:104BD000A24E01083F59010800000000A04F010843
:104BE000EC000020880000209C4E0108000000001E
:104BF000AB3C010800000000AB3C010800000000D5
:104C0000AB3C010800000000AB3C010800000000C4
:104C1000AB3C010800000000AB3C01086D580108E6
:104C2000E11B01086B580108E11B010869580108E4
:104C3000E11B010867580108E11B010865580108DC
:104C4000E11B010800000000AB3C0108000000006F
:104C5000AB3C010800000000AB3C01080000000074
:104C6000AB3C010800000000AB3C01080000000064
:104C7000AB3C010800000000AB3C01080000000054
:104C8000AB3C010800000000AB3C01080000000044
:104C9000AB3C010800000000AB3C01080000000034
:104CA000AB3C010863580108E11B0108000000004B
:104CB000AB3C010800000000AB3C01080000000014
:104CC000AB3C010800000000AB3C01080000000004
:104CD000AB3C010800000000AB3C010800000000F4
:104CE000AB3C010800000000AB3C010800000000E4
:104CF000AB3C010800000000AB3C010800000000D4
:104D0000AB3C010800000000AB3C010800000000C3
:104D1000AB3C0108BC4B01084F460108A44B0108FD
:104D20004F46010800000000AB3C01086158010833
:104D3000E11B010800000000AB3C0108000000007E
:104D4000AB3C010800000000AB3C01080000000083
:104D5000AB3C010800000000AB3C01080000000073
:104D6000AB3C010800000000AB3C01080000000063
:104D7000AB3C010800000000AB3C01080000000053
:104D8000AB3C010800000000AB3C01080000000043
:104D9000AB3C010800000000AB3C01080000000033
:104DA000AB3C010800000000AB3C01080000000023
:104DB000AB3C010800000000AB3C01080000000013
:104DC000AB3C010800000000AB3C01080000000003
:104DD000AB3C010800000000AB3C010800000000F3
:104DE000AB3C010800000000AB3C010800000000E3
:104DF000AB3C010800000000AB3C010800000000D3
:104E0000AB3C010800000000AB3C010800000000C2
:104E1000AB3C010800000000AB3C010800000000B2
:104E2000AB3C010800000000AB3C010800000000A2
:104E3000AB3C010800000000AB3C01080000000092
:104E4000AB3C010800000000AB3C01080000000082
:104E5000AB3C010800000000AB3C01080000000072
:104E6000AB3C010800000000AB3C01080000000062
:104E7000AB3C010800000000AB3C01080000000052
:104E8000AB3C010800000000AB3C01080000000042
:104E9000AB3C010800000000AB3C01080080008032
:104EA000FF7F01000B0000800080FF7F01000B00EE
:104EB00000800080FF7F0100008000800C000D005A
:104EC000FF7F010000800080FF7F010000800080E4
:104ED000FF7F010000800080FF7F010000800080D4
:104EE000FF7F010000800080FF7F010000800080C4
:104EF000FF7F010000800080FF7F010000800080B4
:104F0000FF7F00800080FF7F00800080030004009E
:104F1000050006000700080009000A000B000C004D
:104F20000D00FF7F67530108030000005959010875
:104F300003000000FB57010803000000DD5B0108CF
:104F4000030000007E53010804000000D95A010844
:104F5000030000004400000000400000D44B0108A2
:104F60000000020000000600D44B01080000010010
:104F700000000100000000200000000000000B06FF
:104F800002000000884F0108000000085258010884
:104F900024000202000000205A58010820000B11D2
:104FA000611F0108B520010801200108591F0108EF
:104FB0004521010801000000FF000000040000007E
:104FC000004000000100000000000100030000009C
:104FD00000000200FFFF0000001C0240070000006C
:104FE0003000000080000000FFFF000000180240B9
:104FF000060000003000000040000000FFFF00003D
:1050000000140240050000003000000020000000F5
:10501000FFFF00000010024004000000300000000C
:1050200010000000FFFF0000000C02400300000021
:105030003000000008000000FFFF000000080240F0
:10504000020000003000000004000000FFFF00002C
:1050500000040240010000003000000002000000D7
:10506000FFFF0000000002400000000030000000D0
:1050700001000000C54201082B4101083741010829
:1050800049410108534101085F4101088521010898
:105090006D41010800000000744B01085C4B0108E1
:1050A000444B01082C4B0108144B0108FC4A010831
:1050B000E44A0108CC4A010800000000000000009A
:1050C0000000000000380240C1430108E14301082C
:1050D000FD4301081B44010800440040F85001084A
:1050E00001000000000000000000000000000000BF
:1050F0000051010871460108400000000000020054
:1051000008510108010000001051010802000000D0
:1051100047000000000200006700000000000000DF
:105120000010014040510108010000000000000093
:105130000000000000000000485101085B46010823
:105140004400000010000000505101080100000060
:105150005851010802000000C702000000020000D0
:10516000E70200000000000047440108694401080C
:10517000A344010851250108874601080945010893
:10518000514501087B45010899450108B7450108CB
:10519000D7450108F5450108CB450108134601082C
:1051A0000D230108692301081F4601084346010831
:1051B00047460108F5FFFFFF8E5B01089C5B010875
:1051C000B05B0108BF5B0108CB5B0108044A010822
:1051D000044A01087C4A0108844A01089C4A0108E3
:1051E0009C4A01080010000000305265626F6F7425
:1051F000696E670057616974696E6720666F722017
:105200002564204F4B004D616C666F726D656420A4
:105210006C696E653A206C6F616420736C6F745FAB
:105220006E6F2062797465730057726974696E6776
:1052300020256420627974657320746F20736C6F0D
:1052400074202564202E2E2E00536C6F742025644C
:1052500020636F6E7461696E732076657273696F17
:105260006E2025642E25642D25640025633A205781
:10527000656C636F6D6520746F202578207665728C
:1052800073696F6E2025642E25642D25640A002520
:10529000633A2052756E6E696E672066726F6D207C
:1052A000736C6F742025640A0025633A20426F6F87
:1052B0007420726574726965732025640A007473C2
:1052C00068007265626F6F74005265626F6F742060
:1052D000646576696365006C6F6164004C6F61643E
:1052E00020696D61676520746F20736C6F743A205C
:1052F0005B6C6F616420736C6F745F6E6F2062799A
:105300007465735D006C697374004C697374206913
:105310006D616765730068656C70004C697374201B
:10532000616C6C20636F6D6D616E647300556E6BA4
:105330006E6F776E20636F6D6D616E643A200054FE
:10534000797065202768656C702720746F206C6900
:10535000737420636F6D6D616E64730A000A7473F9
:1053600068656C6C3E200063627072696E74665F83
:105370007061636B61676500286E696C29007362F8
:105380006B0025633A2072302F61313A202030784B
:1053900025303878202072312F61323A2020307841
:1053A00025303878202072322F61333A202030782F
:1053B000253038780A0025633A2072332F61343A59
:1053C0002020307825303878207231322F69703AB9
:1053D0002020307825303878207231342F6C723AA2
:1053E00020203078253038780A0025633A2020784C
:1053F0007073723A20203078253038780A0025639F
:105400003A204661756C74696E6720696E737472B8
:10541000756374696F6E20616464726573732028AC
:105420007231352F7063293A203078253038780A68
:105430000025633A202A2A2A2A2A204D5055204640
:1054400041554C54202A2A2A2A2A0A0025633A2048
:105450002020537461636B696E67206572726F728E
:105460002028636F6E746578742061726561206DA9
:1054700069676874206265206E6F742076616C695C
:1054800064290A0025633A202020556E73746163F5
:105490006B696E67206572726F720A0025633A202D
:1054A00020204461746120416363657373205669F1
:1054B0006F6C6174696F6E0A0025633A2020204D7D
:1054C0004D46415220416464726573733A203078CE
:1054D00025780A0025633A202020496E737472757E
:1054E0006374696F6E204163636573732056696FDF
:1054F0006C6174696F6E0A0025633A202020466C47
:105500006F6174696E672D706F696E74206C617A5B
:105510007920737461746520707265736572766149
:1055200074696F6E206572726F720A0025633A208B
:105530002A2A2A2A2A205553414745204641554CBC
:1055400054202A2A2A2A2A0A0025633A20202044A5
:1055500069766973696F6E206279207A65726F0A65
:105560000025633A202020556E616C69676E656482
:10557000206D656D6F7279206163636573730A00D6
:1055800025633A2020204E6F20636F70726F636531
:1055900073736F7220696E737472756374696F6E62
:1055A000730A0025633A202020496C6C6567616CA2
:1055B000206C6F6164206F66204558435F524554EC
:1055C00055524E20696E746F2050430A0025633A8D
:1055D000202020496C6C6567616C20757365206FB5
:1055E000662074686520455053520A0025633A20AE
:1055F0002020417474656D707420746F2065786527
:105600006375746520756E646566696E656420698E
:105610006E737472756374696F6E0A0025633A2045
:105620002A2A2A2A2A20425553204641554C5420E2
:105630002A2A2A2A2A0A0025633A20202053746144
:10564000636B696E67206572726F720A0025633A38
:105650002020205072656369736520646174612045
:10566000627573206572726F720A0025633A20209A
:10567000204246415220416464726573733A20307F
:105680007825780A0025633A202020496D707265DC
:10569000636973652064617461206275732065724B
:1056A000726F720A0025633A202020496E7374726B
:1056B000756374696F6E20627573206572726F72A4
:1056C0000A0052657365727665642045786365707B
:1056D00074696F6E20280053707572696F7573203E
:1056E000696E746572727570742028495251200079
:1056F00025633A20535053454C20696E20746872DC
:10570000656164206D6F646520646F6573206E6FE2
:105710007420696E646963617465205053500A0097
:1057200025633A202A2A2A2A2A2048415244204620
:1057300041554C54202A2A2A2A2A0A0025633A2055
:105740002020427573206661756C74206F6E207620
:105750006563746F72207461626C65207265616448
:105760000A0025633A20202044656275672065762B
:10577000656E740A0025633A2020204661756C74BA
:1057800020657363616C6174696F6E202873656551
:105790002062656C6F77290A0025633A20415243E5
:1057A000485F4558434550542077697468207265B6
:1057B00061736F6E2025780A0A0025633A202A2A31
:1057C0002A2A2A204465627567206D6F6E69746F9E
:1057D0007220657863657074696F6E202A2A2A2AA0
:1057E0002A0A0025633A202A2A2A2A2A20257320F9
:1057F000256429202A2A2A2A2A0A006D7075002584
:10580000633A20506172746974696F6E2025753A2D
:105810002073616E69747920636865636B206661CB
:10582000696C65642E0A0025633A204661696C65DF
:105830006420746F20616C6C6F63617465206E65A9
:1058400077204D505520726567696F6E2025750A67
:105850000A00464C4153485F30005352414D5F307F
:10586000000A0605050401030102010101000169A6
:105870006E746572727570742D636F6E74726F6C76
:105880006C657240343030313363303000726363A2
:105890004034303032333830300025633A2052659E
:1058A00061642072616E676520696E76616C6964FF
:1058B0002E204F66667365743A20256C642C206C2C
:1058C000656E3A20257A750A0025633A2054696D81
:1058D000656F7574212076616C3A2025640A002575
:1058E000633A2045726173652072616E6765206955
:1058F0006E76616C69642E204F66667365743A201B
:10590000256C642C206C656E3A20257A750A00257A
:10591000633A2057726974652072616E6765206909
:105920006E76616C69642E204F66667365743A20EA
:10593000256C642C206C656E3A20257A750A006609
:105940006C6173682D636F6E74726F6C6C657240FE
:10595000343030323363303000666C6173685F73AB
:10596000746D3332006770696F40343030323163A8
:105970003030006770696F40343030323138303049
:10598000006770696F403430303231343030006736
:1059900070696F40343030323130303000677069B8
:1059A0006F403430303230633030006770696F40A0
:1059B0003430303230383030006770696F40343006
:1059C000303230343030006770696F4034303032FC
:1059D000303030300072657365742D636F6E747291
:1059E0006F6C6C65720025633A204661696C656472
:1059F0002063616C6C20636C6F636B5F636F6E74AC
:105A0000726F6C5F6765745F726174652870636C38
:105A10006B656E5B305D290A0025633A20636C6F0D
:105A2000636B20636F6E74726F6C2064657669635C
:105A300065206E6F742072656164790A0025633A8F
:105A400020436F756C64206E6F7420656E61626CAC
:105A50006520284C50295541525420636C6F636B6C
:105A60000A0025633A20726573657420636F6E7453
:105A7000726F6C6C6572206E6F74207265616479F0
:105A80000A0025633A20496E76616C696420706172
:105A9000726974792073657474696E672027256450
:105AA000272E44656661756C74696E6720746F207B
:105AB000276E6F6E65272E0A0073657269616C40F0
:105AC00034303030343430300073657269616C408A
:105AD000343030313130303000756172745F73743E
