:020000040801F1
:10000000FF7F640089A784E631156901C99B4A34E2
:1000100026EE5F94CF1DF2731326F4E9E5903BF3CF
:10002000F3E61B58A628E2FB41BBAD3703F883F982
:10003000E7DB56B01901E4DB66AAD353BFE26226C0
:100040008D6940309EB957353116D34AC61FEB86AD
:100050007627F96B1D7E5AA50B54EC6E3FC3A6663E
:100060002CBA8B0800802C0001010000000201085E
:1000700000000000B86B000000020100000000005A
:10008000FA3A72B43790AE36C8271BA5B06B989673
:10009000010014000000000001010000000201083E
:1000A0000000000000000000000000000000000050
:1000B0000000000000000000000000000000000040
:1000C0000000000000000000000000000000000030
:1000D0000000000000000000000000000000000020
:1000E0000000000000000000000000000000000010
:1000F0000000000000000000000000000000000000
:1001000000000000000000000000000000000000EF
:1001100000000000000000000000000000000000DF
:1001200000000000000000000000000000000000CF
:1001300000000000000000000000000000000000BF
:1001400000000000000000000000000000000000AF
:10015000000000000000000000000000000000009F
:10016000000000000000000000000000000000008F
:10017000000000000000000000000000000000007F
:10018000000000000000000000000000000000006F
:10019000000000000000000000000000000000005F
:1001A000000000000000000000000000000000004F
:1001B000000000000000000000000000000000003F
:1001C000000000000000000000000000000000002F
:1001D000000000000000000000000000000000001F
:1001E000000000000000000000000000000000000F
:1001F00000000000000000000000000000000000FF
:1002000080140020792101087F4B01084D2101084D
:100210004D2101084D2101084D2101080000000079
:10022000000000000000000000000000351C010874
:100230004D21010800000000E11B0108F52E010816
:10024000E51C0108E51C0108E51C0108E51C010886
:10025000E51C0108E51C0108E51C0108E51C010876
:10026000E51C0108E51C0108E51C0108E51C010866
:10027000E51C0108E51C0108E51C0108E51C010856
:10028000E51C0108E51C0108E51C0108E51C010846
:10029000E51C0108E51C0108E51C0108E51C010836
:1002A000E51C0108E51C0108E51C0108E51C010826
:1002B000E51C0108E51C0108E51C0108E51C010816
:1002C000E51C0108E51C0108E51C0108E51C010806
:1002D000E51C0108E51C0108E51C0108E51C0108F6
:1002E000E51C0108E51C0108E51C0108E51C0108E6
:1002F000E51C0108E51C0108E51C0108E51C0108D6
:10030000E51C0108E51C0108E51C0108E51C0108C5
:10031000E51C0108E51C0108E51C0108E51C0108B5
:10032000E51C0108E51C0108E51C0108E51C0108A5
:10033000E51C0108E51C0108E51C0108E51C010895
:10034000E51C0108E51C0108E51C0108E51C010885
:10035000E51C0108E51C0108E51C0108E51C010875
:10036000E51C0108E51C0108E51C0108E51C010865
:10037000E51C0108E51C0108E51C0108E51C010855
:10038000E51C0108E51C0108E51C0108E51C010845
:10039000E51C0108E51C010853B94AB9002908BF4A
:1003A00000281CBF4FF0FF314FF0FF3000F00CB8B9
:1003B000ADF1080C6DE904CE00F008F8DDF804E0BA
:1003C000DDE9022304B07047704700BF2DE9F04714
:1003D00086468C460846089E154674461946002BEC
:1003E00040F0C2808542B2FA82F245D94AB1C2F1E8
:1003F000200300FA02FC2EFA03F3954043EA0C0CAA
:1004000094404FEA154EA8B2BCFBFEF8230C0EFB3D
:1004100018CC08FB00F943EA0C43994528D9EB189E
:1004200008F1FF3704D2994502D9A8F102072B44FD
:10043000A3EB0903A4B2B3FBFEFC0EFB1C330CFBC5
:1004400000F044EA0344A04214D92C190CF1FF3304
:1004500004D2A04202D9ACF102032C44241A43EA8C
:1004600007401EB1D440002334607360BDE8F087BC
:100470004746DDE76346F1E792BB431B01214FEAA4
:10048000154EAFB2B3FBFEFC200C0EFB1C330CFB75
:1004900007F840EA0343984562D9EB180CF1FF30A6
:1004A00004D2984502D9ACF102002B44A3EB080317
:1004B000A4B2B3FBFEFC0EFB1C330CFB07F744EAB3
:1004C0000344A7424ED92C190CF1FF3304D2A742A2
:1004D00002D9ACF102032C44E41B43EA0040C0E71C
:1004E000C2F1200320FA03F1954090402EFA03F365
:1004F00003434FEA154EAFB2B1FBFEFC0EFB1C10DE
:10050000190C0CFB07F841EA0041884504FA02F493
:1005100022D969180CF1FF3004D2884502D9ACF118
:1005200002002944A1EB08019BB2B1FBFEFC0EFBCB
:100530001C110CFB07F743EA01439F420ED9EB184D
:100540000CF1FF3104D29F4202D9ACF102012B44DD
:10055000DB1B41EA004192E76046E3E76146F7E7CB
:100560006046A3E76346B7E7834206D916B9002180
:1005700008467BE7C6E900E0F9E7B3FA83F78FB9ED
:10058000834201D3724508D8BEEB020460EB03033B
:1005900001209C461EB9002168E73846FAE7C6E903
:1005A000004CF8E7C7F1200CBB4022FA0CF41C43C6
:1005B0002EFA0CF120FA0CF3B84001434FEA14492B
:1005C0000EFA07F5B3FBF9F81FFA84FE09FB1830A1
:1005D0000B0C08FB0EFA43EA00439A4502FA07F2B5
:1005E00040D9E31808F1FF3004D29A4502D9A8F1A6
:1005F00002002344A3EB0A0389B2B3FBF9F809FB19
:10060000183308FB0EFE41EA03418E452CD96118D0
:1006100008F1FF3304D28E4502D9A8F10203214428
:1006200043EA0040A0FB0298A1EB0E014145CE46F3
:10063000434602D306D14D4504D2B9EB020E68EB16
:1006400004030138002EA6D0B5EB0E0261EB0301C6
:1006500001FA0CFC22FA07F34CEA0303F940C6E95D
:10066000003198E74046C5E74346D9E7012910D84D
:10067000094B0C2202FB01330360084B4360084B1B
:100680008360084BC360084B0361084B4361002043
:1006900070476FF0010070472C5E01089B40010815
:1006A000BD400108AD400108B1400108B940010852
:1006B00008B5024903F047FD002008BDBA610108F2
:1006C000F8B5194F194E3B7805461446084631686F
:1006D0005BB113460246164803F054FF28B1154992
:1006E000284603F030FD00233B70134A13681B1BA0
:1006F00013603268144434606BB90D4800F0ECFFAD
:1007000018B90E49284603F01EFD28460021BDE811
:10071000F84000F0B7B9E4B22CB928460849BDE862
:10072000F84003F010BDF8BD88060020E00200206C
:1007300060000020C4610108E4020020D1610108CA
:10074000DC610108F0B5012999B00446164605DCC4
:100750001B4903F0F8FC002019B0F0BD002211463F
:100760007068184F04F012FA002211460546B0686E
:1007700004F00CFA29463860134801F017F80646D1
:1007800010B112492046E4E70F4803F062FF3B68CE
:100790009842E0D30E4A16600E4A0121117003A858
:1007A0000D4A0095512101F0EDFD03A9204603F00B
:1007B000CAFC0A49204600F065F90949E2E700BF92
:1007C000DF610108E4020020C8020020F661010890
:1007D000E00200208806002009620108C106010825
:1007E000DC61010870B5A2B0002407AB124E06947C
:1007F000054605930598214600F0D8FFC8B904A91D
:1008000005A803F0ACFEA0B9BDF8123002939DF824
:10081000113001939DF81030009332462346512148
:100820000DA801F0AFFD0DA9284603F08CFC0134A2
:10083000E0E7002022B070BD2962010837B5154CF1
:100840001548E38801936379009323792268134D57
:10085000492103F0B4FD227A1148492103F0AFFD8C
:10086000627A104C1048492103F0A9FD224628461F
:100870000E4903F0C8FC0E492A46204603F060FCEE
:10088000284600F031F9204603B0BDE8304000F0C2
:10089000E5B800BFE0FF01204B6201082000002006
:1008A0006F6201080000002089620108B508010894
:1008B0000D4201082DE9F04F4368D3F80C8091B048
:1008C00004460E461746B8F1000F07D1DFF87891BD
:1008D0000F44BE4207D111B0BDE8F08F434611B0BE
:1008E000BDE8F04F184716F8015B0A2D4DD163683B
:1008F0005B68002BEDD0204603F005FC6368D3E96C
:1009000000120D2D02F1010058608D544BD1402290
:100910000021684604F0D8F900231A461946656894
:10092000686883425CD38A466368D3E901239A42AC
:1009300002D1204603F0E7FBBAF1000F13D0DDF837
:1009400000B0424D4D456BD34149204603F0E6FBD4
:100950000099204603F0E2FB204603F0D4FB3D491A
:10096000204603F0DBFB636800219A68186804F0F6
:10097000ABF96368C3F804806368DB68002BA8D117
:100980003549204603F0CAFBA3E70D2DAFD0082D53
:100990000CD02946204603F0B1FB6368D3E900126E
:1009A000501C58608D540A2D14D1B0E763685B6801
:1009B000002B8ED02946204603F0A0FB62685368C6
:1009C000013B20212046536003F098FB2946204636
:1009D00003F094FB6368D3E901239A4297D278E746
:1009E000D5F800C00CEB03051CF803C0BCF1200FC8
:1009F00002D0013883420FD185F8008052B110A88F
:100A000000EB81000F2901F1010A40F8402C8BD046
:100A100051460022013382E7002A08BF2A46F9E73F
:100A20002168286804F039F908B110358AE7686848
:100A3000594604F032F90028F7D1AB686A465146AE
:100A4000204698478FE700BFB46D0108746D010818
:100A50000D6301081F6301083E63010810B5436878
:100A600004469A681868002104F02EF96368044966
:100A700000225A602046BDE8104003F04FBB00BF83
:100A80003D6301084268D1604368DB6813B90249DD
:100A900003F044BB704700BF3D630108F8B50F4D3C
:100AA0000F4E104F0446B54201D30020F8BD216817
:100AB000286804F0F2F870B96968204603F02EFB4C
:100AC0003946204603F02AFB2046E96803F026FB5E
:100AD000204603F018FB1035E5E700BF746D0108F0
:100AE000B46D01081C63010813B5044615490830AC
:100AF00004F0C5FD63680022C3E90222C3E90522B0
:100B00005A601A612068836823B19B6C13B10E4947
:100B100022469847206883685B6B0BB1984730B1D9
:100B2000206801220DF1070103F016FBF7E72068AA
:100B300083689B6A1BB102B0BDE81040184702B041
:100B400010BD00BF6741010893410108014B1B68BC
:100B5000184700BF7C000020014B1860704700BFA1
:100B60007C00002007B50B46002102460091034897
:100B700000F006F803B05DF804FB00BF4D0B010860
:100B80002DE9F04F814695B08B4617461C4600254F
:100B9000387808B9284658E37B1C2528039306D0EB
:100BA0005946C8470028C0F250830135FBE118229E
:100BB00000210EA804F088F87B78252B7DD0002337
:100BC000781C98469E469C461E46014610F8012B0E
:100BD0002B2A00F0A18000F29880202A00F09F804C
:100BE000232A00F09F802BB19DF8403043F0400352
:100BF0008DF84030B8F1000F05D09DF8403043F03B
:100C000020038DF84030BEF1000F05D09DF8403034
:100C100043F010038DF84030BCF1000F05D09DF873
:100C2000403043F008038DF840302EB19DF840303D
:100C300043F004038DF840309DF8403003F0440049
:100C4000442803D16FF386138DF840309DF840306F
:100C50002A2A43F080038DF840307FD19DF841204F
:100C600042F001024B1C8DF841201A782E2A9DF883
:100C700041200CBF0121002161F341028DF8412088
:100C800078D15A782A2A6ED0013300224FF00A0C0C
:100C9000194611F8010BA0F13006092E40F295809B
:100CA0009DF840101292C1F3400040EAD2700A460B
:100CB00060F341028DF840205CE0BA1C03928DF88D
:100CC00043309DF84130DA0740F12E8154F8048B0F
:100CD000B8F1000F07DA9DF8402042F004028DF8C9
:100CE0004020C8F100085E0740F1278154F804ABAA
:100CF000BAF1000F80F226819DF841306FF3410375
:100D00008DF841304FF0FF3A1CE12D2A0DD0302AEA
:100D10007FF469AF012358E74FF0010C55E74FF01E
:100D2000010E52E74FF001084FE701264DE70EFB99
:100D30000262303A0346184610F8016BA6F1300CF7
:100D4000BCF1090FF3D999428FD09DF84010119250
:100D5000D20F62F341018DF8401086E70B46002266
:100D60004FF00A0EE7E79DF8412042F004028DF8AB
:100D7000412002331A786C2A47D02BD8682A31D008
:100D80006A2A4BD04C2A51D01A4612F8013B0392E2
:100D9000782B9DF841208DF8433000F2BE806D2BFA
:100DA00051D8692B00F2B980572B67D8412B03D05B
:100DB000453B022B00F2B1809DF84230042262F3E1
:100DC00002038DF84230012373E00CFB0202303A3B
:100DD0000B465DE7742A25D07A2AD5D19DF84120AB
:100DE00006210CE05A78682A9DF8412006D101219D
:100DF00061F3C6028DF841200233C5E7022161F399
:100E0000C6028DF841200133BEE75A786C2A9DF85E
:100E1000412001D10421EBE70321F0E79DF84120B7
:100E20000521ECE79DF841200721E8E7BDF84020C7
:100E300022F4F04222F0020242F4804242F0020226
:100E4000ADF84020DFE76E3BD9B201238B4040F282
:100E500082410B4237D113F0240F51D1D8075CD512
:100E60009DF84230032161F302038DF8423002F015
:100E70007803A3F140014B424B411AE0A3F1580122
:100E8000C9B2012000FA01F111F4624F94D140F689
:100E9000010631421DD111F4043F3ED09DF842308D
:100EA00060F3020302F07802402A8DF8423034D019
:100EB00000239DF84020C2F340010B4363F341023D
:100EC0008DF84020FDE69DF84230022161F30203D7
:100ED000E8E79DF84210022002F0780260F3020178
:100EE000402A8DF8421002BF9DF8401041F00101E8
:100EF0008DF84010632BDBD1131E18BF0123D8E7F8
:100F00009DF84230032161F3020312F0780F8DF84F
:100F1000423014BF01230023CBE79DF8403043F05B
:100F200001038DF84030C3E79DF94020002AB4BF8B
:100F3000DDF844804FF0FF38D5E698077FF5E2AE44
:100F4000DDF848A09DF841100023CDE911339DF84C
:100F5000423003F00703012BC1F3C30133D1CB1E91
:100F6000042B04D8DFE803F0214646212100236842
:100F700001294FEAE372CDE90E321CD19DF93830D8
:100F8000DA17CDE90E3204349DF8403013F0030631
:100F900050D0039B3A465946484603F08DF9002845
:100FA000C0F253810544039FF2E554F8043BDA177D
:100FB000CDE90E32E8E70229E5D11AB243F3C03396
:100FC000CDE90E23DFE7022B24D1CB1E042B04D85E
:100FD000DFE803F0181010181800012954F8043B3A
:100FE0004FF0000214D00229CDE90E32CCD19BB2D1
:100FF0000E93C9E7073424F00704F4E80223CDE98F
:101000000E23C1E754F8043B0E9300230F93BBE774
:10101000DBB2CDE7042B08D1073424F00704D4E970
:1010200000230834CDE90E23AEE7032BACD154F8EE
:10103000043BDDE79DF843007828B4D862281CD82B
:1010400025283FF4ADAD5828ADD10DF136030093FE
:10105000DDE90E0108AB10AA03F0E8F8BAF1000FC1
:10106000074680F29A80002F9DD00DF13603D81BE1
:10107000002E00F0C1800130BEE06338152892D800
:1010800001A252F820F000BF5D1101086F110108A4
:10109000A70F0108A70F0108A70F0108A70F010854
:1010A0006F110108A70F0108A70F0108A70F01087A
:1010B000A70F0108FD11010895110108BB110108D6
:1010C000A70F0108A70F0108E1100108A70F0108E9
:1010D00095110108A70F0108A70F01089511010834
:1010E000BAF1000F0E9F35DB5146384603F0CCFDB8
:1010F00007EB000A002F3FF456AF00269DF8423060
:1011000013F01002059200F0938002305B06119AF2
:1011100048BF129B0492104448BFC018B8F1000F9A
:1011200040F3A0809DF84020A8EB0008C2F38003A4
:101130005007069300F19680510640F189803EB138
:1011400059463046C84700287FDB069B01351E46BE
:1011500030227EE0384603F090FDC9E70E9B8DF803
:101160002030002608AF0DF1210A0120C6E719073B
:101170005CBFC3F300135E01DDE90E2348BF2B26DD
:10118000002BBFF662AF524263EB4303CDE90E235F
:101190002D265AE7002658E700269DF840200DF13D
:1011A0003603DB1B6FF386129A458DF840207FF6DD
:1011B0005AAFAAEB0303119355E70E9890B30DF1C4
:1011C0003603009310AA08AB002103F02FF8BDF8F6
:1011D000423003F0EF0343F4F04343F01003BAF15D
:1011E000000F0746ADF84230D6DA00283FF4DBAEF8
:1011F0000DF13603181A00269A467FE70E9B072941
:101200003FF6D1AEDFE801F00C04060C08080C0C28
:101210001D70C8E61D80C6E6EA17C3E90052C2E6A3
:101220001D60C0E62E4F064607F1050A052065E75A
:101230001A0748BF013069E70793104606925946DE
:10124000C8470028DDE9062304DA15B0BDE8F08FB1
:10125000202243461946002903F1FF33ECDC4544C4
:101260006D1A98462EB159463046C8470028ECDB27
:1012700001359DF84230DA0601D41B0705D55946E1
:101280003020C8470028E0DB0135059B33B19DF8CD
:1012900043005946C8470028D7DB0135049E2E4439
:1012A00005E059463020C8470028CEDB0135731BC6
:1012B000002BF6DC53463A465946484602F0FCFFFE
:1012C0000028C2DB0544A844A8EB0503002B7FF7E8
:1012D0006AAE59462020C8470028B6DB0135F3E73F
:1012E000586301080C4B1A6842F400721A601A68BD
:1012F00042F480621A604FF01002EFF3118382F320
:101300001288BFF36F8F83F31188BFF36F8F034B86
:10131000034A1A6000207047003C0240E4000020AD
:101320000024F400054B1B682BB102681868131ADF
:101330005842584170471846704700BFEC020020E1
:10134000034B0146186808B103F046B8704700BF68
:10135000E802002007B520230093034B03F0BEFBF7
:1013600003B05DF804FB00BF5E6301082DE9F04F98
:1013700093B000AF0C4690461D46786103F079F8B3
:10138000C31D23F00703ADEB030DC7F810D0ADEB81
:10139000030DC7F80CD0064603F06DF8073020F0B7
:1013A0000700ADEB000DC7F808D003F03DF8034689
:1013B000073323F00703ADEB030D78602C23786926
:1013C000C7F800D007F11C024FF4004103F09AF86F
:1013D000814658BBB7F830A0A24511D9AAEB040A40
:1013E000AA45786928BFAA46006853464246214666
:1013F00003F0F6F800284DD15444A5EB0A05D0447B
:1014000003F010F8073020F00700EA46ADEB000DBE
:101410006846102207F13801FFF79CFF69461E4A13
:1014200038680B2303F002F8D54625B948464C37F7
:10143000BD46BDE8F08FB7F830A078693A6900681A
:10144000A4EB0A0BBBFBF6FB0BFB06AA334651468B
:1014500003F0C6F8F0B9D7E90012B8685B4603F0AC
:101460000CF8BB68D7E90301324603F00AF8A4EB95
:101470000A039E42DFD9FA68134413F8012B08F8D7
:10148000012B013D04F10104D0D0A4EB0A029642E5
:10149000F3D8CAE78146C9E77F6301082DE9F04F19
:1014A0009FB000AFC7E90021814602F0BDFFC31D18
:1014B00023F00703ADEB030D054602F0BEFFC31D8D
:1014C00023F00703EB468046ADEB030D07F10C025A
:1014D0002C234FF40041484603F014F86E46824630
:1014E00050BB3C8C3B68643C0BB1FB691C4402F074
:1014F00099FF073020F00700EA46ADEB000D684683
:10150000102207F12801FFF725FF102369461E4A24
:10151000584602F08BFF2A46D5465946304602F01F
:101520008EFF2946584602F075FF642594B9786805
:10153000314602F088FF82464146304602F06AFF9B
:1015400012485246442102F03AFF50467C37BD46CD
:10155000BDE8F08F402CA34628BF4FF0400BD9F8D0
:1015600000005B4607F13802294603F039F882464D
:101570000028E1D15A4607F13801304602F061FFF8
:10158000A4EB0B045D44D1E78B6301089C63010865
:101590002DE9F04F99B02C230DAA4FF400410646D7
:1015A00002F0B0FF044628B149482246442102F027
:1015B00006FF30E0BDF84C8005460746404602F085
:1015C00062FFF0B1142307AA4146304602F09AFFA9
:1015D00004460028E8D10A9BBDF82C800093684699
:1015E0000137FFF79FFE0028E8D0DDE9080102ABD4
:1015F00083E803001846FFF7A3FE0028DED001357C
:10160000DCE765B95FB132486FF00D02442102F0AA
:10161000D6FE6FF00D04204619B0BDE8F08F2C48BF
:101620000022442102F0CBFE2C230DAA4FF40041EE
:10163000304602F067FF0446002841D1BDF84A90C9
:10164000054680460DF11C0A484602F01CFF98B37F
:10165000142302AA4946304602F054FF044678BBE0
:10166000BDF81890DDF814B02146504600F09EF801
:10167000074648BB5946504602F0F1FF08B901340D
:10168000F2E72C230DAA4FF400416846CDE900A7EC
:1016900002F038FF08F10108044628B1B8F1010F43
:1016A000D2D101353C46CFE703A90EA802F094FE43
:1016B0000028C9D00135C7E7A84518BF6FF00D0451
:1016C00004482246442172E76FF00D04F8E700BF9A
:1016D000B3630108D0630108F0B5ADB0304B314AB7
:1016E000039306920023304A0792CDE9043302AAFD
:1016F000CDE9002343680290D3E9015604464DB179
:101700002C2308AA4FF40041684602F0FBFEB8B152
:101710002DB0F0BD6846FFF73BFF0028F8D16423E9
:1017200013AA47F6FF71684602F0ECFE0028EFD1DD
:1017300002461CA96846FFF7B1FE0028E0D0E7E7A3
:101740000B9B2068DB060CD4626820681268334665
:10175000294602F060FF0028DAD1206802F076FF07
:10176000D6E70A9902F07BFF0028EDD0002EF4D0D6
:10177000402E374628BF40273B4613AA29466846D5
:10178000FFF7F4FD0028C3D120683B4613AA294681
:1017900002F041FF0028BBD1F61B3D44E6E700BF45
:1017A000A1440108FF440108F9440108014B1B68EA
:1017B000184700BF7800002008B51A4A03461A48A7
:1017C000C3E90002194A9A60A2F16462A2F5E33209
:1017D000A2F5DF72DA60084602F051FF1861081DB9
:1017E00002F04DFF586101F1080002F048FF9861D6
:1017F00001F10C0002F043FFD86101F1100002F08A
:101800003EFF186201F1140002F039FF586201F145
:10181000180002F034FF986201F11C0002F02FFF63
:10182000D86208BD6E64203365787061322D6279AC
:10183000C8B10D4A0D4B0E49DFF838C0C0E912237C
:101840000D4BC0E914130D4BC0E916C30C4B0366D6
:1018500003F17453A3F52303A3F6924343660022D6
:101860000023C0E90023704767E6096A85AE67BBBD
:1018700072F36E3C7F520E513AF54FA58C68059B72
:10188000ABD9831F2DE9F04FD0E9003503F03F04B9
:10189000D318CDB045F10005C0E900358B180A9387
:1018A00000F148030B930A9B994202D14DB0BDE869
:1018B000F08F021911F8015B15723F2C04F101033E
:1018C00040F088800CAC00F10803254653F8042B47
:1018D00012BA45F8042B0B9A9342F7D1302265686F
:1018E000A66B27464FEAB543043483EAF5133F68F5
:1018F00083EAD503256A3D442B444FEAF64585EA41
:10190000764585EA96252B44013AE363E7D1836C5B
:101910000093C36C0193036D0293436D0393836D36
:101920000493C36D0593036E0693436E0793DDE93D
:10193000068ADDE90449DDE901C72B4BDDF80CB06F
:10194000009D08934FEA75368CEA07030CEA070EF0
:1019500086EAB5062B4086EAB55683EA0E03F318ED
:101960000993089B0CAE53F804EB56F822600893D9
:101970004FEAF42383EAB413B64483EA74637344EE
:1019800004EA090628EA040E8EEA060E7344099E4C
:1019900001325344402A03EB0B0EC2463344BB468C
:1019A0001AD1009A1A44019B82642B44C364029B9F
:1019B00063440365039B3B444365049B7344836515
:1019C000059B2344C365069B4B440366079B434426
:1019D000436600231C4666E7C8466746A146AC46F8
:1019E00074461D46AEE700BF445E0108F7B5D1E975
:1019F00000760446012208462249234DFFF742FFA4
:101A0000F60046EA5776FF00036803F03F03382BE1
:101A100033D13825C5F12001A5F1200227FA05F3BD
:101A200006FA01F10B4326FA02F213430DF1070106
:101A30000122083D8DF80730FFF724FF15F1080F4C
:101A4000E8D1231D00F14401243451F8042F03F898
:101A5000012C150E03F8045C150C03F8035C150A41
:101A600003F8025C0433A342EFD100231A46C254A8
:101A70000133682BFBD103B0F0BD01222946FFF7EB
:101A800001FFC1E7EB630108285E0108014910224C
:101A90000A60704710ED00E072B6404080F3118894
:101AA000BFF36F8FBFF34F8F30BF62B6BFF36F8F3F
:101AB000704700BF37B505460C46C9B18B68009327
:101AC000D1E900230E48452102F079FC63690093B7
:101AD000D4E903230B48452102F071FCE2690A486E
:101AE000452102F06CFCA2690848452102F067FC20
:101AF0002146284603B0BDE8304001F071BB00BF6D
:101B0000F163010825640108596401086D64010846
:101B100040B2002807DB044A4109012300F01F00FE
:101B2000834042F82130704700E100E040B20028D5
:101B3000A8BF00F1604001F10101B8BF064B4FEAB8
:101B40000111ACBF00F5614000F00F00C9B2B4BF95
:101B5000195480F80013704714ED00E030BFFFF710
:101B6000FDBF00BF0F4A08B50F4B22F07F029A60FD
:101B7000BFF34F8FBFF36F8FD3F8882022F470022A
:101B8000C3F88820EFF3148323F0040383F314884D
:101B9000BFF36F8F01F0ACFB02F0F8F800F0E0FA51
:101BA00001F0EAFB0002010800ED00E0094A0A49E1
:101BB000936809689967094958674B6843F08053EF
:101BC0004B60002383F31188BFF36F8F9368986F86
:101BD000704700BF0C0400208461010800ED00E0A4
:101BE00012498A684FF030001044EFF3098C80E806
:101BF000F01F102080F31288BFF36F8F0C4F4FF04F
:101C000000668A698A603E60506F0023536780F3E4
:101C1000118804B5104600F0E7FABDE8044002F16F
:101C2000300090E8F01F8CF3098870470C04002006
:101C300004ED00E01EF0040F0CBFEFF30880EFF39B
:101C40000980816911F8021C0229FFD001B502F058
:101C50008EFF01BD42F8203C009B42F81C3C0A4923
:101C6000019B42F8183C029B42F8143C21F0010110
:101C70004FF0807342F8043C42F8081C0023203ADD
:101C800002654367704700BF19420108094A0346CD
:101C9000906870B113F1160F406E05D0A0F14002AC
:101CA0009A4205D8834203D2814228BF0020704760
:101CB000002070470C04002008B5094B98600D46C1
:101CC000144600F091FA204685F30988002163B696
:101CD00081F31188BFF36F8F0022002302F09CFA7A
:101CE0000C04002001B5EFF30580A0F110004FEACD
:101CF000C0000449014409C99847BDE801400249B0
:101D000008470000B85A01080D1D0108044B9968E6
:101D10009869884203D003494FF080520A607047A7
:101D20000C04002004ED00E02DE9F843364D804618
:101D3000894636484521174602F041FBAB6ADE066C
:101D400026D53348452102F03AFB1124AB6A1D0722
:101D500004D53048452102F032FB12242A4DAB6AEB
:101D6000980717D545212C4802F029FB6E6BAB6A0A
:101D7000190645D529483246452102F020FBB9F124
:101D8000000F03D0AB6A23F08003AB62132403E09F
:101D90001024DBE76FF015061B4DAB6ADA0704D59C
:101DA0001F48452102F00BFB1424AB6A9B0604D5A7
:101DB0001C48452102F003FB1524134B9A6AD506F3
:101DC00002D49A6A90070AD55B68190507D541467F
:101DD0003046FFF75BFF10B180F3098802240A4BFD
:101DE0009A6A920642BF5A6A22F400525A629A6A6A
:101DF00042F0FF029A6200233B702046BDE8F88360
:101E00006FF01506C2E700BF00ED00E0A064010816
:101E1000BB640108F36401080B650108286501082B
:101E2000436501086765010810B5204C204845212D
:101E300002F0C5FAA36A990136D51E48452102F081
:101E4000BEFA1E20A36ADA0104D51B48452102F020
:101E5000B6FA1F20154CA36A1B0304D51748452169
:101E600002F0ADFA2120A36A590304D51448452194
:101E700002F0A5FA22200D4CA36A9A0304D511485A
:101E8000452102F09CFA2320A36ADB0304D50E4807
:101E9000452102F094FA2420044A936A6FEA03432E
:101EA0006FEA1343936210BD1D20CBE700ED00E005
:101EB0009B650108B8650108D0650108EF65010858
:101EC000126601083C6601085B66010870B5284C83
:101ED00006460D462748452102F071FAA36AD90447
:101EE0003BD52548452102F06AFA1720A36A1A0556
:101EF00004D52248452102F062FA18201C4CA36A3E
:101F00009B0511D51E48452102F059FAA26BA36A20
:101F1000180408D51B48452102F051FA1EB1A36AE6
:101F200023F40043A3621920114CA36A590504D578
:101F30001548452102F043FA1A20A36ADA050ED5A6
:101F40001248452102F03BFA1B20094A936A43F4E8
:101F50007F43936200232B7070BD1620C6E7A36AEF
:101F60009B04F2D50A48452102F029FA1C20ECE72F
:101F700000ED00E08B660108A6660108F364010825
:101F8000BC660108DA660108F466010814670108F6
:101F9000676501082DE9F0415D4B5F688AB0054631
:101FA000C7F30804002686F31188BFF36F8F02F091
:101FB0007F43B3F17F4F07D102F00C03082B14D1FC
:101FC0005448452102F0FBF9002635464FF0000841
:101FD000E31E8DF80780092B00F28780DFE803F00D
:101FE0000A7A7E7685858585858210074CBF0D46E9
:101FF0000126EBE74848464C452102F0E0F98DF810
:102000000780E36A9A0705D54448452102F0D7F9CD
:10201000002433E0E36A002B02DA41484521F5E76A
:10202000E36A5B00F4D53F48452102F0C8F96369D3
:10203000AA6943F480736361BFF34F8FBFF36F8F5F
:10204000636932F8022C23F480736361BFF34F8F0E
:10205000BFF36F8F4DF602739A4209D0A36ADBB2C9
:1020600033B30DF1070201212846FFF75DFE2FE093
:102070002A682D48452102F0A2F92C689DF8073006
:102080009BB92022294602A802F013FE099B002ECC
:1020900038D0C3F3080222B96FEA53236FEA43230F
:1020A000099302A92046FFF705FD0AB0BDE8F081BB
:1020B000A36A13F47F4F05D00DF107010120FFF74C
:1020C00005FF05E0A36AB3F5803FA1D3FFF7ACFE9F
:1020D0000446D3E70DF107020021C5E70DF1070122
:1020E0000020ECE71148452190E71149114A1248B8
:1020F00017F4F87F08BF0A46A4F11003452102F047
:102100005EF985E723F4FF7323F00103C8E700BFFE
:1021100000ED00E05F6701088F670108AB67010809
:10212000D1670108E4670108086801082968010807
:10213000316701084667010852680108024A53697D
:1021400043F010035361704700ED00E0EFF30880A7
:10215000EFF3098101B57246FFF71CFF01BD00BF17
:10216000044800231021C2180133562B82F80013B3
:10217000F9D1704700E100E0102080F31188084891
:102180004FF40461401880F30988EFF314800221B2
:10219000084380F31488BFF36F8FFFF7E3FC000060
:1021A000C0060020084B9B6883420BD1EFF30583E8
:1021B00043B1064B5A6842F080525A605A6A22F480
:1021C00000425A6201F070BD0C04002000ED00E0F6
:1021D000024B034A0348012100F07CB800000220B2
:1021E00000000020445F0108426E054B403A1A602F
:1021F000044A4021C3E901121846012100F074B8D5
:10220000F002002000000B15F8B5244E00258D4289
:102210000FDA4468002C3ED09BB104F1FF3C14EA75
:102220000C0F08D01E482A46452102F0C8F86FF06E
:1022300015021046F8BD1F2CF4D907681CEA070FD9
:10224000F0D1202C0768D0F808C05FFA82FE10D9C0
:10225000B4F1004F0FD8013CB4FA84F4C4F11F0468
:102260006400BEF1070F4CEA040C06D90D48452165
:10227000DBE70824F5E73E24F3E727F01F041443C7
:1022800044F01004C6F89820C6F89C404CF00104B5
:10229000C6F8A040013201350C30B8E700ED00E08F
:1022A0006E68010896680108044B0522C3F8942063
:1022B000BFF34F8FBFF36F8F704700BF00ED00E09B
:1022C000BFF35F8F024B0022C3F89420704700BF1A
:1022D00000ED00E010B5034C01232278FFF794FFD6
:1022E000207010BD8906002008B5094A0023127825
:1022F000FFF78AFF10F1160F03D0064B00220728C4
:1023000000DD08BDC3F89800C3F8A0200130F6E74F
:102310008906002000ED00E014490868082810B57F
:1023200021D8FFF7CDFF124C49680022904201F1FD
:102330000C0105D10F4B1870FFF7B6FF002010BD40
:10234000C4F8982051F80C3C23F01F03134343F0CA
:102350001003C4F89C3051F8043C43F00103C4F866
:10236000A0300132E2E74FF0FF30E8E7505F0108AC
:1023700000ED00E089060020014B1860704700BFA7
:10238000800000200CB410B586B009B90DF10B0027
:102390000024CDE9040109AB089A009404A905487A
:1023A0000393FEF7EDFB049B1C7006B0BDE81040E4
:1023B00002B07047E14C01082DE9F0410E4E0F4F7D
:1023C000054600244FF001082B7818191F280DDC52
:1023D000726908FA00F333EA020207D1736157F811
:1023E00030301BB107EBC002516898476B7801345D
:1023F000A342E9DABDE8F081003C0140FC02002084
:10240000044B184400230133994200F8012BFADCF5
:10241000704700BFF000002010B4064B064902468A
:102420000C6818560123934023430B6010BCFFF740
:102430006FBB00BFF0000020003C01401F2806DCFD
:10244000034901220B68824023EA02030B607047B4
:10245000003C014003292AD8DFE801F0020E141FD6
:10246000134B01229968824021EA02019960D968E0
:1024700021EA0202DA6070470D4B0122996882401E
:102480001143F3E70A4B0122D96882401143D96016
:10249000996821EA02029A607047012303FA00F06A
:1024A000034B9A6802439A60DA681043D860704719
:1024B000003C014010B5074B044653F8300028B9E2
:1024C00043F8341003EBC4035A6010BD6FF00F00E3
:1024D000FBE700BFFC020020034B002243F8302042
:1024E00003EBC0035A607047FC02002010B5224B7A
:1024F00018680B68442B144628D82F2B05D8013BAD
:10250000052B0DD96FF085001FE0A3F130010122EA
:102510008A401A490A4216D1402BF3D1400812E0F2
:10252000052BEFD801A252F823F000BF5325010874
:1025300063250108052501084525010873250108C3
:102540004725010800202060002010BDA82BFAD0EC
:10255000D8E700F09DF84FF4C073C00858438008D6
:10256000F1E700F095F84FF4C073C0085843C00875
:10257000E9E74FF4FA40E6E7E4000020110110001B
:1025800070B53F4C00F09CF800F064FDA3683D4A34
:10259000C3F30313D35C20FA03F53B48854201D211
:1025A00000F086FD236843F480232360236843F40E
:1025B00080332360324B1A689603FCD55A6F42F081
:1025C00001025A675A6F9407FCD59A6802F00C0210
:1025D000082A17D19A6822F0F0029A601A689007C8
:1025E00007D41A6842F001021A60254A1368990755
:1025F000FCD5234B9A6822F003029A609A6812F085
:102600000C0FFBD11E4C236823F08073236063689A
:1026100023F4403343F480336360636823F07063D2
:1026200043F00063636000F037F8236843F0807381
:10263000236023689B01FCD5A36823F0F003A3600B
:10264000A36823F0030343F00203A3600C4CA368C8
:1026500003F00C03082BFAD10B4EB54202D33046DF
:1026600000F026FD094B1E60A36823F4E05343F4F9
:102670008053A360A36823F46043A360002070BD6F
:1026800000380240536B010800D8B805E400002070
:102690000048704700127A00064A074953681940FB
:1026A000064B0B435360536823F4403343F48033A9
:1026B00053607047003802400080BFFF0860400050
:1026C000064B1A6C42F080521A641B6C82B003F005
:1026D00080530193019B02B0704700BF0038024055
:1026E00008B5074802F07CFF38B10648FFF744FE02
:1026F0000448FEF731FA002008BD6FF01200FBE736
:10270000705A0108092701080A2838B5074D044600
:1027100004D1AB680D215B6828469847AB68034835
:102720005B68E1B29847204638BD00BF705A010887
:1027300000487047845F010870B51C4616460023A8
:1027400022460D4602F0ADFB40B9094823462A4611
:10275000452101F034FE6FF0150070BD2CB122460A
:1027600005F10061304602F0A4FA0020F5E700BF51
:102770000969010870B5044603F0A2F80A22002393
:10278000FDF70AFE23691B68DA6810F5FA5641F175
:10279000000512F4F97F06D0DA6802F4F972DA6003
:1027A0006FF0040070BD23691B68D86810F4803096
:1027B000F8D003F085F80A220023FDF7EDFD8642EC
:1027C00075EB0101EFDA03484FF4FA52452101F0AD
:1027D000F6FDE5E738690108F8B5012305460E4620
:1027E000144602F05EFB48B923462648324645218E
:1027F00001F0E5FD6FF015042046F8BD002CFBD07C
:10280000286902F039FB2B691B681A69002A1DDB55
:1028100022463146284602F059FB2B691B681A688C
:102820005205044618D42B6928461F68FFF7A2FFFB
:10283000064610B32869043000F0B4FE2869002C65
:1028400008BF3446043000F0ADFED5E70E4A5A60AA
:1028500002F188325A60DBE71A6822F480621A605B
:102860001A6842F480521A601A6822F480521A6080
:102870001A6842F480621A60D5E73B6943F000436E
:102880003B61DBE74E69010823016745F8B51C464B
:1028900017460123224605460E4602F002FB48B9C0
:1028A00023461C483246452101F089FD6FF015048E
:1028B0002046F8BD002CFBD0286902F0DDFA2B6918
:1028C0001B681A69002A19DB23463A463146284616
:1028D00002F05FFB2B69044628461F68FFF74AFF9A
:1028E000064688B12869043000F05CFE2869002C97
:1028F00008BF3446043000F055FED9E7064A5A6056
:1029000002F188325A60DFE73B6943F000433B61E4
:10291000ECE700BF7E69010823016745024B0B60AD
:1029200003231360704700BF8C5F010838B503694B
:1029300004465860084D284602F052FE40B16168D6
:10294000AB680C311B682846984700EAE07038BD38
:102950006FF01200FBE700BF68590108F7B5174692
:10296000B7F5001F466802690C461D4624D101F0E8
:102970000302043292000F23934043EA9103DAB238
:102980003349023251F82220190C02EA134391FA1A
:10299000A1F2B2FA82F2D340B2689A4209D120463B
:1029A000FFF74CFD2046FFF797FD00212046FFF77B
:1029B00051FD002003B0F0BDB7F5800F41D025498F
:1029C0002046FFF777FD00283ED1234AB66892E8FB
:1029D00003006B4683E803002048826819461268AA
:1029E0009047C0B904F0030304339B000F229A40C0
:1029F00042EA9402D3B29B0003F1804303F59C3377
:102A0000110C986820EA124091FAA1F2B2FA82F20F
:102A1000964006439E60B5F1806F0ED0B5F1C06F51
:102A20000DD005F17E435942594149002046FFF738
:102A300011FD2046FFF7F0FCBBE70121F6E703217B
:102A4000F4E76FF08500B5E76FF00F00B2E700BF65
:102A50000038014009520108205E01086859010848
:102A60002DE9F0471E4F044600EBC1060025B44295
:102A700001D1002014E02068C30600F01F0911D422
:102A8000656845F02005C0F3471AC0F343200A28C3
:102A900023D857F82080B8F1000F0DD16FF0120045
:102AA000BDE8F087B9F1100F04D0B9F1110FEAD1E8
:102AB0006568E8E73025E6E7404602F091FD00282A
:102AC000ECD04B462A460AF00F01404602F0B3FB19
:102AD000002804F10804CADAE2E76FF01500DFE726
:102AE000686001084268116801F1140353E8003F6F
:102AF00043F0010301F1140C4CE800300028F3D13D
:102B000013680E498B4207D0A1F54C418B4203D08C
:102B100001F550418B4203D1196941F0400119611F
:102B2000126802F10C0353E8003F43F4807302F192
:102B30000C0040E800310029F3D17047001001403B
:102B40004268116801F1140353E8003F23F00103C8
:102B500001F1140C4CE800300028F3D113680E4941
:102B60008B4207D0A1F54C418B4203D001F5504177
:102B70008B4203D1196921F040011961126802F1F9
:102B80000C0353E8003F23F4807302F10C0040E88B
:102B900000310029F3D170470010014037B50369B7
:102BA000446858688368DB680D4661682BB9134830
:102BB000452101F004FC03B030BD01AA984700286C
:102BC000F5DB22680198D368192123F40043D36010
:102BD000A0FB0101AA00AB0FFDF7DEFB6422B0FBF6
:102BE000F2F102FB11031B0124683233B3FBF2F351
:102BF00003EB01139BB2A360DDE700BF556A010838
:102C0000F7B50669446805464248706002F0E8FC82
:102C100030B94148452101F0D2FB6FF012000BE0C2
:102C20007068616883681B689847074630B13B4805
:102C3000452101F0C4FB384603B0F0BD014601AAAE
:102C4000A06902F010FB0028F6DB019B3A461979D7
:102C50001868FFF705FF0028EEDB2268D36823F42D
:102C60000053D360B06802F0BBFC10B92C4845217A
:102C7000D1E7D6E902018368DB6803B1984722688F
:102C800002F10C0353E8003F43F00C0302F10C0186
:102C900041E80037002FF3D12269022A30D0012AFF
:102CA00033D042BB00222168CB683A4323F4B053AF
:102CB0001343CB600B6923F440530B61237B2BB18F
:102CC0006B681A68536943F440735361316828464E
:102CD000FFF764FF237D23B12268536943F00803A3
:102CE00053612268D36843F40053D3602846E369F4
:102CF00098470020A0E70B48572101F060FBD1E77F
:102D00004FF480524FF48067CDE74FF480524FF478
:102D1000C067C8E768590108886A0108AC6A0108F9
:102D2000D16A0108F16A01082DE9F0410B79456883
:102D30000669012B0C467DD09A1E57425741BF02AF
:102D4000627994F80680022A96BF4C494FF4005CE1
:102D500031F812C0B8F1040F7BD094F807E0002BD3
:102D60006BD1BEF1010F22F002027FD0002A70D099
:102D7000B8F1020F6DD91946D5F80080BEF1000FE9
:102D80000DD03F4A904507D0A2F54C42904503D064
:102D900002F5504290455CD1BEF1010F59D1D8F8EF
:102DA0000C2022F40052C8F80C204268D2F800E04F
:102DB000DEF80C2002F4C06297421FBFDEF80C2040
:102DC00022F4C0623A43CEF80C20426817683A6990
:102DD00002F4405294451FBF3A6922F4405242EA3D
:102DE0000C023A6142681768FA6802F480529A420B
:102DF0001FBFFA6822F480521343FB6043681A68CD
:102E0000536903F4407399421FBF536923F440731D
:102E10000B43536121683368994203D0FFF7BEFE2C
:102E2000236833602A68D36843F40053D3600020DA
:102E3000BDE8F0814FF4C06782E7033BBEF1010FAC
:102E4000DBB209D1012B04D94FF4407112F0FD0F10
:102E500006D16FF08500EBE7012BFAD90021F5E7E9
:102E6000B8F1020FF5D94FF4805385E7002AF0D06E
:102E7000B8F1020FEDD94FF440717DE7B46101085C
:102E80000010014010B54FF0E0239A691969986964
:102E9000094B11F4803F094901D1824206D21A68D8
:102EA0000C6822441A604FF0E02212691B680A681D
:102EB0001344181A10BD00BFFC03002008040020B2
:102EC000094B102283F82320084B42F27F521A60EC
:102ED000074B002018604FF0E0235A6198611A698F
:102EE00042F007021A61704700ED00E0080400207C
:102EF000FC03002008B5FFF7C5FF0C4B0C4A18680F
:102F000011680844106000221A600A4A13684FF4DE
:102F10001651C01AB0FBF1F001FB0033136001F051
:102F20001BF8BDE80840FEF7F1BE00BFFC0300201F
:102F300004040020000400202DE9F041314E002956
:102F400054D0421C0AD14FF0E022136923F0010350
:102F500013614FF07F433360BDE8F081356801288D
:102F60004ADD40F2D268404501DC00F1FF384FF005
:102F70001003EFF3118483F31288BFF36F8FFFF711
:102F800081FF214F4FF0E0230021D3F818C03B68A8
:102F9000C2181E4B19601E4B1B68D11A2FD44FF458
:102FA000165000FB081101F515519B1A3F31B1FB7A
:102FB000F0F100FB0133B3F5806F20D915498B4246
:102FC00028BF0B464FF0E02133608869013B4B611D
:102FD00000238B618445ACEB000338BF5B191A44B6
:102FE0003A6084F31188BFF36F8FB5E7431C3568EF
:102FF000B5D140F2D260B8E74FF00008B7E74FF420
:103000008063DFE70804002004040020FC030020A4
:103010000004002000C3FF0010B54FF01003EFF3D1
:10302000118483F31288BFF36F8FFFF72BFF074BD9
:10303000074A1B6812689B1A034484F31188BFF384
:103040006F8F4FF41650B3FBF0F010BD0404002056
:103050000004002008B513498B6803F00C03042B0F
:103060001CD0082B1CD14A684B68496813F48003B4
:1030700014BF0D480D48C1F3881118BF002302F09A
:103080003F02A1FB0001FDF787F9064B5B68C3F324
:10309000014301335B00B0FBF3F008BD0248FCE7DD
:1030A0000248FAE70038024000127A000024F400D7
:1030B000002876D03C4B1A6802F44042B2F5404FEB
:1030C00020D13A4A904215D8394A904207D91A6815
:1030D00002F44042B2F5004F5CD102201FE0354AB5
:1030E00090421A6802F4404247D9B2F5004F4CD1E1
:1030F000012014E01A6802F44042B2F5004F3FD1BB
:1031000003200CE01A6802F44042B2F5004F22D1CD
:10311000274A90423ED8274A90422ED90020224B7F
:103120001B68012838BF012003F44043B3F5804FEA
:103130001FD0214A136823F0070303431360136869
:1031400003F0070398421CBF136803F00703C01A7B
:1031500018BF012070471B6803F44043B3F5804F4C
:103160000CD1134B98421AD8124B98424FF00000E2
:10317000DFD9012838BF0120DBE71B680020D8E732
:103180001B68032003F44043D0E71B68012003F4CD
:103190004043CBE71B68022003F44043C6E702200C
:1031A000C7E70120704700BF00700040804A5D05FE
:1031B0000090D00380C3C901003C0240014B9868D5
:1031C000603070470C04002010B5452104460348C8
:1031D00001F0F5F8204602F00EFA00BF636B01081B
:1031E000F7B505460E464FF01003EFF3118783F352
:1031F0001288BFF36F8F00F051FD042D96BF184B5E
:10320000184B53F8253000220446009216482A46EF
:10321000452101F0D4F83EB1F369C3F308031BB1B3
:103220001248452101F0CBF834B1204602F0F9F9FB
:10323000034608B1027802B90D4B0E4822464521DB
:1032400001F0BDF831462846FFF7BEFF87F311882D
:10325000BFF36F8F204603B0BDE8F040FEF7A2BF7A
:1032600088610108776B01088D6B0108BA6B010852
:10327000856B0108E06B01080F4B70B553F82040D7
:10328000013053F82060A64200D870BDD4E9003563
:10329000284698476DB138B10028B8BF4042EB6866
:1032A000FF28A8BFFF201870EA68537843F0010395
:1032B00053700834E7E700BF9C61010808B50A4B6A
:1032C000012203201A70FFF7D7FF02F0FBFA042057
:1032D000FFF7D2FF00F01AF9FDF7B0FA034A137BAB
:1032E00023F00103137308BD8A060020A00100200B
:1032F00008B50348034A0021121A02F085F908BDF7
:10330000200100208C06002070B5002386B0012229
:10331000CDE90423134E144D01930F22CDE902325F
:103320001249182303FB005506EBC01604464FF460
:10333000C07000FB04110E4B00954FF4A072304694
:1033400000F086F8737B0B4AEE6023F0040373737E
:103350004FF4046304FB033313442C756B6006B015
:1033600070BD00BF200100200C040020000F0020D1
:103370002B560108C006002080B50020A6B0FFF73C
:103380007BFF2C4B83F308882B4D2C4E6B692C4F05
:1033900043F400736B610024F02385F82230EC774E
:1033A0002C766C76AC7685F820406B6A43F4E0238B
:1033B0006B62FEF7C3FEFEF769FB4FF0FF33AB62B3
:1033C000EB62FEF7A9FFFEF703FF40F20113ADF831
:1033D000243006ABB360CDE91F44229402F0FFF81D
:1033E0000120FFF749FF0220164DFFF745FF00F0CF
:1033F0000BFC154BB5610593012314490094CDE9ED
:1034000003434FF480623B46CDE90144284600F077
:103410001FF86A7B064622F0040228466A7302F00F
:10342000B8F92046FFF770FF3A4631462846FEF7C6
:1034300043FC00BF000F002000ED00E00C04002062
:10344000BD320108A0010020476C01088010002057
:103450002DE9FF410E9E0673042646730D9E86736A
:1034600000F158050F46D61DC0E916550C9A0025E7
:1034700026F007064037C0E90655C0E91976856091
:10348000C573C56606F1400802920B9A0192884402
:103490000A9A009242460446FEF7DCFB044B65653F
:1034A0009B6803B11B6F2367404604B0BDE8F08101
:1034B0000C040020F0B587B000250595109D0495FB
:1034C0000F9D03950E9D0295DDE912760D9D0195E8
:1034D0000C9D00950446FFF7BBFFB6F1FF3F08BF08
:1034E000B7F1FF3F05D056EA070305D1204600F0AB
:1034F0003DFB204607B0F0BD03493A46334604F190
:10350000180000F0ABFCF4E7FF560108F0B5224CC0
:10351000224D87B02646AE4204F12C040BD300F0B6
:1035200043FB1D4C1E4F0A26AC4220D307B0BDE81A
:10353000F04000F04DBB54F8043C059354F80C3CAB
:10354000049354F8103C039354F8143C029354F839
:10355000183C019354F81C3C009354E9092354E9A6
:103560000B01FFF775FF54F82C3C5E65D2E7626AE9
:10357000531C09D022EAE27282FB062352EA0301BD
:10358000206803D100F0F2FA2C34CDE73946183028
:1035900000F064FCF8E700BF685D0108685D0108A1
:1035A000FF56010838B504464FF01003EFF31185BC
:1035B00083F31288BFF36F8F02F0FBF848B100224B
:1035C000826702F0E6F829460548BDE8384000F079
:1035D000BBBAD4E902329A4218BF0133A360F2E7C2
:1035E0008B06002013B54FF01004EFF3118184F324
:1035F0001288BFF36F8F846844B1013C846081F30B
:103600001188BFF36F8F002002B010BD52EA03048F
:1036100006D181F31188BFF36F8F6FF00F00F3E7CE
:10362000CDE900230246024800F070FAECE700BF43
:103630008B0600202DE9F04F4A4E85B004464FF02E
:10364000FF384FF0FF394FF01003EFF3118783F38A
:103650001288BFF36F8FD4F880508DB9022104F126
:10366000980001F0FAFF002843D10023CDE900893A
:10367000029304F1880239463B4800F075FBE2E70B
:10368000D4F884202B68C4F88030954208BFC4F871
:103690008430D4F8983043F00203C4F89830EB68D3
:1036A00023F0040343F00103EB606B6887F3118898
:1036B000BFF36F8F284698474FF01003EFF3118B3D
:1036C00083F31288BFF36F8FEB68990723F0010231
:1036D00019D4EA60D4F8983023F00203C4F8983083
:1036E0008BF31188BFF36F8FDB05ACD400F098FA31
:1036F000A9E704F1900500220121284602F08BF889
:103700000028F8D1B1E7306823F00303EB6000280C
:10371000E0D00027D0F800A03B460028DAD042686D
:10372000954201460CD101689FB9726831608242AE
:1037300000D1716040F8083BFFF734FF39460023A1
:10374000BAF1000F0BD0DAF8002050460F4692462F
:10375000E3E739607268824208BF7760EAE7524661
:10376000F3E700BF300400208B060020F8B5C368E3
:103770009A0704460F46C3F340062CD45B071AD4BD
:103780000B680BB983680B60E368DD0744BFA3686F
:103790003B603D684CBF02260126002D3AD01F4BEE
:1037A0009B68AB420AD0D5F89830D807C3F38002A3
:1037B00014D46FF0120600233B6025E001F028FFCF
:1037C000D5F898300028F0D1D907C3F3C002F0D55E
:1037D00052B15B0708D46FF00F06ECE7002AFAD16C
:1037E000C3F3C003002BF6D100232360D5F8843047
:1037F00063B9C5E92044284601F03AFFE36843F085
:103800000403E3603B68A3603046F8BD1C60C5F864
:103810008440F0E76FF01506CDE700BF0C040020F0
:103820000146014801F048BF28020020F0B589B0E8
:1038300004460020C4E920000E9D04F18800C4E97C
:10384000220004F19000C4E924001DB32879002867
:1038500040F2011008BF0120C4F8980000204FF08A
:10386000FF364FF0FF37CDE90330CDE90100CDE958
:103870000667094B00942046FFF71CFE25B1296816
:1038800011B1204601F0CAFE204609B0BDE8F04063
:1038900001F0C9BE0120DFE73536010838B5074D14
:1038A0002C6854B1FFF7B8FB054B04441C61286831
:1038B0000021BDE8384001F0E7BF38BD40040020DA
:1038C0000C04002038B50D4D2B4653F81C4F9C427C
:1038D00000D004B9EC68AB6838B95A7BD20604D181
:1038E000A26912B9DA897F2A05D89C4202D0204603
:1038F000FFF7D4FF2346AB6138BD00BF0C040020A6
:1039000070B590F90D20437B002A014604DA03F0DC
:103910007F03437301F0E1FE4B7B154A63F07F03A5
:1039200010464B7350F81C3F146A834208BF0023B3
:1039300023B9C1E90004216011620CE091F90E5035
:1039400093F90E60B5420ED0AE420CDD5868C1E965
:103950000030016059609068431A5842BDE87040D9
:103960005841FFF7AFBF9C42E3D01B68E0E700BFC0
:103970000C04002070B490F90D30427B002B29DB41
:10398000D30627D183692BBB134962F07F024273B0
:103990000A4652F81C4F944218BF23460C6A23B9BA
:1039A000C0E90024206008620CE090F90E5093F901
:1039B0000E60B5420AD0AE4208DD5A68C0E9003256
:1039C0001060586070BC0020FFF77CBFA342E7D0B6
:1039D0001B68E4E770BC70470C04002008B590F940
:1039E0000D20437B002A014604DA03F07F03437372
:1039F00001F073FE044B9868431A58425841BDE8E1
:103A00000840FFF75FBF00BF0C04002070B51546EB
:103A10001C46064601F095FEB4F1FF3F08BFB5F124
:103A2000FF3F08D02A46234606F118000249BDE8A8
:103A3000704000F013BA70BDFF56010810B54FF08A
:103A40001003EFF3118483F31288BFF36F8F0A23FF
:103A5000002800FB03F302DD022BB8BF0223074A54
:103A60000020106106480360064B90681960FFF75C
:103A700015FF84F31188BFF36F8F10BD0C04002075
:103A8000400400203C04002038B54FF01003EFF351
:103A9000118583F31288BFF36F8F174B174A9C6809
:103AA00011688C4207D12046FFF7F8FE85F3118894
:103AB000BFF36F8F38BD00211160114A1268C2B187
:103AC000E2897F2A15D8627BD20612D10D4A94F979
:103AD0000E10126891420CDB0B4A944209D01A690D
:103AE000824203DC2046FFF70BFFDCE7121A1A6163
:103AF000DCE70022FBE700BF0C04002038040020B4
:103B0000400400203C0400202001002070B50C4837
:103B10000C4D86682E600C461146DDE904234FF0FB
:103B20001006EFF3118586F31288BFF36F8F80685C
:103B3000FFF76CFF2046BDE87040FEF737B800BFC6
:103B40000C0400203804002049B9EFF3058030B997
:103B5000054B9A699B689A4201D0FEF727B881F31A
:103B60001188BFF36F8F70470C04002010B54FF021
:103B70001002EFF3118482F31288BFF36F8F427B40
:103B8000510704D484F31188BFF36F8F10BD22F066
:103B900004024273FFF7EEFE21460248BDE81040E2
:103BA000FFF7D2BF8B0600204FF01003EFF3118117
:103BB00083F31288BFF36F8F044B9A68D37B013B6A
:103BC000D37381F31188BFF36F8F70470C0400200B
:103BD00010B54FF01003EFF3118483F31288BFF395
:103BE0006F8F084B9A68D37B0133D3730020FFF7A4
:103BF00069FE84F31188BFF36F8FBDE8104001F0B8
:103C000000BE00BF0C040020044B002103F11C0285
:103C1000C3E907220846FFF711BF00BF0C040020CC
:103C2000F8B54FF01003EFF3118583F31288BFF35B
:103C30006F8F19498868437B03F07F03437301F05A
:103C40004CFD8B685A7B084662F07F025A7350F82D
:103C50001C2F0C6A824208BF002222B9C3E900046B
:103C600023600B620CE093F90E6092F90E70BE4275
:103C70000ED0B7420CDD5168C3E900210B605360E0
:103C80000120FFF71FFE2846BDE8F840FDF78EBF74
:103C9000A242E3D01268E0E70C040020014B9868D0
:103CA000704700BF0C0400202DE9F04104464FF09E
:103CB0001003EFF3118683F31288BFF36F8F037B3A
:103CC000D9070BD586F31188BFF36F8F404080F37F
:103CD00011884FF0040002DFBDE8F081437B1A0732
:103CE00004D586F31188BFF36F8FF5E723F0200228
:103CF00042F00801D20920D14173A36813B12046D4
:103D000001F0F3FC04F1180001F0A8FD04F15807DC
:103D10004FF00008A56DBD4200D0B5B90120FFF7F6
:103D2000D1FD104B9B68A342DBD1EFF30583002B41
:103D3000D7D13046FDF73AFFD3E703F05F0343F0F6
:103D40000803437301F0C9FCD7E7284601F0CDFC16
:103D500005F1180001F082FDC5F878802846FFF7CC
:103D600009FED7E70C040020D3B5DDE90667089CFF
:103D7000CDE90067FFF7CAFE1CB1034B9B685B6986
:103D8000236002B0D0BD00BF0C04002008B5064877
:103D9000064A0749121A01F039FCBDE80840054AF5
:103DA0000549064801F032BC000000201C0100203B
:103DB000586C010800000000586C01080000002049
:103DC000034B1B680BB9FFF727B90020704700BFF2
:103DD0004404002010B5114B1C689C420AD1FFF727
:103DE000EFFF6FF000400E4B1B6913B19842A8BF64
:103DF000184610BDFFF7E4FF002CF2D0D4E90432DE
:103E00001B1A62EBE072B3F1004F72F10001E8DAC5
:103E1000002AACBF18460020E5E700BFE8000020FC
:103E20000C04002030B570B10B4B5B6898420AD08F
:103E3000036843B1D3E90421D0E90445121941EBE9
:103E40000501C3E90421D0E9003213605A60002360
:103E5000C0E9003330BD00BFE8000020B3F1FF3FF0
:103E600008BFB2F1FF3FF8B504461D46164661D0C3
:103E700081604FF01003EFF3118783F31288BFF3D3
:103E80006F8F013275F1FF3324DA3049D1E9002018
:103E90006FF001039B1A4FF0FF3262EB00009E1B94
:103EA00060EB0500012E70F1000301DA012600200D
:103EB000C4E90460264ED6F800C07568B44508BF52
:103EC0004FF0000CBCF1000F0DD1C4E900652C606F
:103ED00074601CE0FFF774FF013645F100053618E9
:103EE00045EBE070E4E7DCE90420D4E904319342D7
:103EF00071EB000E1FDAD21ADCF8043060EB01001F
:103F0000CCE90420C4E900C31C60CCF80440336849
:103F1000B3420BD09C4209D1FFF75CFF18B10D4BA7
:103F20001B69834202D00021FFF706F887F311884E
:103F3000BFF36F8FF8BD9B1A61EB0001AC45C4E97C
:103F40000431C2D0DCF800C0BCE700BF2002002072
:103F5000E80000200C0400202DE9F84F0446FFF78C
:103F600093FD4FF01003EFF3118C83F31288BFF32E
:103F70006F8FDFF8B0A0DFF8B090DAF800002B4FB9
:103F8000C9F80040504508BF002000240025D7E9AB
:103F90000021D9F80030E04680B3D0E9046C4FEA44
:103FA000E37EB3427EEB0C0B05DAF61A6CEB0E04E3
:103FB000C0E9046422E0B21841EBE671C0E90445AF
:103FC000C7E90021FFF72EFF88F31188BFF36F8F39
:103FD000836898474FF01003EFF3118883F312883A
:103FE000BFF36F8FD9F80030DAF800009B1B504503
:103FF000C446C9F80030CAD1D7E900219A1841EB6C
:10400000E3730024C7E90023C9F80040FFF7E2FE8C
:104010002146FEF791FF88F31188BFF36F8FBDE84B
:10402000F88F00BFE8000020440400202002002098
:1040300010B54FF01003EFF3118483F31288BFF330
:104040006F8FFFF7BDFE064A0346D2E9000118183C
:1040500041EBE37184F31188BFF36F8F10BD00BF94
:10406000200200201FB5094B029302AB00240093ED
:10407000074908488DF80C404FF0FF334FF4805249
:10408000FFF7D4FB204604B010BD00BF4F6C010801
:10409000C014002028020020704710B4D0E90004AA
:1040A000214484682468A44610BC604700207047FF
:1040B000406800F100607047806870472DE9F0416A
:1040C000044640680D4601441F46C1F310032068B2
:1040D000164653B1D4E90001294483685C6832462E
:1040E0003B46A446BDE8F041604783684FF4003288
:1040F0009B6898470028EDD0BDE8F08183680BB13C
:10410000C0681847704710B50D210446FFF7F6FF49
:1041100020460A21BDE81040FFF7F0BF38B505463C
:104120004C1E14F8011F01B938BD0A29284601D0D8
:104130000D2902D1FFF7E7FFF3E7FFF7DFFFF0E715
:10414000C0E90212704710B50446FFF7E7FF2046AA
:10415000BDE81040FFF7D7BF83689B6903B11847DC
:104160006FF05700704737B5044650F8040C01A9AA
:10417000C26900F0ECF8236905461BB102460199BB
:104180006069984754F8040C294600F000F903B020
:1041900030BD2DE9F34104460D4683685B6C03B1E5
:1041A0009847A3685B6BC3B94FF00008686801A922
:1041B000C26900F098F80746B0B10199024620465E
:1041C000FFF7CAFF06460146686800F0ABF8AEB9D3
:1041D00005F10800FFF724FB03E02046984700287C
:1041E000E2D102B0BDE8F08101220DF103012046C9
:1041F000FFF7B2FFB8F1000FF3D0E9E7B7424FF095
:104200000108D3D0E4E7C0E906127047006883686C
:104210005B68184700207047044608B508461146F9
:104220001A46A047FFF73AFDFDF7BCFF2DE9F84F0E
:104230009A46D3786F2B80460F461546A3F1410B63
:1042400029D024D8582B0CBF10260A26DDF8289038
:104250003246002340463946FCF79EF8092AD4B27C
:104260001ED83034B045E4B277F1000709F8014DAB
:1042700001D3D14511D82B789B0605D5082E15D131
:10428000AB7843F00803AB704846BDE8F88F03F005
:10429000F703702BD7E70826D8E780460F46D7E705
:1042A000BBF1190F94BF37345734DBE7102EEBD135
:1042B000AB7843F01003E6E72DE9F0410746884666
:1042C00015461E461446B44205D30EB1601B08E0E5
:1042D0002378002BFAD014F8010B4146B847002888
:1042E000F1DABDE8F081F0B5C6684568C369AF1B77
:1042F00004464069BB4298BFFF1AA5EB00009446F4
:1043000098BFF6181A1AD81B2368AD1B62452B44B8
:1043100028BF62460B606368904228BF1046034482
:104320006360F0BDD0E90123D21A8A420CD319444C
:10433000C368C269C0E90111C91A8A4201D90020C3
:1043400070471344C360FAE76FF015007047F0B58B
:10435000044686690569C069A368AF1BB8429446E4
:1043600098BF3618A3EB05022368A5EB060598BF96
:104370003F1A2B446245A0EB070028BF62460B6042
:104380002369904228BF104603442361F0BDD0E961
:104390000423D21A8A420CD31944D0E90632C0E968
:1043A0000411C91A8A4201D900207047134483615D
:1043B000FAE76FF0150070477047002070470FB4A0
:1043C00007B504A951F8040B0191FCF7CBFB03B02E
:1043D0005DF804EB04B07047437802781B0403EBEC
:1043E0000263428898184B780A781B0403EB026337
:1043F0004A88134483420BD84B790A791B0403EB98
:104400000263CA88134498428CBF00200120704781
:104410000020704700231A468B4200D17047C254D7
:104420000133F9E7202070472C20704713B52C2466
:10443000009400F055FB02B010BD00F0D7BA00F0B8
:10444000D7BA00F01BBB30B589B00446684600F00F
:1044500017FB621E6B461F34002012F8015F13F831
:10446000011BA24281EA050140EA0100F5D109B031
:1044700030BD4020704700F07FBA01F1200200F00B
:104480007DBA00F095BA80EA102080EA101046F656
:10449000961300F00F0043FA00F000F0010070479F
:1044A0002DE9F0411D4643685C688C4280460E460B
:1044B00017460BD9641AAC4228BF2C460068234625
:1044C00000F08EF860B92D1B26442744D8F804303C
:1044D0005A68B31A921B1D441744AB4202D1002004
:1044E000BDE8F081D8F804209168994282BF126833
:1044F000D25CFA540133F0E7006800F0AAB8006813
:1045000000F0AAB82DE9F7430446884617461E4630
:104510001FFA83F90025042320680DEB03022946C6
:1045200000F05EF8B0B9BDF804201046FFF7ABFF0D
:1045300080B19045BDF8063001D1994501D01D44A8
:10454000E9E7206833463A46294603B0BDE8F04320
:1045500000F046B86FF0010003B0BDE8F08330B55D
:104560008DB00D462C2301AA4FF40041FFF7CAFF7E
:10457000044620B9042202A9284600F09AFB2046EE
:104580000DB030BD70B504464068154628B3D0E97B
:10459000012002448A4220D1EE18AE4201D100200F
:1045A00070BD636815F8011B1A689B68D154626876
:1045B0009368013393606368D3E902239A42ECD194
:1045C0002046FDF789F80028EAD16368986063689F
:1045D0005A68D9680A445A60DFE76FF01500DFE7D0
:1045E0002DE9F04101EB030804461E4643690068CB
:1045F0000D4617469847804509D8D4F804E020684E
:1046000033463A462946F446BDE8F04160476FF02C
:104610000400BDE8F0812DE9F04101EB03080446F8
:104620001E46436900680D4617469847804509D8DD
:10463000D4F808E0206833463A462946F446BDE8F7
:10464000F04160476FF00400BDE8F081C368006886
:10465000184743690068184703690068184770B530
:1046600006680369054630460C4698476B69241A6C
:104670003046984784422CBF0020012070BD00685E
:1046800070472DE9F04FC1B08B464A9B08934B9B76
:1046900009930292DDE9083213430B9000F0508138
:1046A0000146402220A800F004FB089B0393099BCD
:1046B000079300230E93039B402B079B73F100038A
:1046C00014D24022002130A800F0FEFA029B039988
:1046D00030AA591813F8010B02F8010B9942F9D1CD
:1046E000CDF838B00DF1C00BCDF808B0402220A9AC
:1046F0000DEB020000F0DDFA1A9A0492179A069266
:104700001F9A0A921B9A0592DDF840C0149BDDF8AF
:1047100070A0DDF860E0119F1598DDF87490199C89
:10472000129E1699DDF87880139D0A2201929C440E
:104730008CEA0A0A0EEB3A4E07448EEA030387EA34
:10474000090904EB39440CEB335C8CEA3A4A6040CB
:104750000EEB3A6207EB305787EA394982EA335366
:104760000F9304EB396383EA30500E440D93049B9E
:104770000C9286EA080803EB3844069B069A1D440F
:104780000A9B85EA030E059B03EB3E4361405A40BA
:1047900006EB315605EB325586EA384885EA3E4E3F
:1047A0000CEB706C03EB3E6304EB38648CEA3E6EFA
:1047B00084EA315104EB3E4484EA70600CEB305CD7
:1047C0008CEA3E4E059383EA32524FEA3E630A93E7
:1047D00004EB3E6307EB716783EA30500493059B5B
:1047E00087EA3A6A03EB3A4383EA716107EB315790
:1047F00087EA3A4403EB346306EB72664FEA346AA5
:104800000C9C059383EA315186EA396304EB334EFD
:104810008EEA726206EB325686EA33430EEB336E53
:104820008EEA32524FEA33694FEA726306930F9B66
:104830000F9A05EB73650D9B85EA386403EB3443EF
:104840000C9383EA726305EB33550C9A85EA344482
:104850004FEA346802EB3464019A84EA3353013A34
:104860004FEA70604FEA71614FEA736301927FF41F
:104870005EAF0A9A1F92049A1A92059A1B92069AA0
:104880001792029A169110A9129613951994CDF8C1
:1048900040C015901197CDF870A0CDF87490CDF868
:1048A00060E0CDF87880149320AD02F140060C460C
:1048B000236855F8040B03441046FFF7E0FE04326A
:1048C0004340964244F8043BF2D12C9801302C909E
:1048D00010B92D9B01332D935B460BF1400451F829
:1048E000042B1A70150A5D70150C120E9D70DA708B
:1048F00004339C42F3D1039B412B079B73F10003CC
:104900002DD2089B099A013B42F1FF329B0943EAF1
:10491000826394096FF03F015A4201FB0422A3FB1A
:1049200001310A4408995B18099942EB0102A3F18D
:104930004001114307D10B9B0B9A18632D9B5363C6
:1049400041B0BDE8F08F019A019C0E991BF802203E
:104950000A55224601329A420192F4D3EBE7039BB7
:10496000403B0393079B63F100030793029B403393
:104970000BF1400B02939EE64020704737B5154679
:10498000044698B10193FCF717FF01A8FFF777FEE3
:1049900020632846FFF773FE6063281DFFF76FFE54
:1049A000A06305F10800FFF76AFEE06303B030BDC5
:1049B000F7B507460D4616461C467BB172B179B96C
:1049C00000F082F9CDE900653A4639462046FFF706
:1049D00058FE002323706370A370E37003B0F0BD32
:1049E0000023009201930A460146EFE7A820704792
:1049F000402A2DE9F04105460E46144600F16807AD
:104A000000F167080AD84246081981421BD011F804
:104A1000013B83F0360302F8013FF6E7FCF708FF9D
:104A200022463146FCF72EFF01463846FCF7DEFFF2
:104A3000434605F1870113F8012F82F036028B42BD
:104A40001A70F8D1202467342C4405F1A7063623C8
:104A5000B44210D12846FCF7EBFE40223946FCF761
:104A600011FF434613F8012F82F06A02B3421A7015
:104A7000F8D1BDE8F08104F8013FE9E7FCF702BF97
:104A800038B50C460546FCF7B1FF2046FCF7D0FED2
:104A9000402204F16801FCF7F5FE20222946FCF7CC
:104AA000F1FE21462846FCF7A1FF00231A46E254F6
:104AB0000133A82BFBD138BD30B5ABB01D46044641
:104AC0006846FFF795FF68462E9A2946FCF7DAFEFE
:104AD00001462046FFF7D4FF2BB030BDFFF7ECBFF7
:104AE0002DE9F047B4B09A463C9D0023074688461E
:104AF00091468DF8073002AE202241460AA8FFF702
:104B000077FF9DF8074024B1202231460AA8FCF720
:104B1000B9FE01340AA852464946E4B28DF807406E
:104B2000FCF7B0FE0DF107010122FCF7ABFE0146D8
:104B30003046FFF7A5FF6DB1013C324607EB441448
:104B40000023013312F8011B04F8011B202B0AD0AB
:104B5000AB42F6D100231A46F2540133202BFBD18D
:104B600034B0BDE8F087202DF4D9203DC4E70146DC
:104B70000068FCF79FBF00210120FCF79BBF08B530
:104B8000FCF7ECFFBDE80840FDF7C0B82DE9F041A7
:104B900084460F460446214614F8013B202BFAD0E8
:104BA000A3F109000428F6D92D2B25D14B788C1CB4
:104BB0004FF0010E3ABB302B32D00A224FF0FF31BA
:104BC0000025B1FBF2F102FB01F86FEA0808284664
:104BD000A3F13006092E2AD833469A4237DD6E1CDF
:104BE00007D0884230D801D143452DDC00FB02308C
:104BF000012514F8013BEBE72B2B04BF4B788C1CF1
:104C00004FF0000ED6E7102AD8D1302BD6D121781C
:104C100001F0DF015829D1D1637810220234CDE7A9
:104C2000227802F0DF02582AF6D00822C6E743F0C5
:104C30002006613E192E0AD8A3F141061A2E34BF70
:104C4000372657269B1BC8E74FF0FF35D1E76B1C73
:104C500007D1FEF7B3FA22230360284647B9BDE81F
:104C6000F081BEF1000F00D04042002FF7D00DB10F
:104C700004F1FF3CC7F800C0F1E7034600201A5CCE
:104C800002B970470130FAE7034600201A5C0AB106
:104C9000884200D170470130F8E7431E013913F80C
:104CA000012F11F8010F824201D1002AF7D1101A09
:104CB000704710B5431E0A44914200D110BD11F84F
:104CC000014B03F8014FF7E7C9B202440346934290
:104CD00000D1704703F8011BF9E74FF0FF30704730
:104CE0004B68012B07DD0B6818700B6801330B60F4
:104CF0004B68013B4B600020704708B5062201213C
:104D00000020FDF77DFB002211460620FCF70EFF78
:104D1000012108460722FDF773FB002211460720F8
:104D2000FCF704FF082201210220FDF769FB0022A5
:104D300011460820FCF7FAFE092201210320FDF7A5
:104D40005FFB002211460920FCF7F0FE0A22012138
:104D50000420FDF755FB002211460A20FCF7E6FE71
:104D6000052108461722FDF74BFB002211461720AC
:104D7000FCF7DCFE282206210A20FDF741FB002279
:104D800011462820FCF7D2FE002008BD0B68A3F1D5
:104D90003002782A9FBF03F1804303F50E33496840
:104DA0001A689DBF0A4300201A606FF085007047A3
:104DB0000B68A3F13002782A9FBF03F1804303F50B
:104DC0000E3349681A689DBF8A4300201A606FF04D
:104DD000850070470B68022B03D82BB96FF0850054
:104DE0007047053B012BF9D84A68FF2A0DD0D3B292
:104DF00003F1804303F50E33C2F302411868C2F396
:104E0000042201FA02F202431A6000207047F7B54B
:104E10001C461646002382682360A36013690D4672
:104E200001AA69469847019B5A1E01921BB96FF06F
:104E3000150003B0F0BD0098A2684768216867605C
:104E400085B9B31AD0F800C0634528BF63461A4439
:104E500003FB07112160A26002689A4206D808305D
:104E60000090E0E76B1AB3FBF7F3EBE70020E0E715
:104E700013460022FFF7CBBF4FF0FF324FF0FF3356
:104E80000430FEF7AFBB0020704708B5006904305E
:104E90000122114600F0D5FBFFF7F5FF00EAE070B4
:104EA00008BD7FB505460E46144601AAFFF7E0FF90
:104EB00050B9013C01AAA1192846FFF7D9FFB0FA61
:104EC00080F0400904B070BD0020FBE7F0B5054656
:104ED00085B00F46144601AAFFF7CAFF50B9039EDA
:104EE000013C01AAE1192846FFF7C2FF10B9039F50
:104EF000BE4201D905B0F0BD2B691C682369002BA7
:104F000044DB2846FDF736FC0028F3DB23685A050E
:104F10000FD5236823F480632360236843F4805310
:104F20002360236823F480532360236843F4806361
:104F3000236023689B050FD5236823F40073236047
:104F4000236843F400632360236823F40063236031
:104F5000236843F400732360236923F0F80323617B
:104F6000236943EAC60343F002032361236943F440
:104F70008033236128462369FDF7FCFB2369002861
:104F800023F0FA032361B5DB0136B1E76FF00400CB
:104F9000B0E72DE9F843064601F10067154602EB3C
:104FA00003080020A84521D0336915F8019B1C682F
:104FB0002369002B1CDB3046FDF7DCFB002815DBEA
:104FC000236923F44073236123692361236943F038
:104FD00001032361236907F8019B3046FDF7CAFBF3
:104FE0002369002823F001032361DBDABDE8F8839D
:104FF0006FF00400FAE743685B681B690B600020F0
:10500000704743685B68586942400A4042405A61B1
:105010000020704743685B680020996170474368CF
:105020005B68090499610020704743685A685369B6
:105030004B4053610020704710B503699868F8B180
:10504000884219D1DC6808689860A14200D1D86014
:10505000002008602AB19A680A60DA68996002B98B
:10506000D960002010E0814206D108682060D8682D
:105070008142EDD1DC60EBE7044600680028F2D104
:10508000002AE8D16FF0150010BDF0B5446801208A
:10509000676888401E46C2F3801327EA00078B40EA
:1050A0003B43636090FAA0F7B7FA87F7D4F808C0DB
:1050B0004FF0030E7F000EFA07F72CEA070C90FA68
:1050C000A0F7B7FA87F7C2F3C1137F00BB4043EAEA
:1050D0000C03A36090FAA0F3B3FA83F3E7685B00D4
:1050E0000EFA03F327EA030790FAA0F3B3FA83F367
:1050F00002F030055B00C2F341229A403A43202D72
:10510000E26016D107292BDC90FAA0F3226A2BB3B8
:10511000B3FA83F39B000F2101FA03F322EA03029F
:1051200090FAA0F3B3FA83F39B0006FA03F3134358
:10513000236290FAA0F3B3FA83F3226890FAA0F006
:105140005B000321B0FA80F02D0901FA03F340005F
:1051500022EA030385401D432560F0BD2B46D9E7B5
:10516000030A616A93FAA3F282B1B2FA82F2920060
:105170000F2793FAA3F3B3FA83F307FA02F29B0023
:1051800021EA02029E4016436662D2E72A46EEE713
:1051900038B5044690030D46134617D591070ED532
:1051A0005A072ED55022D8060BD542F400721903A7
:1051B0001AD5616801234968AB408B610DE010226C
:1051C000F1E79906F3D542F48062F0E7DA0313D5EC
:1051D000D80613D4C3F340139A026068002329460B
:1051E000FFF753FF002038BD5B03F6D50121A9402E
:1051F0002046FFF714FFF0E73022EEE74FF400728D
:10520000EBE76FF08500EEE770B50B46896821B1DA
:1052100001255E680C68854001B970BD8A682A4026
:1052200002D04B68304698471CB1236821461C4683
:10523000F2E72346FAE7F8B51F46044640680E46F3
:105240001546FFF722FF112F07D101212B0501FA87
:1052500006F104D563685B6899610020F8BD2046BB
:10526000FFF7DDFEF9E730B50368136005790468E0
:1052700004EBC504A34202D36FF0010030BD5C799A
:105280008C4201D00833F0E70020F7E74368C1F310
:105290004B101B6801F01F01C05801238B400342D3
:1052A00014BF0123002313700020704710B543681A
:1052B000C1F34B101A6801F01F01845801238B4081
:1052C00023438350002010BD10B54368C1F34B1435
:1052D000186801F01F01235801228A4023EA0203C3
:1052E0002350002010BD38B504460D46FFF7DEFF01
:1052F00029462046FFF7E8FF002038BD0020704710
:1053000082B003680193019B43680193019B02B043
:10531000704708B54368186803681A0701D5FFF796
:10532000EFFF03689B0643BF43680B7000204FF0FC
:10533000FF3008BD10B54068026813681B06FCD535
:105340004FF01002EFF3118382F31288BFF36F8FD7
:1053500002681468240604D483F31188BFF36F8FA6
:10536000EAE7516083F31188BFF36F8F10BD08B572
:1053700041680B681A681868C0071868C2F3C00251
:1053800048BF42F002028007186848BF42F004029A
:105390004007186848BF42F02002C00542BF6FF4C2
:1053A000807042F008021860D00702D50868FFF745
:1053B000A7FF930702D50868FFF7A2FF500702D5A1
:1053C0000868FFF79DFF930602D50868FFF798FF6E
:1053D000104608BDF0B546683368186810F08000C4
:1053E00010D04FF01003EFF3118783F31288BFF34F
:1053F0006F8F0023DCB2A242204604DC87F31188C1
:10540000BFF36F8FF0BD3568D5F800C01CF0800F7A
:1054100003F10103F2D0085D6860EBE770B5456801
:105420000024E0B2824203DD2B681E68B60600D479
:1054300070BD5B680B54286803681B0701D5FFF734
:105440005FFF0134EDE743681A6802F10C0353E88B
:10545000003F43F0400302F10C0040E80031002916
:10546000F3D1704743681A6802F10C0353E8003F18
:1054700023F0400302F10C0040E800310029F3D191
:10548000704743681B68186810F080001CBFD8681C
:10549000C0F38010704743681B681868C0F3801021
:1054A000704743681A6802F10C0353E8003F43F069
:1054B000200302F10C0040E800310029F3D17047CD
:1054C00043681A6802F10C0353E8003F23F02003FD
:1054D00002F10C0040E800310029F3D17047436825
:1054E0001B681868C0F34010704743681B681A684F
:1054F000910602D5DA68920607D4186810F04000C9
:1055000004D0D868C0F38010704701207047012094
:1055100070470369C3E904127047026913690BB14C
:1055200051691847704708B5002225201146FCF73D
:10553000FDFABDE808402520FCF7EABA08B50022CC
:1055400026201146FCF7F2FABDE808402620FCF7B9
:10555000DFBA03691B680B6043681B68DB6803F4F0
:10556000C063B3F5806F2FD0A3F5C06CDCF10003EE
:1055700043EB0C030B7143681B681B6903F4405336
:10558000B3F5805F22D0B3F5405F21D0002B0CBF74
:10559000012303234B7143681B68DA68DB68D2047C
:1055A00003F4C06316D5002B14BF032304238B71AF
:1055B00043681B685B6903F44073A3F54072534270
:1055C0005341CB71002070470223D3E70023E1E76A
:1055D0000223DFE7002B14BF02230323E7E7704712
:1055E00040B1C368587810F001001EBF1878B0FAB7
:1055F00080F0400970474FF01002EFF3118382F3FF
:105600001288BFF36F8FFEE7FFF75EBBFFF751BB5A
:10561000EFF30580003818BF012070476FF0570086
:10562000704700207047FEF7A1BA08B54FF010028E
:10563000EFF3118382F31288BFF36F8FFCF72CFA1C
:10564000F4E73AB18A4205D3C0E90212C0E900008A
:10565000002070476FF015007047026801238B40EF
:1056600022EA0303036022FA01F000F00100704710
:1056700020B100221146883000F0CDB8704738B50F
:1056800004460D4610220021FFF71EFB656038BD61
:1056900013B5019008464FF01003EFF3118483F324
:1056A0001288BFF36F8F01A9FEF760F884F31188A9
:1056B000BFF36F8F02B010BD10B5FFF7E9FF041EF6
:1056C00009DD4FF01003EFF3118083F31288BFF36D
:1056D0006F8F00F08AF8204610BDD0E900321360C9
:1056E0005A600023C0E90033704708B5FFF7F5FFA3
:1056F000437B23F0020343730023836008BD10B58E
:1057000001464FF01003EFF3118483F31288BFF3C7
:105710006F8F10F80B3C13F0280F0DD151F8103C8F
:1057200018380BB1FFF7E1FF11F80B3C23F014031D
:1057300001F80B3CFEF71EF984F31188BFF36F8F5D
:1057400010BD38B504460D46FEF748F9637B43F0BB
:1057500002036373E5B1A5602B689D4209D16B68B4
:10576000C4E900531C606C6012E06A689342F6D092
:105770001B68002BF3D094F90E2093F90E108A4287
:10578000F3D09142F1DD5A68C4E9003214605C60E4
:1057900038BD10B54FF01003EFF3118483F3128876
:1057A000BFF36F8FFEF7E6F884F31188BFF36F8FB6
:1057B00010BD38B54FF01003EFF3118583F3128855
:1057C000BFF36F8F0468A0420DD034B12046FFF7BD
:1057D0008CFF04F1180000F041F885F31188BFF345
:1057E0006F8F204638BD0024F7E7034620B9EFF35A
:1057F00005820AB9FCF7DAB983F31188BFF36F8F1A
:1058000070474FF01003EFF3118083F31288BFF35A
:105810006F8FFFF7EABF38B54FF01003EFF3118534
:1058200083F31288BFF36F8F0468A04212D09CB13B
:10583000A16762612046FFF758FF04F1180000F0ED
:105840000DF82046FEF796F8012085F31188BFF386
:105850006F8F38BD0020F8E72046F6E710B54FF00F
:105860001002EFF3118482F31288BFF36F8F036885
:105870003BB1FEF7D7FA002084F31188BFF36F8F96
:1058800010BD6FF01500F7E770B504460D464FF0F8
:105890001003EFF3118683F31288BFF36F8FFEF7C7
:1058A00099FA012807DDA04205DBA0422946A8BFDE
:1058B0002046FDF741FB86F31188BFF36F8F70BD63
:1058C000FEF7B6BB7047000004ABFF7F010000008D
:1058D000E512010800000000BB43010800000000C1
:1058E0008125010868590108FB4C0108805901080D
:1058F0002D290108985901082D290108B0590108DE
:105900002D290108C85901082D290108E05901086D
:105910002D290108F85901082D290108105A0108FC
:105920002D290108285A01082D290108405A01088B
:10593000FD520108585A0108012C0108705A01084B
:10594000012C0108885A0108C12E0108000000003E
:1059500065400108000000008B4E0108A05A0108B4
:10596000E126010800000000FC68010800000000BA
:10597000840000200201002000000000D45D010826
:10598000DE680108000000000000000000010020A7
:10599000FC020020CE5D0108D4690108A45F010863
:1059A00044600108060100207C030020C65D010858
:1059B000E2690108B85F010844600108080100209D
:1059C0008C030020BE5D0108F0690108CC5F01086E
:1059D000446001080A0100209C030020B65D010814
:1059E000FE690108E05F0108446001080C01002025
:1059F000AC030020AE5D01080C6A0108F45F0108E9
:105A0000446001080E010020BC030020A65D0108CF
:105A10001A6A0108086001084460010810010020AA
:105A2000CC0300209E5D0108286A01081C60010863
:105A30004460010812010020DC030020965D01088B
:105A4000366A010830600108446001081401002032
:105A5000EC0300208E5D0108446A0108946001088F
:105A6000986001081601002000000000825D010816
:105A7000286B0108A860010838610108180100209E
:105A8000B4000020785D0108386B0108F06001085F
:105A9000386101081A010020CC0000206E5D010869
:105AA000AE69010800000000705F010804010020D9
:105AB000A0000020685D010800000000774B01088D
:105AC00000000000774B010800000000774B010840
:105AD00000000000774B010800000000774B010830
